:020000040800F2
:1000000000000C20FD2200080D220008112200082B
:1000100015220008192200081D2200084D2300089F
:100020000000000000000000000000002122000885
:100030002522000800000000292200082D220008C7
:100040004D2300084D2300084D2300084D230008D0
:100050004D2300084D2300084D2300084D230008C0
:100060004D2300084D2300084D2300084D230008B0
:100070004D2300084D2300084D2300084D230008A0
:100080004D2300084D2300084D2300084D23000890
:100090004D2300084D2300084D2300084D23000880
:1000A0004D2300084D2300084D2300084D23000870
:1000B000000000004D2300084D2300084D230008D8
:1000C0004D2300084D2300084D2300084D23000850
:1000D0004D2300084D2300084D2300084D23000840
:1000E0004D2300084D2300084D2300084D23000830
:1000F0004D2300084D2300084D2300084D23000820
:100100004D2300084D2300084D2300084D2300080F
:100110004D2300084D2300084D2300084D230008FF
:100120004D2300084D2300084D2300084D230008EF
:100130004D2300084D2300084D2300084D230008DF
:100140004D2300084D2300084D2300084D230008CF
:100150004D2300084D2300084D2300084D230008BF
:100160004D2300084D2300084D2300084D230008AF
:100170004D2300084D2300084D2300084D2300089F
:100180004D2300084D2300084D2300084D2300088F
:100190004D2300084D2300084D2300084D2300087F
:1001A0004D2300084D2300084D2300084D2300086F
:1001B0004D230008000000004D2300084D230008D7
:1001C0004D230008000000004D2300084D230008C7
:1001D0004D2300084D2300084D2300084D2300083F
:1001E0004D2300084D2300084D2300084D2300082F
:1001F00000000000000000004D2300084D2300080F
:100200004D2300084D2300084D2300084D2300080E
:100210004D2300084D2300084D2300084D230008FE
:100220004D2300084D2300084D2300084D230008EE
:080230004D2300084D230008D6
:100238000348044B834202D0034B03B1184770476D
:10024800680000206800002000000000064B0749F5
:10025800C91A891048BF0131491003D0044B0BB1AA
:1002680001481847704700BF680000206800002058
:100278000000000010B5064C237843B9FFF7D8FFFB
:10028800044B13B10448AFF300800123237010BD61
:100298006800002000000000D46A000808B5044B7C
:1002A8001BB104490448AFF30080BDE80840CDE71E
:1002B800000000006C000020D46A00080F4B70B5E5
:1002C8000F4DAB42A3EB050607D0B610002401344E
:1002D80055F8043B9847A642F9D80A4D06F0F6FBB4
:1002E800094B5E1BAB424FEAA60606D00024013438
:1002F80055F8043B9847A642F9D870BD406C0008F1
:10030800406C0008406C0008446C000870B5860713
:1003180047D0541E002A3ED0CAB2034601E0013C31
:1003280039D303F8012B9D07F9D1032C2CD9CDB271
:100338000F2C05EB052505EB054535D9A4F1100C67
:1003480003F1100E1A462CF00F064FEA1C1CB64497
:10035800C2E90055C2E9025510327245F8D10CF1D4
:10036800010214F00C0F04F00F0C03EB021213D06F
:10037800ACF1040323F003030433134442F8045B91
:100388009342FBD10CF003042CB1C9B21C4403F80E
:10039800011BA342FBD170BD64461346002CF4D167
:1003A800F9E703461446C0E71A46A446E0E700BF4B
:1003B800014B1868704700BF0000002088420ED922
:1003C8008B1883420BD900EB020C002A6ED06246D0
:1003D80013F801CD994202F801CDF9D170470F2ADF
:1003E8000FD8034602F1FF3C002A5FD00CF1010C44
:1003F800013B8C4411F8012B614503F8012FF9D119
:10040800704740EA01039B0751D1A2F1100301F1A3
:10041800200C70B523F00F0501F1100E00F1100447
:100428001B09AC445EF8105C0EF1100E103444F851
:10043800205C5EF81C5C44F81C5C5EF8185C44F8B0
:10044800185C5EF8145CE64544F8145CEAD10133A4
:1004580012F00C0F02F00F0C01EB031100EB031369
:1004680029D0ACF1040C1C1F8E462CF003064FEA71
:100478009C0C1E445EF8045B44F8045FB442F9D156
:100488000CF1010402F0030203EB840301EB840185
:1004980002F1FF3C4AB10CF1010C013B8C4411F80C
:1004A800012B614503F8012FF9D170BD704702F1A6
:1004B800FF3C03469AE76246EAE700BF0EB400B580
:1004C80082B0816803AB53F8042B019300F060F805
:1004D80002B05DF804EB03B0704700BF0FB40849E1
:1004E80000B583B0086804AB816853F8042B019306
:1004F80000F04EF803B05DF804EB04B0704700BF9D
:10050800000000209368013B002B936011DA10B4BF
:100518009469A34209DB0A2907D01368581C1060A4
:10052800084619705DF8044B70475DF8044B00F0FD
:1005380057B91368581C106008461970704700BFF7
:100548009BB1F8B5134406460F46541E5D1E01E0E4
:10055800AC4208D03A4614F8011F3046FFF7D2FFE4
:10056800431CF5D1F8BD0020F8BD0020704700BF3E
:10057800936810B514461BB918460023636010BD74
:1005880000F07AF90023A3600023636010BD00BF68
:100598002DE9F04F8B469FB016461C46824618B18F
:1005A800036A002B00F00381BBF80C30180740F1F8
:1005B8009880DBF81030002B00F0938000237D4FEB
:1005C8004FF0010805940B9343F22003ADF8313046
:1005D800337835464BB1252B07D02A4615F8013F0D
:1005E8000BB1252BF9D1A91B60D1002B71D00023A9
:1005F8004FF0FF320135069309938DF85B301C9359
:10060800CDE9072305E0C01B254608FA00F003439F
:1006180006932C460522384614F8011B01F012F9FE
:10062800069B26460028EED1D90602D520228DF851
:100638005B201A0702D52B228DF85B2029782A29FE
:1006480059D1059A111D1268002A0591C0F28980B6
:10065800099269782E2962D0574C0322204601F06E
:10066800F1F830B1001B4022069B0136824013434B
:10067800069316F8011B062250488DF8301001F039
:10068800E1F8002873D04E4B002B5AD005AC4D4BE7
:100698005A4606A950460094AFF300808146B9F146
:1006A800FF3F16D00B9B4B440B9391E7013ECDF8CF
:1006B80008900395894674183546164601E0A54208
:1006C80046D05A4615F8011F5046FFF71BFF013068
:1006D800F5D1BBF80C305B060AD40B981FB0BDE807
:1006E800F08F5946504600F045FD00283FF466AFAC
:1006F8004FF0FF30F2E7A1F13002092A55D8099BE3
:1007080000E00134217803EB830302EB4303A1F1FA
:100718003002092AF5D92E29264609939CD17178E9
:100728002A292ED1059BB21C191D1B68002B079383
:100738000591B8BF4FF0FF33B1781646B8BF07939D
:100748008AE7059B073323F0070308330593A9E7D6
:1007580049460B9BDDF808900B44039D0B93737877
:1007680043E7524243F002030992069371E705A852
:10077800144B5A4606A90090504600F093FE814655
:100788008DE7A1F1300200230136092A07933FF6CD
:1007980063AF03EB830316F8011F02EB4303A1F1D8
:1007A8003002092AF5D9079356E72E4652E700F09A
:1007B800CDFAF9E6FC6A0008046B0008086B00082B
:1007C800000000004905000810B4044C13460A460E
:1007D800014620685DF8044BFFF7DABE00000020F0
:1007E800F8B50D460646144610B1036A002B37D0FB
:1007F800A269A389A2601A0719D52369BBB1226827
:10080800EDB26169D31A2F46994220DD0133A16800
:100818000139A160511C2160157062699A420DD09E
:10082800A389DB0701D50A2D08D03846F8BD214633
:10083800304600F09FFC38B92369E0E7214630468E
:1008480000F03CFB0028F0D04FF0FF37EDE72146E1
:10085800304600F033FB0028F6D122680123D6E7A2
:1008680000F074FAC4E700BF024B0A460146186854
:10087800FFF7B6BF000000209368002B00F0F98056
:10088800B1F90CC01CF0080F2DE9F04F904683B069
:1008980081460C4631D00B697BB31CF00207D8F8AF
:1008A800006038D00027D4F828B0216ADFF8C4A245
:1008B8003D4655452B463A46484628BF5346C5B19E
:1008C800D847002840F3CB80D8F8083007442D1AC1
:1008D8001B1AC8F80830002B00F0B78055452B4686
:1008E800D4F828B03A46216A28BF53464846002D16
:1008F800E6D1D6E900750836DBE72146484600F020
:1009080039FC002840F0B080B4F90CC0D8F8006079
:100918001CF00207C6D11CF0010A64D123685746AF
:10092800A16818468B46002F59D01CF4007F00F0B0
:10093800B680B9420A4600F2E2801CF4906F30D0CB
:1009480021695D1A636913EB430348BF01334FEA1A
:10095800630B6B1C3B445A465B4501D99B461A46C0
:100968001CF4806F00F0EA801146484600F00CFB4A
:10097800002800F0F9802A462169009000F05CFC0C
:10098800A289009B22F4906242F08002A281581949
:10099800C4F814B0ABEB05053A46BB462361A56025
:1009A800206051460092FFF709FDA16823683D4683
:1009B800009AA1EB0B0100271A44A1602260D8F825
:1009C8000830AA445B1BC8F80830002B3DD02368C8
:1009D800A168B4F90CC018468B46002FA5D1D6E9FA
:1009E80000A708369DE73846BB463D460097002DD0
:1009F80041D0002846D0009AA168AA4263692068BD
:100A080028BF2A4603EB010A2169884202D95245C8
:100A180000F38580934275DC5A46216A4846A76AE6
:100A2800B847B0F1000A1ADD009BB3EB0A03009344
:100A38000FD00120D8F80830D344A5EB0A05A3EB62
:100A48000A03C8F80830002BD1D1002003B0BDE854
:100A5800F08F2146484600F031FA0028EAD0B4F970
:100A68000C3043F04003A3814FF0FF3003B0BDE8E2
:100A7800F08F00207047756833460836002DFAD08D
:100A8800D3F800B02A460A21584600F0DBFE0028B9
:100A980067D00130A0EB0B031A460093ACE722693C
:100AA8009A4214D36269BA4211D86FF00043A56A1A
:100AB800216A4846BB4228BF3B4693FBF2F302FB40
:100AC80003F35246A847051EC9DD7F1B77E7B942E5
:100AD800184628BF39460D4651462A46FFF76EFC90
:100AE800A1682368491B2B44A16023600029ECD12D
:100AF8002146484600F0E2F90028E6D0AFE7BB46B9
:100B08003A464EE759460192FFF758FC019AA36806
:100B180092469B1AA36023681344236084E75946CE
:100B28005246FFF74BFC236821464846534423604E
:100B380000F0C4F900283FF477AF90E7484600F08A
:100B4800F1FB034600287FF422AF2169484600F0F4
:100B58009BFAB4F90C300C2223F08003C9F800206A
:100B68007FE76A1C009247E70C22B4F90C30C9F8F9
:100B7800002076E700FCFF7F00207047024A034907
:100B8800034800F0D5BA00BF50000020C50E000889
:100B9800040000200C4B4168994210B5044601D06E
:100BA80000F08CF9A168094B994202D0204600F068
:100BB80085F9E168064B994204D02046BDE810400B
:100BC80000F07CB910BD00BF84000020EC000020BC
:100BD80054010020002070472DE9F8432A490025D8
:100BE8002A4C04230822DFF8B890C4F8381104F11D
:100BF8005C002946DFF8AC80254F264EE36025606F
:100C08006566A561C4E90155C4E90455FFF77EFB93
:100C1800214B0822294604F1C40063672567C4F8FC
:100C2800CC50C4F880502663C4E90849C4E90A874F
:100C3800C4E91A55C4E91E55FFF768FB04F16803B7
:100C480029460822C4F8883004F59670134BC4F876
:100C5800D850C4F8DC30C4F83451C4F8E850C4E9BA
:100C68002398C4E92576C4E93455C4E93855FFF713
:100C78004DFB04F1D003C4E93D98C4E93F76C4F8BC
:100C8800F030BDE8F88300BF850B00088400002021
:100C980095190008BD19000809000100120002009A
:100CA8002D19000855190008F8B5254B0646D3F844
:100CB8003831002B3DD0234FD7E90134013B04D50F
:100CC8001DE05A1C04F1680419D0B4F90C50013B1A
:100CD800002DF6D11C4B0822294604F15C006566FC
:100CE800E3602560A561C4E90155C4E90455FFF72F
:100CF8000DFBC4E90D55C4E912552046F8BD3D6801
:100D08000DB12F46D8E74FF4D671304600F03CF9C4
:100D1800044688B1042305600C302946254640F86E
:100D2800083C4FF4D072A060FFF7F0FA3C602F4601
:100D3800C2E7FFF751FFBEE70C2338603360DCE7FA
:100D480084000020500000200100FFFF036A03B167
:100D58007047044B044AD3F838310262002BF7D1AC
:100D68003AE700BF840000209D0B0008704700BFD1
:100D7800704700BF024A0020024900F0D9B900BFFD
:100D880050000020810B0008024A0020024900F0B0
:100D9800CFB900BF50000020DD0B0008B1F90C30BE
:100DA8002DE9F0411E070C4680463DD44A68002ACA
:100DB80055DDE56A002D34D00022D8F80060216A9C
:100DC800C8F8002013F4805256D101234046A847A2
:100DD800451C024665D0B4F90C30E56A216A58070B
:100DE80005D56368D21A636B0BB1236CD21A002342
:100DF8004046A847431C41D0002363602369236011
:100E0800A389DF0400D56065616BC8F8006041B153
:100E180004F14403994202D0404600F035F900231A
:100E280063630020BDE8F0810E69002EF9D09B07AE
:100E38000D680E600CBF4B690023AD1B8B600BE087
:100E48002B463246216A4046A76AB847B0F1000CE3
:100E5800A5EB0C05664406DD002DF1DCE1E70A6C24
:100E6800002AA6DCDDE7B4F90C3043F040034FF06C
:100E7800FF30A381BDE8F081626DB0E7D8F80010BB
:100E8800B4F90C301D29F0D80B4ACA40D507ECD567
:100E98000022626022692260DA04B5D50029B2D046
:100EA800B2E7D8F80030002B95D01D2B01D0162BB7
:100EB800D9D1C8F80060B4E7010040200B69B3B18C
:100EC80010B5044682B008B1036A5BB1B1F90C30C1
:100ED80013B9002002B010BD204602B0BDE8104092
:100EE800FFF75CBF0191FFF731FF0199EEE70020A2
:100EF800704700BFB8B10E4A38B503690446156893
:100F08002BB10DB12B6A53B1B4F90C300BB90020D9
:100F180038BD21462846BDE83840FFF73FBF284680
:100F2800FFF714FFF0E7034A0349044800F000B94B
:100F38000000002050000020C50E0008040000201A
:100F480070B5104E05460C463368B3B121462846A5
:100F580000F0D6FC431C0CD0C41C24F00304A042AF
:100F680005D0211A284600F0CBFC013001D02046DC
:100F780070BD4FF0FF34204670BD194600F0C0FC2C
:100F88003060E3E7C00100202DE9F843CD1C064698
:100F980025F0030508350C2D38BF0C25002D2EDB58
:100FA800A9422CD8DFF8DC8000F0BEFBD8F804207A
:100FB8007AB1144603E0636822461C464BB12368A5
:100FC8005B1BF8D40B2B1ED89442636853D0536034
:100FD80007E029463046FFF7B3FF431C04461DD0FF
:100FE8000560304600F0A2FB04F10B00231D20F041
:100FF8000700C21A01D01B1AA350BDE8F8830C23BE
:1010080033600020F9E761199442256014BF5160EC
:10101800C8F80410635163684B60E2E7D8F80470BD
:101028001FB33C467F68002FFBD123683946304602
:1010380004EB030900F064FC814516D123683046AF
:10104800ED1A2946FFF77CFF01300ED02368D8F847
:1010580004202B442360536883B1A34203D01A466B
:101068005B689C42FBD10023B1E70C233046336018
:1010780000F05CFBC5E7C8F80430B2E7C8F80470B4
:10108800AFE700BFC001002000293AD038B551F8B9
:10109800043C0C1F0546002BB8BFE41800F044FBC5
:1010A800224A1368D3B1A34214D81A465B680BB11D
:1010B800A342FAD911685018A04223D02ED821682B
:1010C8006018834211D0636054602846BDE83840F8
:1010D80000F02CBB2168601883420DD0284663605D
:1010E8001460BDE8384000F021BB18685B6808440C
:1010F800C4E900035460E8E718685B6808442060A6
:10110800ECE7704720680144501811608342DCD135
:10111800D3E900040144C2E90014D6E70C232846A9
:101128002B60BDE8384000F001BB00BFC4010020BF
:101138002DE9F8434FF00009074688461646D6E9D8
:101148000154013D0FD4A389012B08D9B4F90E30FD
:1011580021463846013302D0C04749EA0009013D1B
:1011680068346B1CEFD13668002EE8D14846BDE8DC
:10117800F88300BF38B52F4B05460C461B6813B1E2
:101188001A6A002A45D0B4F90C30180716D5226916
:10119800F2B113F0010107D0616900204942A06053
:1011A800A1613AB1002038BD980758BF6169A160B4
:1011B800002AF7D1190638D4104638BDD9062CD5DF
:1011C8005A0712D4226943F00803A381002AE0D108
:1011D80003F42071B1F5007FDBD02146284600F0EA
:1011E800A7FAB4F90C302269D3E7616B51B104F165
:1011F8004402914204D02846FFF746FFB4F90C3068
:10120800002262630021226923F02403C4E900213B
:10121800D9E71846FFF79AFDB5E7092243F04003DE
:101228002A60A3814FF0FF3038BD43F04003A3810B
:10123800F8E700BF00000020844641EA000313F0ED
:10124800030349D1403A23D30B6803604B684360DA
:101258008B688360CB68C3600B6903614B6943612A
:101268008B698361CB69C3610B6A03624B6A436212
:101278008B6A8362CB6AC3620B6B03634B6B4363FA
:101288008B6B8363CB6BC36340304031403ADBD216
:1012980030320BD30B6803604B6843608B68836004
:1012A800CB68C36010301031103AF3D20C3205D33A
:1012B80051F8043B40F8043B043AF9D2043208D010
:1012C800D2071CBF11F8013B00F8013B01D30B8882
:1012D80003806046704700BF082A13D38B07B1D03C
:1012E80010F00303AED0C3F10403D21ADB071CBF0E
:1012F80011F8013B00F8013BA4D331F8023B20F878
:10130800023B9FE7043AD9D3013A11F8013B00F8B0
:10131800013BF9D20B7803704B7843708B7883705C
:10132800604670472DE9F041144641B30AB30646BA
:101338000D4600F043FB8442074602D8B4EB500F39
:1013480013D821463046FFF71FFE804650B1BC42F5
:101358002246294628BF3A46FFF76EFF29463046FF
:10136800FFF792FE4046BDE8F081A8464046BDE83A
:10137800F081A046FFF788FE4046BDE8F08111469F
:10138800BDE8F041FFF700BE2DE9F84F92461F4631
:101398000A690C468B680646DDF828909A42B8BF61
:1013A8001A46CAF8002091F8433013B10132CAF83E
:1013B8000020226891065DD5DAF800300233CAF8B9
:1013C8000030226812F0060F11461BD1E1689942DD
:1013D80066DD4FF0000804F1190B05E0E568DAF85E
:1013E8000030ED1A45450CDD01235A463946304692
:1013F800C847013008F10108F0D14FF0FF30BDE8CF
:10140800F88F216894F84330003B18BF01238A06FF
:101418000AD5E1185A1C30200233224481F84300CF
:1014280094F8451082F8431004F1430239463046D7
:10143800C8470130E1D02368DAF8005003F006030A
:101448002169042BD4E902201BD08A4220DD4FF009
:101458000008521A90441A34002501E0454517DA6D
:101468000123224639463046C847013005F10105B7
:10147800F4D1C2E712F0060F0DD0003B18BF0123CC
:10148800D2E7401B8A4220EAE078E2DC0028E2DC6E
:101498000020BDE8F88FDAF80030E168994298DC5E
:1014A8001146AFE72DE9F047174684B00A7E0C468F
:1014B800064698460C9D01F1430C002A35D0A2F14E
:1014C8005803D9B2202969D8202B67D8DFE813F050
:1014D800E600660066006600660066006600660054
:1014E800660066006600AC00700066006600660074
:1014F80066007000660066006600660021008300D2
:10150800C60066006600B6006600830066006600D6
:10151800EC002B682268181D6169286010061B689A
:1015280002D4520600F1E08019600023E1462361ED
:101538003B4603AA21463046CDF80080FFF724FF3A
:10154800013020D04A46236939463046C047013029
:1015580019D02368E0689B07DDF80C9018D548453A
:1015680016DD002504F1190A04E0E068A0EB090380
:10157800AB420DDD0123524639463046C0470130A3
:1015880005F10105F1D14FF0FF3004B0BDE8F08757
:101598004845B8BF484604B0BDE8F087012004F1CB
:1015A800420984F842200023206184F84330BFE7D1
:1015B8002A682368111D1806296002D4590600F10B
:1015C80095801068014600286268C0F293805448EC
:1015D8004FF00A0E15E020682B6810F0800F53F8C2
:1015E800041B02D1400648BF89B26F2A4C482B60C1
:1015F80014BF4FF00A0E4FF0080E0023626884F8FB
:101608004330002AA26051DB236823F004032360DF
:1016180000294BD1002A7BD1E146BEF1080F56D0F4
:10162800ACEB0903236183E72A6804F1420901202E
:10163800111D1268296084F84220B4E72B68002144
:101648006268181D2860D3F80090484600F0FAF840
:10165800002863D0A0EB09006060A4E7236843F08A
:101668002003236078222F4884F845202A6813F045
:10167800800F52F8041B03D113F0400F18BF89B232
:101688002A60DA0702D543F02003236019B92368DA
:1016980023F0200323604FF0100EAEE758232048B4
:1016A80084F845302368E1E72368DBE77546E146BF
:1016B8000A46B1FBF5F305FB131AAA42194610F8BE
:1016C8000A3009F8013DF3D2BEF1080FA8D123680A
:1016D800DD07A5D5626823699A42A1DC302309F1A8
:1016E800FF3989F800309BE719801EE7B2F900102E
:1016F800084668E72D20002AA26084F8430002DB30
:1017080023F0040323600A2549420548AE46CEE784
:10171800037804F1420984F842307EE7606842E7C2
:10172800106B0008246B0008704700BF704700BFAB
:10173800B1F90C3070B50C46990796B007D504F18D
:10174800470301222360C4E9043216B070BDB4F91E
:101758000E10054600292ADB6A4600F061F90028C8
:1017680023DB4FF480612846019EFFF70DFC00281B
:1017780031D0A38906F470464FF48062206043F0AC
:101788008003B6F5005F2061A3816261DDD1B4F901
:101798000E10284600F0A2F80028D6D0A38923F01E
:1017A800030343F00103A381CFE7B4F90C3013F02E
:1017B800800F284614BF40254FF480652946FFF75F
:1017C800E3FB40B1A389206043F08003C4E904052A
:1017D800A38116B070BDB4F90C309A05B5D423F0C6
:1017E800030304F14702012143F002032260C4E924
:1017F8000421A381A9E700BF70B50C46B1F90E100A
:1018080096B0154600291E460FDB6A4600F008F917
:1018180000280ADB019B4FF4806203F47043A3F5B0
:101828000053B3FA83F35B0907E0A289002312F09F
:10183800800F14BF40224FF48062002033602A607A
:1018480016B070BD5FFA81FC810744D00346511E73
:1018580022B909E09A0709D0013905D3184601339E
:1018680002786245F6D17047002070471846032970
:101878000CD80029F8D00346014401E08B42F3D08C
:10188800184613F8012B6245F8D1704710B50CEBD8
:101898000C24024604EB044402E00439032915D958
:1018A800104652F8043B6340A3F1013E2EEA0303BD
:1018B80013F0803FF1D00346014401E08B4208D089
:1018C800184613F8012B6245F8D110BD10460029BF
:1018D800F1D1002010BD1146C9E700BF38B500227C
:1018E800064D044608462A6000F0B6FC431C00D0AA
:1018F80038BD2B68002BFBD0236038BDC801002001
:1019080038B50022064D044608462A6000F0A8FCB7
:10191800431C00D038BD2B68002BFBD0236038BD9A
:10192800C801002010B50C46B1F90E1000F062F89D
:10193800002803DB636D0344636510BDA38923F4AA
:101948008053A38110BD00BF002070472DE9F041EE
:101958000C46B1F90C101F460546CB0516460BD4AC
:1019680021F480513B4632462846A181B4F90E1035
:10197800BDE8F04100F080B8B4F90E10022300224F
:1019880000F064F8B4F90C10EAE700BF10B50C4693
:10199800B1F90E1000F05AF8421CB4F90C3004D01A
:1019A80043F480536065A38110BD23F48053A38161
:1019B80010BD00BFB1F90E1000F00AB851F8043C90
:1019C800002BA3F1040000DB70470B581844704744
:1019D80038B50022064D044608462A6000F032FC5D
:1019E800431C00D038BD2B68002BFBD0236038BDCA
:1019F800C801002038B50C4684461146074D1A46E2
:101A08000023204664462B6000F00EFC431C00D0E7
:101A180038BD2B68002BFBD0236038BDC8010020DF
:101A280070B50C460346084D0026204611461C4654
:101A38002E6000F00BFC431C00D070BD2B68002BFF
:101A4800FBD0236070BD00BFC801002038B50C462C
:101A580084461146074D1A460023204664462B60EB
:101A680000F0FCFB431C00D038BD2B68002BFBD0DA
:101A7800236038BDC801002038B50C46844611469D
:101A8800074D1A460023204664462B6000F0A4F94F
:101A9800431C00D038BD2B68002BFBD0236038BD19
:101AA800C801002053B94AB9002908BF00281CBF43
:101AB8004FF0FF314FF0FF3000F08CB9ADF1080C5A
:101AC8006DE904CE00F006F8DDF804E0DDE9022354
:101AD80004B070472DE9F04F099D0E4604460F46A5
:101AE800002B47D18A429446B2FA82F35AD943B1BD
:101AF80002FA03FCC3F120029F409C4020FA02F244
:101B080017434FEA1C461FFA8CFE220CB7FBF6F16E
:101B180006FB117701FB0EF042EA0742904208D912
:101B28001CEB020201F1FF3702D2904200F23C8125
:101B38003946121AA4B2B2FBF6F006FB102200FBDB
:101B48000EFE44EA0244A64508D91CEB040400F141
:101B5800FF3202D2A64500F22A81104640EA01402F
:101B6800A4EB0E0400211DB1DC400023C5E90043AD
:101B7800BDE8F08F8B4205D90DB1C5E90001002100
:101B88000846F5E7B3FA83F100294FD1B342C0F014
:101B98000281824240F2FF800846002DE8D0C5E964
:101BA8000047E5E7002B40F0AF808A1A4FEA1C4E49
:101BB8001FFA8CF70121B2FBFEF60EFB1620220C51
:101BC80042EA004207FB06F090420FD91CEB0202E2
:101BD80006F1FF382CBF4FF001094FF00009904281
:101BE80003D9B9F1000F00F0DC804646121AA4B2FE
:101BF800B2FBFEF00EFB102200FB07F744EA02449A
:101C0800A7420FD91CEB040400F1FF322CBF4FF0A0
:101C1800010E4FF0000EA74203D9BEF1000F00F0ED
:101C2800C9801046E41B40EA06409CE7C1F1200445
:101C38008B4006FA01FC00FA01FE22FA04F7E6409E
:101C48008A401F4320FA04F34FEA174843EA0C037B
:101C58001FFA87FC4FEA1349B6FBF8F008FB106639
:101C680049EA064600FB0CF9B1450ED9BE1900F148
:101C7800FF3A2CBF4FF0010B4FF0000BB14503D9D1
:101C8800BBF1000F00F0A2805046A6EB09061FFA30
:101C980083F9B6FBF8F308FB136603FB0CFC49EA6F
:101CA8000646B4450ED9BE1903F1FF382CBF4FF0D4
:101CB80001094FF00009B44503D9B9F1000F00F04C
:101CC8008280434643EA0040A6EB0C06A0FB028C48
:101CD80066454346E14602D307D1C64505D2B8EB6F
:101CE80002036CEB070C0138E1465DB1BEEB030261
:101CF80066EB090606FA04F422FA01F3CE401C4307
:101D0800C5E90046002133E702FA03FCC3F12002CB
:101D180099409C40D6404FEA1C4E20FA02F21FFA26
:101D28008CF7B6FBFEF00A430EFB1066110C41EA75
:101D3800064100FB07F68E420ED91CEB010100F1AB
:101D4800FF382CBF4FF001094FF000098E4202D92D
:101D5800B9F1000F34D04046891B92B2B1FBFEF6B0
:101D68000EFB161142EA014206FB07F191420ED919
:101D78001CEB020206F1FF382CBF4FF001094FF0AF
:101D88000009914202D9B9F1000F16D04646521AFD
:101D980046EA00410FE7841A66EB03020120174662
:101DA800FBE6023E624421E702396244C1E664442C
:101DB8000238D3E66444023834E7023E6244E6E778
:101DC80002386144C8E7023B3E447BE702383E44A0
:101DD8005BE700BF704700BF101E29DD4FF060436E
:101DE80001EB000CD3F8802E0131D2071DD5D3F8B2
:101DF800002ED20719D500B51A6811F801EC1AB9E6
:101E080000BF1A68002AFBD083F800E061450AD0B9
:101E1800D3F8802E0131D207F8D5D3F8002ED20797
:101E2800EAD46145F4D15DF804FB6145DAD1704725
:101E3800704700BF0000000030B59FB0602200214D
:101E480006A8FEF763FA00234FF44030CDE90033CB
:101E5800CDE90233CDE9043300F060FD08B172B674
:101E6800FEE703461793012302224FF480719FED8A
:101E7800167B16931B9310240A2306A818938DED3E
:101E88001C7BCDE91422CDE919220A940692099106
:101E980001F02AF8034608B172B6FEE71F250324AD
:101EA8000022CDE90233002368460421CDE900541D
:101EB800CDE9042300F0B2FE08B172B6FEE71FB008
:101EC80030BD00BFAFF300800C0000000000000030
:101ED8002DE9F041644B654D5B6892B02B6000F0D2
:101EE80083FAFFF7A9FF00F0A5FD022000F068FDC6
:101EF80008B172B6FEE75E4BD3F88C2042F00102BF
:101F0800C3F88C20D3F88C2002F001020192019AC8
:101F1800D3F88C2042F00202C3F88C20D3F88C301E
:101F280003F002030293029B00F0EEFC08B172B6C4
:101F3800FEE7504C504BC4E9010023604FF47A731C
:101F4800CDE90700CDE90400CDE90B00CDE90D008E
:101F5800CDE90F00069003900A902061A0610990D6
:101F68002046E36003F084FD08B172B6FEE74FF443
:101F78008053204606A9069304F01CF808B172B6EF
:101F8800FEE7204603F052FE08B172B6FEE7039062
:101F9800059003A9204604F0BFF908B172B6FEE720
:101FA8000422602600270C900AA92046CDE90A677A
:101FB8000E9204F02DF9064608B172B6FEE72046E7
:101FC80000F096F80C234FF4E1322C4CC4E904637A
:101FD8002B4B2046C4E90266C4E90666C4E90866D4
:101FE8006260A662236004F091FB014608B172B6F4
:101FF800FEE7204604F0E6FC014608B172B6FEE7AB
:10200800204604F021FD08B172B6FEE71B4804F033
:10201800BBFC08B172B6FEE70421164803F0E2FEE5
:10202800114A184B566818481E602B68DFF85C8008
:10203800F61A3146FEF752FA0F4D002440F2E937FE
:10204800AC630120013400F00DFABC42F8D14FF422
:102058007A74AC63012000F005FA013CF9D23146EC
:102068004046FEF73BFAE8E7001000E0D001002008
:10207800000C02466C02002000080040D801002035
:1020880000380140CC010020EC6A0008F06A000822
:1020980072B6FEE70420074B82B0D3F894200243BF
:1020A800C3F89420D3F8943003400193019B02B005
:1020B80000F0EAB9000C02460A4B02689A4200D0C6
:1020C8007047094B82B0D3F89C2042F00402C3F851
:1020D8009C20D3F89C3003F004030193019B02B0C9
:1020E800704700BF00080040000C024600000000D6
:1020F800002310B5144A016888B09142CDE9023333
:10210800CDE90433069301D008B010BD02249FED39
:102118000C7B0E4B0E48D3F88C2002A92243C3F83F
:102128008C20D3F88C308DED027B23400193019BEA
:10213800069400F05FFA08B010BD00BFAFF300804E
:10214800800000000200000000080040000C024669
:10215800000402420000000010B500210446B8B097
:10216800C02208A8CDE90211CDE904110691FEF7B5
:10217800CDF8214B22689A4201D038B010BD012217
:10218800002308A8CDE9082301F0FAFE40BB9FED23
:10219800166B9FED177B0724184B1948D3F8A4201A
:1021A80002A942F48042C3F8A420D3F8A42002F480
:1021B80080420092009AD3F88C2042F00102C3F8C2
:1021C8008C20D3F88C308DED026B03F00103019362
:1021D8008DED047B019B069400F00CFA38B010BD1D
:1021E800FFF756FFD3E700BF00060000020000001B
:1021F800000000000000000000380140000C02460A
:1022080000000242FEE700BFFEE700BFFEE700BF96
:10221800FEE700BFFEE700BF704700BF704700BF82
:10222800704700BF00F00CB970B5161E07DD0C46EC
:102238008D19AFF3008004F8010BA542F9D130469F
:1022480070BD00BF4FF0FF30704700BF4FF4005320
:1022580000204B60704700BF012070470020704786
:102268000D49034610B50D4A0D4C0868121B20B1E4
:102278000344934207D80B6010BD0A4C2046034420
:1022880093420C60F7D9FEF793F80C2203464FF0FF
:10229800FF301A6010BD00BFB802002000000C20FB
:1022A80000040000C00200200022012110B44FF0F9
:1022B80000640E48D0F8883043F47003C0F88830C2
:1022C8000B4B1960DA611A625A62196821F0A85139
:1022D80021F4102119609A62196821F4802119608B
:1022E8001A6584605DF8044B704700BF00ED00E09C
:1022F800000C0246DFF834D0FFF7D6FF002103E0D8
:102308000B4B5B58435004310A480B4B42189A4216
:10231800F6D30A4A02E0002342F8043B084B9A42EB
:10232800F9D3FDF7CBFFFFF7D3FDFEE700000C2044
:10233800486C0008000000206800002068000020A9
:10234800C0020020FEE7000070B5244E3278EAB1E2
:102358004FF0E0231C69054614F0040418D04FF42C
:102368007A71B1FBF2F21E4B1C68B4FBF2F4204602
:1023780000F0D8F8044648B9024629464FF0FF3025
:1023880000F094F8174B20461D6070BD012070BD09
:1023980000F016F901280DD0022815D00028E6D142
:1023A8004FF4FA5231780E4BB2FBF1F21C68B4FBD1
:1023B800F2F4DCE74FF47A7231784FF4FA43B2FB67
:1023C800F1F2B3FBF2F4D2E74FF47A7231784FF4BA
:1023D8000043B2FBF1F2B3FBF2F4C8E7600000205F
:1023E8005C00002064000020114A10B51368032027
:1023F80043F48073136000F047F800F081FB034654
:102408000C4A0D48126A0D4902F00F02825C042042
:10241800D3400B6000F096F80020FFF795FF10B14D
:102428000124204610BD0446FFF734FE204610BDA7
:1024380000200240000C0246806B00085C0000206F
:10244800034A044B11681B780B441360704700BFA4
:10245800BC02002060000020014B1868704700BFD4
:10246800BC02002038B50446FFF7F6FF631C05469A
:1024780002D0044B1B781C44FFF7EEFF401BA04220
:10248800FAD338BD600000204FF6FF0C064903025E
:10249800CA6803F4E06302EA0C02134343F0BF6323
:1024A80043F40033CB60704700ED00E01B4B00B5F0
:1024B800DB68C3F30223C3F1070EBEF1040F03F177
:1024C800040C28BF4FF0040EBCF1060F1CD9A3F171
:1024D800030C4FF0FF3303FA0CF322EA03024FF028
:1024E800FF3303FA0EF321EA030303FA0CF3134351
:1024F8001B010028DBB20ADB00F1604000F56140F7
:1025080080F800335DF804FB00229446E7E7044AAC
:1025180000F00F00024413765DF804FB00ED00E0C4
:10252800FCEC00E0431EB3F1807F09D24FF0E022BB
:10253800002053619061136943F0030313617047EE
:1025480001207047042813D8DFE800F02A1A031284
:1025580013004FF0E0210B69184A23F004030B61C4
:10256800D2F8E03023F4400343F40003C2F8E0302B
:1025780070474FF0E022136943F00403136170477A
:102588004FF0E0210B690D4A23F004030B61D2F8E8
:10259800E03023F4400343F48003C2F8E03070478E
:1025A8004FF0E0210B69054A23F004030B61D2F8D0
:1025B800E03023F44003C2F8E0307047000C0246D4
:1025C8004FF0E0231B695B0710D4094BD3F8E000F8
:1025D80000F44000B0F5800F06D0A0F50000B0FA76
:1025E80080F0400940007047012070470420704780
:1025F800000C02462DE9F04FD1F800B085B0BBF1D0
:10260800000F00F0B480BB4B8A46984200F0BE80B1
:10261800B94B002203EA90234FF00108039329E005
:102628000668B9F1010F05EA060C03F0030606FA7D
:1026380007F646EA0C06066001D9112B53D18668C5
:102648001B0906EA050CDAF80C609340BE4046EA1E
:102658000C068660466826EA01010B434360C168A0
:10266800DAF808302940BB400B43C36001323BFA1B
:1026780002F37CD008FA02F11BEA010EF6D003241B
:10268800DAF80430570023F0100604FA07F5022E92
:102698006FEA050503F1FF39C2D106FA07F4D60837
:1026A80000EB860602943446DAF8106002F0070C54
:1026B8004FEA8C0C06F00F0606FA0CF601960F2668
:1026C80006FA0CFC266AB9F1010F26EA0C0C019EE9
:1026D80046EA0C0626620668029C06EA050646EAF1
:1026E80004060660ABD0122BA9D0032BBED0C1685C
:1026F8000D40DAF80810B9402943DD00C160B5D5AE
:102708000F2422F0030505F18C4502F0030105F5BD
:102718000835C9002E6E04FA01F7039C26EA07065D
:1027280004FA01F1314329667449DC026FEA0E05A7
:10273800096828D42940714C9F02216061681FD420
:1027480029406E4C9E036160D4F8841015D429404A
:102758006A4CC4F88410D4F88010DC030AD42940E9
:10276800664B0132C3F880103BFA02F382D105B000
:10277800BDE8F08F41EA0E01F2E741EA0E01E7E712
:1027880041EA0E01DDE74EEA0101D4E70023012703
:102798005A4E07FA03F111EA0B0559D04FF00F0909
:1027A8000468DAF8042024EA0104554951F833C0D2
:1027B80002F0010199402143016052494FEADC0EC1
:1027C80051F833100CF0070401EB8E0EDEF8208070
:1027D800A40009FA04F928EA09084FF00B0909FAD4
:1027E80004F444EA08044FF00308CEF820400C68CB
:1027F8004FEA4C0E08FA0EF824EA0809022404FAF3
:102808000EF444EA09040C60541E012C6FEA08080F
:1028180001D9112A23D18C68120907FA0CF502FA9A
:102828000CF208EA040CDAF80C4004FA0EF444EA54
:102838000C048C604C6824EA050422434A60CC6886
:10284800DAF8082008EA040402FA0EF22243CA6001
:1028580001333BFA03F29CD105B0BDE8F08F122A90
:10286800D9D0032AF4D0CC6808EA0408DAF808407A
:1028780004FA0EF444EA0804CC60D100E8D54FF01D
:102888000F084FF4803423F0030101F18C4101F566
:10289800083103F0030CD1F860E04FEACC0C08FAD9
:1028A8000CF82EEA080E04FA0CF444EA0E040C663E
:1028B800EC43316812F4801F0CBF2140294331607A
:1028C800716812F4001F0CBF214029437160D6F8CB
:1028D800841012F4003F0CBF21402943C6F884102D
:1028E800D6F88010D20354BF21402943C6F880107F
:1028F800AEE700BF000002467F7F2F00002002469F
:10290800946B0008906B0008034A0020136843F09A
:1029180001031360704700BF00040340214AD36BD2
:1029280003F44033834234D04FF0320CD368B0F50F
:10293800803F23F4E02343EA000388BF43F4802365
:10294800D360194B194A1B681648A2FB03139B094D
:102958000CFB03F3A2FB0323C1689B090A0403F1E0
:10296800010307D41A4600E08AB1C168013A090494
:10297800FAD562B10B49CA6B100406D400E033B132
:10298800CA6B013B1204FAD50BB100207047032033
:102998007047B3F5803FF8D9D368002043F480230B
:1029A800D3607047000802465C000020D34D6210D7
:1029B800024BD86B00F44030704700BF0008024655
:1029C8003221194B194A1B68A2FB03C39B0901FB5F
:1029D80003F3A2FB032316499B098A68013380B9D4
:1029E80022F002028A60CA6B900702D40020704766
:1029F8002BB1CA6B013B9207FAD4002BF6D1032006
:102A0800704742F002028A60CA6B9007EED4CA6B24
:102A1800013B9207F1D4002BF1D0CA6B013B92071E
:102A2800F9D5002BE2D1EAE75C000020D34D621013
:102A380000080246024AD36A43F00103D362704792
:102A48000008024630B52C4D0446D5F8943083B0C2
:102A58005B072BD5FFF7ACFF20F48033B3F5003FBD
:102A680007D0B4F1805F17D2B0F5803F33D103228D
:102A780004E0B4F1805F2CBF002201221F490B68DB
:102A880023F00F0313430B60086800F00F00801A4F
:102A980018BF012003B030BDB4F1005F1ED910BBD0
:102AA800B4F1405F8CBF00220122E7E7D5F89430EB
:102AB80043F00403C5F89430D5F8943003F00403C8
:102AC8000193019BFFF774FFD5F8943023F00403BA
:102AD800C5F89430C0E7012003B030BDB4F1805F81
:102AE80003D00122CAE70022C8E7B0F5803F0CBF37
:102AF80001220222C2E700BF000C02460020024069
:102B0800414AD369916A13F00C030BD00C2B5FD0A8
:102B1800D2693E4802F00C02042A72D0082B18BF72
:102B280000207047384A9168090254BFD2F8F4204F
:102B38009268374954BFC2F30332120F51F822008A
:102B4800002B5FD0304910B58A6A8B6A8C6AC3F350
:102B58000323013307EE103A8B6BC4F3001EC3F353
:102B6800CC030EFB03F307EE903A02F0030CBCF122
:102B7800020FF8EEE77A02D0BCF1030F2FD14B6BAE
:102B8800F7EE006AC3F3080306EE103ADFED215AA8
:102B9800B8EEC66AB8EEC77A9FED1F5A36EE266AB7
:102BA800C5EE076AB0EE467A174BA7EEA57A5B6BBF
:102BB80026EE877AC3F30663013307EE903AF8EE00
:102BC800E77AC7EE276AFCEEE67A17EE900A10BDA0
:102BD80001F003010129A5D00020D369B2E74B6BAE
:102BE80005EE900AC3F3080306EE103AB8EE655AEC
:102BF800F7EE006AB8EEC66AB8EEC77ADFED055A96
:102C0800CCE77047704700BF000C02460024F40070
:102C1800386B0008000000390024744B002800F0CD
:102C28000E819F4A2DE9F0411368044603F00F0313
:102C38008B420D4682B00DD2136823F00F030B436D
:102C48001360136803F00F038B4203D0012002B016
:102C5800BDE8F0812368DF060BD5924960694A6AAE
:102C680002F07002904204D94A6A22F070020243CC
:102C78004A621E070DD58B4920690A6A120902F0BB
:102C88007002904205D90A6A22F4E06242EA001210
:102C98000A6258070BD58349E0680A6A02F0700295
:102CA800904204D90A6A22F0700202430A62990724
:102CB80003F0010230D57B4EA068316A01F00F01A4
:102CC800884204D9316A21F00F0101433162002A98
:102CD80000F081806368032B00F0B380714A022BF7
:102CE800126800F08480002B40F0BE805707ADD5F5
:102CF8006C4E41F28838F26922F003021343F36103
:102D0800FFF7AAFB63680746032B5BD0022B77D03B
:102D1800002B40F08A807EE0002ADBD160490A68F7
:102D280002F00F02AA4209D90A6822F00F022A43C8
:102D38000A600A6802F00F02AA4287D159070BD528
:102D48005849E0680A6A02F07002904204D20A6A9E
:102D580022F0700202430A621A070DD55149206910
:102D68000A6A120902F07002904205D20A6A22F435
:102D7800E06242EA00120A62DB060BD5494A616941
:102D8800536A03F07003994204D2536A23F0700324
:102D98000B435362FFF7B4FE0346424A4249126AA4
:102DA800424802F00F02895C0068414ACB40136038
:102DB80002B0BDE8F041FFF7C7BAFFF74DFBC31BF0
:102DC800434538D8F36903F00C030C2BF5D123687D
:102DD8009807A3D5A06833490A6A02F00F02824215
:102DE8009CD90A6A22F00F0202430A6296E792030C
:102DF8003FF57EAF2AE7FFF72FFBC01B40451AD8E7
:102E0800F36903F00C03082BF5D1E0E7FFF724FB87
:102E1800C01B40450FD8F36913F00C0FF6D1D6E765
:102E2800FFF71AFBC01B404505D8F36903F00C03F4
:102E3800042BF5D1CBE7032002B0BDE8F0810120D7
:102E48007047184BD3F89420520711D5FFF704FBAD
:102E5800184B0646DB685B0341D4124B1B6899018B
:102E68007FF5F4AE636843E756057FF5EFAE3FE7BD
:102E7800D3F8942042F00402C3F89420D3F8943095
:102E880003F004030193019BFFF7E6FA094B06469A
:102E9800DB685F031BD54FF00108064F11E000BF48
:102EA80000200240000C0246806B000864000020ED
:102EB8005C00002000080246FFF7CEFA801B0228BB
:102EC800B9D8FB685804F7D5B8F1000FC5D0054A42
:102ED800D2F8943023F00403C2F89430BDE74FF0E1
:102EE8000008DAE7000C0246002800F0A4822DE969
:102EF800F041AE4A0368D569966ADA06044684B09A
:102F080005F00C0506F0030631D5002D00F0B2815E
:102F18000C2D00F0AC81E369A44F002B00F02B824C
:102F28003B6843F001033B60FFF796FA804606E0F2
:102F3800FFF792FAA0EB0800022800F20E823B6825
:102F48005A07F5D5BB6843F40003BB60BB68626AE7
:102F580023F070431343BB60B2F1404F216AFB6812
:102F6800C0F0678323F01F030B43FB602368DF0770
:102F780031D5082D626800F0BD810C2D00F0B781B5
:102F8800B2F5803F00F05B82B2F5A02F00F03C83E1
:102F9800B2F5A81F00F0FB82844F3B6823F480330E
:102FA8003B603B6823F480233B603B6823F4801339
:102FB8003B60002A40F04882FFF74EFA804606E060
:102FC800FFF74AFAA0EB0800642800F2C6813B68C4
:102FD8009903F5D423689A070FD5042D40F0C481CE
:102FE800E368002B00F07F81704A2169136923F49C
:102FF800F81343EA01431361236818074DD56B4B57
:10300800D3F89420510700F1B4810125D3F8942016
:1030180042F00402C3F89420D3F8943003F0040378
:103028000193019B624EB36ADA0740F186816369B6
:10303800002B00F05D825D4EA269D6F8F03003F0F7
:1030480080518A4210D003F04061B1F1006F00F066
:103058004A81580100F1B1825449D1F8F03023F087
:1030680080531343C1F8F030504ED6F8F03043F097
:103078008063C6F8F030FFF7EFF9074605E0FFF781
:10308800EBF9C01B052800F26881D6F8F0301A0168
:10309800F5D5002D40F0898223685D075ED5434B46
:1030A800D3F89420500700F1C8810125D3F8942063
:1030B80042F00402C3F89420D3F8943003F00403D8
:1030C8000293029B3A4EB36AD90740F18C82A368F7
:1030D800DA0740F1D3815E0740F15182334BD3F8D0
:1030E800F02042F00402C3F8F020D3F8F02042F0B8
:1030F8000102C3F8F020FFF7AFF941F2883806461D
:103108002A4F05E0FFF7A8F9801B404500F225810A
:10311800D7F8F0309807F5D5A36813F0800FD7F8E3
:10312800F03000F0C78243F08003C7F8F03041F276
:1031380088381E4F05E0FFF78FF9801B404500F2E5
:103148000C81D7F8F0301905F5D535B1174AD2F802
:10315800943023F00403C2F8943023689A0616D5F5
:10316800E36A124D002B00F0DC812B6843F4805396
:103178002B60FFF771F9064605E0FFF76DF9801B34
:10318800022800F2EA802B689B04F6D523681D0606
:103198001AD5236B054D002B00F0DF812B6843F413
:1031A80080432B60FFF758F9064609E0000C0246F9
:1031B80000080246FFF750F9801B022800F2CD8074
:1031C8002B681804F6D523685A062BD5636B002B99
:1031D80000F05782A54B9A6842F400029A609A68F8
:1031E800A16A22F070620A439A60D4E90812B2F127
:1031F800404FC0F03582DA6822F01F020A43DA60D5
:103208009A4D2B6843F010032B60FFF725F906460B
:1032180005E0FFF721F9801B022800F29E802B6849
:103228009B06F6D5A36B03B3904DEA6902F00C0236
:103238000C2A00F05582022B2B6823F080732B6038
:1032480000F0A682FFF708F9044605E0FFF704F945
:10325800001B022800F281802B689901F6D4AB6A22
:1032680023F4E02323F00303AB6200203CE0012EAB
:103278007FF451AEE369002B35D07C4B606A9A68C5
:10328800170256BFD3F8F4309B681B0403F0704351
:10329800984240F28380002D00F0C481734BB0F156
:1032A800404F9A6842F400029A609A6822F070428D
:1032B80042EA00029A60216ADA6880F049810028AF
:1032C800C0F2F281B0F1804F2BBF22F4F84222F411
:1032D800782242EA812242EAC132DA6081E0FFF7CD
:1032E800B1FB00287DD0012004B0BDE8F081032E99
:1032F8007FF446AE002AF6D09D077FF57EAEE368E0
:103308005A4D002B00F085802B6843F480732B60A6
:10331800FFF7A2F8064604E0FFF79EF8801B022894
:103328001BD82B685B05F7D52B69226923F4F813A2
:1033380043EA02432B6123685FE6B36A43F0010363
:10334800B362FFF789F80746B36ADB073FF56FAE4C
:10335800FFF782F8C01B0228F6D9032004B0BDE8A5
:10336800F0819A077FF549AE0C2DC8D1022EC6D13F
:1033780036E6002556E63B6823F001033B60FFF77D
:103388006BF8804605E0FFF767F8A0EB0800022815
:10339800E3D83B685B07F6D42368E8E5334BB0F124
:1033A800404F9A6842F400029A609A6822F070428C
:1033B80042EA00029A60216ADA6880F0C480002834
:1033C800C0F24881B0F1804F2BBF22F4F84222F4BA
:1033D800782242EA812242EAC132DA60002D3FF4C3
:1033E8007EAFFFF78DFB0346204A2149126A02F09F
:1033F8000F02895C1F4ACB4010681F4A1360FEF712
:10340800A3FF00287FF470AF2368D907A9D56268A5
:10341800B3E52B6823F480732B60FFF71DF806468D
:1034280004E0FFF719F8801B022896D82B685F057F
:10343800F7D42368E1E501207047002542E60B4AEE
:10344800136843F480331360FFF706F8DFF81C8035
:10345800074605E0FFF700F8C01B64283FF67DAF7C
:10346800D8F800309803F5D5B4E500BF000C024643
:10347800806B0008640000205C000020974ED6F89E
:10348800F02022F00102C6F8F020D6F8F02022F051
:103498000402C6F8F020002B7FF42DAEFEF7DCFF07
:1034A80041F28838074605E0FEF7D6FFC01B4045C5
:1034B8003FF653AFD6F8F0309B07F5D4D6F8F03086
:1034C80018067FF542AED6F8F03041F2883823F07E
:1034D8008003C6F8F030814E05E0FEF7BDFFC01B43
:1034E80040453FF63AAFD6F8F0301905F5D42CE64A
:1034F8007A4ED6F8F03023F0A053C6F8F030FEF735
:10350800ABFF074605E0FEF7A7FFC01B05283FF6FF
:1035180024AFD6F8F0301B01F5D4002D3FF4BCAD34
:1035280043E02B6823F480532B60FEF795FF064693
:1035380005E0FEF791FF801B02283FF60EAF2B68CF
:103548009F04F6D422E622F01F020A43DA6045E718
:1035580022F01F020A43DA6043E72B6823F4804312
:103568002B60FEF779FF064605E0FEF775FF801B26
:1035780002283FF6F2AE2B681904F6D423E6574A20
:10358800D2F8F03043F00103C2F8F030B3E5534B02
:103598001A6842F480221A601A6842F480121A608B
:1035A8001A6842F480321A604EE74C4AD2F89430D6
:1035B80023F00403C2F894306EE5D6F8F03023F017
:1035C800A053C6F8F030FEF747FF074605E0FEF7C0
:1035D80043FFC01B05283FF6C0AED6F8F0301901EE
:1035E800F5D4A26938E5B36A43F00103B362FEF784
:1035F80033FF0746B36ADB073FF569ADFEF72CFFDB
:10360800C01B0228F6D9A8E6344B1A6842F4802277
:103618001A601A6822F480121A601A6842F480321A
:103628001A6011E7FFF70EFA00287FF45CAE606AB3
:1036380034E6002AC0F2A480B2F1804F2BBF23F4F5
:10364800F84323F4782343EA812343EAC133FB6038
:1036580023688CE422F4787242EA4112DA60BDE60B
:10366800002AC0F21E81B2F1804FDA682BBF22F423
:10367800F84222F4782242EA812242EAC132DA6030
:10368800BEE5164D2B6823F010032B60FEF7E4FE11
:10369800064605E0FEF7E0FE801B02283FF65DAE19
:1036A8002B689F06F6D4BDE522F4787242EA4112EF
:1036B800DA6096E623F08003C7F8F03041F28838E4
:1036C800064F05E0FEF7C8FE801B40453FF645AEB5
:1036D800D7F8F0301A05F5D437E500BF000C0246DC
:1036E800012BAA6A686B3FF4FEADE36B02F003019D
:1036F80099427FF4F8AD236CC2F30321013B994250
:103708007FF4F1AD636C02F470429A427FF4EBAD42
:10371800A36CC0F30802013B9A427FF4E4ADE36C6A
:10372800C0F34622013B9A427FF4DDAD236DC0F31E
:103738000642013B9A427FF4D6AD636DC0F3066042
:10374800013B98427FF4CFAD594BE16D9A6BC2F3C0
:10375800CC028A423FF489AD9A6A22F010029A623A
:10376800FEF77AFE0546FEF777FEA842FBD0E26D2B
:103778004F4BD2009A639A6A42F010029A6274E53B
:1037880023F4787343EA4113FB602368FFF7EFBB28
:10379800FEF762FE064605E0FEF75EFE801B022885
:1037A8003FF6DBAD2B6813F00073F5D1D5F8942004
:1037B80056070CD40123D5F8942042F00402C5F82A
:1037C8009420D5F8942002F004020392039A394D0C
:1037D8003749EE68EA68DFF8E0C022F48022EA6040
:1037E800886A676CE26B20F47F4020F003003A435C
:1037F8000243206C013842EA00228A62E06CA26C23
:10380800D1F834E0471E206D013AC2F308027F0266
:1038180001380EEA0C0CBFB2000442EA0C0200F4B4
:10382800FE003A430243606D0138000600F0FE4096
:1038380002434A638A6A22F010028A62E26DD20069
:103848008A638A6A42F010028A628A6AA06D22F04C
:103858000C02024374038A621ED433B1144AD2F8AC
:10386800943023F00403C2F89430114C236843F0D9
:1038780080732360FEF7F0FD054605E0FEF7ECFDDA
:10388800401B02283FF669AD23689801F6D5A36A64
:1038980043F48023A362E8E4EA6842F48022EA6001
:1038A800DBE7DA6822F4787242EA4112DA60A7E4C8
:1038B800000C02460008024600008080474A10B407
:1038C800D369916A13F00C0316D00C2B6AD0D26915
:1038D800434802F00C02042A02D0082B18BF00202B
:1038E8003E4B40491B6A404A03F00F03CB5C5DF82E
:1038F800044BD84010607047384A9168090254BF99
:10390800D2F8F4209268394954BFC2F30332120F37
:1039180051F82200002BE3D030498C6A8A6A04F0FF
:10392800030C8B6A8C6BC3F30013C4F3CC0404FB45
:1039380003F307EE903AC2F30322BCF1020FF8EE4C
:10394800E77A02F1010202D0BCF1030F31D14B6BCF
:1039580007EE102AC3F3080306EE103AF7EE006AE2
:10396800B8EEC66ADFED225AB8EEC77A9FED215A43
:1039780036EE266AC5EE076AB0EE467A174BA7EE12
:10398800A57A5B6B26EE877AC3F30663013307EEED
:10399800903AF8EEE77AC7EE276AFCEEE67A17EE79
:1039A800900A9DE701F003010129A5D00020D36901
:1039B800B2E707EE100A4B6BB8EE475AC3F3080399
:1039C80006EE103A07EE102AF7EE006AB8EEC66A5D
:1039D800B8EEC77ADFED065ACAE700BF000C024608
:1039E8000024F400806B00085C000020386B00089D
:1039F800000000390024744B494930B4CA69886A08
:103A080012F00C021CD00C2A6ED0CB6903F00C0308
:103A1800042B444B02D0082A18BF00234049424CCB
:103A28000A6A424802F00F02A25C30BCD34003602D
:103A38000A6A3F49C2F30212885C23FA00F0704711
:103A4800374B9968090254BFD3F8F4309B68394959
:103A580054BFC3F303331B0F51F82330002ADDD0C2
:103A68002F48846A816A826A856BC2F30012C5F3A3
:103A7800CC0C0CFB02F207EE902A04F00304C1F30D
:103A88000321022CF8EEE77A01F1010101D0032CA1
:103A980031D1436B07EE101AC3F3080306EE103A50
:103AA800F7EE006AB8EEC66ADFED235AB8EEC77AB9
:103AB8009FED225A36EE266AC5EE076AB0EE467AC0
:103AC800174BA7EEA57A5B6B26EE877AC3F30663DE
:103AD800013307EE903AF8EEE77AC7EE276AFCEE74
:103AE800E67A17EE903A99E700F003000128A7D08C
:103AF8000023CA69B4E707EE103A426BB8EE475A9A
:103B0800C2F3080206EE102A07EE101AF7EE006A52
:103B1800B8EEC66AB8EEC77ADFED075ACAE700BF43
:103B2800000C02460024F400806B00085C000020B2
:103B3800786B0008386B0008000000390024744BCB
:103B4800494930B4CA69886A12F00C021CD00C2AA0
:103B58006ED0CB6903F00C03042B444B02D0082A27
:103B680018BF00234049424C0A6A424802F00F023B
:103B7800A25C30BCD34003600A6A3F49C2F3022208
:103B8800885C23FA00F07047374B9968090254BFE4
:103B9800D3F8F4309B68394954BFC3F303331B0F80
:103BA80051F82330002ADDD02F48846A816A826A5E
:103BB800856BC2F30012C5F3CC0C0CFB02F207EEC6
:103BC800902A04F00304C1F30321022CF8EEE77AEB
:103BD80001F1010101D0032C31D1436B07EE101A1A
:103BE800C3F3080306EE103AF7EE006AB8EEC66AA9
:103BF800DFED235AB8EEC77A9FED225A36EE266AD1
:103C0800C5EE076AB0EE467A174BA7EEA57A5B6B4E
:103C180026EE877AC3F30663013307EE903AF8EE8F
:103C2800E77AC7EE276AFCEEE67A17EE903A99E74C
:103C380000F003000128A7D00023CA69B4E707EE03
:103C4800103A426BB8EE475AC2F3080206EE102A41
:103C580007EE101AF7EE006AB8EEC66AB8EEC77A31
:103C6800DFED075ACAE700BF000C02460024F40043
:103C7800806B00085C000020786B0008386B000837
:103C8800000000390024744B494930B4CA69886A75
:103C980012F00C021CD00C2A6ED0CB6903F00C0376
:103CA800042B444B02D0082A18BF00234049424C39
:103CB8000A6A424802F00F02A25C30BCD34003609B
:103CC8004A6A3F49C2F30212885C23FA00F070473F
:103CD800374B9968090254BFD3F8F4309B683949C7
:103CE80054BFC3F303331B0F51F82330002ADDD030
:103CF8002F48846A816A826A856BC2F30012C5F311
:103D0800CC0C0CFB02F207EE902A04F00304C1F37A
:103D18000321022CF8EEE77A01F1010101D0032C0E
:103D280031D1436B07EE101AC3F3080306EE103ABD
:103D3800F7EE006AB8EEC66ADFED235AB8EEC77A26
:103D48009FED225A36EE266AC5EE076AB0EE467A2D
:103D5800174BA7EEA57A5B6B26EE877AC3F306634B
:103D6800013307EE903AF8EEE77AC7EE276AFCEEE1
:103D7800E67A17EE903A99E700F003000128A7D0F9
:103D88000023CA69B4E707EE103A426BB8EE475A07
:103D9800C2F3080206EE102A07EE101AF7EE006AC0
:103DA800B8EEC66AB8EEC77ADFED075ACAE700BFB1
:103DB800000C02460024F400806B00085C00002020
:103DC800786B0008386B0008000000390024744B39
:103DD80070B5334C0646236823F080532360FEF702
:103DE8003BFB054604E0FEF737FB401B022854D88E
:103DF80023689A00F7D4236BD6E9001223F4706382
:103E080023F00303013A0B4343EA02232363606C64
:103E1800D6E90232234D511E3269013B0540C3F3F6
:103E280008034902013A89B22B43120402F4FE0244
:103E38000B43134372691A4D013A120602F0FE420F
:103E480013436364236BB26923F00C0313432363A6
:103E5800236B326A13432363236B23F0100323631A
:103E6800A36CF2696FF3CF0343EAC203A364236B25
:103E780043F010032363236843F080532360FEF765
:103E8800EBFA044604E0FEF7E7FA001B022804D820
:103E98002B689B00F7D5002070BD032070BD00BFC4
:103EA800000C02460000808070B5334C064623683B
:103EB80023F080632360FEF7CFFA054604E0FEF79F
:103EC800CBFA401B022854D823681A01F7D4E36AB6
:103ED800D6E9001223F4706323F00303013A0B437D
:103EE80043EA0223E362E06BD6E90232234D511E16
:103EF8003269013B0540C3F308034902013A89B21C
:103F08002B43120402F4FE020B43134372691A4D49
:103F1800013A120602F0FE421343E363E36AB26910
:103F280023F00C031343E362E36A326A1343E36248
:103F3800E36A23F01003E362236CF2696FF3CF03A3
:103F480043EAC2032364E36A43F01003E36223688D
:103F580043F080632360FEF77FFA044604E0FEF72F
:103F68007BFA001B022804D82B681B01F7D5002018
:103F780070BD032070BD00BF000C024600008080A9
:103F88002DE9F04703680446D80782B008D59D4953
:103F9800206DD1F8E02022F003020243C1F8E020AE
:103FA800990708D59749606DD1F8E02022F00C02F6
:103FB8000243C1F8E0205A0708D59249A06DD1F80C
:103FC800E02022F030020243C1F8E0201F0708D5A4
:103FD8008C49E06DD1F8E02022F0C0020243C1F81C
:103FE800E020DE0608D58749206ED1F8E02022F4CB
:103FF80040720243C1F8E0209D0608D58149606EF1
:10400800D1F8E82022F007020243C1F8E820580658
:1040180008D57C49A06ED1F8E02022F44062024322
:10402800C1F8E020190608D57649E06ED1F8E020FD
:1040380022F440520243C1F8E020DA0508D571495C
:10404800206FD1F8E82022F0C0020243C1F8E8202E
:104058005F0208D56B49606FD1F8E02022F4404236
:104068000243C1F8E0209E0508D56649A06FD1F843
:10407800E82022F440620243C1F8E8205D0508D533
:104088006049E06FD1F8E02022F440220243C1F8F1
:10409800E020180509D55B49D4F88000D1F8E8205C
:1040A80022F440720243C1F8E820990403F4005650
:1040B8001ED5D4F89020402A00F0358200F25482B0
:1040C800002A00F04882202A40F0548204F12C0093
:1040D800FFF77EFE0646236856B9D4F890200026DE
:1040E8004848D0F8E41021F0E0010A43C0F8E42081
:1040F8005A0439D5D4F89420B2F5007F00F019821B
:1041080029D8002A00F02082B2F5807F2BD104F153
:104118002C00FFF75DFE05462368002D40F0128253
:104128003849D4F89400D1F8E4201F0422F4E0625E
:1041380042EA0002C1F8E42019D4D8032DD5D4F8F6
:104148008820042A00F22C82DFE812F04A01450197
:10415800E4014A014A01B2F5407F00F0EF81B2F56F
:10416800806F00F0EB81012635461F04E5D5D4F8B1
:10417800A420B2F5005F00F0918140F2A18122F401
:104188008051B1F5804F00F08F81B2F5405F00F0AB
:104198008B810126D8033546D1D499031ED5D4F88E
:1041A8008C20B2F5003F00F0A48100F2E58142B115
:1041B800B2F5803F40F0E88112498A6A42F48032C1
:1041C8008A62002D40F056810E49D4F88C00D1F84F
:1041D800E82022F4E0220243C1F8E8205A0360D51F
:1041E800084BD3F89420570740F107814FF0000897
:1041F800054FBB6A43F00103BB62FEF72DF9814608
:104208000BE000BF000C024600080246FEF724F946
:10421800A0EB0903022B00F21E81BB6AD807F5D573
:10422800002D40F0BB81DFF83CA3D4F8BC20DAF8BD
:10423800F03013F4407327D0934225D0DAF8F01009
:10424800DAF8F03043F48033CAF8F030DAF8F030B6
:1042580023F48033CAF8F03021F44073C907CAF850
:10426800F03011D5FEF7F8F841F28839074605E035
:10427800FEF7F2F8C01B484500F2ED80DAF8F0309E
:104288009B07F5D5D4F8BC20B649D1F8F03023F413
:1042980040731343C1F8F0302368B8F1000F40F0C1
:1042A800E180DF021FD5D4F89C20B2F1006F00F046
:1042B800168100F26C814AB1B2F1806F40F06B81D7
:1042C80004F10800FFF7F0FD05462368002D40F0D3
:1042D800D380A449D4F89C00D1F8E02022F04062B1
:1042E8000243C1F8E02018030BD5D4F8982032F423
:1042F800805100F0A380B2F5005F00F09F80012696
:10430800354699020DD5D4F8A000B0F5804F00F0DD
:10431800B9809449D1F8E42022F480420243C1F8DC
:10432800E4201A0209D58F49D4F8B000D1F8E0206A
:1043380022F440120243C1F8E020DF0109D589497F
:10434800D4F8B400D1F8E02022F440320243C1F896
:10435800E020980109D58349D4F8B800D1F8E820BD
:1043680022F018020243C1F8E820590115D5D4F803
:10437800AC20B2F5001F00F08B80B2F5401F00F0B2
:10438800A780002D65D17749D4F8AC00D1F8E42096
:1043980022F440120243C1F8E4201A010BD5D4F8E4
:1043A8008420B2F1807F00F0AD80B2F1007F33D07D
:1043B800002A37D00126DB0009D56A4AD4F8A810AC
:1043C800D2F8E83023F400430B43C2F8E830304613
:1043D80002B0BDE8F08763498A6A42F480328A6293
:1043E800002D4DD15F49D4F88800D1F8E42022F09F
:1043F80007020243C1F8E420CFE6D3F894204FF037
:10440800010842F00402C3F89420D3F8943003F072
:1044180004030193019BEBE604F10800FFF744FD58
:104428000546236855BB4F49D4F88400D1F8E020ED
:1044380022F040720243C1F8E020BCE7002D56D1BB
:104448004848D0F8E41021F440510A43C0F8E42069
:1044580057E72E46A1E7032635462368B8F1000F33
:104468003FF41FAF3F49D1F8942022F00402C1F86D
:10447800942016E72E46B1E62E4634E72E469AE7F4
:104488002E468AE637498A6A42F480328A6240E7D1
:1044980034498A6A42F400328A6272E704F10800F9
:1044A800FFF702FD0546236885B92E49D4F8A40014
:1044B800D1F8E82022F4E0420243C1F8E8203CE6C3
:1044C80032F480527FF465AE002DEED02E4634E6ED
:1044D80004F10800FFF7E8FC2368054651E7214985
:1044E8008A6A42F400328A62002DC5D1F1E62E466E
:1044F80007E704F12C00FFF76BFC05462368002D45
:10450800B8D161E617498A6A42F400328A62002DFE
:10451800B4D188E704F12C00FFF75AFC054623685C
:10452800002DADD15EE70F48816A41F48031816288
:10453800D5E50C498A6A42F480328A623546002DF4
:104548003FF4EEAD2E4610E604F10800FFF7ACFC90
:1045580023680546E1E504F10800FFF7A5FC0646D7
:10456800B9E500BF000C0246602A3FF4B8AD802AC6
:104578003FF4B5AD0126BBE5B2F5403F3FF421AEAF
:10458800B2F5802F3FF41DAE0126354626E6B2F17E
:10459800406F3FF49BAE01263546A4E62E465CE705
:1045A80001263546F9E500BF534910B54C6B8A6AB8
:1045B8008B6A02F0030C8A6AC3F30323C2F3001E5A
:1045C8008A6BBCF1020FC2F3CC020EFB02F207EEBB
:1045D800902A03F10103B8EEE77A2CD0BCF1030F5F
:1045E80029D0C4F3080407EE904A8A68F8EEE76A0F
:1045F80012024CBF8A68D1F8F42040494CBF120F10
:10460800C2F3033207EE903A01EB8203B7EE006A79
:10461800D3ED005AF8EEE77A76EE866AF8EE655A38
:104628009FED375A85EEA76AF0EE667AE7EE057ACF
:1046380026EE277A1AE04A6BF7EE006AC2F3080200
:1046480006EE102A07EE903AB8EEC66AF8EEE77A58
:1046580036EE266A9FED2B5ADFED295AC5EE276AFA
:10466800F0EE467AE7EE257A26EEA77A224A936A92
:1046780013F4803310D0536BF7EE007AC3F346235C
:1046880006EE903AF8EEE66A76EEA76AC7EE267A64
:10469800FCEEE77A17EE903A174A0360936A13F430
:1046A800003310D0536BF7EE007AC3F3064306EEDF
:1046B800903AF8EEE66A76EEA76AC7EE267AFCEE3E
:1046C800E77A17EE903A0C4A4360936A13F4802312
:1046D80010D0536BF7EE007AC3F3066306EE903AF8
:1046E800F8EEE66A76EEA76AC7EE267AFCEEE77A77
:1046F80017EE903A836010BD000C0246386B000834
:10470800000000390024744B534910B5CC6BCA6AB9
:10471800CB6A02F0030CCA6AC3F30323C2F3001E78
:104728000A6CBCF1020FC2F3CC020EFB02F207EED8
:10473800902A03F10103B8EEE77A2CD0BCF1030FFD
:1047480029D0C4F3080407EE904A8A68F8EEE76AAD
:1047580012024CBF8A68D1F8F42040494CBF120FAE
:10476800C2F3033207EE903A01EB8203B7EE006A18
:10477800D3ED005AF8EEE77A76EE866AF8EE655AD7
:104788009FED375A85EEA76AF0EE667AE7EE057A6E
:1047980026EE277A1AE0CA6BF7EE006AC2F308021F
:1047A80006EE102A07EE903AB8EEC66AF8EEE77AF7
:1047B80036EE266A9FED2B5ADFED295AC5EE276A99
:1047C800F0EE467AE7EE257A26EEA77A224AD36AF1
:1047D80013F4803310D0D36BF7EE007AC3F346237B
:1047E80006EE903AF8EEE66A76EEA76AC7EE267A03
:1047F800FCEEE77A17EE903A174A0360D36A13F48F
:10480800003310D0D36BF7EE007AC3F3064306EEFD
:10481800903AF8EEE66A76EEA76AC7EE267AFCEEDC
:10482800E77A17EE903A0C4A4360D36A13F4802370
:1048380010D0D36BF7EE007AC3F3066306EE903A16
:10484800F8EEE66A76EEA76AC7EE267AFCEEE77A15
:1048580017EE903A836010BD000C0246386B0008D2
:10486800000000390024744B534910B54C6C0A6B96
:104878000B6B02F0030C0A6BC3F30323C2F3001E95
:104888008A6CBCF1020FC2F3CC020EFB02F207EEF7
:10489800902A03F10103B8EEE77A2CD0BCF1030F9C
:1048A80029D0C4F3080407EE904A8A68F8EEE76A4C
:1048B80012024CBF8A68D1F8F42040494CBF120F4D
:1048C800C2F3033207EE903A01EB8203B7EE006AB7
:1048D800D3ED005AF8EEE77A76EE866AF8EE655A76
:1048E8009FED375A85EEA76AF0EE667AE7EE057A0D
:1048F80026EE277A1AE04A6CF7EE006AC2F308023D
:1049080006EE102A07EE903AB8EEC66AF8EEE77A95
:1049180036EE266A9FED2B5ADFED295AC5EE276A37
:10492800F0EE467AE7EE257A26EEA77A224A136B4E
:1049380013F4803310D0536CF7EE007AC3F3462398
:1049480006EE903AF8EEE66A76EEA76AC7EE267AA1
:10495800FCEEE77A17EE903A174A0360136B13F4EC
:10496800003310D0536CF7EE007AC3F3064306EE1B
:10497800903AF8EEE66A76EEA76AC7EE267AFCEE7B
:10498800E77A17EE903A0C4A4360136B13F48023CE
:1049980010D0536CF7EE007AC3F3066306EE903A34
:1049A800F8EEE66A76EEA76AC7EE267AFCEEE77AB4
:1049B80017EE903A836010BD000C0246386B000871
:1049C800000000390024744B00B5A0F500430B43E8
:1049D80085B000F0DF8348F20103984271F10003CB
:1049E8001DD2A0F180030B4300F0FB83812871F1F5
:1049F800000348D2212871F1000380F0A88350EA0F
:104A0800010300F0D085013841F1FF31202871F110
:104A18000001C0F00481002005B05DF804FBA0F59A
:104A280080030B4300F01284BD4B984271F10003E0
:104A380054D2A0F500230B4300F03881B94B9842BB
:104A480071F1000380F09E80A0F500330B4300F065
:104A58005F82A0F580230B4300F0A681A0F580308B
:104A6800084318BF0020D7D1AF4BD3F8E43003F088
:104A78000703042B00F25086DFE813F05A025502B0
:104A88005F0264026702A0F500630B4300F02D810A
:104A980040F60103984271F100034CD2A0F500736F
:104AA8000B4300F0BC83A0F580630B4300F0DC816E
:104AB800A0F58070084318BF0020ADD19A4BD3F8F9
:104AC800E83003F0C003802B00F0FA8400F28284FF
:104AD80063BB05B05DF804EBFFF7D6B800F17C4383
:104AE8000B4300F03E81914B984271F100036DD267
:104AF80000F17F430B4300F0178300F17E430B4323
:104B080000F07481A0F50000084318BF002083D18D
:104B1800854BD3F8E03003F44013B3F5001F00F0E1
:104B2800C68400F27784002B00F0BD8305B05DF8E1
:104B380004EBFDF7E5BFA0F500530B4300F0CF8170
:104B4800A0F58040084318BF00207FF465AF764B7E
:104B5800D3F8E43003F4E063B3F5007F00F0E381B9
:104B680040F29383B3F5407F00F0E584B3F5806F9E
:104B780040F05C856C4B6E481B6813F4806F08BF6F
:104B8800002049E7A0F580130B4300F09281A0F5BF
:104B98000010084318BF00207FF43EAF624BD3F8E3
:104BA800E420520400F1F683D3F8E03003F04063C8
:104BB800B3F1006F00F0718300F28B84002B00F0DA
:104BC800E38401A8FFF7A0FD029825E700F17843E8
:104BD8000B4300F0B18000F17040084318BF00207B
:104BE8007FF41AAF504BD3F8E800D3F8F02000F464
:104BF8000040920740F1A183002800F08A84D3F88E
:104C0800F00010F000603FF407AF474BD3F8F030E6
:104C180013F0805F14BFFA204FF4FA40FCE61F2817
:104C28003FF6F9AE01A353F820F000BF7F5000080B
:104C3800455000081F4A0008095000081F4A00088C
:104C48001F4A00081F4A0008B74F00081F4A0008FB
:104C58001F4A00081F4A00081F4A00081F4A000888
:104C68001F4A00081F4A0008F35000081F4A00089E
:104C78001F4A00081F4A00081F4A00081F4A000868
:104C88001F4A00081F4A00081F4A00081F4A000858
:104C98001F4A00081F4A00081F4A00081F4A000848
:104CA8001F4A00081F4A0008AD5000081E4AD2F8E3
:104CB800E430126803F44053910402D5002B00F04D
:104CC8002284194A1268920403D5B3F5805F00F074
:104CD8009684154A106810F480603FF49DAEB3F5D1
:104CE800005F134818BF002096E60F49D1F8E82066
:104CF80012F4407240F00283086810F020003FF47C
:104D08008BAE8B681A024CBF8B68D1F8F430094A15
:104D18004CBFC3F30363C3F3032352F823007BE6BA
:104D28000100400001000800000C024601000004D8
:104D38000024F400386B0008AC4AD2F8E03012685E
:104D480003F04073920302D5002B00F0DF83B3F128
:104D5800807F00F0E283B3F1007F00F01E84002022
:104D68005AE6A24AD2F8E43003F44013B3F5001F20
:104D780000F0938200F24783002B3FF4D7AE10680F
:104D880010F020003FF448AE9368994A13F4000FDE
:104D9800964B15BF9B68D3F8F430C3F30363C3F392
:104DA800032352F8230037E6904AD2F8F030D2F8BD
:104DB800F02003F44073920703D5B3F5807F00F029
:104DC8000E848A4AD2F8F010090103D5B3F5007FA2
:104DD80000F0BB83854A106810F400303FF41CAE25
:104DE800B3F5407F834818BF002015E67F4BD3F802
:104DF800E83003F01803182B00F2888001A252F85B
:104E080023F000BFDB4A0008154F0008154F0008C3
:104E1800154F0008154F0008154F0008154F0008DA
:104E2800154F0008354B0008154F0008154F0008AE
:104E3800154F0008154F0008154F0008154F0008BA
:104E4800154F00087D4F0008154F0008154F000842
:104E5800154F0008154F0008154F0008154F00089A
:104E6800154F00088D4F0008604AD2F8E03013F45F
:104E7800402300F06781D2F8F020120103D5B3F582
:104E8800802F00F0A183594A1268510503D5B3F564
:104E9800002F00F01684554AD2F8F00010F00200F6
:104EA8003FF4BAADA3F54023B3FA83F35B09D80303
:104EB800B2E54E4BD3F8E03003F04063B3F1006F36
:104EC80000F0EB8100F2C082002B7FF47AAE474BF2
:104ED80049481B6813F4005F08BF00209CE5434B5A
:104EE800D3F8E43003F0E003402B1CD040F2CD812E
:104EF800602B00F01C83802B40F09E833B4B3F4887
:104F08001B6813F4806F08BF002085E5002083E547
:104F1800364BD3F8E83003F4E023B3F5003F0CD068
:104F280000F2148223B101A8FFF73EFB019873E554
:104F380005B05DF804EBFEF7C1BC01A8FFF794FCCF
:104F4800029869E54BF6803066E5284A106810F04B
:104F580020003FF461AD936818024CBF9368D2F803
:104F6800F430234A4CBFC3F30363C3F3032352F85B
:104F7800230051E51D4B21481B6813F4806F08BFBF
:104F8800002049E5194A106810F020003FF444ADAC
:104F9800936819024CBF9368D2F8F430144A4CBF96
:104FA800C3F30363C3F3032352F8230034E50F4A22
:104FB800D2F8E03013F0C00300F0C480402B3FF477
:104FC800B5AD1268520502D5802B00F09283074ACE
:104FD800D2F8F00010F002003FF41EADA3F1C003B8
:104FE800B3FA83F35B09D80316E500BF000C024649
:104FF800386B000820A10700006CDC020024F400D4
:10500800AB4AD2F8E03013F0300300F09B80102B4D
:105018003FF48CAD1268510502D5202B00F0668351
:10502800A34AD2F8F00010F002003FF4F5ACA3F167
:105038003003B3FA83F35B09D803EDE49C4AD2F852
:10504800E03013F00C037DD0042B3FF46FAD1268F1
:10505800500502D5082B00F04683954AD2F8F00097
:1050680010F002003FF4D8ACA3F10C03B3FA83F3B9
:105078005B09D803D0E48E49D1F8E02012F003028E
:1050880000F01181012A3FF451AD0B68580540F139
:10509800F581022A00F01883D1F8F000C0F340002F
:1050A800C003B9E48249D1F8E82012F007023FF4BE
:1050B80010AD012A3FF43AAD0B68590502D5022A12
:1050C80000F00E837A4BD3F8F0309B0702D5032A01
:1050D80000F015837649086810F020003FF49CAC76
:1050E800042A00F0DC82002096E4714AD2F8E0300D
:1050F80013F4407326D0B3F5807F3FF417AD1268E0
:10510800500503D5B3F5007F00F0E482684AD2F871
:10511800F00010F002003FF47FACA3F54073B3FA3F
:1051280083F35B09D80377E4614AD2F8E03003F4EB
:105138004033B3F5003F00F0B28100F23181002B1B
:105148007FF4F4AC05B05DF804EBFEF755BC4038CD
:10515800084318BF00207FF45FAC554AD2F8E0300E
:1051680013F44063EED0B3F5806F3FF4DFAC126800
:10517800520503D5B3F5006F00F0BE824C4A1068A3
:1051880010F020003FF448ACB3F5406F00F05782B0
:10519800002041E44649D1F8E82002F4E042B2F5A3
:1051A800805F3FF4C3ACB2F5005F00F0C881002A0D
:1051B8003FF4BEAEB2F5A04F00F0D1810B689B035F
:1051C80003D5B2F5405F00F0A482394B186810F49B
:1051D80080603FF421ACB2F5804F364818BF0020FC
:1051E8001AE4334AD2F8E03013F44053AAD0B3F5A6
:1051F800805F3FF49BAC1268500503D5B3F5005FA0
:1052080000F065822A4A106810F020003FF404ACD0
:10521800B3F5405F00F023820020FFF7FDBB24496F
:10522800D1F8E82012F4406248D1086810F0200054
:105238003FF4F2AB8B68180240F1B8818B68C3F376
:1052480003631D4A52F82300FFF7E6BB184AD2F859
:10525800E03013F440433FF475AFB3F5804F3FF4AB
:1052680065AC1268500503D5B3F5004F00F03582E0
:105278000F4A106810F020003FF4CEABB3F5404F52
:1052880000F0FD810020FFF7C7BB002B7CD001A8F0
:10529800FFF7EAFA0198FFF7BFBB01A8FFF784F907
:1052A8000298FFF7B9BB05B05DF804EBFEF748BC00
:1052B800000C02460024F400386B0008D1F8F030E6
:1052C80013F0006FBC4B03D0B2F5806F00F0A481DF
:1052D8001B68590503D5B2F5006F00F01482B64B70
:1052E800D3F8F00010F002003FF496ABA2F540634B
:1052F800B3FA83F35B09D803FFF78EBBD1F8F0301C
:105308001B0103D5B2F5807F00F07C81AA4B1B6896
:105318005B0503D5B2F5007F00F0F881A64BD3F802
:10532800F00010F002003FF477ABA2F54073B3FA37
:1053380083F35B09D803FFF76FBBD3F8F0301B0189
:1053480040F1AA8000283FF467AB5EE4B3F5403F24
:1053580000F0E980B3F5802F40F06B81964A106821
:1053680010F020003FF458AB936819024CBF9368C3
:10537800D2F8F430914A4CBFC3F30363C3F3032359
:1053880052F82300FFF748BB01A8FFF7BDF90198C1
:10539800FFF742BB01A8FFF707F90198FFF73CBBED
:1053A800B3F5403F40F02881834A106810F0200090
:1053B8003FF432AB936818024CBF9368D2F8F430CC
:1053C8007E4A4CBFC3F30363C3F3032352F823009D
:1053D800FFF722BBC02B40F00981774A106810F014
:1053E80020003FF419AB93681B024CBF9368D2F8B6
:1053F800F430724A4CBFC3F30363C3F3032352F878
:105408002300FFF709BBB3F5401F3FF4DAAB0020D8
:10541800FFF702BBB3F5401F40F0E580664A10680D
:1054280010F020003FF4F8AA93681B024CBF936861
:10543800D2F8F430614A4CBFC3F30363C3F30323C8
:1054480052F82300FFF7E8BAB3F1406F40F0D1807B
:10545800594A106810F020003FF4DEAA9368190238
:105468004CBF9368D2F8F430544A4CBFC3F303637B
:10547800C3F3032352F82300FFF7CEBAD1F8F000A4
:1054880010F002003FF4C8AAA2F10303B3FA83F3B1
:105498005B09D803FFF7C0BA0020FFF7BDBA13684D
:1054A800474813F4806F08BF0020FFF7B5BA424B96
:1054B80043481B6813F4806F08BF0020FFF7ACBA9D
:1054C8003D4B3F481B6813F4806F08BF0020FFF76F
:1054D800A3BAB3F1406F40F0F180374A106810F07A
:1054E80020003FF499AA93681B024CBF9368D2F836
:1054F800F430324A4CBFC3F30363C3F3032352F8B7
:105508002300FFF789BA2F48FFF786BA2C48FFF720
:1055180083BA4FF40040FFF77FBA01A8FFF744F8B9
:105528000298FFF779BA4BF68030FFF775BA4BF659
:105538008030FFF771BA4BF68030FFF76DBA01A8DB
:10554800FFF7E2F80398FFF767BAD2F8F03013F0E4
:10555800805F14BFFA204FF4FA40FFF75DBA08687D
:1055680010F020003FF458AA8B681A024CBF8B68D1
:10557800D1F8F430114A4CBFC3F30363C3F30323D8
:1055880052F82300FFF748BA0B4B0E481B6813F478
:10559800005F08BF0020FFF73FBA01A8FFF7B4F883
:1055A8000198FFF739BA0020FFF736BA024BD3F853
:1055B800F430C3F3032344E6000C0246386B0008BA
:1055C8000024F400006CDC02554BD3F8F03013F0E3
:1055D800805F14BFFA204FF4FA40FFF71DBA4FF46A
:1055E8000040FFF719BA0020FFF716BA0020FFF7AE
:1055F80013BA0020FFF710BA0020FFF70DBA494888
:10560800FFF70ABAD1F8F03013F0805F14BFFA2020
:105618004FF4FA40FFF700BAD3F8F03013F0805F88
:1056280014BFFA204FF4FA40FFF7F6B90020FFF74D
:10563800F3B90020FFF7F0B90020FFF7EDB9936840
:105648001B024CBF9368D2F8F430374A4CBFC3F3FF
:105658000363C3F3032352F82300FFF7DDB993680C
:1056680019024CBF9368D2F8F4302F4A4CBFC3F3E9
:105678000363C3F3032352F82300FFF7CDB99368FC
:1056880019024CBF9368D2F8F430274A4CBFC3F3D1
:105698000363C3F3032352F82300FFF7BDB98B68F4
:1056A800214A18024BBF8B68D1F8F430C3F3036367
:1056B800C3F3032352F82300FFF7AEB90020FFF726
:1056C800ABB91A48FFF7A8B91848FFF7A5B91748A2
:1056D800FFF7A2B91548FFF79FB91448FFF79CB91F
:1056E8001248FFF799B91148FFF796B90F48FFF725
:1056F80093B90E48FFF790B90C48FFF78DB94FF4EE
:105708000040FFF789B90948FFF786B90748FFF74E
:1057180083B90648FFF780B90020FFF77DB900BFBD
:10572800000C024600366E01386B00080024F400B5
:10573800036A026A70B522F0010202624568826952
:105748000E6822F480321F4C22F0730232438E68B6
:1057580023F00203A04243EA06031FD004F1805459
:10576800A0421BD0184CA04218D004F18054A0428B
:1057780014D0164CA04211D004F18054A0420DD090
:10578800134CA0420AD004F18054A04206D0114C18
:10579800A04203D004F18054A0420DD1CC6823F07C
:1057A8000803234325F4407ED1E9054544EA050C66
:1057B80023F004034CEA0E054968456082614163A1
:1057C800036270BD002C01400034014000400140DC
:1057D8000044014000480140036A026A70B422F4A0
:1057E800807202624468C2690E6822F48032204DD9
:1057F80022F0730232438E6823F40073A84243EA0E
:1058080006231FD005F18055A8421BD0194DA84288
:1058180018D005F18055A84214D0174DA84218D0C9
:10582800164DA84215D0164DA84212D005F1805544
:10583800A8420ED0134DA8420BD005F18055A842BE
:105848000FD106E0CD6823F4006343EA052323F46F
:10585800806324F44054D1E9056546EA050C44EA1E
:105868000C1449684460C26170BCC163036270472C
:10587800002C01400034014000400140004001502C
:105888000044014000480140036A026A70B422F4EF
:10589800805202624468C2690E6822F08072214D0B
:1058A80022F4E64242EA06228E6823F40053A84214
:1058B80043EA06331FD005F18055A8421BD01A4D84
:1058C800A84218D005F18055A84214D0174DA84217
:1058D80018D0174DA84215D0164DA84212D005F180
:1058E8008055A8420ED0144DA8420BD005F1805522
:1058F800A8420FD106E0CD6823F4004343EA0533FC
:1059080023F4804324F44044D1E9056546EA050CB4
:1059180044EA8C1449684460C26170BC0164036243
:10592800704700BF002C0140003401400040014096
:10593800004001500044014000480140036A026AE7
:1059480070B422F4803202624468026D0E6822F458
:1059580080321B4D22F0700232438E6823F40033EC
:10596800A84243EA06431FD005F18055A8421BD040
:10597800144DA84218D005F18055A84214D0124DF4
:10598800A84211D005F18055A8420DD00F4DA8426C
:105998000AD005F18055A84206D00D4DA84203D083
:1059A80005F18055A84204D14D6924F4803444EAB5
:1059B800052449684460026570BC816403627047CD
:1059C800002C0140003401400040014000440140E7
:1059D80000480140036A026A70B422F4801202622D
:1059E8004468026D0E6822F080721C4D22F4E04279
:1059F80042EA06228E6823F40013A84243EA0653BB
:105A08001FD005F18055A8421BD0154DA84218D0CB
:105A180005F18055A84214D0124DA84211D005F1C5
:105A28008055A8420DD0104DA8420AD005F18055E6
:105A3800A84206D00D4DA84203D005F18055A842D2
:105A480004D14D6924F4802444EA852449684460DB
:105A5800026570BCC1640362704700BF002C01403E
:105A6800003401400040014000440140004801402A
:105A7800002800F0A88038B590F83D30044603F0BF
:105A8800FF02002B00F09A80022223685D4984F807
:105A98003D208B421A6848D001F180518B4244D096
:105AA800B3F1804F78D0B3F1A04F75D056498B42EF
:105AB80072D001F180518B426ED054498B426BD029
:105AC80001F180518B4267D051498B4264D001F17A
