:020000040800F2
:1000000000000C20911D0008A11C0008A51C000880
:10001000A91C0008AD1C0008B11C0008E11D000867
:10002000000000000000000000000000B51C0008F7
:10003000B91C000800000000BD1C0008C11C00081D
:10004000E11D0008E11D0008E11D0008E11D000898
:10005000E11D0008E11D0008E11D0008E11D000888
:10006000E11D0008E11D0008E11D0008E11D000878
:10007000E11D0008E11D0008E11D0008E11D000868
:10008000E11D0008E11D0008E11D0008E11D000858
:10009000E11D0008E11D0008E11D0008E11D000848
:1000A000E11D0008E11D0008E11D0008E11D000838
:1000B00000000000E11D0008E11D0008E11D00082E
:1000C000E11D0008E11D0008E11D0008E11D000818
:1000D000E11D0008E11D0008E11D0008E11D000808
:1000E000E11D0008E11D0008E11D0008E11D0008F8
:1000F000E11D0008E11D0008E11D0008E11D0008E8
:10010000E11D0008E11D0008E11D0008E11D0008D7
:10011000E11D0008E11D0008E11D0008E11D0008C7
:10012000E11D0008E11D0008E11D0008E11D0008B7
:10013000E11D0008E11D0008E11D0008E11D0008A7
:10014000E11D0008E11D0008E11D0008E11D000897
:10015000E11D0008E11D0008E11D0008E11D000887
:10016000E11D0008E11D0008E11D0008E11D000877
:10017000E11D0008E11D0008E11D0008E11D000867
:10018000E11D0008E11D0008E11D0008E11D000857
:10019000E11D0008E11D0008E11D0008E11D000847
:1001A000E11D0008E11D0008E11D0008E11D000837
:1001B000E11D000800000000E11D0008E11D00082D
:1001C000E11D000800000000E11D0008E11D00081D
:1001D000E11D0008E11D0008E11D0008E11D000807
:1001E000E11D0008E11D0008E11D0008E11D0008F7
:1001F0000000000000000000E11D0008E11D0008F3
:10020000E11D0008E11D0008E11D0008E11D0008D6
:10021000E11D0008E11D0008E11D0008E11D0008C6
:10022000E11D0008E11D0008E11D0008E11D0008B6
:08023000E11D0008E11D0008BA
:100238000348044B834202D0034B03B1184770476D
:10024800680000206800002000000000064B0749F5
:10025800C91A891048BF0131491003D0044B0BB1AA
:1002680001481847704700BF680000206800002058
:100278000000000010B5064C237843B9FFF7D8FFFB
:10028800044B13B10448AFF300800123237010BD61
:100298006800002000000000BC32000808B5044BCC
:1002A8001BB104490448AFF30080BDE80840CDE71E
:1002B800000000006C000020BC3200080F4B70B535
:1002C8000F4DAB42A3EB050607D0B610002401344E
:1002D80055F8043B9847A642F9D80A4D02F0EAFFC0
:1002E800094B5E1BAB424FEAA60606D00024013438
:1002F80055F8043B9847A642F9D870BDF833000872
:10030800F8330008F8330008FC33000870B5860796
:1003180047D0541E002A3ED0CAB2034601E0013C31
:1003280039D303F8012B9D07F9D1032C2CD9CDB271
:100338000F2C05EB052505EB054535D9A4F1100C67
:1003480003F1100E1A462CF00F064FEA1C1CB64497
:10035800C2E90055C2E9025510327245F8D10CF1D4
:10036800010214F00C0F04F00F0C03EB021213D06F
:10037800ACF1040323F003030433134442F8045B91
:100388009342FBD10CF003042CB1C9B21C4403F80E
:10039800011BA342FBD170BD64461346002CF4D167
:1003A800F9E703461446C0E71A46A446E0E700BF4B
:1003B800014B1868704700BF0000002088420ED922
:1003C8008B1883420BD900EB020C002A6ED06246D0
:1003D80013F801CD994202F801CDF9D170470F2ADF
:1003E8000FD8034602F1FF3C002A5FD00CF1010C44
:1003F800013B8C4411F8012B614503F8012FF9D119
:10040800704740EA01039B0751D1A2F1100301F1A3
:10041800200C70B523F00F0501F1100E00F1100447
:100428001B09AC445EF8105C0EF1100E103444F851
:10043800205C5EF81C5C44F81C5C5EF8185C44F8B0
:10044800185C5EF8145CE64544F8145CEAD10133A4
:1004580012F00C0F02F00F0C01EB031100EB031369
:1004680029D0ACF1040C1C1F8E462CF003064FEA71
:100478009C0C1E445EF8045B44F8045FB442F9D156
:100488000CF1010402F0030203EB840301EB840185
:1004980002F1FF3C4AB10CF1010C013B8C4411F80C
:1004A800012B614503F8012FF9D170BD704702F1A6
:1004B800FF3C03469AE76246EAE700BF0EB400B580
:1004C80082B0816803AB53F8042B019300F060F805
:1004D80002B05DF804EB03B0704700BF0FB40849E1
:1004E80000B583B0086804AB816853F8042B019306
:1004F80000F04EF803B05DF804EB04B0704700BF9D
:10050800000000209368013B002B936011DA10B4BF
:100518009469A34209DB0A2907D01368581C1060A4
:10052800084619705DF8044B70475DF8044B00F0FD
:1005380057B91368581C106008461970704700BFF7
:100548009BB1F8B5134406460F46541E5D1E01E0E4
:10055800AC4208D03A4614F8011F3046FFF7D2FFE4
:10056800431CF5D1F8BD0020F8BD0020704700BF3E
:10057800936810B514461BB918460023636010BD74
:1005880000F07AF90023A3600023636010BD00BF68
:100598002DE9F04F8B469FB016461C46824618B18F
:1005A800036A002B00F00381BBF80C30180740F1F8
:1005B8009880DBF81030002B00F0938000237D4FEB
:1005C8004FF0010805940B9343F22003ADF8313046
:1005D800337835464BB1252B07D02A4615F8013F0D
:1005E8000BB1252BF9D1A91B60D1002B71D00023A9
:1005F8004FF0FF320135069309938DF85B301C9359
:10060800CDE9072305E0C01B254608FA00F003439F
:1006180006932C460522384614F8011B01F012F9FE
:10062800069B26460028EED1D90602D520228DF851
:100638005B201A0702D52B228DF85B2029782A29FE
:1006480059D1059A111D1268002A0591C0F28980B6
:10065800099269782E2962D0574C0322204601F06E
:10066800F1F830B1001B4022069B0136824013434B
:10067800069316F8011B062250488DF8301001F039
:10068800E1F8002873D04E4B002B5AD005AC4D4BE7
:100698005A4606A950460094AFF300808146B9F146
:1006A800FF3F16D00B9B4B440B9391E7013ECDF8CF
:1006B80008900395894674183546164601E0A54208
:1006C80046D05A4615F8011F5046FFF71BFF013068
:1006D800F5D1BBF80C305B060AD40B981FB0BDE807
:1006E800F08F5946504600F045FD00283FF466AFAC
:1006F8004FF0FF30F2E7A1F13002092A55D8099BE3
:1007080000E00134217803EB830302EB4303A1F1FA
:100718003002092AF5D92E29264609939CD17178E9
:100728002A292ED1059BB21C191D1B68002B079383
:100738000591B8BF4FF0FF33B1781646B8BF07939D
:100748008AE7059B073323F0070308330593A9E7D6
:1007580049460B9BDDF808900B44039D0B93737877
:1007680043E7524243F002030992069371E705A852
:10077800144B5A4606A90090504600F093FE814655
:100788008DE7A1F1300200230136092A07933FF6CD
:1007980063AF03EB830316F8011F02EB4303A1F1D8
:1007A8003002092AF5D9079356E72E4652E700F09A
:1007B800CDFAF9E6E4320008EC320008F03200081D
:1007C800000000004905000810B4044C13460A460E
:1007D800014620685DF8044BFFF7DABE00000020F0
:1007E800F8B50D460646144610B1036A002B37D0FB
:1007F800A269A389A2601A0719D52369BBB1226827
:10080800EDB26169D31A2F46994220DD0133A16800
:100818000139A160511C2160157062699A420DD09E
:10082800A389DB0701D50A2D08D03846F8BD214633
:10083800304600F09FFC38B92369E0E7214630468E
:1008480000F03CFB0028F0D04FF0FF37EDE72146E1
:10085800304600F033FB0028F6D122680123D6E7A2
:1008680000F074FAC4E700BF024B0A460146186854
:10087800FFF7B6BF000000209368002B00F0F98056
:10088800B1F90CC01CF0080F2DE9F04F904683B069
:1008980081460C4631D00B697BB31CF00207D8F8AF
:1008A800006038D00027D4F828B0216ADFF8C4A245
:1008B8003D4655452B463A46484628BF5346C5B19E
:1008C800D847002840F3CB80D8F8083007442D1AC1
:1008D8001B1AC8F80830002B00F0B78055452B4686
:1008E800D4F828B03A46216A28BF53464846002D16
:1008F800E6D1D6E900750836DBE72146484600F020
:1009080039FC002840F0B080B4F90CC0D8F8006079
:100918001CF00207C6D11CF0010A64D123685746AF
:10092800A16818468B46002F59D01CF4007F00F0B0
:10093800B680B9420A4600F2E2801CF4906F30D0CB
:1009480021695D1A636913EB430348BF01334FEA1A
:10095800630B6B1C3B445A465B4501D99B461A46C0
:100968001CF4806F00F0EA801146484600F00CFB4A
:10097800002800F0F9802A462169009000F05CFC0C
:10098800A289009B22F4906242F08002A281581949
:10099800C4F814B0ABEB05053A46BB462361A56025
:1009A800206051460092FFF709FDA16823683D4683
:1009B800009AA1EB0B0100271A44A1602260D8F825
:1009C8000830AA445B1BC8F80830002B3DD02368C8
:1009D800A168B4F90CC018468B46002FA5D1D6E9FA
:1009E80000A708369DE73846BB463D460097002DD0
:1009F80041D0002846D0009AA168AA4263692068BD
:100A080028BF2A4603EB010A2169884202D95245C8
:100A180000F38580934275DC5A46216A4846A76AE6
:100A2800B847B0F1000A1ADD009BB3EB0A03009344
:100A38000FD00120D8F80830D344A5EB0A05A3EB62
:100A48000A03C8F80830002BD1D1002003B0BDE854
:100A5800F08F2146484600F031FA0028EAD0B4F970
:100A68000C3043F04003A3814FF0FF3003B0BDE8E2
:100A7800F08F00207047756833460836002DFAD08D
:100A8800D3F800B02A460A21584600F0DBFE0028B9
:100A980067D00130A0EB0B031A460093ACE722693C
:100AA8009A4214D36269BA4211D86FF00043A56A1A
:100AB800216A4846BB4228BF3B4693FBF2F302FB40
:100AC80003F35246A847051EC9DD7F1B77E7B942E5
:100AD800184628BF39460D4651462A46FFF76EFC90
:100AE800A1682368491B2B44A16023600029ECD12D
:100AF8002146484600F0E2F90028E6D0AFE7BB46B9
:100B08003A464EE759460192FFF758FC019AA36806
:100B180092469B1AA36023681344236084E75946CE
:100B28005246FFF74BFC236821464846534423604E
:100B380000F0C4F900283FF477AF90E7484600F08A
:100B4800F1FB034600287FF422AF2169484600F0F4
:100B58009BFAB4F90C300C2223F08003C9F800206A
:100B68007FE76A1C009247E70C22B4F90C30C9F8F9
:100B7800002076E700FCFF7F00207047024A034907
:100B8800034800F0D5BA00BF50000020C50E000889
:100B9800040000200C4B4168994210B5044601D06E
:100BA80000F08CF9A168094B994202D0204600F068
:100BB80085F9E168064B994204D02046BDE810400B
:100BC80000F07CB910BD00BF84000020EC000020BC
:100BD80054010020002070472DE9F8432A490025D8
:100BE8002A4C04230822DFF8B890C4F8381104F11D
:100BF8005C002946DFF8AC80254F264EE36025606F
:100C08006566A561C4E90155C4E90455FFF77EFB93
:100C1800214B0822294604F1C40063672567C4F8FC
:100C2800CC50C4F880502663C4E90849C4E90A874F
:100C3800C4E91A55C4E91E55FFF768FB04F16803B7
:100C480029460822C4F8883004F59670134BC4F876
:100C5800D850C4F8DC30C4F83451C4F8E850C4E9BA
:100C68002398C4E92576C4E93455C4E93855FFF713
:100C78004DFB04F1D003C4E93D98C4E93F76C4F8BC
:100C8800F030BDE8F88300BF850B00088400002021
:100C980095190008BD19000809000100120002009A
:100CA8002D19000855190008F8B5254B0646D3F844
:100CB8003831002B3DD0234FD7E90134013B04D50F
:100CC8001DE05A1C04F1680419D0B4F90C50013B1A
:100CD800002DF6D11C4B0822294604F15C006566FC
:100CE800E3602560A561C4E90155C4E90455FFF72F
:100CF8000DFBC4E90D55C4E912552046F8BD3D6801
:100D08000DB12F46D8E74FF4D671304600F03CF9C4
:100D1800044688B1042305600C302946254640F86E
:100D2800083C4FF4D072A060FFF7F0FA3C602F4601
:100D3800C2E7FFF751FFBEE70C2338603360DCE7FA
:100D480084000020500000200100FFFF036A03B167
:100D58007047044B044AD3F838310262002BF7D1AC
:100D68003AE700BF840000209D0B0008704700BFD1
:100D7800704700BF024A0020024900F0D9B900BFFD
:100D880050000020810B0008024A0020024900F0B0
:100D9800CFB900BF50000020DD0B0008B1F90C30BE
:100DA8002DE9F0411E070C4680463DD44A68002ACA
:100DB80055DDE56A002D34D00022D8F80060216A9C
:100DC800C8F8002013F4805256D101234046A847A2
:100DD800451C024665D0B4F90C30E56A216A58070B
:100DE80005D56368D21A636B0BB1236CD21A002342
:100DF8004046A847431C41D0002363602369236011
:100E0800A389DF0400D56065616BC8F8006041B153
:100E180004F14403994202D0404600F035F900231A
:100E280063630020BDE8F0810E69002EF9D09B07AE
:100E38000D680E600CBF4B690023AD1B8B600BE087
:100E48002B463246216A4046A76AB847B0F1000CE3
:100E5800A5EB0C05664406DD002DF1DCE1E70A6C24
:100E6800002AA6DCDDE7B4F90C3043F040034FF06C
:100E7800FF30A381BDE8F081626DB0E7D8F80010BB
:100E8800B4F90C301D29F0D80B4ACA40D507ECD567
:100E98000022626022692260DA04B5D50029B2D046
:100EA800B2E7D8F80030002B95D01D2B01D0162BB7
:100EB800D9D1C8F80060B4E7010040200B69B3B18C
:100EC80010B5044682B008B1036A5BB1B1F90C30C1
:100ED80013B9002002B010BD204602B0BDE8104092
:100EE800FFF75CBF0191FFF731FF0199EEE70020A2
:100EF800704700BFB8B10E4A38B503690446156893
:100F08002BB10DB12B6A53B1B4F90C300BB90020D9
:100F180038BD21462846BDE83840FFF73FBF284680
:100F2800FFF714FFF0E7034A0349044800F000B94B
:100F38000000002050000020C50E0008040000201A
:100F480070B5104E05460C463368B3B121462846A5
:100F580000F0D6FC431C0CD0C41C24F00304A042AF
:100F680005D0211A284600F0CBFC013001D02046DC
:100F780070BD4FF0FF34204670BD194600F0C0FC2C
:100F88003060E3E7C00100202DE9F843CD1C064698
:100F980025F0030508350C2D38BF0C25002D2EDB58
:100FA800A9422CD8DFF8DC8000F0BEFBD8F804207A
:100FB8007AB1144603E0636822461C464BB12368A5
:100FC8005B1BF8D40B2B1ED89442636853D0536034
:100FD80007E029463046FFF7B3FF431C04461DD0FF
:100FE8000560304600F0A2FB04F10B00231D20F041
:100FF8000700C21A01D01B1AA350BDE8F8830C23BE
:1010080033600020F9E761199442256014BF5160EC
:10101800C8F80410635163684B60E2E7D8F80470BD
:101028001FB33C467F68002FFBD123683946304602
:1010380004EB030900F064FC814516D123683046AF
:10104800ED1A2946FFF77CFF01300ED02368D8F847
:1010580004202B442360536883B1A34203D01A466B
:101068005B689C42FBD10023B1E70C233046336018
:1010780000F05CFBC5E7C8F80430B2E7C8F80470B4
:10108800AFE700BFC001002000293AD038B551F8B9
:10109800043C0C1F0546002BB8BFE41800F044FBC5
:1010A800224A1368D3B1A34214D81A465B680BB11D
:1010B800A342FAD911685018A04223D02ED821682B
:1010C8006018834211D0636054602846BDE83840F8
:1010D80000F02CBB2168601883420DD0284663605D
:1010E8001460BDE8384000F021BB18685B6808440C
:1010F800C4E900035460E8E718685B6808442060A6
:10110800ECE7704720680144501811608342DCD135
:10111800D3E900040144C2E90014D6E70C232846A9
:101128002B60BDE8384000F001BB00BFC4010020BF
:101138002DE9F8434FF00009074688461646D6E9D8
:101148000154013D0FD4A389012B08D9B4F90E30FD
:1011580021463846013302D0C04749EA0009013D1B
:1011680068346B1CEFD13668002EE8D14846BDE8DC
:10117800F88300BF38B52F4B05460C461B6813B1E2
:101188001A6A002A45D0B4F90C30180716D5226916
:10119800F2B113F0010107D0616900204942A06053
:1011A800A1613AB1002038BD980758BF6169A160B4
:1011B800002AF7D1190638D4104638BDD9062CD5DF
:1011C8005A0712D4226943F00803A381002AE0D108
:1011D80003F42071B1F5007FDBD02146284600F0EA
:1011E800A7FAB4F90C302269D3E7616B51B104F165
:1011F8004402914204D02846FFF746FFB4F90C3068
:10120800002262630021226923F02403C4E900213B
:10121800D9E71846FFF79AFDB5E7092243F04003DE
:101228002A60A3814FF0FF3038BD43F04003A3810B
:10123800F8E700BF00000020844641EA000313F0ED
:10124800030349D1403A23D30B6803604B684360DA
:101258008B688360CB68C3600B6903614B6943612A
:101268008B698361CB69C3610B6A03624B6A436212
:101278008B6A8362CB6AC3620B6B03634B6B4363FA
:101288008B6B8363CB6BC36340304031403ADBD216
:1012980030320BD30B6803604B6843608B68836004
:1012A800CB68C36010301031103AF3D20C3205D33A
:1012B80051F8043B40F8043B043AF9D2043208D010
:1012C800D2071CBF11F8013B00F8013B01D30B8882
:1012D80003806046704700BF082A13D38B07B1D03C
:1012E80010F00303AED0C3F10403D21ADB071CBF0E
:1012F80011F8013B00F8013BA4D331F8023B20F878
:10130800023B9FE7043AD9D3013A11F8013B00F8B0
:10131800013BF9D20B7803704B7843708B7883705C
:10132800604670472DE9F041144641B30AB30646BA
:101338000D4600F043FB8442074602D8B4EB500F39
:1013480013D821463046FFF71FFE804650B1BC42F5
:101358002246294628BF3A46FFF76EFF29463046FF
:10136800FFF792FE4046BDE8F081A8464046BDE83A
:10137800F081A046FFF788FE4046BDE8F08111469F
:10138800BDE8F041FFF700BE2DE9F84F92461F4631
:101398000A690C468B680646DDF828909A42B8BF61
:1013A8001A46CAF8002091F8433013B10132CAF83E
:1013B8000020226891065DD5DAF800300233CAF8B9
:1013C8000030226812F0060F11461BD1E1689942DD
:1013D80066DD4FF0000804F1190B05E0E568DAF85E
:1013E8000030ED1A45450CDD01235A463946304692
:1013F800C847013008F10108F0D14FF0FF30BDE8CF
:10140800F88F216894F84330003B18BF01238A06FF
:101418000AD5E1185A1C30200233224481F84300CF
:1014280094F8451082F8431004F1430239463046D7
:10143800C8470130E1D02368DAF8005003F006030A
:101448002169042BD4E902201BD08A4220DD4FF009
:101458000008521A90441A34002501E0454517DA6D
:101468000123224639463046C847013005F10105B7
:10147800F4D1C2E712F0060F0DD0003B18BF0123CC
:10148800D2E7401B8A4220EAE078E2DC0028E2DC6E
:101498000020BDE8F88FDAF80030E168994298DC5E
:1014A8001146AFE72DE9F047174684B00A7E0C468F
:1014B800064698460C9D01F1430C002A35D0A2F14E
:1014C8005803D9B2202969D8202B67D8DFE813F050
:1014D800E600660066006600660066006600660054
:1014E800660066006600AC00700066006600660074
:1014F80066007000660066006600660021008300D2
:10150800C60066006600B6006600830066006600D6
:10151800EC002B682268181D6169286010061B689A
:1015280002D4520600F1E08019600023E1462361ED
:101538003B4603AA21463046CDF80080FFF724FF3A
:10154800013020D04A46236939463046C047013029
:1015580019D02368E0689B07DDF80C9018D548453A
:1015680016DD002504F1190A04E0E068A0EB090380
:10157800AB420DDD0123524639463046C0470130A3
:1015880005F10105F1D14FF0FF3004B0BDE8F08757
:101598004845B8BF484604B0BDE8F087012004F1CB
:1015A800420984F842200023206184F84330BFE7D1
:1015B8002A682368111D1806296002D4590600F10B
:1015C80095801068014600286268C0F293805448EC
:1015D8004FF00A0E15E020682B6810F0800F53F8C2
:1015E800041B02D1400648BF89B26F2A4C482B60C1
:1015F80014BF4FF00A0E4FF0080E0023626884F8FB
:101608004330002AA26051DB236823F004032360DF
:1016180000294BD1002A7BD1E146BEF1080F56D0F4
:10162800ACEB0903236183E72A6804F1420901202E
:10163800111D1268296084F84220B4E72B68002144
:101648006268181D2860D3F80090484600F0FAF840
:10165800002863D0A0EB09006060A4E7236843F08A
:101668002003236078222F4884F845202A6813F045
:10167800800F52F8041B03D113F0400F18BF89B232
:101688002A60DA0702D543F02003236019B92368DA
:1016980023F0200323604FF0100EAEE758232048B4
:1016A80084F845302368E1E72368DBE77546E146BF
:1016B8000A46B1FBF5F305FB131AAA42194610F8BE
:1016C8000A3009F8013DF3D2BEF1080FA8D123680A
:1016D800DD07A5D5626823699A42A1DC302309F1A8
:1016E800FF3989F800309BE719801EE7B2F900102E
:1016F800084668E72D20002AA26084F8430002DB30
:1017080023F0040323600A2549420548AE46CEE784
:10171800037804F1420984F842307EE7606842E7C2
:10172800F83200080C330008704700BF704700BF4C
:10173800B1F90C3070B50C46990796B007D504F18D
:10174800470301222360C4E9043216B070BDB4F91E
:101758000E10054600292ADB6A4600F061F90028C8
:1017680023DB4FF480612846019EFFF70DFC00281B
:1017780031D0A38906F470464FF48062206043F0AC
:101788008003B6F5005F2061A3816261DDD1B4F901
:101798000E10284600F0A2F80028D6D0A38923F01E
:1017A800030343F00103A381CFE7B4F90C3013F02E
:1017B800800F284614BF40254FF480652946FFF75F
:1017C800E3FB40B1A389206043F08003C4E904052A
:1017D800A38116B070BDB4F90C309A05B5D423F0C6
:1017E800030304F14702012143F002032260C4E924
:1017F8000421A381A9E700BF70B50C46B1F90E100A
:1018080096B0154600291E460FDB6A4600F008F917
:1018180000280ADB019B4FF4806203F47043A3F5B0
:101828000053B3FA83F35B0907E0A289002312F09F
:10183800800F14BF40224FF48062002033602A607A
:1018480016B070BD5FFA81FC810744D00346511E73
:1018580022B909E09A0709D0013905D3184601339E
:1018680002786245F6D17047002070471846032970
:101878000CD80029F8D00346014401E08B42F3D08C
:10188800184613F8012B6245F8D1704710B50CEBD8
:101898000C24024604EB044402E00439032915D958
:1018A800104652F8043B6340A3F1013E2EEA0303BD
:1018B80013F0803FF1D00346014401E08B4208D089
:1018C800184613F8012B6245F8D110BD10460029BF
:1018D800F1D1002010BD1146C9E700BF38B500227C
:1018E800064D044608462A6000F000FA431C00D062
:1018F80038BD2B68002BFBD0236038BDC801002001
:1019080038B50022064D044608462A6000F0F2F970
:10191800431C00D038BD2B68002BFBD0236038BD9A
:10192800C801002010B50C46B1F90E1000F062F89D
:10193800002803DB636D0344636510BDA38923F4AA
:101948008053A38110BD00BF002070472DE9F041EE
:101958000C46B1F90C101F460546CB0516460BD4AC
:1019680021F480513B4632462846A181B4F90E1035
:10197800BDE8F04100F080B8B4F90E10022300224F
:1019880000F064F8B4F90C10EAE700BF10B50C4693
:10199800B1F90E1000F05AF8421CB4F90C3004D01A
:1019A80043F480536065A38110BD23F48053A38161
:1019B80010BD00BFB1F90E1000F00AB851F8043C90
:1019C800002BA3F1040000DB70470B581844704744
:1019D80038B50022064D044608462A6000F07CF916
:1019E800431C00D038BD2B68002BFBD0236038BDCA
:1019F800C801002038B50C4684461146074D1A46E2
:101A08000023204664462B6000F058F9431C00D0A0
:101A180038BD2B68002BFBD0236038BDC8010020DF
:101A280070B50C460346084D0026204611461C4654
:101A38002E6000F055F9431C00D070BD2B68002BB8
:101A4800FBD0236070BD00BFC801002038B50C462C
:101A580084461146074D1A460023204664462B60EB
:101A680000F046F9431C00D038BD2B68002BFBD092
:101A7800236038BDC801002038B50C46844611469D
:101A8800074D1A460023204664462B6000F00AF8EA
:101A9800431C00D038BD2B68002BFBD0236038BD19
:101AA800C8010020101E29DD4FF0604301EB000C37
:101AB800D3F8802E0131D2071DD5D3F8002ED207D6
:101AC80019D500B51A6811F801EC1AB900BF1A68DF
:101AD800002AFBD083F800E061450AD0D3F8802EB5
:101AE8000131D207F8D5D3F8002ED207EAD46145E0
:101AF800F4D15DF804FB6145DAD17047704700BF47
:101B080030B59FB06022002106A8FEF7FFFB002336
:101B18004FF44030CDE90033CDE90233CDE9043349
:101B280000F03AFC08B172B6FEE7034617930123AA
:101B380002224FF480719FED167B16931B9310249D
:101B48000A2306A818938DED1C7BCDE91422CDE954
:101B580019220A940692099100F0C2FE034608B1C0
:101B680072B6FEE71F2503240022CDE902330023C5
:101B780068460421CDE90054CDE9042300F04AFD6C
:101B880008B172B6FEE71FB030BD00BFAFF30080EA
:101B98000C0000000000000000B52E4E2E4D7368AA
:101BA8008BB02B6000F06AF9FFF7AAFF0022CDE99D
:101BB8000422CDE90622294B0892D3F88C408021D3
:101BC80044F00404C3F88C40D3F88C40244804F053
:101BD80004040194019CD3F88C4044F00104C3F838
:101BE8008C40D3F88C4004F001040294029CD3F892
:101BF8008C4044F00204C3F88C40D3F88C3003F0D6
:101C080002030393039B00F0B7FB80220123CDE975
:101C1800042300220023124804A9CDE9062300F07A
:101C280021FA00F0AFFB08B172B6FEE772680D4CFE
:101C380029680D482260FEF751FC2A6821680B4B81
:101C4800891A0B481960FEF749FC8022044B9A61F7
:101C58009A62FCE7001000E0D4010020000C024664
:101C680000080242D0010020D4320008CC01002034
:101C7800E03200080420074B82B0D3F894200243D6
:101C8800C3F89420D3F8943003400193019B02B029
:101C980000F032B9000C0246FEE700BFFEE700BFC5
:101CA800FEE700BFFEE700BFFEE700BF704700BFCA
:101CB800704700BF704700BF00F00CB970B5161E22
:101CC80007DD0C468D19AFF3008004F8010BA5421F
:101CD800F9D1304670BD00BF4FF0FF30704700BFEC
:101CE8004FF4005300204B60704700BF012070473D
:101CF800002070470D49034610B50D4A0D4C086881
:101D0800121B20B10344934207D80B6010BD0A4C44
:101D18002046034493420C60F7D9FEF749FB0C2296
:101D280003464FF0FF301A6010BD00BFD8010020F5
:101D380000000C2000040000E00100200022012126
:101D480010B44FF000640E48D0F8883043F47003A4
:101D5800C0F888300B4B1960DA611A625A62196848
:101D680021F0A85121F4102119609A62196821F410
:101D7800802119601A6584605DF8044B704700BFC4
:101D880000ED00E0000C0246DFF834D0FFF7D6FF84
:101D9800002103E00B4B5B58435004310A480B4BBE
:101DA80042189A42F6D30A4A02E0002342F8043B5A
:101DB800084B9A42F9D3FEF781FAFFF7EDFEFEE7EA
:101DC80000000C20003400080000002068000020FB
:101DD80068000020E0010020FEE7000070B5244EF6
:101DE8003278EAB14FF0E0231C69054614F0040488
:101DF80018D04FF47A71B1FBF2F21E4B1C68B4FB99
:101E0800F2F4204600F0C6F8044648B902462946CE
:101E18004FF0FF3000F082F8174B20461D6070BD70
:101E2800012070BD00F004F901280DD0022815D05A
:101E38000028E6D14FF4FA5231780E4BB2FBF1F29A
:101E48001C68B4FBF2F4DCE74FF47A7231784FF493
:101E5800FA43B2FBF1F2B3FBF2F4D2E74FF47A7231
:101E680031784FF40043B2FBF1F2B3FBF2F4C8E768
:101E7800600000205C00002064000020114A10B5BA
:101E88001368032043F48073136000F035F800F002
:101E980033FB03460C4A0D48126A0D4902F00F0243
:101EA800825C0420D3400B6000F084F80020FFF728
:101EB80095FF10B10124204610BD0446FFF7DAFE55
:101EC800204610BD00200240000C02466033000886
:101ED8005C000020034A044B11681B780B44136014
:101EE800704700BFDC01002060000020014B18682B
:101EF800704700BFDC0100204FF6FF0C06490302C3
:101F0800CA6803F4E06302EA0C02134343F0BF63B8
:101F180043F40033CB60704700ED00E01B4B00B585
:101F2800DB68C3F30223C3F1070EBEF1040F03F10C
:101F3800040C28BF4FF0040EBCF1060F1CD9A3F106
:101F4800030C4FF0FF3303FA0CF322EA03024FF0BD
:101F5800FF3303FA0EF321EA030303FA0CF31343E6
:101F68001B010028DBB20ADB00F1604000F561408C
:101F780080F800335DF804FB00229446E7E7044A42
:101F880000F00F00024413765DF804FB00ED00E05A
:101F9800FCEC00E0431EB3F1807F09D24FF0E02251
:101FA800002053619061136943F003031361704784
:101FB80001207047042813D8DFE800F02A1A03121A
:101FC80013004FF0E0210B69184A23F004030B615A
:101FD800D2F8E03023F4400343F40003C2F8E030C1
:101FE80070474FF0E022136943F004031361704710
:101FF8004FF0E0210B690D4A23F004030B61D2F87E
:10200800E03023F4400343F48003C2F8E030704723
:102018004FF0E0210B69054A23F004030B61D2F865
:10202800E03023F44003C2F8E0307047000C024669
:102038004FF0E0231B695B0710D4094BD3F8E0008D
:1020480000F44000B0F5800F06D0A0F50000B0FA0B
:1020580080F0400940007047012070470420704715
:10206800000C02462DE9F04FD1F800B085B0BBF165
:10207800000F00F0B480BB4B8A46984200F0BE8047
:10208800B94B002203EA90234FF00108039329E09B
:102098000668B9F1010F05EA060C03F0030606FA13
:1020A80007F646EA0C06066001D9112B53D186685B
:1020B8001B0906EA050CDAF80C609340BE4046EAB4
:1020C8000C068660466826EA01010B434360C16836
:1020D800DAF808302940BB400B43C36001323BFAB1
:1020E80002F37CD008FA02F11BEA010EF6D00324B1
:1020F800DAF80430570023F0100604FA07F5022E28
:102108006FEA050503F1FF39C2D106FA07F4D608CC
:1021180000EB860602943446DAF8106002F0070CE9
:102128004FEA8C0C06F00F0606FA0CF601960F26FD
:1021380006FA0CFC266AB9F1010F26EA0C0C019E7E
:1021480046EA0C0626620668029C06EA050646EA86
:1021580004060660ABD0122BA9D0032BBED0C168F1
:102168000D40DAF80810B9402943DD00C160B5D543
:102178000F2422F0030505F18C4502F0030105F553
:102188000835C9002E6E04FA01F7039C26EA0706F3
:1021980004FA01F1314329667449DC026FEA0E053D
:1021A800096828D42940714C9F02216061681FD4B6
:1021B80029406E4C9E036160D4F8841015D42940E0
:1021C8006A4CC4F88410D4F88010DC030AD429407F
:1021D800664B0132C3F880103BFA02F382D105B096
:1021E800BDE8F08F41EA0E01F2E741EA0E01E7E7A8
:1021F80041EA0E01DDE74EEA0101D4E70023012799
:102208005A4E07FA03F111EA0B0559D04FF00F099E
:102218000468DAF8042024EA0104554951F833C067
:1022280002F0010199402143016052494FEADC0E56
:1022380051F833100CF0070401EB8E0EDEF8208005
:10224800A40009FA04F928EA09084FF00B0909FA69
:1022580004F444EA08044FF00308CEF820400C6860
:102268004FEA4C0E08FA0EF824EA0809022404FA88
:102278000EF444EA09040C60541E012C6FEA0808A5
:1022880001D9112A23D18C68120907FA0CF502FA30
:102298000CF208EA040CDAF80C4004FA0EF444EAEA
:1022A8000C048C604C6824EA050422434A60CC681C
:1022B800DAF8082008EA040402FA0EF22243CA6097
:1022C80001333BFA03F29CD105B0BDE8F08F122A26
:1022D800D9D0032AF4D0CC6808EA0408DAF8084010
:1022E80004FA0EF444EA0804CC60D100E8D54FF0B3
:1022F8000F084FF4803423F0030101F18C4101F5FC
:10230800083103F0030CD1F860E04FEACC0C08FA6E
:102318000CF82EEA080E04FA0CF444EA0E040C66D3
:10232800EC43316812F4801F0CBF2140294331600F
:10233800716812F4001F0CBF214029437160D6F860
:10234800841012F4003F0CBF21402943C6F88410C2
:10235800D6F88010D20354BF21402943C6F8801014
:10236800AEE700BF000002467F7F2F000020024634
:1023780074330008703300080AB1816170478162C4
:10238800704700BF034A0020136843F0010313603D
:10239800704700BF00040340214AD36B03F4403365
:1023A800834234D04FF0320CD368B0F5803F23F429
:1023B800E02343EA000388BF43F48023D360194B2A
:1023C800194A1B681648A2FB03139B090CFB03F36D
:1023D800A2FB0323C1689B090A0403F1010307D484
:1023E8001A4600E08AB1C168013A0904FAD562B117
:1023F8000B49CA6B100406D400E033B1CA6B013B29
:102408001204FAD50BB10020704703207047B3F5CA
:10241800803FF8D9D368002043F48023D360704705
:10242800000802465C000020D34D6210024BD86BB6
:1024380000F44030704700BF0008024630B52C4D0C
:102448000446D5F8943083B05B072BD5FFF7EEFF31
:1024580020F48033B3F5003F07D0B4F1805F17D282
:10246800B0F5803F33D1032204E0B4F1805F2CBF84
:10247800002201221F490B6823F00F0313430B604E
:10248800086800F00F00801A18BF012003B030BDA3
:10249800B4F1005F1ED910BBB4F1405F8CBF0022BD
:1024A8000122E7E7D5F8943043F00403C5F89430E7
:1024B800D5F8943003F004030193019BFFF7B6FFAE
:1024C800D5F8943023F00403C5F89430C0E7012010
:1024D80003B030BDB4F1805F03D00122CAE7002207
:1024E800C8E7B0F5803F0CBF01220222C2E700BF57
:1024F800000C024600200240414AD369916A13F059
:102508000C030BD00C2B5FD0D2693E4802F00C02B2
:10251800042A72D0082B18BF00207047384A9168E7
:10252800090254BFD2F8F4209268374954BFC2F365
:102538000332120F51F82200002B5FD0304910B53A
:102548008A6A8B6A8C6AC3F30323013307EE103A55
:102558008B6BC4F3001EC3F3CC030EFB03F307EE2F
:10256800903A02F0030CBCF1020FF8EEE77A02D0C1
:10257800BCF1030F2FD14B6BF7EE006AC3F30803CE
:1025880006EE103ADFED215AB8EEC66AB8EEC77A01
:102598009FED1F5A36EE266AC5EE076AB0EE467AF8
:1025A800174BA7EEA57A5B6B26EE877AC3F3066313
:1025B800013307EE903AF8EEE77AC7EE276AFCEEA9
:1025C800E67A17EE900A10BD01F003010129A5D0A3
:1025D8000020D369B2E74B6B05EE900AC3F30803FA
:1025E80006EE103AB8EE655AF7EE006AB8EEC66A1B
:1025F800B8EEC77ADFED055ACCE77047704700BFE1
:10260800000C02460024F4002033000800000039C2
:102618000024744B002800F00E819F4A2DE9F041F8
:102628001368044603F00F038B420D4682B00DD2A7
:10263800136823F00F030B431360136803F00F03B1
:102648008B4203D0012002B0BDE8F0812368DF0689
:102658000BD5924960694A6A02F07002904204D927
:102668004A6A22F0700202434A621E070DD58B495E
:1026780020690A6A120902F07002904205D90A6AB2
:1026880022F4E06242EA00120A6258070BD5834935
:10269800E0680A6A02F07002904204D90A6A22F0DD
:1026A800700202430A62990703F0010230D57B4E9B
:1026B800A068316A01F00F01884204D9316A21F01B
:1026C8000F0101433162002A00F081806368032B07
:1026D80000F0B380714A022B126800F08480002B4E
:1026E80040F0BE805707ADD56C4E41F28838F2698C
:1026F80022F003021343F361FFF7F8FB6368074610
:10270800032B5BD0022B77D0002B40F08A807EE031
:10271800002ADBD160490A6802F00F02AA4209D9EF
:102728000A6822F00F022A430A600A6802F00F02C0
:10273800AA4287D159070BD55849E0680A6A02F0BE
:102748007002904204D20A6A22F0700202430A62BE
:102758001A070DD5514920690A6A120902F0700258
:10276800904205D20A6A22F4E06242EA00120A6242
:10277800DB060BD5494A6169536A03F07003994235
:1027880004D2536A23F070030B435362FFF7B4FE7D
:102798000346424A4249126A424802F00F02895CE3
:1027A8000068414ACB40136002B0BDE8F041FFF732
:1027B80015BBFFF79BFBC31B434538D8F36903F0F0
:1027C8000C030C2BF5D123689807A3D5A0683349CF
:1027D8000A6A02F00F0282429CD90A6A22F00F02AA
:1027E80002430A6296E792033FF57EAF2AE7FFF7B6
:1027F8007DFBC01B40451AD8F36903F00C03082B76
:10280800F5D1E0E7FFF772FBC01B40450FD8F3692D
:1028180013F00C0FF6D1D6E7FFF768FBC01B404555
:1028280005D8F36903F00C03042BF5D1CBE703209B
:1028380002B0BDE8F08101207047184BD3F894200E
:10284800520711D5FFF752FB184B0646DB685B03AE
:1028580041D4124B1B6899017FF5F4AE636843E7D6
:1028680056057FF5EFAE3FE7D3F8942042F0040217
:10287800C3F89420D3F8943003F004030193019B28
:10288800FFF734FB094B0646DB685F031BD54FF0A7
:102898000108064F11E000BF00200240000C02466C
:1028A80060330008640000205C0000200008024635
:1028B800FFF71CFB801B0228B9D8FB685804F7D522
:1028C800B8F1000FC5D0054AD2F8943023F00403BC
:1028D800C2F89430BDE74FF00008DAE7000C024672
:1028E800002800F0A4822DE9F041AE4A0368D569BA
:1028F800966ADA06044684B005F00C0506F003066D
:1029080031D5002D00F0B2810C2D00F0AC81E369C7
:10291800A44F002B00F02B823B6843F001033B607F
:10292800FFF7E4FA804606E0FFF7E0FAA0EB0800BC
:10293800022800F20E823B685A07F5D5BB6843F4BB
:102948000003BB60BB68626A23F070431343BB603B
:10295800B2F1404F216AFB68C0F0678323F01F0380
:102968000B43FB602368DF0731D5082D626800F050
:10297800BD810C2D00F0B781B2F5803F00F05B827D
:10298800B2F5A02F00F03C83B2F5A81F00F0FB823F
:10299800844F3B6823F480333B603B6823F48023F7
:1029A8003B603B6823F480133B60002A40F0488278
:1029B800FFF79CFA804606E0FFF798FAA0EB0800BC
:1029C800642800F2C6813B689903F5D423689A0706
:1029D8000FD5042D40F0C481E368002B00F07F81FF
:1029E800704A2169136923F4F81343EA0143136118
:1029F800236818074DD56B4BD3F89420510700F185
:102A0800B4810125D3F8942042F00402C3F894203D
:102A1800D3F8943003F004030193019B624EB36A28
:102A2800DA0740F186816369002B00F05D825D4E14
:102A3800A269D6F8F03003F080518A4210D003F032
:102A48004061B1F1006F00F04A81580100F1B18294
:102A58005449D1F8F03023F080531343C1F8F030D3
:102A6800504ED6F8F03043F08063C6F8F030FFF7E8
:102A78003DFA074605E0FFF739FAC01B052800F2C2
:102A88006881D6F8F0301A01F5D5002D40F089821A
:102A980023685D075ED5434BD3F89420500700F1B7
:102AA800C8810125D3F8942042F00402C3F8942089
:102AB800D3F8943003F004030293029B3A4EB36AAE
:102AC800D90740F18C82A368DA0740F1D3815E0709
:102AD80040F15182334BD3F8F02042F00402C3F89E
:102AE800F020D3F8F02042F00102C3F8F020FFF7FD
:102AF800FDF941F2883806462A4F05E0FFF7F6F956
:102B0800801B404500F22581D7F8F0309807F5D5AD
:102B1800A36813F0800FD7F8F03000F0C78243F0B5
:102B28008003C7F8F03041F288381E4F05E0FFF700
:102B3800DDF9801B404500F20C81D7F8F03019050B
:102B4800F5D535B1174AD2F8943023F00403C2F80A
:102B5800943023689A0616D5E36A124D002B00F0CC
:102B6800DC812B6843F480532B60FFF7BFF90646DE
:102B780005E0FFF7BBF9801B022800F2EA802B680A
:102B88009B04F6D523681D061AD5236B054D002B2B
:102B980000F0DF812B6843F480432B60FFF7A6F930
:102BA800064609E0000C024600080246FFF79EF9B7
:102BB800801B022800F2CD802B681804F6D5236804
:102BC8005A062BD5636B002B00F05782A54B9A68E9
:102BD80042F400029A609A68A16A22F070620A437D
:102BE8009A60D4E90812B2F1404FC0F03582DA6831
:102BF80022F01F020A43DA609A4D2B6843F0100353
:102C08002B60FFF773F9064605E0FFF76FF9801BA5
:102C1800022800F29E802B689B06F6D5A36B03B3AF
:102C2800904DEA6902F00C020C2A00F05582022B42
:102C38002B6823F080732B6000F0A682FFF756F90B
:102C4800044605E0FFF752F9001B022800F28180D4
:102C58002B689901F6D4AB6A23F4E02323F003032D
:102C6800AB6200203CE0012E7FF451AEE369002BFB
:102C780035D07C4B606A9A68170256BFD3F8F43097
:102C88009B681B0403F07043984240F28380002D38
:102C980000F0C481734BB0F1404F9A6842F40002CF
:102CA8009A609A6822F0704242EA00029A60216AA9
:102CB800DA6880F049810028C0F2F281B0F1804FD3
:102CC8002BBF22F4F84222F4782242EA812242EA17
:102CD800C132DA6081E0FFF7B1FB00287DD0012026
:102CE80004B0BDE8F081032E7FF446AE002AF6D08A
:102CF8009D077FF57EAEE3685A4D002B00F0858076
:102D08002B6843F480732B60FFF7F0F8064604E065
:102D1800FFF7ECF8801B02281BD82B685B05F7D55A
:102D28002B69226923F4F81343EA02432B612368D1
:102D38005FE6B36A43F00103B362FFF7D7F80746CB
:102D4800B36ADB073FF56FAEFFF7D0F8C01B022868
:102D5800F6D9032004B0BDE8F0819A077FF549AEA3
:102D68000C2DC8D1022EC6D136E6002556E63B68A2
:102D780023F001033B60FFF7B9F8804605E0FFF751
:102D8800B5F8A0EB08000228E3D83B685B07F6D447
:102D98002368E8E5334BB0F1404F9A6842F40002EB
:102DA8009A609A6822F0704242EA00029A60216AA8
:102DB800DA6880F0C4800028C0F24881B0F1804F02
:102DC8002BBF22F4F84222F4782242EA812242EA16
:102DD800C132DA60002D3FF47EAFFFF78DFB03466A
:102DE800204A2149126A02F00F02895C1F4ACB402F
:102DF80010681F4A1360FEF7F1FF00287FF470AFD8
:102E08002368D907A9D56268B3E52B6823F48073D2
:102E18002B60FFF76BF8064604E0FFF767F8801BA6
:102E2800022896D82B685F05F7D42368E1E50120CE
:102E38007047002542E60B4A136843F48033136059
:102E4800FFF754F8DFF81C80074605E0FFF74EF857
:102E5800C01B64283FF67DAFD8F800309803F5D53D
:102E6800B4E500BF000C024660330008640000208F
:102E78005C000020974ED6F8F02022F00102C6F838
:102E8800F020D6F8F02022F00402C6F8F020002B3B
:102E98007FF42DAEFFF72AF841F28838074605E09F
:102EA800FFF724F8C01B40453FF653AFD6F8F03083
:102EB8009B07F5D4D6F8F03018067FF542AED6F861
:102EC800F03041F2883823F08003C6F8F030814EA4
:102ED80005E0FFF70BF8C01B40453FF63AAFD6F8C0
:102EE800F0301905F5D42CE67A4ED6F8F03023F0F8
:102EF800A053C6F8F030FEF7F9FF074605E0FEF7E5
:102F0800F5FFC01B05283FF624AFD6F8F0301B01AB
:102F1800F5D4002D3FF4BCAD43E02B6823F4805377
:102F28002B60FEF7E3FF064605E0FEF7DFFF801B98
:102F380002283FF60EAF2B689F04F6D422E622F053
:102F48001F020A43DA6045E722F01F020A43DA60EB
:102F580043E72B6823F480432B60FEF7C7FF064640
:102F680005E0FEF7C3FF801B02283FF6F2AE2B6890
:102F78001904F6D423E6574AD2F8F03043F0010397
:102F8800C2F8F030B3E5534B1A6842F480221A6055
:102F98001A6842F480121A601A6842F480321A6081
:102FA8004EE74C4AD2F8943023F00403C2F8943028
:102FB8006EE5D6F8F03023F0A053C6F8F030FEF7EF
:102FC80095FF074605E0FEF791FFC01B05283FF671
:102FD800C0AED6F8F0301901F5D4A26938E5B36A65
:102FE80043F00103B362FEF781FF0746B36ADB07CC
:102FF8003FF569ADFEF77AFFC01B0228F6D9A8E6AF
:10300800344B1A6842F480221A601A6822F480123B
:103018001A601A6842F480321A6011E7FFF70EFA54
:1030280000287FF45CAE606A34E6002AC0F2A4800F
:10303800B2F1804F2BBF23F4F84323F4782343EAFB
:10304800812343EAC133FB6023688CE422F478725D
:1030580042EA4112DA60BDE6002AC0F21E81B2F1EE
:10306800804FDA682BBF22F4F84222F4782242EA31
:10307800812242EAC132DA60BEE5164D2B6823F0A0
:1030880010032B60FEF732FF064605E0FEF72EFF21
:10309800801B02283FF65DAE2B689F06F6D4BDE57F
:1030A80022F4787242EA4112DA6096E623F080034D
:1030B800C7F8F03041F28838064F05E0FEF716FFF2
:1030C800801B40453FF645AED7F8F0301A05F5D4D9
:1030D80037E500BF000C0246012BAA6A686B3FF473
:1030E800FEADE36B02F0030199427FF4F8AD236C67
:1030F800C2F30321013B99427FF4F1AD636C02F402
:1031080070429A427FF4EBADA36CC0F30802013B16
:103118009A427FF4E4ADE36CC0F34622013B9A4245
:103128007FF4DDAD236DC0F30642013B9A427FF484
:10313800D6AD636DC0F30660013B98427FF4CFAD16
:10314800594BE16D9A6BC2F3CC028A423FF489ADC8
:103158009A6A22F010029A62FEF7C8FE0546FEF748
:10316800C5FEA842FBD0E26D4F4BD2009A639A6A23
:1031780042F010029A6274E523F4787343EA41132B
:10318800FB602368FFF7EFBBFEF7B0FE064605E0DD
:10319800FEF7ACFE801B02283FF6DBAD2B6813F070
:1031A8000073F5D1D5F8942056070CD40123D5F82F
:1031B800942042F00402C5F89420D5F8942002F037
:1031C80004020392039A394D3749EE68EA68DFF83A
:1031D800E0C022F48022EA60886A676CE26B20F41F
:1031E8007F4020F003003A430243206C013842EA52
:1031F80000228A62E06CA26CD1F834E0471E206D90
:10320800013AC2F308027F0201380EEA0C0CBFB281
:10321800000442EA0C0200F4FE003A430243606DE7
:103228000138000600F0FE4002434A638A6A22F031
:1032380010028A62E26DD2008A638A6A42F0100242
:103248008A628A6AA06D22F00C02024374038A62C1
:103258001ED433B1144AD2F8943023F00403C2F8D0
:103268009430114C236843F080732360FEF73EFED0
:10327800054605E0FEF73AFE401B02283FF669AD19
:1032880023689801F6D5A36A43F48023A362E8E48F
:10329800EA6842F48022EA60DBE7DA6822F47872AE
:1032A80042EA4112DA60A7E4000C0246000802462E
:1032B80000008080F8B500BFF8BC08BC9E46704787
:0C32C800F8B500BFF8BC08BC9E4670477B
:1032D40025752025750A00000000000025750A00E8
:1032E400232D302B20000000686C4C006566674578
:1032F40046470000303132333435363738394142AD
:10330400434445460000000030313233343536370B
:10331400383961626364656600000000006CDC0299
:1033240000366E010024F400001BB70000093D00C4
:1033340080841E00504B140040420F0000E02E0019
:103344000070170000A00F0000B80B00801A0600E0
:10335400400D030088070200A08601000000000061
:1033640000000000010203040607080900000242ED
:1033740001000000000002420300000000000242BD
:1033840006000000000402420100000000040242A2
:103394000A0000000008024202000000000C024281
:1033A4000D000000000C024202000000000802426E
:1033B4000A0000000004024200000000000802426B
:1033C4000C0000000004024203000000000402425A
:1033D400040000000010024200000000001002423D
:0C33E40002000000001002420300000084
:0833F00050DEFF7F0100000028
:0433F800A502000822
:0433FC007D02000846
:10340000040000200000000084000020EC000020E8
:103410005401002000000000000000000000000037
:10342000000000000000000000000000000000009C
:10343000000000000000000000000000000000008C
:10344000000000000000000000000000000000007C
:1034500000000000030000008400002000093D007F
:08346000010000001000000053
:0400000508001D9141
:00000001FF
