:020000040800F2
:1000000000000C2049060008F1050008F30500086F
:10001000F5050008F7050008F9050008990600082D
:10002000000000000000000000000000FB050008C8
:10003000FD05000800000000FF050008010600089B
:100040009906000899060008990600089906000814
:100050009906000899060008990600089906000804
:1000600099060008990600089906000899060008F4
:1000700099060008990600089906000899060008E4
:1000800099060008990600089906000899060008D4
:1000900099060008990600089906000899060008C4
:1000A00099060008990600089906000899060008B4
:1000B000000000009906000899060008990600084B
:1000C0009906000899060008990600089906000894
:1000D0009906000899060008990600089906000884
:1000E0009906000899060008990600089906000874
:1000F0009906000899060008990600089906000864
:100100009906000899060008990600089906000853
:100110009906000899060008990600089906000843
:100120009906000899060008990600089906000833
:100130009906000899060008990600089906000823
:100140009906000899060008990600089906000813
:100150009906000899060008990600089906000803
:1001600099060008990600089906000899060008F3
:1001700099060008990600089906000899060008E3
:1001800099060008990600089906000899060008D3
:1001900099060008990600089906000899060008C3
:1001A00099060008990600089906000899060008B3
:1001B000990600080000000099060008990600084A
:1001C000990600080000000099060008990600083A
:1001D0009906000899060008990600089906000883
:1001E0009906000899060008990600089906000873
:1001F00000000000000000009906000899060008B1
:100200009906000899060008990600089906000852
:100210009906000899060008990600089906000842
:100220009906000899060008990600089906000832
:08023000990600089906000878
:100238000348044B834202D0034B03B1184770476D
:100248000C0000200C00002000000000064B0749AD
:10025800C91A891048BF0131491003D0044B0BB1AA
:1002680001481847704700BF0C0000200C00002010
:100278000000000010B5064C237843B9FFF7D8FFFB
:10028800044B13B10448AFF300800123237010BD61
:100298000C000020000000002024000808B5044BD2
:1002A8001BB104490448AFF30080BDE80840CDE71E
:1002B8000000000010000020202400080F4B70B53B
:1002C8000F4DAB42A3EB050607D0B610002401344E
:1002D80055F8043B9847A642F9D80A4D02F09CF815
:1002E800094B5E1BAB424FEAA60606D00024013438
:1002F80055F8043B9847A642F9D870BD0825000870
:1003080008250008082500080C25000870B5860790
:1003180047D0541E002A3ED0CAB2034601E0013C31
:1003280039D303F8012B9D07F9D1032C2CD9CDB271
:100338000F2C05EB052505EB054535D9A4F1100C67
:1003480003F1100E1A462CF00F064FEA1C1CB64497
:10035800C2E90055C2E9025510327245F8D10CF1D4
:10036800010214F00C0F04F00F0C03EB021213D06F
:10037800ACF1040323F003030433134442F8045B91
:100388009342FBD10CF003042CB1C9B21C4403F80E
:10039800011BA342FBD170BD64461346002CF4D167
:1003A800F9E703461446C0E71A46A446E0E700BF4B
:1003B80000B59FB06022002106A8FFF7A7FF18220A
:1003C80000216846FFF7A2FF4FF4403000F0B2FB6F
:1003D80008B172B6FEE74FF4807110220223CDE90E
:1003E800091201220A21CDE91433CDE91813CDE908
:1003F8001A3206930C231790CDE91C3006A81692E2
:1004080000F04EFE08B172B6FEE71F220323CDE9C5
:100418000200CDE9040004216846CDE9002300F07C
:10042800DDFC08B172B6FEE71FB05DF804FB000002
:1004380070B590B000F076F9FFF7BAFF00F0EEFB68
:10044800022000F0BFFB08B172B6FEE7384BD3F8C4
:100458008C2042F00202C3F88C20D3F88C3003F0D1
:1004680002030193019B00F05BFB054608B172B6DD
:10047800FEE70146102205A8FFF748FF1C2229467F
:1004880009A8CDE902550495FFF740FF4FF47A73A8
:10049800284C294E2046C4E90065C4E90335A56007
:1004A800A56101F085FC08B172B6FEE74FF48053F0
:1004B800204605A9059301F0B7FD08B172B6FEE71D
:1004C800204601F0A5FC08B172B6FEE70290049040
:1004D80002A9204601F032FF08B172B6FEE70425F2
:1004E80060230B90CDE909302A46204609A90D95CD
:1004F80001F014FD08B172B6FEE7204600F04AF894
:100508002946204601F018FF40F2E9350024B4637B
:100518000120013400F042F9AC42F8D14FF47A746A
:10052800B463012000F03AF9013CF9D2EEE700BFCC
:10053800000C024628000020000800400420084B58
:1005480082B0D3F8942042F00402C3F89420D3F880
:10055800943003F004030193019B02B000F030B91A
:10056800000C02460268094B82B09A420CD1084B33
:10057800D3F89C2042F00402C3F89C20D3F89C30A6
:1005880003F004030193019B02B070470008004088
:10059800000C024610B5044686B01422002101A8BA
:1005A800FFF7B4FE22680D4B9A4215D10C4B0D484B
:1005B800D3F88C2001A942F00202C3F88C20D3F8AA
:1005C8008C30802203F002030093009B0223CDE9C4
:1005D8000123059300F09AF906B010BD0008004009
:1005E800000C024600040242FEE7FEE7FEE7FEE7D3
:1005F800FEE770477047704700F0BEB801220E480A
:10060800D0F8883043F47003C0F888300B4B1A6078
:100618000022DA611A625A62196821F0A85121F49D
:10062800102119609A62196821F4802119601A65ED
:100638004FF000638360704700ED00E0000C024655
:10064800DFF834D0FFF7DAFF002103E00B4B5B58EB
:10065800435004310A480B4B42189A42F6D30A4ACF
:1006680002E0002342F8043B084B9A42F9D3FFF713
:1006780025FEFFF7DDFEFEE700000C201025000830
:10068800000000200C0000200C0000207800002052
:10069800FEE7000070B5204E054632780AB9012001
:1006A80070BD4FF0E0231C6914F0040417D04FF418
:1006B8007A73B3FBF2F3194A1468B4FBF3F42046D7
:1006C80000F0C0F804460028E9D1024629464FF058
:1006D800FF3000F087F8124B20461D60E0E700F07D
:1006E800FBF8012807D002280DD00028E7D14FF4E5
:1006F800FA533278DDE74FF47A7332784FF4FA44DC
:10070800B3FBF2F3D9E74FF47A7332784FF400442D
:10071800B3FBF2F3D1E700BF040000200000002083
:1007280008000020104A10B51368032043F48073B2
:10073800136000F045F800F0D5FA0C4B0C4A1B6A20
:1007480003F00F03D35CD8400A4B1860042000F074
:1007580089F80020FFF79EFF044618B9FFF7EEFE60
:10076800204610BD0124FBE700200240000C024691
:100778007824000800000020034A044B11681B7805
:100788000B441360704700BF740000200400002071
:10079800014B1868704700BF7400002038B5044644
:1007A800FFF7F6FF0546631C1EBF044B1B78E418D1
:1007B800FFF7EEFF431BA342FAD338BD0400002025
:1007C80007490302CA6803F4E06322F4E0621204F2
:1007D800120C134343F0BF6343F40033CB607047FC
:1007E80000ED00E0154B30B5DC68C4F30224C4F119
:1007F8000703251D042B28BF0423062D4FF0FF35C2
:1008080094BF0024033C05FA03F321EA0303A5403F
:1008180022EA0502A340002843EA0203ACBF00F124
:100828006040074A4FEA0313DBB2ABBF00F56140F3
:1008380000F00F0080F80033135430BD00ED00E0E5
:1008480014ED00E00138B0F1807F3FBF4FF0E023A6
:1008580058610020986137BF1A69012042F00302ED
:100868001A617047042818D8DFE800F00A1826171C
:1008780003004FF0E022136943F00403136170474B
:100888004FF0E022136923F004031361114AD2F8F0
:10089800E03023F44003C2F8E03070474FF0E02224
:1008A800136923F0040313610A4AD2F8E03023F4F1
:1008B800400343F48003EEE74FF0E022136923F08E
:1008C80004031361034AD2F8E03023F4400343F4ED
:1008D8000003E0E7000C02464FF0E0231B695A07CB
:1008E8000DD4094BD3F8E00000F44000B0F5800FB8
:1008F80007D0A0F500035842584140007047042033
:1009080070470120704700BF000C02462DE9F04FE8
:100918007F4B85B003EA902303937E4B002202931A
:1009280003467D4F019101990D6835FA02F402D111
:1009380005B0BDE8F08F012101FA02FE1EEA0505A7
:1009480000F08B8001994C68744924F010068842A5
:1009580040F088800368029923EA0E0C04F0010332
:10096800934043EA0C030360D1F804C00F210CF054
:10097800070E4FEA8E0E01FA0EF90B2101FA0EFE50
:100988000321029B4FEADC081B6803EB8808D8F8B0
:1009980020A02AEA09094EEA090EC8F820E04FEA21
:1009A8004C0E01FA0EF90221D3F8008001FA0EFE6E
:1009B80028EA09084EEA080EC3F800E0013E012EB5
:1009C8007CD9032C49D003214FEA4C0CDE6801FA8C
:1009D8000CFE019926EA0E0E8E6806FA0CF646EA17
:1009E8000E06DE60E60038D50F2122F0030C0CF16C
:1009F8008C4C02F003060CF5083CF600DCF860802D
:100A080001FA06FE039928EA0E0E01FA06F646EAEE
:100A18000E06CCF860606FEA050C3E68E10254BF30
:100A28000CEA06062E433E607E68A10254BF0CEA1B
:100A380006062E437E60D7F88460A10354BF0CEAF3
:100A480006062E43C7F88460D7F88060E10354BFD8
:100A58000CEA06062E43C7F88060029C013208346F
:100A6800029460E703214FEA420901FA09FC022EC9
:100A78006FEA0C0C3ED122FA01FE0F2102F00708A2
:100A88004FEA880801FA08FB019900EB8E0EDEF8A0
:100A980020A009692AEA0B0A01F00F0B0BFA08FBE0
:100AA8004BEA0A0BCEF820B0D3F800E006FA09F6B4
:100AB8000EEA0C0E944646EA0E061E6003214FEA23
:100AC8004C089E6801FA08FE019926EA0E0ECE68C7
:100AD800012106FA08F646EA0E069E605E6801FAEB
:100AE8000CFE26EA0E0E260906FA0CF646EA0E0653
:100AF8005E6068E7D3F800E00EEA0C0E04F0030C21
:100B08000CFA09FC4CEA0E0CC3F800C0944655E7F1
:100B18007F7F2F008824000800200246000002463C
:100B2800034A0020136843F001031360704700BFB5
:100B3800000403401D4BDA6B02F44032824208D1B4
:100B4800B2F5803F82BFDA6842F48022DA60002082
:100B58007047DA68B0F5803F22F4E02242EA0002EA
:100B680088BF42F48022DA604FF47A72104B322147
:100B78001B68B3FBF2F34B43B3FBF2F301331A46A2
:100B88000A49C868000404D40AB903207047013A26
:100B9800F7E7002AF9D0054AD16B090403D4002BE2
:100BA800F3D0013BF8E7002BD1D1EEE7000802466D
:100BB80000000020024BD86B00F44030704700BFA3
:100BC800000802464FF47A72124B32211B68B3FBBD
:100BD800F2F34B43B3FBF2F30F4A0133916850B978
:100BE80021F002019160D16B88070ED50BB9032063
:100BF8007047013BF7E741F002019160D16B89072B
:100C080003D4002BF3D0013BF8E7002BEFD00020F2
:100C1800704700BF0000002000080246024AD36A5D
:100C280043F00103D36270470008024637B52B4DE5
:100C38000446D5F894305B0718D5FFF7BBFF20F4BE
:100C48008033B3F5003F26D1B4F1805F2CBF00207C
:100C58000120234A136823F00F030343136013682A
:100C680003F00F03181A18BF01201BE0D5F89430C1
:100C780043F00403C5F89430D5F8943003F0040326
:100C88000193019BFFF796FFD5F8943023F00403F6
:100C9800C5F89430D3E7B4F1805F05D2B0F5803F52
:100CA80015D0012003B030BDB4F1005F06D980B97A
:100CB800B4F1405F8CBF00200120CAE7B4F1805F27
:100CC80009D1B0F5803F0CBF01200220C1E7032005
:100CD800BFE70020BDE70120BBE700BF000C0246CC
:100CE80000200240384A10B5D369916A13F00C030A
:100CF80005D00C2B36D101F00301012932D19168BE
:100D0800090254BFD2F8F4209268304954BFC2F3A4
:100D18000332120F51F82200002B51D02A4ADFED7E
:100D28002C5A916A936A946AC3F30323013306EE3B
:100D3800903A936BC4F30014C3F3CC03634307EEF8
:100D4800903A01F003010229B8EEE77AF8EEE66A74
:100D5800B7EE006A14D0032912D007EE900AF8EE15
:100D6800677A0FE0D26902F00C02042A06D0082B39
:100D780027D000200C2B23D10020CFE71548F9E716
:100D8800DFED157A536B87EEA65AC3F3080307EE17
:100D9800903AF8EEE77AE7EE257A0B4B77EE867A0B
:100DA8005B6B67EE857AC3F30663013307EE103A8F
:100DB800F8EEC76A87EEA67AFCEEC77A17EE900AB5
:100DC80010BD0448FCE700BF000C024638240008A8
:100DD800000000390024F4000024744B2DE9F3418D
:100DE8000D46044618B9012002B0BDE8F0819C4ABE
:100DF800136803F00F038B426ED32368D80677D4A9
:100E080019070DD5974920690A6A120902F070027C
:100E1800904281BF0A6A22F4E06242EA00120A6242
:100E28005A070BD58F49E0680A6A02F070029042AF
:100E380081BF0A6A22F0700202430A629F070BD53B
:100E48008849A0680A6A02F00F02904281BF0A6AC4
:100E580022F00F0202430A62DE0756D42268900786
:100E680000F1D8807E490B6803F00F03AB4200F213
:100E7800DE80500700F1E78011070DD57949206918
:100E88000B6A1B0903F0700398423FBF0B6A23F4F7
:100E9800E06343EA00130B62D3060BD5714A61691C
:100EA800536A03F0700399423FBF536A23F07003FB
:100EB8000B435362FFF716FF6A4B6B4A1B6A03F03A
:100EC8000F03D35CD840694B1860694B186802B0AF
:100ED800BDE8F041FFF7DEBB136823F00F030B43B7
:100EE8001360136803F00F038B427FF47CAF84E731
:100EF8005C4960694A6A02F07002904281BF4A6A9E
:100F080022F0700202434A627AE76268554B032A6C
:100F18004ED1D3F8942051073DD40127D3F894201B
:100F280042F00402C3F89420D3F8943003F0040389
:100F38000193019BFFF72CFCDFF838810646D8F8AF
:100F48000C305A0329D4474B2FB1D3F8942022F000
:100F58000402C3F894201B6813F0007F3FF443AFEA
:100F6800404E6268F36941F2883823F00303134363
:100F7800F361FFF70DFC63680746032B25D1F3697E
:100F880003F00C030C2B3FF469AFFFF701FCC01B07
:100F98004045F4D90AE00027CCE7D8F80C305B04C8
:100FA800D1D4FFF7F5FB801B0228F6D903201BE7F5
:100FB800022A1B6802D113F4003FCFE712B913F0DD
:100FC800040FCBE713F4806FC8E7022B0BD1F3694A
:100FD80003F00C03082B3FF441AFFFF7D9FBC01B0C
:100FE8004045F4D9E2E77BB9F36913F00C0F3FF4FD
:100FF80035AFFFF7CDFBC01B4045F5D9D6E7FFF766
:10100800C7FBC01B4045D1D8F36903F00C03042B80
:10101800F5D123E71349A0680B6A03F00F03984240
:101028003FBF0B6A23F00F0303430B621AE70B68F9
:1010380023F00F032B430B600B6803F00F03AB4245
:101048007FF4D1AE15E70749E0680B6A03F0700337
:1010580098423FBF0B6A23F0700303430B620BE710
:1010680000200240000C02467824000800000020FE
:10107800080000200008024608B5FFF733FE054BBC
:10108800054A1B6A03F00F03D35CD840034B186072
:1010980008BD00BF000C02467824000800000020AC
:1010A8002DE9FF410446002839D0A34BDE699F6A29
:1010B800036806F00C06D80607F0030740F19A808B
:1010C800E3691EB10C2E75D1012F73D13BB39A4D34
:1010D800606AAB68190256BFD5F8F430AB681B04D8
:1010E80003F07043984238D9AEB1AB6843F40003BB
:1010F800AB60AB68616A23F070430B43AB60B1F13E
:10110800404F226A0DD20029EB681ADA23F478736B
:1011180043EA421309E0FFF789FD0028E5D00120E2
:101128000CE0EB6823F01F031343EB60FFF7A4FF09
:10113800824B1868FFF7AEFA00285BD004B0BDE810
:10114800F081B1F1804F2BBF23F4F84323F47823C7
:1011580043EA822343EAC233E7E7AB68B0F1404F82
:1011680043F40003AB60AB6823F0704343EA000329
:10117800AB60226AEB680AD323F01F031343EB60CA
:10118800002ED3D1FFF752FD0028CFD0C7E70028A3
:1011980004DA23F4787343EA4213F0E7B0F1804F9E
:1011A8002BBF23F4F84323F4782343EA822343EA4A
:1011B800C233E4E7604D002B74D02B6843F0010381
:1011C8002B60FFF7E5FA80462B685A074ED5AB68C7
:1011D80043F40003AB60AB68616A23F070430B43D0
:1011E800AB60B1F1404F226AEB6847D323F01F038D
:1011F8001343EB602368DD0765D42368980700F183
:10120800BD802368180740F138814B4BD3F89420F0
:10121800510700F1F1800127D3F8942042F004022D
:10122800C3F89420D3F8943003F004030193019B8E
:10123800434DAB6ADA0740F1E18063693E4D002B0C
:1012480040F0ED80D5F8F03023F0A053C5F8F03029
:10125800FFF79EFA0646D5F8F0301B0140F10581EC
:10126800FFF796FA801B0528F5D905E0FFF790FAF5
:10127800A0EB08000228A7D903205FE7002904DAB9
:1012880023F4787343EA4213B3E7B1F1804F04D3F0
:1012980023F4F84343EA8223ABE723F4782343EAB1
:1012A800C233A6E72B6823F001032B60FFF770FA1F
:1012B80080462B685B079DD5FFF76AFAA0EB08000C
:1012C8000228F6D9D8E7082E636803D00C2E04D17B
:1012D800032F02D1002B90D121E7B3F5803F164DA3
:1012E80013D12B6843F480332B60FFF751FA05467E
:1012F800DFF84480D8F8003099033FF57EAFFFF758
:1013080047FA401B6428F5D9B6E7B3F5A02F08D1F2
:101318002B6843F480232B602B6823F480132B6005
:10132800DFE7B3F5A81F0DD12B6843F480232B60AA
:101338002B6843F48013F2E7000C024608000020F3
:10134800000802462A6822F480322A602A6822F4B9
:1013580080222A602A6822F480122A60002BC4D1D5
:10136800FFF716FA80462B689A037FF546AFFFF71A
:101378000FFAA0EB08006428F5D97DE7042EE3688E
:1013880003D00C2E0DD1022F0BD1002B3FF4C7AE8A
:10139800A94A2169136923F4F81343EA0143136145
:1013A8002FE7A54DBBB12B6843F480732B60FFF783
:1013B800EFF906462B685B0507D52B69226923F4EC
:1013C800F81343EA02432B611BE7FFF7E1F9801B9F
:1013D8000228EFD950E72B6823F480732B60FFF7BE
:1013E800D7F906462B685F057FF50BAFFFF7D0F9F5
:1013F800801B0228F6D93FE7002719E7AB6A43F0BC
:101408000103AB62FFF7C4F90646AB6ADB073FF599
:1014180014AFFFF7BDF9801B0228F6D92CE7D5F8E1
:10142800F030A16903F08052914210D003F040627D
:10143800B2F1006F3FF473AE58016CD47E4AA169D3
:10144800D2F8F03023F080530B43C2F8F0307A4DD5
:10145800D5F8F03043F08063C5F8F030FFF798F91D
:101468000646D5F8F0301A0168D537B1724AD2F875
:10147800943023F00403C2F8943023685D0740F1E8
:10148800A7806D4BD3F8942050075DD40127D3F87B
:10149800942042F00402C3F89420D3F8943003F067
:1014A80004030293029B654DAB6AD9074ED5A36826
:1014B800614D13F0010F59D1D5F8F02022F0010247
:1014C800C5F8F020D5F8F02022F00402C5F8F02085
:1014D800002B5AD1FFF75CF941F288380646D5F857
:1014E800F0309A0700F1A080D5F8F0301B0667D5D8
:1014F80041F28838D5F8F03023F08003C5F8F03091
:101508004D4DD5F8F03018055AD5FFF741F9801B35
:101518004045F6D9B0E6D5F8F03023F0A053C5F829
:10152800F030FFF735F90646D5F8F030190185D5C2
:10153800FFF72EF9801B0528F6D99DE6FFF728F955
:10154800801B05288DD997E60027ACE7AB6A43F0E6
:101558000103AB62FFF71CF90646AB6ADA07A6D4AB
:10156800FFF716F9801B0228F7D985E613F0040F58
:10157800D5F8F0301EBF43F00403C5F8F030D5F8B5
:10158800F03043F00103C5F8F030FFF701F941F2FC
:1015980088380546284ED6F8F0309B0727D5A3682B
:1015A80013F0800FD6F8F0302DD041F2883843F090
:1015B8008003C6F8F030204ED6F8F03018051CD558
:1015C80037B11D4AD2F8943023F00403C2F894309E
:1015D8002368990634D423681A0654D42368580615
:1015E80074D4A16B002940F0C1800020A6E5FFF764
:1015F800CFF8401B4045CED93EE6FFF7C9F8401B5F
:101608004045D9D938E641F2883823F08003C6F836
:10161800F030094ED6F8F0301905D1D5FFF7B8F8F3
:10162800401B4045F6D927E6FFF7B2F8801B404536
:101638007FF655AF20E600BF000C024600080246C0
:10164800E36A9B4D7BB12B6843F480532B60FFF713
:101658009FF806462B689B04BDD4FFF799F8801BBA
:101668000228F7D908E62B6823F480532B60FFF78C
:101678008FF806462B689F04ADD5FFF789F8801BC5
:101688000228F7D9F8E5236B894D7BB12B6843F421
:1016980080432B60FFF77CF806462B6819049DD41D
:1016A800FFF776F8801B0228F7D9E5E52B6823F4C5
:1016B80080432B60FFF76CF806462B681A048DD51B
:1016C800FFF766F8801B0228F7D9D5E5636B784DDC
:1016D800002B3AD0AB6843F40003AB60AB68A26A56
:1016E80023F070631343AB60D4E90823B3F1404F90
:1016F80016D3EB6823F01F031343EB606C4D2B6884
:1017080043F010032B60FFF743F806462B689B064F
:101718003FF567AFFFF73CF8801B0228F6D9ABE529
:10172800002B05DAEB6823F4787343EA4213E4E705
:10173800B3F1804FEB682BBF23F4F84323F47823ED
:1017480043EA822343EAC233D7E72B6823F0100326
:101758002B60FFF71DF806462B689F067FF541AF03
:10176800FFF716F8801B0228F6D985E5504DEB697E
:1017780003F00C030C2B00F0A1802B68022923F046
:1017880080732B6040F08180FFF702F806462968D5
:1017980011F000716DD1D5F894305E070CD4012199
:1017A800D5F8943043F00403C5F89430D5F8943054
:1017B80003F004030393039B3E4DEE68EB6823F4A8
:1017C8008023EB603A4B676C986AE26B20F47F40A9
:1017D8003A4320F003000243206C013842EA002219
:1017E8009A62A26C5F6B3448013A3840C2F308022F
:1017F8000243E06C0138400280B20243206D013898
:10180800000400F4FE000243606D0138000600F099
:10181800FE4002435A639A6A22F010029A62E26D0D
:10182800D2009A639A6A42F010029A629A6AA06D8C
:1018380022F00C0202439A62700342BFEA6842F443
:101848008022EA6029B1D3F8942022F00402C3F878
:1018580094201A68164C42F080721A60FEF798FFBE
:10186800054623689A010AD5A36A43F48023A36234
:10187800BBE6FEF78DFF801B022888D9FCE4FEF743
:1018880087FF401B0228ECD9F6E4FEF781FF0446E7
:101898002B689B0106D4AB6A23F4E02323F00303EF
:1018A800AB62A2E6FEF774FF001B0228F0D9E3E45E
:1018B800000C024600080246000080800129AA6A3E
:1018C8006B6B3FF42CACE06B02F0030181427FF4B8
:1018D80026AC216CC2F30320013988427FF41FAC87
:1018E800616C02F470428A427FF419ACA26CC3F3B3
:1018F8000801013A91427FF412ACE26CC3F346212D
:10190800013A91427FF40BAC226DC3F30641013AD0
:1019180091427FF404AC626DC3F30663013A9342CB
:101928007FF4FDAB0D4BE16D9A6BC2F3CC028A429A
:101938003FF45BAE9A6A22F010029A62FEF728FF23
:101948000546FEF725FFA842FBD0E26D034BD20007
:101958009A639A6A42F010029A6246E6000C0246BE
:10196800036A026A70B522F0010202624468826961
:101978000D6822F4803222F073022A438D6823F026
:1019880002032B431A4DA8421FD005F18055A842E7
:101998001BD0184DA84218D005F18055A84214D084
:1019A800154DA84211D005F18055A8420DD0134D10
:1019B800A8420AD005F18055A84206D0104DA84289
:1019C80003D005F18055A8420BD1CD6823F0080358
:1019D8002B4324F44075D1E90546344323F004032E
:1019E8002C43446082614A684263036270BD00BF51
:1019F800002C0140003401400040014000440140F7
:101A080000480140036A026A70B522F480720262DB
:101A18004468C2690D6822F4803222F073022A43B6
:101A28008D6823F4007343EA05231C4DA8420AD0AD
:101A380005F18055A84206D0194DA84203D005F1FA
:101A48008055A8420ED1CD6823F4006343EA0523EC
:101A580023F4806324F44055D1E90546344345EA2C
:101A6800041414E00F4DA842F4D005F18055A842A3
:101A7800F0D00D4DA842EDD005F18055A842E9D02F
:101A88000A4DA842E6D005F18055A842E2D044604C
:101A9800C2614A68C263036270BD00BF002C014086
:101AA800003401400040014000440140004801402A
:101AB800036A026A70B522F4805202624468C269FD
:101AC8000D6822F0807222F4E64242EA05228D680F
:101AD80023F4005343EA05331B4DA8420AD005F10D
:101AE8008055A84206D0194DA84203D005F180556B
:101AF800A8420ED1CD6823F4004343EA053323F40A
:101B0800804324F44045D1E90546344345EA84142A
:101B180014E00F4DA842F4D005F18055A842F0D04A
:101B28000C4DA842EDD005F18055A842E9D00A4DE8
:101B3800A842E6D005F18055A842E2D04460C261CF
:101B48004A680264036270BD002C01400034014001
:101B5800004001400044014000480140036A026A15
:101B680030B522F4803202624468026D0D6822F4B6
:101B7800803222F070022A438D6823F4003343EA4E
:101B88000543174DA8421FD005F18055A8421BD028
:101B9800144DA84218D005F18055A84214D0124D12
:101BA800A84211D005F18055A8420DD00F4DA8428A
:101BB8000AD005F18055A84206D00D4DA84203D0A1
:101BC80005F18055A84204D14D6924F4803444EAD3
:101BD8000524446002654A688264036230BD00BF20
:101BE800002C014000340140004001400044014005
:101BF80000480140036A026A30B522F4801202628A
:101C08004468026D0D6822F0807222F4E04242EAD4
:101C180005228D6823F4001343EA0553164DA842A4
:101C28001FD005F18055A8421BD0144DA84218D0EA
:101C380005F18055A84214D0114DA84211D005F1E4
:101C48008055A8420DD00F4DA8420AD005F1805505
:101C5800A84206D00C4DA84203D005F18055A842F1
:101C680004D14D6924F4802444EA85244460026543
:101C78004A68C264036230BD002C01400034014050
:101C88000040014000440140004801407047000006
:101C98003F4A0368904225D002F18052904221D0F9
:101CA800B0F1804F1ED0B0F1A04F1BD0394A9042FE
:101CB80018D002F18052904214D0374A904211D085
:101CC80002F1805290420DD0344A90420AD002F17B
:101CD8008052904206D0324A904203D002F180529C
:101CE800904208D14A6823F070031343CA6823F46A
:101CF8004073134314E02B4A9042F7D002F180520C
:101D08009042F3D0284A9042F0D002F1805290429B
:101D1800ECD0264A9042E9D002F180529042E5D0B8
:101D28004A6923F08003134303608B68C3620B681E
:101D38008362174B98421FD003F1805398421BD0FF
:101D4800174B984218D003F18053984214D0154B82
:101D5800984211D003F1805398420DD0124B98420B
:101D68000AD003F18053984206D0104B984203D012
:101D780003F18053984201D10B6903630123436146
:101D88000369DB0742BF036923F00103036170475E
:101D9800002C01400004004000080040000C0040F6
:101DA8000034014000400140004401400048014027
:101DB80010B5044650B390F83D3003F0FF021BB94C
:101DC80080F83C20FEF7CEFB0223206884F83D30E3
:101DD800211DFFF75DFF0123002084F8483084F8B7
:101DE8003E3084F83F3084F8403084F8413084F83D
:101DF800423084F8433084F8443084F8453084F81D
:101E0800463084F8473084F83D3010BD0120FCE7A7
:101E180010B5044650B390F83D3003F0FF021BB9EB
:101E280080F83C20FFF732FF0223206884F83D3019
:101E3800211DFFF72DFF0123002084F8483084F886
:101E48003E3084F83F3084F8403084F8413084F8DC
:101E5800423084F8433084F8443084F8453084F8BC
:101E6800463084F8473084F83D3010BD0120FCE747
:101E7800036A026A70B522F010020262446882693D
:101E88000D6822F0807222F4E64242EA05228D684B
:101E980023F0200343EA05131B4DA8420AD005F19D
:101EA8008055A84206D0194DA84203D005F18055A7
:101EB800A8420ED1CD6823F0800343EA051323F02E
:101EC800400324F44065D1E90546344345EA8404D7
:101ED80014E00F4DA842F4D005F18055A842F0D087
:101EE8000C4DA842EDD005F18055A842E9D00A4D25
:101EF800A842E6D005F18055A842E2D0446082614C
:101F08004A688263036270BD002C014000340140BE
:101F180000400140004401400048014038B590F8B5
:101F28003C300446012B73D001200C2A84F83C0075
:101F38004ED008D8042A2BD0082A39D0BAB10023A9
:101F480084F83C3038BD102A52D0142AF7D12068C2
:101F5800FFF750FE036D0A6943F400630365036DE0
:101F680023F480630365036D43EA02234EE020688F
:101F7800FFF7F6FC83690A6943F008038361836904
:101F880023F0040383618369134383610020D6E748
:101F98002068FFF76DFF83690A6943F40063836172
:101FA800836923F480638361836943EA0223ECE74E
:101FB8002068FFF727FDC3690A6943F00803C36176
:101FC800C36923F00403C361C3691343C361DDE735
:101FD8002068FFF76DFDC3690A6943F40063C361B4
:101FE800C36923F48063C361C36943EA0223EDE74D
:101FF8002068FFF7B3FD036D0A6943F00803036522
:10200800036D23F004030365036D13430365BDE704
:10201800022097E710B584680A4324F47F4442EA13
:1020280003222243826010BD38B590F83C30044644
:10203800012B4FF0020300F0AC80012280F83D3004
:1020480080F83C200068544B85682B4083600B68FF
:10205800702B58D03CD8502B69D01DD8402B7FD03E
:1020680006D8202B0ED00BD833F010020AD001224C
:10207800012384F83D30002384F83C30104638BDF5
:10208800302BF4D1826822F4401222F070021A43F5
:1020980042F0070282603FE0602BE9D1036A026ADE
:1020A8004D6822F01002C9680262826923F0A00319
:1020B80022F4704243EA051342EA01328261036264
:1020C800836823F4401323F0700343F0670322E08E
:1020D800B3F5005F22D004D8B3F5805218BF0122AF
:1020E800C6E72E498B42CDD008D823F01001B1F5B0
:1020F800801FC7D02A498B42BAD1C3E729498B42EE
:10210800C0D03031F7E7CB68D1E90121FFF782FF72
:10211800836843F0770383600022A9E7CB68D1E99D
:102128000121FFF777FF836843F48043F3E74A68A8
:10213800CD68016A036A21F00A0123F001030362F2
:1021480083690A4323F0F00343EA051383610262BB
:10215800836823F4401323F0700343F05703DAE74E
:102168004A68CD68016A036A21F00A0123F0010375
:10217800036283690A4323F0F00343EA051383618A
:102188000262836823F4401323F0700343F047038B
:10219800C1E71A4672E700BF8800CEFF3000100082
:1021A800200010004000100010B50124036A01F05F
:1021B8001F018C4023EA04030362036A8A401A431E
:1021C800026210BD082908B518D005D859B10429EC
:1021D80011D090F8433008E00C2912D01029F8D11A
:1021E80090F8423001E090F83E30013B18BF0123DF
:1021F80053B1012051E090F83F30F6E790F84030B5
:10220800F3E790F84130F0E708294FF0020348D08F
:1022180006D861B1042941D0022380F8433008E090
:102228000C2941D01029F7D180F8423001E080F81C
:102238003E3000680122FFF7B7FF354B98421FD0A8
:1022480003F1805398421BD0324B984218D003F1C7
:102258008053984214D0304B984211D003F18053E8
:1022680098420DD02D4B98420AD003F180539842E2
:1022780006D02B4B984203D003F1805398421AD1D1
:10228800436C43F400434364214B984233D1826842
:10229800244B1340062B0AD1002008BD80F83F309C
:1022A800C7E780F84030C4E780F84130C1E7B3F5AC
:1022B800803F1BD1F0E7B0F1804FE8D0B0F1A04FDC
:1022C800E5D0194B9842E2D003F180539842DED012
:1022D800164B9842DBD003F180539842D7D0144B69
:1022E8009842D4D003F180539842D0D0036843F089
:1022F80001030360D0E70F4B9842C8D0054B9842C2
:10230800C5D003F180539842C1D0034BE8E700BF22
:10231800002C0140003401400040014000440140CD
:102328000048014007000100000400400008004088
:10233800000C0040002C0150FFF744BF30B590F866
:102348003C300446012B4FF0020058D023682C4D36
:1023580084F83D00AB425A6898680AD005F1805568
:10236800AB4206D0274DAB4203D005F18055AB42B6
:1023780003D14D6822F470022A430D6822F00072DE
:1023880022F070022A435A601D4A93422CD002F16F
:102398008052934228D0B3F1804F25D0B3F1A04F9B
:1023A80022D0194A93421FD002F1805293421BD087
:1023B800164A934218D002F18052934214D0144A1C
:1023C800934211D002F1805293420DD00D4A9342AC
:1023D8000AD002F18052934206D00E4A934203D0AB
:1023E80002F18052934204D1896820F080020A43A6
:1023F8009A600123002084F83D3084F83C0030BD09
:10240800002C014000340140000400400008004056
:10241800000C004000400140F8B500BFF8BC08BC03
:102428009E467047F8B500BFF8BC08BC9E4670478A
:10243800006CDC0200366E010024F400001BB700BB
:1024480000093D0080841E00504B140040420F00DC
:1024580000E02E000070170000A00F0000B80B006D
:10246800801A0600400D030088070200A0860100BC
:10247800000000000000000001020304060708092C
:1024880000000242010000000000024203000000B8
:1024980000000242060000000004024201000000A1
:1024A800000402420A000000000802420200000084
:1024B800000C02420D000000000C02420200000065
:1024C800000802420A000000000402420000000066
:1024D800000802420C000000000402420300000051
:1024E8000004024204000000001002420000000044
:1024F8000010024202000000001002420300000027
:04250800A502000820
:04250C007D02000844
:0C25100000093D00010000001000000068
:0400000508000649A0
:00000001FF
