:020000040800F2
:1000000000000C20B10A0008410A0008430A000859
:10001000450A0008470A0008490A0008010B0008C1
:100020000000000000000000000000004B0A000873
:100030004D0A0008000000004F0A0008510A00089D
:10004000010B0008010B0008010B0008010B000860
:10005000010B0008010B0008010B0008010B000850
:10006000010B0008010B0008010B0008010B000840
:10007000010B0008010B0008010B0008010B000830
:10008000010B0008010B0008010B0008010B000820
:10009000010B0008010B0008010B0008010B000810
:1000A000010B0008010B0008010B0008010B000800
:1000B00000000000010B0008010B0008010B000804
:1000C000010B0008010B0008010B0008010B0008E0
:1000D000010B0008010B0008010B0008010B0008D0
:1000E000010B0008010B0008010B0008010B0008C0
:1000F000010B0008010B0008010B0008010B0008B0
:10010000010B0008010B0008010B0008010B00089F
:10011000010B0008010B0008010B0008010B00088F
:10012000010B0008010B0008010B0008010B00087F
:10013000010B0008010B0008010B0008010B00086F
:10014000010B0008010B0008010B0008010B00085F
:10015000010B0008010B0008010B0008010B00084F
:10016000010B0008010B0008010B0008010B00083F
:10017000010B0008010B0008010B0008010B00082F
:10018000010B0008010B0008550A0008610A00086D
:10019000010B0008010B0008010B0008010B00080F
:1001A000010B0008010B0008010B0008010B0008FF
:1001B000010B000800000000010B0008010B000803
:1001C000010B000800000000010B0008010B0008F3
:1001D000010B0008010B0008010B0008010B0008CF
:1001E000010B0008010B0008010B0008010B0008BF
:1001F0000000000000000000010B0008010B0008D7
:10020000010B0008010B0008010B0008010B00089E
:10021000010B0008010B0008010B0008010B00088E
:10022000010B0008010B0008010B0008010B00087E
:08023000010B0008010B00089E
:100238000348044B834202D0034B03B1184770476D
:100248004C0000204C00002000000000064B07492D
:10025800C91A891048BF0131491003D0044B0BB1AA
:1002680001481847704700BF4C0000204C00002090
:100278000000000010B5064C237843B9FFF7D8FFFB
:10028800044B13B10448AFF300800123237010BD61
:100298004C000020000000009449000808B5044BF9
:1002A8001BB104490448AFF30080BDE80840CDE71E
:1002B8000000000050000020944900080F4B70B562
:1002C8000F4DAB42A3EB050607D0B610002401344E
:1002D80055F8043B9847A642F9D80A4D04F056FB56
:1002E800094B5E1BAB424FEAA60606D00024013438
:1002F80055F8043B9847A642F9D870BDB44A00089F
:10030800B44A0008B44A0008B84A000870B586071D
:1003180047D0541E002A3ED0CAB2034601E0013C31
:1003280039D303F8012B9D07F9D1032C2CD9CDB271
:100338000F2C05EB052505EB054535D9A4F1100C67
:1003480003F1100E1A462CF00F064FEA1C1CB64497
:10035800C2E90055C2E9025510327245F8D10CF1D4
:10036800010214F00C0F04F00F0C03EB021213D06F
:10037800ACF1040323F003030433134442F8045B91
:100388009342FBD10CF003042CB1C9B21C4403F80E
:10039800011BA342FBD170BD64461346002CF4D167
:1003A800F9E703461446C0E71A46A446E0E700BF4B
:1003B80053B94AB9002908BF00281CBF4FF0FF31C4
:1003C8004FF0FF3000F08CB9ADF1080C6DE904CEA8
:1003D80000F006F8DDF804E0DDE9022304B0704718
:1003E8002DE9F04F099D0E4604460F46002B47D1D4
:1003F8008A429446B2FA82F35AD943B102FA03FC0C
:10040800C3F120029F409C4020FA02F217434FEAB2
:100418001C461FFA8CFE220CB7FBF6F106FB11777F
:1004280001FB0EF042EA0742904208D91CEB020297
:1004380001F1FF3702D2904200F23C813946121A8C
:10044800A4B2B2FBF6F006FB102200FB0EFE44EA53
:100458000244A64508D91CEB040400F1FF3202D27D
:10046800A64500F22A81104640EA0140A4EB0E049A
:1004780000211DB1DC400023C5E90043BDE8F08F31
:100488008B4205D90DB1C5E9000100210846F5E701
:10049800B3FA83F100294FD1B342C0F002818242FE
:1004A80040F2FF800846002DE8D0C5E90047E5E79F
:1004B800002B40F0AF808A1A4FEA1C4E1FFA8CF7C7
:1004C8000121B2FBFEF60EFB1620220C42EA004286
:1004D80007FB06F090420FD91CEB020206F1FF3829
:1004E8002CBF4FF001094FF00009904203D9B9F130
:1004F800000F00F0DC804646121AA4B2B2FBFEF0F0
:100508000EFB102200FB07F744EA0244A7420FD96A
:100518001CEB040400F1FF322CBF4FF0010E4FF02A
:10052800000EA74203D9BEF1000F00F0C9801046A3
:10053800E41B40EA06409CE7C1F120048B4006FA20
:1005480001FC00FA01FE22FA04F7E6408A401F4344
:1005580020FA04F34FEA174843EA0C031FFA87FC12
:100568004FEA1349B6FBF8F008FB106649EA06465D
:1005780000FB0CF9B1450ED9BE1900F1FF3A2CBFAA
:100588004FF0010B4FF0000BB14503D9BBF1000F41
:1005980000F0A2805046A6EB09061FFA83F9B6FBC5
:1005A800F8F308FB136603FB0CFC49EA0646B4455E
:1005B8000ED9BE1903F1FF382CBF4FF001094FF0D7
:1005C8000009B44503D9B9F1000F00F08280434611
:1005D80043EA0040A6EB0C06A0FB028C66454346A6
:1005E800E14602D307D1C64505D2B8EB02036CEB4E
:1005F800070C0138E1465DB1BEEB030266EB090664
:1006080006FA04F422FA01F3CE401C43C5E9004679
:10061800002133E702FA03FCC3F1200299409C4011
:10062800D6404FEA1C4E20FA02F21FFA8CF7B6FBAE
:10063800FEF00A430EFB1066110C41EA064100FB6E
:1006480007F68E420ED91CEB010100F1FF382CBFD2
:100658004FF001094FF000098E4202D9B9F1000F9D
:1006680034D04046891B92B2B1FBFEF60EFB161140
:1006780042EA014206FB07F191420ED91CEB020245
:1006880006F1FF382CBF4FF001094FF000099142E5
:1006980002D9B9F1000F16D04646521A46EA00416F
:1006A8000FE7841A66EB030201201746FBE6023EB9
:1006B800624421E702396244C1E664440238D3E661
:1006C8006444023834E7023E6244E6E70238614493
:1006D800C8E7023B3E447BE702383E445BE700BF85
:1006E800704700BF00B59FB06022002106A8FFF741
:1006F8000DFE182200216846FFF708FE4FF440302F
:1007080001F094FA08B172B6FEE74FF48071102236
:100718000223CDE9091201220A21CDE91433CDE9DA
:100728001813CDE91A3206930C231790CDE91C3023
:1007380006A8169201F0FCFC08B172B6FEE71F226B
:100748000323CDE90200CDE9040004216846CDE980
:10075800002301F08BFB08B172B6FEE71FB05DF80D
:1007680004FB00007FB500F011FAFFF7BBFF3E4B1A
:100778005220D3F88C203D4C42F08002C3F88C20E4
:10078800D3F88C2002F080020292029AD3F88C20CF
:1007980042F00102C3F88C20D3F88C2002F0010249
:1007A8000392039AD3F8882042F00102C3F8882004
:1007B8000022D3F88830114603F001030193019B0E
:1007C80000F044FA522000F071FA0022532011463A
:1007D80000F03CFA532000F069FA4FF4E133244A60
:1007E8002046C4E9002300230C22C4E90233C4E9EB
:1007F8000523C4E90733C4E90933236103F08AFFF9
:10080800014608B172B6FEE7204604F07EF80146BC
:1008180008B172B6FEE7204604F097F808B172B640
:10082800FEE7204604F056F808B172B6FEE701F07C
:10083800F3F908B172B6FEE7402220460D4904F0EC
:1008480001F830230C4E5D1CEDB23A2D08BF30255F
:10085800402231462046F37103F0AAFC4FF47A7027
:1008680000F0D0F92B46EEE7000C0246D401002038
:1008780000380140680000200000002072B6FEE742
:100888000420084B82B0D3F8942042F00402C3F845
:100898009420D3F8943003F004030193019B02B031
:1008A80000F0C2B9000C024670B50646D2B0142258
:1008B800002102A8FFF72AFDC022002122A8FFF785
:1008C80025FD3268534B9A4240F0A1800122002353
:1008D80022A8CDE9222302F08FF908B1FFF7CEFF55
:1008E8004D4B4FF4C060D3F8A420002542F4804259
:1008F800C3F8A420D3F8A42002A902F480420092ED
:10090800009AD3F88C20454C42F00102C3F88C20A1
:10091800D3F88C30CDE9045503F001030193019B12
:100928000223CDE9020307233D48069301F06AF844
:100938001923DFF800C12046C4E900C30123C4E934
:100948000255C4E90455C4E90655C4E90933C4E9A4
:100958000B552562656300F01BFA08B1FFF78EFF9F
:1009680010212E48F467E66500F0C3FC08B1FFF7D4
:1009780085FF212118230122CDE90713CDE9102293
:1009880000234FF04022274907A8CDE90933CDE9D4
:100998000B33CDE90D33CDE91223CDE9153314938B
:1009A800189300F0A3FE08B1FFF768FF00211D4A65
:1009B8001D4800F037FF08B1FFF760FF1A4800F044
:1009C800A0FF08B1FFF75AFF184C194B4FF400323B
:1009D80023600023C4E90E33C4E910238123204691
:1009E800A36400F039FD08B1FFF748FF0E490F482E
:1009F80000F0B8FF08B1FFF741FF10210B48C6F817
:100A08008040E66500F075FC08B1FFF737FF52B08B
:100A180070BD00BF00380140000C02465C01002098
:100A2800000002423801002020010020A800002018
:100A380050050240D0050240FEE7FEE7FEE7FEE76C
:100A4800FEE770477047704700F0CAB8014800F0E9
:100A580091BB00BFA8000020014800F08BBB00BF7D
:100A68005C01002001220E48D0F8883043F470035E
:100A7800C0F888300B4B1A600022DA611A625A6299
:100A8800196821F0A85121F4102119609A62196897
:100A980021F4802119601A654FF000638360704764
:100AA80000ED00E0000C0246DFF834D0FFF7DAFF73
:100AB800002103E00B4B5B58435004310A480B4BB1
:100AC80042189A42F6D30A4A02E0002342F8043B4D
:100AD800084B9A42F9D3FFF7F1FBFFF743FEFEE715
:100AE80000000C20BC4A0008000000204C00002038
:100AF8004C0000206C020020FEE7000070B5204E7C
:100B0800054632780AB9012070BD4FF0E0231C6910
:100B180014F0040417D04FF47A73B3FBF2F3194AB4
:100B28001468B4FBF3F4204600F0CEF8044600281D
:100B3800E9D1024629464FF0FF3000F087F8124B02
:100B480020461D60E0E700F009F9012807D00228D7
:100B58000DD00028E7D14FF4FA533278DDE74FF48F
:100B68007A7332784FF4FA44B3FBF2F3D9E74FF4CF
:100B78007A7332784FF40044B3FBF2F3D1E700BF45
:100B8800440000204000002048000020104A10B512
:100B98001368032043F48073136000F045F801F0F4
:100BA800E9F80C4B0C4A1B6A03F00F03D35CD840DE
:100BB8000A4B1860042000F097F80020FFF79EFF0A
:100BC800044618B9FFF75CFE204610BD0124FBE778
:100BD80000200240000C0246F449000840000020B2
:100BE800034A044B11681B780B441360704700BF1D
:100BF8006802002044000020014B1868704700BFBD
:100C08006802002038B50446FFF7F6FF0546631C66
:100C18001EBF044B1B78E418FFF7EEFF431BA342EB
:100C2800FAD338BD4400002007490302CA6803F418
:100C3800E06322F4E0621204120C134343F0BF6332
:100C480043F40033CB60704700ED00E0154B30B53E
:100C5800DC68C4F30224C4F10703251D042B28BF54
:100C68000423062D4FF0FF3594BF0024033C05FAFA
:100C780003F321EA0303A54022EA0502A340002862
:100C880043EA0203ACBF00F16040074A4FEA03138E
:100C9800DBB2ABBF00F5614000F00F0080F8003315
:100CA800135430BD00ED00E014ED00E0002807DB30
:100CB80001234109034A00F01F00834042F8213014
:100CC800704700BF00E100E00138B0F1807F3FBF0E
:100CD8004FF0E02358610020986137BF1A6901205E
:100CE80042F003021A617047042818D8DFE800F0C0
:100CF8000A18261703004FF0E022136943F0040393
:100D0800136170474FF0E022136923F00403136165
:100D1800114AD2F8E03023F44003C2F8E0307047BB
:100D28004FF0E022136923F0040313610A4AD2F852
:100D3800E03023F4400343F48003EEE74FF0E02271
:100D4800136923F004031361034AD2F8E03023F453
:100D5800400343F40003E0E7000C02464FF0E023B1
:100D68001B695A070DD4094BD3F8E00000F4400082
:100D7800B0F5800F07D0A0F5000358425841400055
:100D88007047042070470120704700BF000C0246DE
:100D980038B50446FFF730FF0546002C00F0A68161
:100DA800002384F84C300223226884F854305369B5
:100DB80043F00603536123685A69D20700F18B8117
:100DC8005A69216A22F443020A435A61E169626955
:100DD800B04D0A432169AB4242EA0102A169AE481B
:100DE80042EA010200F08780AC498B4200F0838020
:100DF80001F1704180318B427DD001F180518B42ED
:100E080079D001F1704180318B4274D001F1805169
:100E18008B4270D001F1704180318B426BD001F16F
:100E280080518B4267D001F1704180318B4262D092
:100E380001F180518B425ED001F1704180318B42CB
:100E480059D001F180518B4255D001F17041803168
:100E58008B4250D001F180518B424CD001F170414E
:100E680080318B4247D001F180518B4243D001F150
:100E7800704180318B423ED001F180518B423AD093
:100E880001F1704180318B4235D001F180518B42A4
:100E980031D001F1704180318B422CD001F1805169
:100EA8008B4228D001F1704180318B4223D001F16F
:100EB80080518B421FD083421DD080318B421AD083
:100EC80001F1704180318B4215D001F180518B4284
:100ED80011D001F1704180318B420CD001F1805169
:100EE8008B4208D001F1704180318B4203D001F16F
:100EF80080518B420DD1A16A0139090501F07C713D
:100F08001143E26A1143626A013A120102F47C72E7
:100F18000A43196C01F080210A431A64A168226B04
:100F28001143626802F07F021143E268B2F5806FF4
:100F380040F0DE80AB4200F08780584A934200F0D0
:100F4800838002F17042803293427DD002F1805258
:100F5800934279D002F170428032934274D002F108
:100F68008052934270D002F17042803293426BD02B
:100F780002F18052934267D002F17042803293426C
:100F880062D002F1805293425ED002F17042803208
:100F9800934259D002F18052934255D002F17042E7
:100FA8008032934250D002F1805293424CD002F1E9
:100FB80070428032934247D002F18052934243D02C
:100FC80002F17042803293423ED002F18052934245
:100FD8003AD002F170428032934235D002F1805209
:100FE800934231D002F17042803293422CD002F108
:100FF8008052934228D002F170428032934223D02B
:1010080002F1805293421FD083421DD08032934216
:101018001AD002F170428032934215D002F1805208
:10102800934211D002F17042803293420CD002F107
:101038008052934208D002F170428032934203D02A
:1010480002F18052934201D141F480615A6C83428B
:1010580022F0434222F47F1222F4676222F00F0248
:1010680042EA01025A644FF000029A6427D00C4AFF
:10107800934224D002F17042803293421FD002F191
:10108800805293421BD002F170428032934216D0B4
:1010980008E000BF500002405006024050000250D5
:1010A8005006025002F18052934208D002F1704279
:1010B8008032934203D002F18052934202D100223F
:1010C8005A659A650020D867636BA065236501237C
:1010D80084F854300BE0FFF78FFD401B05287FF69E
:1010E8006AAE1023A365032384F85430012038BD69
:1010F800B2F5007F08BF41F40071A7E730B50028BA
:1011080034D090F84C40012C32D0012480F84C4067
:1011180090F85440012C4FF0000423D1022580F8A8
:10112800545084650468A56C63F30F054FF4FE43BF
:10113800A564E360E1642265636943F4BA436361CB
:10114800436E1BB1636943F400736361036F1BB1A2
:10115800636943F4005363610020636943F001034A
:10116800636130BD402380F84C4083650120F8E777
:101178000220F6E70121036810B523F47F6222F00C
:101188000F020446D068C3F30B02503AC2F3C412EC
:1011980001FA02F2024200F0AB801A69500508D544
:1011A8005A69520505D54FF48062DA60A26D0A4388
:1011B800A2651A69100509D55A69110506D54FF4B3
:1011C8000062DA60A26D42F00202A2651A69D204D6
:1011D80009D55A69D00406D54FF48052DA60A26D59
:1011E80042F00402A2651A69510409D55A695204E9
:1011F80006D54FF48042DA60A26D42F00802A2657B
:101208001A69900509D55A69910506D54FF40072F7
:10121800DA60636E0BB12046984723681A69920416
:101228002ED55A6990042BD54FF40052DA6094F801
:101238005420042A1DD15A69216D22F400525A61A2
:101248005A69090642F002025A614FF0010248BF8A
:10125800616F84F8542042BF0A7300229A64002305
:1012680084F84C30E36E002B42D02046BDE8104095
:101278001847052384F85430236F0BB1204698474C
:1012880023681A69D20518D55A69D00515D5226D73
:10129800110626D5DA6F32B99A6C22B90122616F2C
:1012A80084F854200A734FF44072DA60002384F8FB
:1012B8004C30236E0BB120469847A36DC3B122680A
:1012C800536943F0020353610123226D84F85430BB
:1012D800120644BF626F1373002384F84C30A36E68
:1012E800C1E79A6C002ADED1012284F85420DAE79B
:1012F80010BDD0B1CB0601D400207047036801208F
:1013080023F47F62C3F30B0322F00F0201F01101F3
:10131800503B1129C3F3C413516800FA03F30CBFFF
:101328000B4321EA03035360E6E70120704741EAD3
:101338000203034318B949B9002A18BF1046584098
:10134800B0F5803F34BF0020012070470846F6E71B
:1013580050B190F8203059B992B192F820009842D3
:1013680014BF03200020704741B191F82030F3E703
:1013780091F820109942EFD0022070470846704734
:10138800104670472DE9F043D0F808C0176889B3B4
:1013980000254FF6FC762B462C464FF6FC7EDFF8F0
:1013A8008C800E404FEA870964453BD09E420CD0A2
:1013B80001684CBB01EA0E030134F5E7016894B9F2
:1013C80001EA060301346445F8D1016894606FF3BB
:1013D8000F010B43D36053F827300D435560D3B941
:1013E8000020BDE8F08308EB030501EA0E01695807
:1013F8001D46E5E70D460B460C464FF6FC76DFF832
:101408002CE04FEA8708DEE709EB030501EA08014B
:1014180069581D46CEE723F003031B041B0C0B433E
:101428001361DDE79E42D0D00120DAE70000FFFF1C
:10143800830706D509B1064B0B600AB10723136071
:10144800704709B1034B0B60002AF9D00523F6E772
:10145800000001FE000001F838B50446FFF7CCFB98
:101468000546002C00F0E780002384F84C30022366
:10147800226884F85430536943F0060353612368A3
:101488005A69D20700F1CC80D4E90E1211436B4A95
:101498006B48934200F0888002F18052934200F03A
:1014A800838002F17042803293427DD002F18052F3
:1014B800934279D002F170428032934274D002F1A3
:1014C8008052934270D002F17042803293426BD0C6
:1014D80002F18052934267D002F170428032934207
:1014E80062D002F1805293425ED002F170428032A3
:1014F800934259D002F18052934255D002F1704282
:101508008032934250D002F1805293424CD002F183
:1015180070428032934247D002F18052934243D0C6
:1015280002F17042803293423ED002F180529342DF
:101538003AD002F170428032934235D002F18052A3
:10154800934231D002F17042803293422CD002F1A2
:101558008052934228D002F170428032934223D0C5
:1015680002F1805293421FD083421DD080329342B1
:101578001AD002F170428032934215D002F18052A3
:10158800934211D002F17042803293420CD002F1A2
:101598008052934208D002F170428032934203D0C5
:1015A80002F18052934201D1226C11435A6983425D
:1015B80022F4430242EA01025A614FF00002616CD0
:1015C8001A6459649A64DA641A651DD01D4A9342F4
:1015D8001AD002F170428032934215D002F1805243
:1015E800934211D002F17042803293420CD002F142
:1015F8008052934208D002F170428032934203D065
:1016080002F18052934202D100225A659A65002065
:10161800D867A36CA0652365012384F854300BE0D8
:10162800FFF7EAFA401B05287FF629AF1023A365C8
:10163800032384F85430012038BD00BF5000024015
:101648005006024050060250034637B500284BD0DA
:10165800426F002A48D090F8541004680129606944
:10166800CDB203D0022D3AD1C10338D593F8541026
:101678000129CDB22CD193F84C10022001292CD08D
:10168800002183F8540083F84C5010739965116158
:10169800616941F4BA416161596E19B1616941F4F6
:1016A800007161611B6F1BB1636943F4005363618F
:1016B800156801A9286A0022FFF7BAFE2B0C1B0443
:1016C80025F0030523602D04019B2D0C1D43E567C0
:1016D8000020636943F00103636103B030BD402219
:1016E8009A65002283F84C200120F6E7F0B500281F
:1016F80000F09180002900F08E80C3694569026876
:101708001D43C36B12F0200445EA0305036945EA4B
:101718000305836945EA03050D6010D0836AC66A2C
:10172800876B013B1B053E4303F07C733343466ADA
:10173800013E360106F47C7633432B430B60436845
:10174800056B23F4C0739B059B0D2B43C5684B6049
:10175800B5F5806F3BD114B143F480634B60436CA3
:101768004BB1046C23434C682343846C240404F475
:101778007C1423434B60B0F8685012F002068D6069
:101788001BD0C36C5C1E254B03EA0443046D2B433A
:10179800002C446DB8BF43F08053002C846DB8BF53
:1017A80043F00053002CC46DB8BF43F08043002CB5
:1017B8008B60BCBF43F000438B60036ECB60436E0D
:1017C8000B6156B942F4A06200200A62F0BDB5F57B
:1017D800007FC4D143F40073C0E7036D456D002B4F
:1017E800B8BF5B420E4C002DB8BF6D42C3F30C036B
:1017F80004EA054423434B61836DC06D002BB8BFD9
:101808005B4200289BB2B8BF404243EA00438B6169
:1018180042F4E062D8E70120D8E700BF0000FF07E4
:101828000000FF1F2DE9F0410E461546044688B01A
:1018380028B122B14369012B05D10423236101207A
:1018480008B0BDE8F081D0F800804046FFF76FFD92
:1018580008B10523F2E74046FFF77AFD0028ECD1EE
:10186800022727732061286A02AA01A9FFF7E0FD71
:10187800B8F1000F13D13EB90127256000200123DC
:101888002061A7602373DBE725F00305019B2D0486
:101898002D0C1D43029B266046F82350EEE7029F5D
:1018A80076B928F00308019B4FEA08484FEA184820
:1018B80048EA030345F827302560A3685F1CDDE785
:1018C8003146204603AA0397FFF75CFDB8B94FF6E7
:1018D800FC7CA3680598019905EA0C02984242EA43
:1018E800010209D1636823B103EA0C030B4345F8ED
:1018F800273046F82720E0E756F82730F7E7062391
:101908009CE7F0B5044689B018B1066826B90223E9
:101918002361012009B0F0BD45681DB1AE421FD05A
:101928000423F5E74369012BFAD002230373056109
:10193800306A02AA01A9FFF77BFD029F03AA294684
:1019480020460397FFF71EFD4FF6FC73019A3340BC
:101958001343069A42F827300123256166602373F2
:101968000020D7E770B169B190F8543090F854204E
:10197800DBB2022A01D0052B06D140238365002360
:1019880080F84C30012070470B7B022B02D10123D9
:101998000B61F7E703681A4A934224D002F1805298
:1019A800934220D002F17042803293421BD002F160
:1019B8008052934217D002F170428032934212D083
:1019C80002F1805293420ED002F17042803293426B
:1019D80009D002F18052934205D00B681B6A9B071D
:1019E80001D50323D4E7026D4B68812A02D11BB9C4
:1019F8000423CDE7002BFBD141670020704700BFCF
:101A0800500602402DE9F04F7F4B85B003EA902342
:101A180003937E4B0022029303467D4F0191019967
:101A28000D6835FA02F402D105B0BDE8F08F012146
:101A380001FA02FE1EEA050500F08B8001994C6848
:101A4800744924F01006884240F08880036802999F
:101A580023EA0E0C04F00103934043EA0C030360ED
:101A6800D1F804C00F210CF0070E4FEA8E0E01FAD0
:101A78000EF90B2101FA0EFE0321029B4FEADC0846
:101A88001B6803EB8808D8F820A02AEA09094EEA5F
:101A9800090EC8F820E04FEA4C0E01FA0EF90221AF
:101AA800D3F8008001FA0EFE28EA09084EEA080E6B
:101AB800C3F800E0013E012E7CD9032C49D0032154
:101AC8004FEA4C0CDE6801FA0CFE019926EA0E0E6C
:101AD8008E6806FA0CF646EA0E06DE60E60038D591
:101AE8000F2122F0030C0CF18C4C02F003060CF5CC
:101AF800083CF600DCF8608001FA06FE039928EA43
:101B08000E0E01FA06F646EA0E06CCF860606FEA99
:101B1800050C3E68E10254BF0CEA06062E433E60FF
:101B28007E68A10254BF0CEA06062E437E60D7F8F1
:101B38008460A10354BF0CEA06062E43C7F88460EC
:101B4800D7F88060E10354BF0CEA06062E43C7F8B5
:101B58008060029C01320834029460E703214FEA56
:101B6800420901FA09FC022E6FEA0C0C3ED122FA56
:101B780001FE0F2102F007084FEA880801FA08FB66
:101B8800019900EB8E0EDEF820A009692AEA0B0AFB
:101B980001F00F0B0BFA08FB4BEA0A0BCEF820B04A
:101BA800D3F800E006FA09F60EEA0C0E944646EA67
:101BB8000E061E6003214FEA4C089E6801FA08FED3
:101BC800019926EA0E0ECE68012106FA08F646EAC1
:101BD8000E069E605E6801FA0CFE26EA0E0E2609C5
:101BE80006FA0CF646EA0E065E6068E7D3F800E0EF
:101BF8000EEA0C0E04F0030C0CFA09FC4CEA0E0C6D
:101C0800C3F800C0944655E77F7F2F00044A0008B8
:101C18000020024600000246034A0020136843F0F1
:101C280001031360704700BF000403401D4BDA6BCB
:101C380002F44032824208D1B2F5803F82BFDA68AE
:101C480042F48022DA6000207047DA68B0F5803FFD
:101C580022F4E02242EA000288BF42F48022DA60DD
:101C68004FF47A72104B32211B68B3FBF2F34B43EB
:101C7800B3FBF2F301331A460A49C868000404D4D6
:101C88000AB903207047013AF7E7002AF9D0054A54
:101C9800D16B090403D4002BF3D0013BF8E7002BE8
:101CA800D1D1EEE70008024640000020024BD86B75
:101CB80000F44030704700BF0008024637B52B4D8E
:101CC8000446D5F894305B0718D5FFF7EFFF20F4EA
:101CD8008033B3F5003F26D1B4F1805F2CBF0020DC
:101CE8000120234A136823F00F030343136013688A
:101CF80003F00F03181A18BF01201BE0D5F8943021
:101D080043F00403C5F89430D5F8943003F0040385
:101D18000193019BFFF7CAFFD5F8943023F0040321
:101D2800C5F89430D3E7B4F1805F05D2B0F5803FB1
:101D380015D0012003B030BDB4F1005F06D980B9D9
:101D4800B4F1405F8CBF00200120CAE7B4F1805F86
:101D580009D1B0F5803F0CBF01200220C1E7032064
:101D6800BFE70020BDE70120BBE700BF000C02462B
:101D780000200240384A10B5D369916A13F00C0369
:101D880005D00C2B36D101F00301012932D191681D
:101D9800090254BFD2F8F4209268304954BFC2F304
:101DA8000332120F51F82200002B51D02A4ADFEDDE
:101DB8002C5A916A936A946AC3F30323013306EE9B
:101DC800903A936BC4F30014C3F3CC03634307EE58
:101DD800903A01F003010229B8EEE77AF8EEE66AD4
:101DE800B7EE006A14D0032912D007EE900AF8EE75
:101DF800677A0FE0D26902F00C02042A06D0082B99
:101E080027D000200C2B23D10020CFE71548F9E775
:101E1800DFED157A536B87EEA65AC3F3080307EE76
:101E2800903AF8EEE77AE7EE257A0B4B77EE867A6A
:101E38005B6B67EE857AC3F30663013307EE103AEE
:101E4800F8EEC76A87EEA67AFCEEC77A17EE900A14
:101E580010BD0448FCE700BF000C0246AC4900086E
:101E6800000000390024F4000024744B2DE9F341EC
:101E78000D46044618B9012002B0BDE8F0819C4A1D
:101E8800136803F00F038B426ED32368D80677D408
:101E980019070DD5974920690A6A120902F07002DC
:101EA800904281BF0A6A22F4E06242EA00120A62A2
:101EB8005A070BD58F49E0680A6A02F0700290420F
:101EC80081BF0A6A22F0700202430A629F070BD59B
:101ED8008849A0680A6A02F00F02904281BF0A6A24
:101EE80022F00F0202430A62DE0756D422689007E6
:101EF80000F1D8807E490B6803F00F03AB4200F273
:101F0800DE80500700F1E78011070DD57949206977
:101F18000B6A1B0903F0700398423FBF0B6A23F456
:101F2800E06343EA00130B62D3060BD5714A61697B
:101F3800536A03F0700399423FBF536A23F070035A
:101F48000B435362FFF716FF6A4B6B4A1B6A03F099
:101F58000F03D35CD840694B1860694B186802B00E
:101F6800BDE8F041FEF7CABD136823F00F030B4329
:101F78001360136803F00F038B427FF47CAF84E790
:101F88005C4960694A6A02F07002904281BF4A6AFD
:101F980022F0700202434A627AE76268554B032ACC
:101FA8004ED1D3F8942051073DD40127D3F894207B
:101FB80042F00402C3F89420D3F8943003F00403E9
:101FC8000193019BFEF718FEDFF838810646D8F822
:101FD8000C305A0329D4474B2FB1D3F8942022F060
:101FE8000402C3F894201B6813F0007F3FF443AF4A
:101FF800404E6268F36941F2883823F003031343C3
:10200800F361FEF7F9FD63680746032B25D1F369F1
:1020180003F00C030C2B3FF469AFFEF7EDFDC01B7A
:102028004045F4D90AE00027CCE7D8F80C305B0427
:10203800D1D4FEF7E1FD801B0228F6D903201BE767
:10204800022A1B6802D113F4003FCFE712B913F03C
:10205800040FCBE713F4806FC8E7022B0BD1F369A9
:1020680003F00C03082B3FF441AFFEF7C5FDC01B7E
:102078004045F4D9E2E77BB9F36913F00C0F3FF45C
:1020880035AFFEF7B9FDC01B4045F5D9D6E7FEF7D9
:10209800B3FDC01B4045D1D8F36903F00C03042BF2
:1020A800F5D123E71349A0680B6A03F00F039842A0
:1020B8003FBF0B6A23F00F0303430B621AE70B6859
:1020C80023F00F032B430B600B6803F00F03AB42A5
:1020D8007FF4D1AE15E70749E0680B6A03F0700397
:1020E80098423FBF0B6A23F0700303430B620BE770
:1020F80000200240000C0246F4490008400000207D
:10210800480000200008024608B5FFF733FE054BDB
:10211800054A1B6A03F00F03D35CD840034B1860D1
:1021280008BD00BF000C0246F4490008400000202A
:102138002DE9FF410446002839D0A34BDE699F6A88
:10214800036806F00C06D80607F0030740F19A80EA
:10215800E3691EB10C2E75D1012F73D13BB39A4D93
:10216800606AAB68190256BFD5F8F430AB681B0437
:1021780003F07043984238D9AEB1AB6843F400031A
:10218800AB60AB68616A23F070430B43AB60B1F19D
:10219800404F226A0DD20029EB681ADA23F47873CB
:1021A80043EA421309E0FFF789FD0028E5D0012042
:1021B8000CE0EB6823F01F031343EB60FFF7A4FF69
:1021C800824B1868FEF79AFC00285BD004B0BDE883
:1021D800F081B1F1804F2BBF23F4F84323F4782327
:1021E80043EA822343EAC233E7E7AB68B0F1404FE2
:1021F80043F40003AB60AB6823F0704343EA000389
:10220800AB60226AEB680AD323F01F031343EB6029
:10221800002ED3D1FFF752FD0028CFD0C7E7002802
:1022280004DA23F4787343EA4213F0E7B0F1804FFD
:102238002BBF23F4F84323F4782343EA822343EAA9
:10224800C233E4E7604D002B74D02B6843F00103E0
:102258002B60FEF7D1FC80462B685A074ED5AB6839
:1022680043F40003AB60AB68616A23F070430B432F
:10227800AB60B1F1404F226AEB6847D323F01F03EC
:102288001343EB602368DD0765D42368980700F1E2
:10229800BD802368180740F138814B4BD3F8942050
:1022A800510700F1F1800127D3F8942042F004028D
:1022B800C3F89420D3F8943003F004030193019BEE
:1022C800434DAB6ADA0740F1E18063693E4D002B6C
:1022D80040F0ED80D5F8F03023F0A053C5F8F03089
:1022E800FEF78AFC0646D5F8F0301B0140F105815F
:1022F800FEF782FC801B0528F5D905E0FEF77CFC7B
:10230800A0EB08000228A7D903205FE7002904DA18
:1023180023F4787343EA4213B3E7B1F1804F04D34F
:1023280023F4F84343EA8223ABE723F4782343EA10
:10233800C233A6E72B6823F001032B60FEF75CFC91
:1023480080462B685B079DD5FEF756FCA0EB08007E
:102358000228F6D9D8E7082E636803D00C2E04D1DA
:10236800032F02D1002B90D121E7B3F5803F164D02
:1023780013D12B6843F480332B60FEF73DFC0546F0
:10238800DFF84480D8F8003099033FF57EAFFEF7B8
:1023980033FC401B6428F5D9B6E7B3F5A02F08D164
:1023A8002B6843F480232B602B6823F480132B6065
:1023B800DFE7B3F5A81F0DD12B6843F480232B600A
:1023C8002B6843F48013F2E7000C02464800002013
:1023D800000802462A6822F480322A602A6822F419
:1023E80080222A602A6822F480122A60002BC4D135
:1023F800FEF702FC80462B689A037FF546AFFEF78E
:10240800FBFBA0EB08006428F5D97DE7042EE36800
:1024180003D00C2E0DD1022F0BD1002B3FF4C7AEE9
:10242800A94A2169136923F4F81343EA01431361A4
:102438002FE7A54DBBB12B6843F480732B60FEF7E3
:10244800DBFB06462B685B0507D52B69226923F45D
:10245800F81343EA02432B611BE7FEF7CDFB801B11
:102468000228EFD950E72B6823F480732B60FEF71E
:10247800C3FB06462B685F057FF50BAFFEF7BCFB79
:10248800801B0228F6D93FE7002719E7AB6A43F01B
:102498000103AB62FEF7B0FB0646AB6ADB073FF50C
:1024A80014AFFEF7A9FB801B0228F6D92CE7D5F854
:1024B800F030A16903F08052914210D003F04062DD
:1024C800B2F1006F3FF473AE58016CD47E4AA16933
:1024D800D2F8F03023F080530B43C2F8F0307A4D35
:1024E800D5F8F03043F08063C5F8F030FEF784FB90
:1024F8000646D5F8F0301A0168D537B1724AD2F8D5
:10250800943023F00403C2F8943023685D0740F147
:10251800A7806D4BD3F8942050075DD40127D3F8DA
:10252800942042F00402C3F89420D3F8943003F0C6
:1025380004030293029B654DAB6AD9074ED5A36885
:10254800614D13F0010F59D1D5F8F02022F00102A6
:10255800C5F8F020D5F8F02022F00402C5F8F020E4
:10256800002B5AD1FEF748FB41F288380646D5F8C9
:10257800F0309A0700F1A080D5F8F0301B0667D537
:1025880041F28838D5F8F03023F08003C5F8F030F0
:102598004D4DD5F8F03018055AD5FEF72DFB801BA8
:1025A8004045F6D9B0E6D5F8F03023F0A053C5F889
:1025B800F030FEF721FB0646D5F8F030190185D535
:1025C800FEF71AFB801B0528F6D99DE6FEF714FBDB
:1025D800801B05288DD997E60027ACE7AB6A43F046
:1025E8000103AB62FEF708FB0646AB6ADA07A6D41E
:1025F800FEF702FB801B0228F7D985E613F0040FCB
:10260800D5F8F0301EBF43F00403C5F8F030D5F814
:10261800F03043F00103C5F8F030FEF7EDFA41F26F
:1026280088380546284ED6F8F0309B0727D5A3688A
:1026380013F0800FD6F8F0302DD041F2883843F0EF
:102648008003C6F8F030204ED6F8F03018051CD5B7
:1026580037B11D4AD2F8943023F00403C2F89430FD
:102668002368990634D423681A0654D42368580674
:1026780074D4A16B002940F0C1800020A6E5FEF7C4
:10268800BBFA401B4045CED93EE6FEF7B5FA401BE3
:102698004045D9D938E641F2883823F08003C6F896
:1026A800F030094ED6F8F0301905D1D5FEF7A4FA66
:1026B800401B4045F6D927E6FEF79EFA801B4045A9
:1026C8007FF655AF20E600BF000C02460008024620
:1026D800E36A9B4D7BB12B6843F480532B60FEF774
:1026E8008BFA06462B689B04BDD4FEF785FA801B3F
:1026F8000228F7D908E62B6823F480532B60FEF7ED
:102708007BFA06462B689F04ADD5FEF775FA801B49
:102718000228F7D9F8E5236B894D7BB12B6843F480
:1027280080432B60FEF768FA06462B6819049DD48F
:10273800FEF762FA801B0228F7D9E5E52B6823F437
:1027480080432B60FEF758FA06462B681A048DD58D
:10275800FEF752FA801B0228F7D9D5E5636B784D4E
:10276800002B3AD0AB6843F40003AB60AB68A26AB5
:1027780023F070631343AB60D4E90823B3F1404FEF
:1027880016D3EB6823F01F031343EB606C4D2B68E3
:1027980043F010032B60FEF72FFA06462B689B06C2
:1027A8003FF567AFFEF728FA801B0228F6D9ABE59C
:1027B800002B05DAEB6823F4787343EA4213E4E765
:1027C800B3F1804FEB682BBF23F4F84323F478234D
:1027D80043EA822343EAC233D7E72B6823F0100386
:1027E8002B60FEF709FA06462B689F067FF541AF76
:1027F800FEF702FA801B0228F6D985E5504DEB69F1
:1028080003F00C030C2B00F0A1802B68022923F0A5
:1028180080732B6040F08180FEF7EEF90646296848
:1028280011F000716DD1D5F894305E070CD40121F8
:10283800D5F8943043F00403C5F89430D5F89430B3
:1028480003F004030393039B3E4DEE68EB6823F407
:102858008023EB603A4B676C986AE26B20F47F4008
:102868003A4320F003000243206C013842EA002278
:102878009A62A26C5F6B3448013A3840C2F308028E
:102888000243E06C0138400280B20243206D0138F7
:10289800000400F4FE000243606D0138000600F0F9
:1028A800FE4002435A639A6A22F010029A62E26D6D
:1028B800D2009A639A6A42F010029A629A6AA06DEC
:1028C80022F00C0202439A62700342BFEA6842F4A3
:1028D8008022EA6029B1D3F8942022F00402C3F8D8
:1028E80094201A68164C42F080721A60FEF784F938
:1028F800054623689A010AD5A36A43F48023A36294
:10290800BBE6FEF779F9801B022888D9FCE4FEF7BC
:1029180073F9401B0228ECD9F6E4FEF76DF904467A
:102928002B689B0106D4AB6A23F4E02323F003034E
:10293800AB62A2E6FEF760F9001B0228F0D9E3E4D7
:10294800000C024600080246000080800129AA6A9D
:102958006B6B3FF42CACE06B02F0030181427FF417
:1029680026AC216CC2F30320013988427FF41FACE6
:10297800616C02F470428A427FF419ACA26CC3F312
:102988000801013A91427FF412ACE26CC3F346218C
:10299800013A91427FF40BAC226DC3F30641013A30
:1029A80091427FF404AC626DC3F30663013A93422B
:1029B8007FF4FDAB0D4BE16D9A6BC2F3CC028A42FA
:1029C8003FF45BAE9A6A22F010029A62FEF714F99D
:1029D8000546FEF711F9A842FBD0E26D034BD20081
:1029E8009A639A6A42F010029A6246E6000C02461E
:1029F80008B5FFF789FB044B044A1B6AC3F30213AB
:102A0800D35CD84008BD00BF000C0246EC49000862
:102A180008B5FFF779FB044B044A1B6AC3F302238A
:102A2800D35CD84008BD00BF000C0246EC49000842
:102A380008B5FFF769FB044B044A5B6AC3F302134A
:102A4800D35CD84008BD00BF000C0246EC49000822
:102A580070B5324C0546236823F080532360FEF797
:102A6800CBF8064623689A004BD4236B29686A681A
:102A780023F4706323F00303013A0B4343EA022370
:102A88002363AB68616C264A013B0A40C3F3080321
:102A98001343EA68013A520292B213432A69013A8F
:102AA800120402F4FE0213436A69013A120602F0A4
:102AB800FE4213436364236BAA6923F00C03134398
:102AC8002363236B2A6A13432363236B23F01003C6
:102AD8002363A36CEA696FF3CF0343EAC203A364D9
:102AE800236B0E4D43F010032363236843F0805398
:102AF8002360FEF781F804462B689B0008D5002068
:102B080005E0FEF779F8801B0228ABD9032070BDD9
:102B1800FEF772F8001B0228EED9F7E7000C024610
:102B28000000808070B5324C0546236823F080632E
:102B38002360FEF761F8064623681A014BD4E36A5E
:102B480029686A6823F4706323F00303013A0B438E
:102B580043EA0223E362AB68E16B264A013B0A4081
:102B6800C3F308031343EA68013A520292B21343CB
:102B78002A69013A120402F4FE0213436A69013A0F
:102B8800120602F0FE421343E363E36AAA6923F0E4
:102B98000C031343E362E36A2A6A1343E362E36ABA
:102BA80023F01003E362236CEA696FF3CF0343EA6F
:102BB800C2032364E36A0E4D43F01003E362236803
:102BC80043F080632360FEF717F804462B681B0167
:102BD80008D5002005E0FEF70FF8801B0228ABD9C6
:102BE800032070BDFEF708F8001B0228EED9F7E7AE
:102BF800000C02460000808003682DE9F347DE07D9
:102C0800044608D5A649006DD1F8E02022F0030259
:102C18000243C1F8E0209D0708D5A149606DD1F8AD
:102C2800E02022F00C020243C1F8E020580708D542
:102C38009B49A06DD1F8E02022F030020243C1F890
:102C4800E020190708D59649E06DD1F8E02022F078
:102C5800C0020243C1F8E020DA0608D59049206E88
:102C6800D1F8E02022F440720243C1F8E0209F0628
:102C780008D58B49606ED1F8E82022F0070202439C
:102C8800C1F8E8205E0608D58549A06ED1F8E02095
:102C980022F440620243C1F8E0201D0608D58049AD
:102CA800E06ED1F8E02022F440520243C1F8E0205F
:102CB800D80508D57A49206FD1F8E82022F0C0025B
:102CC8000243C1F8E820590208D57549606FD1F868
:102CD800E02022F440420243C1F8E0209A0508D5DA
:102CE8006F49A06FD1F8E82022F440620243C1F88E
:102CF800E8205F0508D56A49E06FD1F8E02022F4A2
:102D080040220243C1F8E0201E0509D56449D4F8E1
:102D18008000D1F8E82022F440720243C1F8E8208C
:102D28009D0427D5D4F89030402B25D014D84BB328
:102D3800202B2FD00126236858040BD5D4F89430C3
:102D4800B3F5007F58D02AD8002B5BD0B3F5807F2D
:102D58005ED00126354635E0602B01D0802BE9D1C5
:102D68004F4AD4F89010D2F8E43023F0E0030B4334
:102D7800C2F8E4300026DEE7494A936A43F4803318
:102D88009362EDE704F10800FFF7CCFE0646002841
:102D9800D1D1E5E704F12C00FFF75AFEF6E7B3F5C9
:102DA800407F02D0B3F5806FD3D13546002D34D1A2
:102DB8003B4AD4F89410D2F8E43023F4E0630B4390
:102DC800C2F8E430236819040AD5D4F8A430B3F55E
:102DD800005F36D023F4805221D832B3012635461D
:102DE8002368DA0345D5D4F88830042B5AD8DFE8AD
:102DF80003F0353050353500294A936A43F480335F
:102E08009362D2E704F10800FFF78CFE0546CDE790
:102E180004F12C00FFF71CFEF8E72E46D2E7B2F5C6
:102E2800804F02D0B3F5405FD8D185B91C4AD4F899
:102E3800A410D2F8E83023F4E0430B43C2F8E8309A
:102E4800CEE704F10800FFF76DFE0546EDE72E46D4
:102E5800C6E7134A936A43F4803393622DBB104A42
:102E6800D4F88810D2F8E43023F007030B43C2F8F3
:102E7800E43023689B032CD5D4F88C30B3F5003F9D
:102E88007FD014D8CBB1B3F5803F74D00126354636
:102E98001FE004F12C00FFF7DBFD0546DEE700BF6D
:102EA800000C024601263546E3E72E46E1E7B3F576
:102EB800403F02D0B3F5802FE8D1002D67D1B44A46
:102EC800D4F88C10D2F8E83023F4E0230B43C2F88E
:102ED800E83023685F033BD5AD4BD3F89420500707
:102EE80057D44FF00108D3F8942042F00402C3F8F5
:102EF8009420D3F8943003F004030193019BA54F69
:102F0800BB6A43F00103BB62FDF776FE8146BB6AEC
:102F1800D90741D5002D6ED19D4FD4F8BC20D7F8E4
:102F2800F03013F4407340D1994AD4F8BC10D2F869
:102F3800F03023F440730B43C2F8F030B8F1000FBF
:102F480006D0934AD2F8943023F00403C2F89430A0
:102F58002368DF0261D5D4F89C30B3F1006F00F02C
:102F6800E6804AD8002B4BD0B3F1806F00F0D980AF
:102F78000126354651E0864A936A43F480339362CA
:102F88009BE704F12C00FFF763FD054695E72E4605
:102F98009FE74FF00008B2E7FDF72EFEA0EB09000F
:102FA8000228B4D903263546C8E79342BCD0D7F8DF
:102FB800F020D7F8F03022F4407143F48033C7F89A
:102FC800F030D7F8F030D20723F48033C7F8F03068
:102FD800C7F8F010A8D5FDF70FFE41F2883A8146F0
:102FE800D7F8F0309B079FD4FDF706FEA0EB090049
:102FF8005045F5D9D6E72E46A0E7B3F1406FB7D1D3
:10300800002D40F09A80624AD4F89C10D2F8E03043
:1030180023F040630B43C2F8E0302368180313D54C
:10302800D4F8981031F4805203D0B1F5005F40F025
:103038008680002D40F086805548D0F8E42022F4A0
:1030480040520A43C0F8E420990210D5D4F8A000F1
:103058004F49B0F5804F02BF8A6A42F480328A62D3
:10306800D1F8E42022F480420243C1F8E4201A0295
:1030780009D54749D4F8B000D1F8E02022F440122D
:103088000243C1F8E020DF0109D54149D4F8B40072
:10309800D1F8E02022F440320243C1F8E020980140
:1030A80009D53B49D4F8B800D1F8E82022F0180235
:1030B8000243C1F8E820590115D5D4F8AC30B3F56E
:1030C800001F41D1324A936A43F400339362002DC2
:1030D80043D12F4AD4F8AC10D2F8E43023F440138B
:1030E8000B43C2F8E43023681A0149D5D4F8843078
:1030F800B3F1807F33D0B3F1007F43D0A3B3012570
:103108002368DB0009D5224AD4F8A810D2F8E830A1
:1031180023F400430B43C2F8E830284602B0BDE868
:10312800F08704F10800FFF7FDFC054668E7184A38
:10313800936A43F40033936262E72E466DE70126F3
:10314800354681E72E467FE7B3F5401FBFD104F12E
:103158000800FFF7E7FC0546B9E72E46C3E70C4A27
:10316800936A43F400339362002DC9D1084AD4F816
:103178008410D2F8E03023F040730B43C2F8E030FB
:103188003546BDE704F10800FFF7CCFC0546EBE740
:10319800000C024600080246484A30B5536B946A50
:1031A800916A956AC1F30321013106EE901A916B79
:1031B800C5F30015C1F3CC01694307EE901A04F07A
:1031C8000304022CB8EEE77AF8EEE66ADFED3C5A23
:1031D800B7EE006A5FD0032C5DD0C3F3080307EE97
:1031E800903A936837491B024BBF9368D2F8F43082
:1031F8001B0FC3F3033301EB8303F8EEE77A93ED78
:10320800005AE7EE257AB8EE455A77EE867AC5EE8B
:10321800264A67EEA47A294A936A13F480330ED0BB
:10322800536BC3F3462306EE903AF8EEE66A76EE61
:10323800866A87EEA67ABCEEC77A17EE103A1F4A5E
:103248000360936A13F400330ED0536BC3F3064341
:1032580006EE903AF8EEE66A76EE866A87EEA67A89
:10326800BCEEC77A17EE103A144A4360936A13F417
:1032780080230ED0536BC3F3066306EE903AF8EE44
:10328800E66A76EE866A87EEA67AFCEEC77A17EECD
:10329800903A836030BDDFED0C7A536B87EEA65A07
:1032A800C3F3080307EE903AF8EEE77AE7EE257ADB
:1032B80077EE867A67EE857AADE700BF000C0246A6
:1032C80000000039AC4900080024744B484A30B566
:1032D800D36BD46AD16AD56AC1F30321013106EEF2
:1032E800901A116CC5F30015C1F3CC01694307EEC0
:1032F800901A04F00304022CB8EEE77AF8EEE66AB6
:10330800DFED3C5AB7EE006A5FD0032C5DD0C3F303
:10331800080307EE903A936837491B024BBF93683E
:10332800D2F8F4301B0FC3F3033301EB8303F8EE39
:10333800E77A93ED005AE7EE257AB8EE455A77EE2C
:10334800867AC5EE264A67EEA47A294AD36A13F428
:1033580080330ED0D36BC3F3462306EE903AF8EED3
:10336800E66A76EE866A87EEA67ABCEEC77A17EE2C
:10337800103A1F4A0360D36A13F400330ED0D36B9C
:10338800C3F3064306EE903AF8EEE66A76EE866AEE
:1033980087EEA67ABCEEC77A17EE103A144A436055
:1033A800D36A13F480230ED0D36BC3F3066306EEFF
:1033B800903AF8EEE66A76EE866A87EEA67AFCEE32
:1033C800C77A17EE903A836030BDDFED0C7AD36B85
:1033D80087EEA65AC3F3080307EE903AF8EEE77AA9
:1033E800E7EE257A77EE867A67EE857AADE700BF55
:1033F800000C024600000039AC4900080024744B58
:10340800484A30B5536C146B116B156BC1F303212B
:10341800013106EE901A916CC5F30015C1F3CC0189
:10342800694307EE901A04F00304022CB8EEE77A19
:10343800F8EEE66ADFED3C5AB7EE006A5FD0032C7F
:103448005DD0C3F3080307EE903A936837491B022F
:103458004BBF9368D2F8F4301B0FC3F3033301EB6F
:103468008303F8EEE77A93ED005AE7EE257AB8EE93
:10347800455A77EE867AC5EE264A67EEA47A294A37
:10348800136B13F480330ED0536CC3F3462306EE4C
:10349800903AF8EEE66A76EE866A87EEA67ABCEE91
:1034A800C77A17EE103A1F4A0360136B13F4003300
:1034B8000ED0536CC3F3064306EE903AF8EEE66A74
:1034C80076EE866A87EEA67ABCEEC77A17EE103AD1
:1034D800144A4360136B13F480230ED0536CC3F368
:1034E800066306EE903AF8EEE66A76EE866A87EEAE
:1034F800A67AFCEEC77A17EE903A836030BDDFED0E
:103508000C7A536C87EEA65AC3F3080307EE903A79
:10351800F8EEE77AE7EE257A77EE867A67EE857A2F
:10352800ADE700BF000C024600000039AC490008B6
:103538000024744B1FB5A0F500430B4300F06E82C6
:1035480048F20103984271F100035FD2A0F18003B1
:103558000B4300F03283812871F100032ED2092831
:1035680071F1000318D250EA010300F067850138B1
:1035780041F1FF31082871F1000180F062850728C8
:1035880000F25F85DFE810F067018E015D05BF017D
:103598005D055D055D05DC01A0F120030B4300F02E
:1035A8000A82A0F140030B4300F0DC821038084384
:1035B80000F0E181002005B05DF804FBA0F5006390
:1035C8000B4300F07B8340F60103984271F100033E
:1035D80010D2A0F500730B4300F0B083A0F5806310
:1035E8000B4300F0EA83A0F58070084300F01083D5
:1035F8000020E0E7A0F500530B4300F08780A0F51A
:103608008040084300F0A4800020D4E7A0F58003A0
:103618000B4300F02883A94B984271F1000325D28F
:10362800A0F500230B4300F0EC84A54B984271F100
:1036380000030FD2A0F500330B4300F06182A0F520
:1036480080230B4339D0A0F58030084300F027824F
:103658000020B0E7A0F580130B4300F09280A0F59E
:103668000010084300F0C1800020A4E700F17C436B
:103678000B4300F07E84934B984271F1000310D203
:1036880000F17F430B4300F0198400F17E430B43A4
:1036980000F04484A0F50000084300F0DF83002018
:1036A80089E700F178430B4300F0BA8300F17040DA
:1036B800084300F0878400207DE7834AD2F8F03081
:1036C800D2F8F01003F44073890703D5B3F5807F6F
:1036D80000F0BA84D2F8F01009010BD5B3F5007FD9
:1036E80008D1D2F8F03013F0805F14BFFA204FF4FD
:1036F800FA4060E7744A106810F400303FF45BAF9A
:10370800B3F5407F714818BF002054E76E4AD2F8DD
:10371800E43003F0E003402B00F0FD8105D85BB9ED
:1037280001A8FFF7D3FD019845E7602B00F09084CE
:10373800802B06D000203EE701A8FFF761FE019824
:1037480039E71368624813F4806F08BF002032E736
:103758005D4AD2F8E43003F4E063B3F5007F00F08B
:10376800DA81DCD9B3F5407F00F07684B3F5806F59
:1037780040F076841368564813F4806F08BF002021
:1037880019E7514BD3F8E02002F04062B2F1006F24
:103798000DD007D882B91B684E4813F4005F08BFE4
:1037A800002008E7B2F1406F0BD0002003E701A822
:1037B800FFF7F2FC0298FEE601A8FFF787FD0298E2
:1037C800F9E6186810F020003FF4F5AE9A68120286
:1037D8004CBF9B68D3F8F4303F4A4CBFC3F3036334
:1037E800C3F3032352F82300E5E6374BD3F8E4206C
:1037F80050042BD4D3F8E03003F04063B3F1006FEA
:10380800D5D009D8002BD7D12F4B32481B6813F4D9
:10381800005F08BF0020CEE6B3F1406F01D0002062
:10382800C9E6294B186810F020003FF4C4AE9A6826
:1038380011024CBF9B68D3F8F430274A4CBFC3F33E
:103848000363C3F3032352F82300B4E601A8FFF788
:10385800A3FC0198AFE61C4AD2F8E03013F003034A
:1038680004D105B05DF804EBFFF7D2B8012B04D101
:1038780005B05DF804EBFEF77DBA1268520502D573
:10388800022B00F0F083104AD2F8F00010F002008A
:103898003FF491AEA3F1030CDCF1000343EB0C03FE
:1038A800D80388E6084AD2F8E03013F00C0315D1A3
:1038B80005B05DF804EBFFF79BB800BF01004000BE
:1038C8000100080001000004000C024620A10700C6
:1038D8000024F400006CDC02AC490008042BC7D0BB
:1038E8001268500502D5082B00F0C0839A4AD2F816
:1038F800F00010F002003FF45EAEA3F10C014B4261
:103908004B41D80357E6944AD2F8E03013F030031D
:10391800CED0102BACD01268520502D5202B00F067
:10392800A8838D4AD2F8F00010F002003FF443AEAD
:10393800A3F1300CDCF1000343EB0C03D8033AE6A7
:10394800854AD2F8E03013F0C003B1D0402B8FD0B5
:103958001268500502D5802B00F08E837E4AD2F87B
:10396800F00010F002003FF426AEA3F1C0014B4274
:103978004B41D8031FE6784AD2F8E03013F440737D
:1039880096D0B3F5807F3FF473AF1268520503D524
:10399800B3F5007F00F073836F4AD2F8F00010F09F
:1039A80002003FF408AEA3F5407CDCF1000343EBD2
:1039B8000C03D803FFE5684AD2F8E83013F0070390
:1039C80004D105B05DF804EBFFF732B8012B3FF4E2
:1039D8004FAF1268500502D5022B00F053835E4AA0
:1039E800D2F8F010890702D5032B00F04E83106837
:1039F80010F020003FF4DFAD042B40F04A839368B9
:103A08001B024CBF9368D2F8F430544A4CBFC3F33E
:103A18000363C3F3032352F82300CCE54E4AD2F8DC
:103A2800E83003F4E043B3F5805F3FF421AFB3F52A
:103A3800005F04D101A8FFF749FC0398BBE523B94F
:103A480005B05DF804EBFEF75FBBB3F5A04F13D1EB
:103A5800106810F020003FF4AEAD936818024CBF18
:103A68009368D2F8F4303D4A4CBFC3F30363C3F301
:103A7800032352F823009EE51268910303D5B3F59A
:103A8800405F00F00983344A106810F480603FF406
:103A980092ADB3F5804F324818BF00208BE52E4B0E
:103AA800D3F8E42002F00702042A00F2F88201A108
:103AB80051F822F0493A00081F3B0008D73A00089D
:103AC800D13A0008E13A00084BF6803073E501A8C6
:103AD800FFF796FC02986EE5186810F020003FF496
:103AE8006AAD9A6812024CBF9B68D3F8F4301B4A3F
:103AF8004CBFC3F30363C3F3032352F823005AE50F
:103B0800154AD2F8E83003F4E023B3F5003FDED0DD
:103B180006D8002B94D001A8FFF73EFB01984AE590
:103B2800B3F5403F00F0BE82B3F5802F40F0BE826F
:103B3800106810F020003FF43EAD93681B024CBFA4
:103B48009368D2F8F430054A4CBFC3F30363C3F358
:103B5800032352F823002EE5000C0246AC49000866
:103B68000024F400AB4AD2F8E03013F440633FF489
:103B78009FAEB3F5806F3FF47BAE1268500503D556
:103B8800B3F5006F00F09582A24A106810F020008B
:103B98003FF411ADB3F5406F40F08E82936819027F
:103BA8004CBF9368D2F8F4309B4A4CBFC3F303630D
:103BB800C3F3032352F82300FDE4964AD2F8E03019
:103BC80013F440533FF474AEB3F5805F3FF450AE46
:103BD8001268520503D5B3F5005F00F070828D4A74
:103BE800106810F020003FF4E6ACB3F5405F40F0F9
:103BF8006982936818024CBF9368D2F8F430864AF9
:103C08004CBFC3F30363C3F3032352F82300D2E486
:103C1800804BD3F8E82002F0C002802A08D003D8ED
:103C2800002A7FF425AECCE6C02A08D00020C2E4E2
:103C38001B687A4813F4806F08BF0020BBE418683B
:103C480010F020003FF4B7AC9A6811024CBF9B6893
:103C5800D3F8F430704A4CBFC3F30363C3F30323B0
:103C680052F82300A7E46B4AD2F8E03013F440433B
:103C78003FF41EAEB3F5804F3FF4FAAD126852051B
:103C880003D5B3F5004F00F02082624A106810F0A7
:103C980020003FF490ACB3F5404F40F01982936890
:103CA8001B024CBF9368D2F8F4305B4A4CBFC3F395
:103CB8000363C3F3032352F823007CE4554AD2F884
:103CC800E83013F4407313D1106810F020003FF46B
:103CD80072AC936818024CBF9368D2F8F4304E4A1D
:103CE8004CBFC3F30363C3F3032352F8230062E416
:103CF800D2F8F01009010BD5B3F5807F08D1D2F8BE
:103D0800F03013F0805F14BFFA204FF4FA4052E409
:103D18001268520503D5B3F5007F00F0DC813D4AF7
:103D2800D2F8F00010F002003FF445ACA3F5407C57
:103D3800DCF1000343EB0C03D8033CE4354AD2F82A
:103D4800E83013F4406313D1106810F020003FF4FA
:103D580032AC936818024CBF9368D2F8F4302E4AFC
:103D68004CBFC3F30363C3F3032352F8230022E4D5
:103D7800D2F8F01009010BD5B3F5806F08D1D2F84D
:103D8800F03013F0805F14BFFA204FF4FA4012E4C9
:103D98001268520503D5B3F5006F00F09F811D4AE4
:103DA800D2F8F00010F002003FF405ACA3F5406033
:103DB80043424341D803FFF7FEBB164AD2F8E0302E
:103DC80013F440233FF474ADD2F8F01009010CD578
:103DD800B3F5802F09D1D2F8F03013F0805F14BF0B
:103DE800FA204FF4FA40FFF7E6BB1268520503D5F4
:103DF800B3F5002F00F07581064AD2F8F00010F0F4
:103E080002003FF4D8ABA3F5402043424341D80316
:103E1800FFF7D1BB000C0246AC4900080024F400AF
:103E2800BB4AD2F8E030126803F04073910302D520
:103E3800002B00F05981B3F1807F05D101A8FFF76D
:103E4800ABF90298FFF7B7BBB3F1007F40F04F81A1
:103E580001A8FFF73BFA0198FFF7ADBBAC4BD3F8CD
:103E6800E02002F44012B2F5001F0AD003D8002A5D
:103E78007FF4FEACF5E4B2F5401F0AD00020FFF74E
:103E88009ABB1B68A34813F4806F08BF0020FFF794
:103E980092BB186810F020003FF48DAB9A681202AC
:103EA8004CBF9B68D3F8F4309B4A4CBFC3F3036301
:103EB800C3F3032352F82300FFF77DBB944BD3F8D9
:103EC800E02002F44032B2F5003F0AD003D8002ABD
:103ED8007FF4CEACECE4B2F5403F0AD00020FFF707
:103EE8006ABB1B688B4813F4806F08BF0020FFF77C
:103EF80062BB186810F020003FF45DAB9A681002AE
:103F08004CBF9B68D3F8F430834A4CBFC3F30363B8
:103F1800C3F3032352F82300FFF74DBB7C4BD3F8C0
:103F2800E82002F01802102A06D07FF679AE182A87
:103F38000AD00020FFF73FBB1B68764813F4806F58
:103F480008BF0020FFF737BB186810F020003FF4C7
:103F580032AB9A6811024CBF9B68D3F8F4306E4AB2
:103F68004CBFC3F30363C3F3032352F82300FFF7E3
:103F780022BB674BD3F8E42002F44012B2F5001FCD
:103F88003FF415AC17D8002A3FF472AC186810F04B
:103F980020003FF410AB9A6812024CBF9B68D3F81C
:103FA800F4305D4A4CBFC3F30363C3F3032352F8F1
:103FB8002300FFF700BBB2F5401F3FF4FDAB002024
:103FC800FFF7F9BA524AD2F8E800D2F8F03000F414
:103FD80000409B0702D5002800F08C80D2F8F03012
:103FE80013F0006300F08A8000283FF4E4AAD2F8B6
:103FF800F03013F0805F14BFFA204FF4FA40FFF757
:10400800DABA434AD2F8E430116803F44053890419
:1040180001D5002B75D01268920402D5B3F5805FE4
:1040280072D03B4A106810F480603FF4C4AAB3F51C
:10403800005F384818BF0020FFF7BDBA0020FFF71F
:10404800BABA0020FFF7B7BA4FF40040FFF7B3BA87
:104058004BF68030FFF7AFBA4BF68030FFF7ABBABC
:104068000020FFF7A8BA2B48FFF7A5BA2948FFF7A1
:10407800A2BA2848FFF79FBA2648FFF79CBA2548F6
:10408800FFF799BA2348FFF796BA4FF40040FFF7B5
:1040980092BA0020FFF78FBA1E48FFF78CBA0020AB
:1040A800FFF789BA4BF68030FFF785BA0020FFF793
:1040B80082BA1848FFF77FBA0020FFF77CBA154884
:1040C800FFF779BA0020FFF776BA1248FFF773BAFC
:1040D8000020FFF770BA0F48FFF76DBA0D48FFF7D9
:1040E8006ABA0C48FFF767BA0A48FFF764BA0020B3
:1040F800FFF761BA4FF40040FFF75DBA1846FFF7C3
:104108005ABA0648FFF757BA0548FFF754BA00BF2E
:10411800000C02460024F400AC490008006CDC02E4
:1041280000366E01026852E8003F23F0C00342E8FF
:10413800003102680029F5D102F1080353E8003F75
:1041480023F4000302F1080C4CE800310029F3D1F4
:104158002023C0F88830704710B5026852E8003F45
:1041680023F4907342E8003102680029F5D10F4C1E
:1041780002F1080353E8003F234002F1080C4CE821
:1041880000310029F4D1C36E012B07D152E8003F5A
:1041980023F0100342E800310029F7D12023C0F8AA
:1041A8008C300023C366436710BD00BFFEFFFFEFDE
:1041B80038B51346D0F888200446202A4CD139B3A4
:1041C80033B30022A0F856300165A0F85430C0F887
:1041D80090202120C4F88800E06F38B31F4D056691
:1041E8001F4D45661F4DC0E91A52A268B2F5805F9F
:1041F80003D122690AB95B009BB2026D120626D56B
:10420800426F3AB91023C4F890302023C4F888309C
:1042180001201BE01268002AF4D0C2E902312368A9
:1042280028331361FDF710FA0028EBD140222368E8
:104238001A62226802F1080353E8003F43F0800342
:1042480002F1080141E800300028F3D138BD2268A6
:104258002832FCF753FFE7E70220F7E7734200082C
:10426800A1420008B1420008704708B503461B6D1B
:10427800C06D812B0CD00023A0F85630026852E89C
:10428800003F43F0400342E800310029F6D108BD61
:10429800FFF7EAFFFBE7704708B5C06DFFF7FBFFC4
:1042A80008BD704770477047C06D38B50468D0F8CE
:1042B8008830D0F88C50A268120606D5212B04D17C
:1042C8000023A0F85630FFF72DFFA3685B0606D53C
:1042D800222D04D10023A0F85E30FFF73DFFD0F86F
:1042E800903043F01003C0F89030FFF7DCFF38BD82
:1042F800704708B50123C06D0367C36E012B05D154
:10430800B0F85C104908FFF7F3FF08BDFFF7CAFFD4
:10431800FBE708B503461B6DC06D812B26D0002333
:10432800A0F85E30026852E8003F23F4807342E848
:10433800003102680029F5D102F1080353E8003F73
:1043480023F0010302F1080C4CE800310029F3D1F5
:104358002023C0F88C30C36E012B07D152E8003FF0
:1043680023F0100342E800310029F7D10023036746
:10437800C36E012B04D1B0F85C10FFF7B9FF08BD7C
:10438800FFF78FFFFBE7000038B504460368C169F3
:10439800826800691D680243606902435C480A43F9
:1043A800284002431A605A68E06822F440520243E7
:1043B8005A60584AA069934205D002F1805293424C
:1043C8001CBF226A10439A6822F06E4222F43062BF
:1043D80002439A60DA6A606A22F00F020243DA62E4
:1043E8004D4A93424ED0A2F5744293426FD002F5E3
:1043F800806293426DD002F5806293426BD002F5E1
:104408008062934269D0434A93421CD002F18052A1
:1044180093424FF0000036D10021FFF78BF878B3B4
:10442800616A3E4A656832F8112005EB4501B0FB28
:10443800F2F3994209D901204FF00113A366002332
:10444800C4E91D3338BD2020E6E7B3EB053FF2D8B9
:1044580000231946FBF7ACFF090241EA10616B081B
:104468000002C0182A464FF0000341F10001FBF793
:104478009FFF2B4BA0F540729A42DCD82368D86086
:104488000020D9E70120B1F5004F4FF0000126D1F7
:10449800FFF750F80028F3D0616A204B626833F8C0
:1044A8001130B0FBF3F0530803EB4003B3FBF2F316
:1044B8004FF6EF72A3F110019142BCD823F00F021E
:1044C800216892B2C3F342031343CB60D8E70220BA
:1044D800D9E70420D7E70820D5E71020D3E7FFF76E
:1044E80029F80028CCD0616A0C4B626833F8113087
:1044F800B0FBF3F303EB5203B3FBF2F34FF6EF72A7
:10450800A3F11001914296D82268D360B8E700BFA2
:10451800F369FFCF0024004600380140844A0008B0
:10452800FFFC0F00836A10B51A0706D50168846B73
:104538004A6822F4004222434A60DC0706D5016833
:10454800C46A4A6822F4003222434A60990706D5B1
:104558000168046B4A6822F4803222434A605A0791
:1045680006D50168446B4A6822F4802222434A60D7
:10457800DC0606D50168C46B8A6822F4805222439F
:104588008A60990606D50168046C8A6822F400528C
:1045980022438A605A0610D50168446C4A68B4F50B
:1045A800801F22F4801242EA04024A6005D14A6858
:1045B800846C22F4C00222434A601B0606D50268B6
:1045C800C16C536823F400230B43536010BD2DE9DD
:1045D800F84304460D4617469846DDF820902268B1
:1045E800D36935EA03030CBF01230023BB4201D082
:1045F800002022E0B9F1FF3FF2D0FCF7FDFAA0EB72
:104608000800484529D8B9F1000F26D021680B6861
:104618005A07E4D5802DE2D0402DE0D0CE6916F0BF
:1046280008060CD0082520460D62FFF795FD0023EB
:104638000120C4F8905084F88430BDE8F883CB6931
:104648001B05CCD54FF4006320460B62FFF784FDB1
:10465800202384F88460C4F890300320EDE773B514
:1046680000260446C0F89060FCF7C6FA23680546A1
:104678001B681A071CD56FF07E43324600934FF42F
:10468800001103462046FFF7A2FF88B1226852E8CE
:10469800003F23F0800342E800310029F6D12023AF
:1046A800C4F888300320002384F8843002B070BD39
:1046B80023681B685B0724D56FF07E4300220093B4
:1046C8004FF480012B462046FFF781FFC8B12268CE
:1046D80052E8003F23F4907342E800312268002931
:1046E800F5D102F1080353E8003F23F0010302F17A
:1046F800080040E800310029F3D12023C4F88C30A9
:10470800D0E720230020C4F88830C4F88C30E06655
:104718002067C8E710B5044650B3D0F888301BB9F5
:1047280080F88430FCF7C0F824232268C4F8883065
:10473800136823F001031360A36A13B12046FFF73F
:10474800F1FE2046FFF720FE012811D023682046FD
:10475800BDE810405A6822F490425A609A6822F0E4
:104768002A029A601A6842F001021A60FFF777BFBE
:10477800012010BD38B5A0F85C2013460025222280
:10478800C0F8905004468165C0F88C20D0F88000AD
:1047980038B3294A0266294A4266294AC0E91A25D5
:1047A800A268B2F5805F03D122690AB95B009BB2A7
:1047B800056D2A0639D5456F3DB91023C4F89030E8
:1047C80020230120C4F88C3038BD2D68002DF4D08A
:1047D800AB6023682433C5E90331FCF735FF0028B3
:1047E800EBD1226923683AB153E8002F42F4807272
:1047F80043E800210029F7D103F1080252E8002F0D
:1048080042F0010203F1080040E800210029F3D139
:1048180003F1080252E8002F42F0400203F10801B8
:1048280041E800200028F3D1CEE725680A4605F1C3
:104838002401FCF763FCD2E71B430008FB42000895
:10484800B1420008D0F88C3030B4202B19D1D9B13E
:10485800D2B100230D4CC3660368A3420ED004F105
:104868008054A3420AD05C68240207D553E8004F5D
:1048780044F0806443E80045002DF7D130BCFFF7D1
:1048880079BF022030BC70470120FBE700240046B6
:10489800436E30B52BB90123A0F86A30A0F8683010
:1048A80030BD0368094D9A689968094C490F6B5CDB
:1048B800615CDB00B3FBF1F3C2F34262A0F86A303B
:1048C800AB5CA25CDB00B3FBF2F3E7E7A44A0008A9
:1048D8009C4A000890F88430012B14D024230268E5
:1048E800C0F888301168136821F0005123F00103E3
:1048F8001360002343661160202280F88430C0F8DA
:104908008820184670470220704770B590F88430A8
:104918000446012B17D024230568C0F888302E6878
:104928002B6823F001032B60AB6823F06043194325
:10493800A960FFF7ADFF20232E60C0F88830002063
:1049480084F8840070BD0220FCE770B590F88430CC
:104958000446012B17D024230568C0F888302E6838
:104968002B6823F001032B60AB6823F060631943C5
:10497800A960FFF78DFF20232E60C0F88830002043
:1049880084F8840070BD0220FCE70000F8B500BF81
:10499800F8BC08BC9E467047F8B500BFF8BC08BC18
:0449A8009E46704770
:1049AC00006CDC0200366E010024F400001BB70022
:1049BC0000093D0080841E00504B140040420F0043
:1049CC0000E02E000070170000A00F0000B80B00D4
:1049DC00801A0600400D030088070200A086010023
:1049EC0000000000010203040000000000000000B1
:1049FC00010203040607080900000242010000003E
:104A0C000000024203000000000002420600000009
:104A1C000004024201000000000402420A000000EF
:104A2C000008024202000000000C02420D000000CF
:104A3C00000C024202000000000802420A000000C2
:104A4C000004024200000000000802420C000000BA
:104A5C0000040242030000000004024204000000B3
:104A6C000010024200000000001002420200000090
:104A7C0000100242030000000100020004000600C6
:104A8C0008000A000C00100020004000800000010B
:104A9C0008040204080101010101010307010000DF
:084AAC003CB9FF7F010000008E
:044AB400A50200084F
:044AB8007D02000873
:104ABC00436F756E743A20200D0A00000000000050
:104ACC0000000000000000000000000000000000DA
:104ADC0000000000000000000000000000000000CA
:104AEC0000000000000000000000000000000000BA
:0C4AFC0000093D00010000001000000057
:0400000508000AB134
:00000001FF
