:020000040800F2
:1000000000000C20290700088D0600089106000852
:1000100095060008990600089D0600087907000863
:10002000000000000000000000000000A106000821
:10003000A506000800000000A9060008AD0600089B
:100040007907000879070008790700087907000890
:100050007907000879070008790700087907000880
:100060007907000879070008790700087907000870
:100070007907000879070008790700087907000860
:100080007907000879070008790700087907000850
:100090007907000879070008790700087907000840
:1000A0007907000879070008790700087907000830
:1000B00000000000790700087907000879070008A8
:1000C0007907000879070008790700087907000810
:1000D0007907000879070008790700087907000800
:1000E00079070008790700087907000879070008F0
:1000F00079070008790700087907000879070008E0
:1001000079070008790700087907000879070008CF
:1001100079070008790700087907000879070008BF
:1001200079070008790700087907000879070008AF
:10013000790700087907000879070008790700089F
:10014000790700087907000879070008790700088F
:10015000790700087907000879070008790700087F
:10016000790700087907000879070008790700086F
:10017000790700087907000879070008790700085F
:10018000790700087907000879070008790700084F
:10019000790700087907000879070008790700083F
:1001A000790700087907000879070008790700082F
:1001B00079070008000000007907000879070008A7
:1001C0007907000800000000790700087907000897
:1001D00079070008790700087907000879070008FF
:1001E00079070008790700087907000879070008EF
:1001F00000000000000000007907000879070008EF
:1002000079070008B1060008790700087907000897
:1002100079070008790700087907000879070008BE
:1002200079070008790700087907000879070008AE
:080230007907000879070008B6
:100238000348044B834202D0034B03B1184770476D
:100248000C0000200C00002000000000064B0749AD
:10025800C91A891048BF0131491003D0044B0BB1AA
:1002680001481847704700BF0C0000200C00002010
:100278000000000010B5064C237843B9FFF7D8FFFB
:10028800044B13B10448AFF300800123237010BD61
:1002980010000020000000007038000808B5044B6A
:1002A8001BB104490448AFF30080BDE80840CDE71E
:1002B8000000000014000020703800080F4B70B5D3
:1002C8000F4DAB42A3EB050607D0B610002401344E
:1002D80055F8043B9847A642F9D80A4D03F0C4FAEA
:1002E800094B5E1BAB424FEAA60606D00024013438
:1002F80055F8043B9847A642F9D870BD583900080C
:1003080058390008583900085C39000870B5860764
:1003180047D0541E002A3ED0CAB2034601E0013C31
:1003280039D303F8012B9D07F9D1032C2CD9CDB271
:100338000F2C05EB052505EB054535D9A4F1100C67
:1003480003F1100E1A462CF00F064FEA1C1CB64497
:10035800C2E90055C2E9025510327245F8D10CF1D4
:10036800010214F00C0F04F00F0C03EB021213D06F
:10037800ACF1040323F003030433134442F8045B91
:100388009342FBD10CF003042CB1C9B21C4403F80E
:10039800011BA342FBD170BD64461346002CF4D167
:1003A800F9E703461446C0E71A46A446E0E700BF4B
:1003B80030B59FB06022002106A8FFF7A7FF0023F1
:1003C8004FF44030CDE90033CDE90233CDE90433B1
:1003D80001F086FE08B172B6FEE7034617930123C3
:1003E80002224FF480719FED167B16931B93102405
:1003F8000A2306A818938DED1C7BCDE91422CDE9BC
:1004080019220A940692099102F058F9034608B194
:1004180072B6FEE71F2503240022CDE9023300232C
:1004280068460421CDE90054CDE9042301F0E0FF3A
:1004380008B172B6FEE71FB030BD00BFAFF3008051
:100448000C0000000000000000B58BB000F0E2F9DD
:10045800FFF7AEFF01F0D8FE022001F093FE08B1CD
:1004680072B6FEE74FF48041CDE90300CDE90500FF
:10047800434B0446D3F88C20424842F00102C3F8AB
:100488008C20D3F88C2002F001020092009AD3F855
:100498008C2042F00202C3F88C20D3F88C300291F1
:1004A80003F00203019302A9019B01F071FC4FF4D0
:1004B80000420323334802A9CDE90223049401F042
:1004C80067FC204601F0EEFD08B172B6FEE701F0C8
:1004D800FDFD054608B172B6FEE70146202202A8D6
:1004E800FFF714FF04234FF43012274C9FED207BB5
:1004F800C4E90123A3614FF0005201232349204698
:1005080084ED047BC4E90D55C4E9115525622577AE
:10051800E56484F854502160A26684F82430A3620C
:1005280084F8403000F0BAF908B172B6FEE79FEDE2
:10053800127B0422002302A9049020468DED027B41
:10054800CDE9062300F034FD014608B172B6FEE796
:100558004FF6FF72204601F07BFA204601F0DAF9E7
:1005680042F21071204600F051FBFEE7AFF3008025
:1005780000000080000000000008002E01000000BC
:10058800000C02460004024230000020001002461F
:1005980072B6FEE70B4B00B5D3F8942083B042F057
:1005A8000402C3F89420D3F8943003F004030193B1
:1005B800019B01F021FE042003B05DF804EB01F07B
:1005C80023BB00BF000C024610B500210446B8B09A
:1005D800C02208A8CDE90211CDE904110691FFF760
:1005E80095FE254B22689A4201D038B010BD9FED88
:1005F8001E7B4FF4804308A88DED087B319302F0F1
:100608001FFE60BB9FED1A7B00241C4B02A9D3F888
:10061800940040F02000C3F89400D3F8940000F050
:1006280020000090009AD3F88C0040F00100C3F835
:100638008C00D3F88C30124803F0010301938DED40
:10064800027B019B049401F0A3FB22462146712002
:1006580001F0ECFA712001F025FB38B010BDFFF76E
:1006680097FFCFE7AFF30080008000000000000094
:10067800400000000300000000100246000C024683
:1006880000000242FEE700BFFEE700BFFEE700BF32
:10069800FEE700BFFEE700BF704700BF704700BF1E
:1006A800704700BF00F0E2B810B5084C204600F0D3
:1006B80037FB204600F024FB0246054B2046BDE8E8
:1006C800104042F210711A6000F0A0BA3000002009
:1006D8002C0000200022012110B44FF000640E48C5
:1006E800D0F8883043F47003C0F888300B4B196099
:1006F800DA611A625A62196821F0A85121F41021AE
:1007080019609A62196821F4802119601A65846059
:100718005DF8044B704700BF00ED00E0000C024696
:10072800DFF834D0FFF7D6FF002103E00B4B5B580E
:10073800435004310A480B4B42189A42F6D30A4AEE
:1007480002E0002342F8043B084B9A42F9D3FFF732
:10075800B5FDFFF779FEFEE700000C2060390008C0
:10076800000000200C00002010000020C000002025
:10077800FEE7000070B5244E3278EAB14FF0E0236E
:100788001C69054614F0040418D04FF47A71B1FBC3
:10079800F2F21E4B1C68B4FBF2F4204601F090FA0A
:1007A800044648B9024629464FF0FF3001F03EFAA8
:1007B800174B20461D6070BD012070BD01F0CEFAB8
:1007C80001280DD0022815D00028E6D14FF4FA529E
:1007D80031780E4BB2FBF1F21C68B4FBF2F4DCE7A3
:1007E8004FF47A7231784FF4FA43B2FBF1F2B3FB6B
:1007F800F2F4D2E74FF47A7231784FF40043B2FB47
:10080800F1F2B3FBF2F4C8E7040000200000002076
:1008180008000020114A10B51368032043F48073C0
:10082800136001F0F1F901F055FD03460C4A0D483B
:10083800126A0D4902F00F02825C0420D3400B605B
:1008480001F04EFA0020FFF795FF10B10124204671
:1008580010BD0446FFF79EFE204610BD0020024052
:10086800000C0246C838000800000020034A044B68
:1008780011681B780B441360704700BFBC00002050
:1008880004000020014B1868704700BFBC0000201E
:10089800014B1868000C7047004004E0002800F085
:1008A800CB80F0B5856F044683B0002D00F0AB8097
:1008B800226893689D0005D5936823F0204323F0B0
:1008C8003F0393609368D80019D4A54BA5481B68CB
:1008D80091689B09A0FB030321F010419B0921F0BB
:1008E8003F0101335B0041F0805191600193019B0E
:1008F8002BB1019B013B0193019B002BF9D193681C
:10090800D90012D40120A36F43F01003A367E36F4B
:100918000343E36793685B070BD5A36FA36F43F0AB
:100928001003A367012003B0F0BD936800205B07A4
:10093800F3D4A16F11F01001F0D1A36F23F48173E8
:1009480043F00203A3679368DF0762D5864B9A4298
:1009580000F08680A568636C94F82C102B4394F8FB
:100968002450012943EA453343EA014303D1216B6B
:10097800013943EA4143616B21B1A56B01F47871F8
:1009880029430B43D568794929401943D1609168B7
:10099800936801F0040103F008030B4323D1744B5F
:1009A800217F9A42D368E56B23F480434FEA813173
:1009B80023F0030343EA010318BF6D00E1682B43EA
:1009C800D360002940F0E88094F85430012B00F0FF
:1009D800FF80136923F0010313611369216D23F06C
:1009E80070430B4313612369012B00F0DF80136B05
:1009F80023F00F031363A36F23F0030343F00103F2
:100A0800A36703B0F0BDFFF7DFFDE56784F8745016
:100A18004EE7554BA5689A4210D055498A4200F0D6
:100A2800CD809B68DB0796D452490B68666823F42F
:100A3800701333430B608EE7012070476B1ED56837
:100A480003F00C0325F00C052B43D360D2F80853B0
:100A5800636825F4701503F470132B43C2F8083348
:100A6800636C94F82460277F003B65694FEA46323F
:100A780018BF012342EA87322A43256994F8407057
:100A8800002DA8BF4FF4001C4FEA033342EA470287
:100A980042EA030294F82C30B8BF25F0004C012B31
:100AA80042EA0C0256D0636B23B1A66B03F4E073E1
:100AB80033431A432C4E304BF7683B401343F360E3
:100AC800236A13B1776C3B437364E36E1BB1264E04
:100AD800776C3B43736494F85430012B52D0224E08
:100AE800264B37693B400B4333617369A16C23F094
:100AF80007030B4373617369E16C23F0700343EAE6
:100B0800011373610DB3B5F5001F0DD1B16A6FF014
:100B18000F01A36A013B9B0003F01C0301FA03F3D6
:100B2800D4F888100B43B3620F49154BC9680B40C2
:100B380093424AD0A36F23F0120343F01003A36734
:100B4800E36F43F00103E367ECE6B36A63F00F0376
:100B5800B362E9E7002E4ED142F48032A3E700BF2A
:100B680000000020632D3E050010024613C0F0FF70
:100B780000800242081302460D80DEFF02FCFFF7E8
:100B8800F3FF3F83A16EA36D0B43E16D0B43216E11
:100B98000B4343F00101A2E7136F6FF30D030B43FF
:100BA8001367136F43F0004313670DE7116BA36AD4
:100BB80021F00F01013B0B4313631CE79368DE0729
:100BC8003FF5C9AE01F542712FE70023E36712E74D
:100BD800D4E9173115690B430B4929400B43616E62
:100BE8000B43A16D43EA0143A16E43EA910343F02D
:100BF80001031361F1E6A36F43F02003A367E36FDA
:100C080043F00103E3674EE71EF800FCF8B584697A
:100C18000546082C0F4604D00368DB68DA072AD497
:100C28000424FFF72FFE7B1C06462A682AD1136886
:100C38001C42FCD0AB6F43F40073AB67D36813F46A
:100C4800406F16D195F824309BB92C4B9A42136803
:100C58002CD01F0706D5AB6F23F48073AB67AB6F3F
:100C6800DE043BD5082CD3683DD0580401D40C23AE
:100C780013600020F8BD836F43F0200383670120D1
:100C8800F8BD47B113682342D4D1FFF7FBFD831B9E
:100C9800BB422A68F5D913682340F3D1AA6F85F8B7
:100CA800743042F004020320AA67F8BD19070ED574
:100CB80093685B0719D4536823F00C035360AB6F38
:100CC80023F4807323F0010343F00103AB672B7F08
:100CD800002BCED10C22094B1A60CAE7AB6F43F048
:100CE8000103AB67BEE71460C3E7AB6F43F02003B3
:100CF800AB67EB6F43F00103EB67E8E700100246D0
:100D08000368186C704700BF704700BF704700BF8A
:100D1800704700BF704700BF704700BF704700BFF3
:100D2800036870B51D680446AA075E6802D5B00757
:100D380000F1AE806A0764D5700762D5A26FD0064D
:100D480003D4A26F42F40072A267924A9342DA680F
:100D580000F0EB8012F4406F18D1DA68910415D4D2
:100D68001A68120712D59A68500700F109815A6863
:100D780022F00C025A60A36F23F48073A367A36F59
:100D8800D90403D4A36F43F00103A3672046FFF7F8
:100D9800BBFF0C2223681A607E4A934238D0A9060A
:100DA8005DD5B2065BD5A26FD20603D4A26F42F41A
:100DB8000052A267DA6C12F4C07FDA6840F0AD80A6
:100DC80012F4406F00F0CE80DA68900100F1A6803E
:100DD8001A68510640F1A2809A68120700F19E80B5
:100DE8005A6822F060025A60A36F23F48053A36705
:100DF800A36FD80500F19280A36F43F00103A367A6
:100E08008CE02907C8D5320798D4624A9342C6D1E4
:100E1800290601D532065DD4E80501D5F10564D46B
:100E2800AA0501D5B0056CD4E90601D5F2063DD472
:100E3800E90710D5F2070ED5A36FDB0603D4A36F1D
:100E480043F00103A3672046FFF768FF23685A6849
:100E580022F001025A604F4A934208D070BD6806DA
:100E6800D6D57106D4D5A26FD206A3D49EE728059D
:100E780001D531057CD4EA04F0D5F304EED520463B
:100E8800FFF74AFF2268536823F48053536070BD0C
:100E9800A36FD90603D4A36F43F40063A367204666
:100EA80000F0B0FE022223681A6043E7626C12B1B8
:100EB800DA6890070BD0A36F204643F48063A367DA
:100EC800E36F43F00203E367FFF722FF2368102272
:100ED8001A60ADE7A36F204643F48033A367FFF79A
:100EE80015FF802223681A6096E7A36F204643F413
:100EF8000033A36700F082FE4FF4807223681A6003
:100F08008EE7A36F204643F48023A36700F078FEA2
:100F18004FF4007223681A6086E7DB68204600F009
:100F28006BFE602223681A6072E712F4406F7FF448
:100F38002DAF94F82420002A7FF428AF1A681207EE
:100F48007FF524AF9A68500728D45A6822F00C021B
:100F58005A60A36F23F4807323F0010343F0010365
:100F6800A36713E7D9680C4A8A437FF431AFD5E702
:100F78002046FFF7CFFE4FF4006223681A607AE735
:100F8800A36F43F01003A367E36F43F00103E36724
:100F9800FCE600BF0010024600200002A36F43F0E9
:100FA8002003A367E36F43F00103E367EEE600BFA6
:100FB80000232DE9F04184B0039390F8743005685C
:100FC800012B00F0D280012380F87430AA6804460F
:100FD80052070AD50120A36F43F02003A36700231B
:100FE80084F8743004B0BDE8F081A34A0E469542F7
:100FF8000F6800F0BE8037F07F42C7F3846078D076
:1010080097FAA7F717B1B7FA87F7BB401F27EA691E
:101018001343EB61736805F13002990901F00C0183
:101028003B4098409F40535823EA070303435350DB
:10103800AB6813F0040FAB6856D11B0754D4336860
:1010480033F07F4200F0688193FAA3F2B2FA82F299
:10105800072743F3406101F00A01DB0D03F00403A5
:10106800B068521A05F1140C5CF8031002EB420246
:10107800904007FA02F221EA020202434CF80320E8
:10108800D6E904130429EA6800F0EE81C2F381026C
:10109800520003FA02F233685B0003F078431A4304
:1010A80005F1600353F8210000F0E060024343F8C3
:1010B80021203169F06953F8212022F0807202431F
:1010C80043F82120B27E012A00F03B82316953F8AF
:1010D800212022F0007243F82120316953F82120A1
:1010E80022F0806243F82120AB68DF0703D5002097
:1010F80075E783408AE7F0683268604BD5F8C0101E
:1011080000F01807FB4022F07F47134021EA07014F
:101118000B4310F5803FC5F8C03000F0C580002AA9
:10112800E5DA574B9D4200F08881534BD3F80813FA
:101138009B68DE073FF54EAF524B9A42D7D0524BD1
:101148009A42D4D0514E01F0E070514B9A42CED120
:101158004F02CCD44A4B9D42C9D1336823F0E07387
:10116800034343F480033360C1E7022004B0BDE8C1
:10117800F081FFF78DFBB0F5805F00F04881726861
:101188002369022A23F0100300F00481B3F1004F11
:1011980027F07F4100F0D2800F20D4F8883002F089
:1011A8001F0C00FA0CF023EA0000002940F0E5814A
:1011B800C7F3846303FA0CF30343C4F88830920836
:1011C800A36A01329A4240F21B8222682A4BB06815
:1011D8009A4200F0D080002940F08C81C7F38463E4
:1011E800072147F3406505F00A055B1BFF0D03EB7C
:1011F800430307F0040702F1140598409940EB599E
:1012080023EA01030343EB513368002BBFF66FAFAA
:101218001B4D1E491F48AA4208BF01461E480D68BB
:10122800834205F0E07700F035821C48834200F0E5
:1012380085821748834200F08C821948834205D181
:10124800680203D40C4B9A4200F00283FFF720FB9C
:10125800B0F5005F7FF44BAF124B32689A427FF4CF
:1012680046AF6B023FF543AF2268D2F8D03043F067
:101278000103C2F8D0303AE700100246FFFF0F0022
:1012880000800242000008CE000004CA081302468B
:101298000100008008830242002000B6004000BA26
:1012A800001000B2000020D7CFB392FAA2F3002BAF
:1012B80000F02581B3FA83F1013101F01F000928FC
:1012C80040F21D81B3FA83F201231A44890602F021
:1012D8001F0201F0F84193400B4343F0007333F0D1
:1012E8007F42B16840F0BB80C3F38462072043F3B8
:1012F800406707F00A07D21BDB0D02EB420203F03E
:10130800040305F1140791409040FA5822EA0002BC
:101318000A43FA50326802E7C3F3846298E601236D
:10132800910E013101F01F02092A4FEA816101F093
:10133800F84103FA02F3CFD80B43D0E7226800291B
:1013480040F0F5800120C7F384639840936A034313
:1013580093623BE70F23926A03FA0CF322EA030233
:10136800002940F07082C7F3846303FA0CF3134337
:10137800BB4A9362B068BA4A516981EA000303EA3A
:1013880007234B4053613368002BBFF6B0AE2A46A3
:10139800B44943E7B3F1004F08D101222168C7F3EC
:1013A80084678B6ABA4023EA02038B623368002B96
:1013B800BFF69DAE2568AC49AC48AA4A854208BF2D
:1013C8000A46AB4915688B4200F0F181A9498B4266
:1013D80000F00B82A8498B4200F02D82A7498B426E
:1013E8007FF434AF116805F0C07321F0E0710B434E
:1013F8001360FFF74DFAB0F5805F3FF627AF22681C
:10140800D2F8D03043F00103C2F8D0301EE7376875
:101418009B4B9F4200F0F2809A4B9F4200F08C81D8
:10142800964B9F4200F0C181974B9F4200F0DB81B1
:10143800964A974208BF1F46A1E6D5F80813AB683D
:10144800D8073FF5C7AD8A4B01F0E0709A4200F02B
:101458008B81884B9A4200F0B981834E75E693FAE6
:10146800A3F2B2FA82F241E72B6E2A6E3368920E2B
:1014780033F07F4702F01E0240F08480C3F384619A
:1014880091420AD12A6E5B0003F0784302F0E062D1
:1014980013432B66336823F07F476A6E6A6E05F143
:1014A8006000920E02F01E0205F1640E002F78D142
:1014B800C3F38467BA4200F02581AA6EAA6E05F1CB
:1014C800680C920E02F01E02BA4200F00181C26856
:1014D800C26800F10C01920E02F01E0297427FF4DE
:1014E80003AE0A685B0003F0784302F0E06213433E
:1014F8000B60F9E597FAA7F3B3FA83F370E692FA6B
:10150800A2F1002900F05D81B1FA81F1013189066B
:1015180001F0F84192FAA2F2002A00F0508101236A
:10152800B2FA82F21A4402F01F02934004E797FAD3
:10153800A7F3002B00F04881B3FA83F30120984009
:1015480004E7727E3769B2FA82F0A2F10101B1FABA
:1015580081F153F82720400922F0007242EA4062E4
:1015680043F827203069490953F8202022F0806287
:1015780042EA816243F82020B6E597FAA7F3B3FA66
:1015880083F317E693FAA3F111B1B1FA81F177E782
:101598006A6E6A6E05F16000920E02F01E0205F195
:1015A800640E00F1080C674693FAA3F1002900F0D5
:1015B8002481B1FA81F1914200F0A680DCF8002084
:1015C800DCF80020920E02F01E0200F10C018E469B
:1015D80093FAA3F7002F00F01681B7FA87F797421E
:1015E80078D00A680A68920E02F01E0293FAA3F7EE
:1015F800002F3FF479ADB7FA87F76FE7244FBEE5C0
:101608000191FFF745F9B0F5805F01990AD80029E3
:1016180040F0FF80C7F38463132B03D90127093BEC
:101628009F40394622680E487368824203F01F0CB7
:101638003FF490AE4FF01F089B0903F00C0002F135
:10164800300E5EF80030C7F3846505FA0CF508FA29
:101658000CFC23EA0C032B434EF80030B068BAE5C3
:101668000010024608130246088302420080024224
:10167800000008CE000004CA01000080001000B27B
:10168800002000B6004000BA000020D6000020D795
:10169800000040DA28023FF5D9AD0B68734A23F001
:1016A800E0733B4343F400030B60714B1B689B09D9
:1016B800A2FB03239B095B000393039B002B3FF4CE
:1016C800C5AD039B013B0393039B002BF9D1BDE5FB
:1016D80000F10C0EDCF800205B0002F0E06203F081
:1016E80078431343CCF80030C368C2683368920E5D
:1016F80033F07F40714602F01E027FF477AFC3F3E8
:101708008467EBE605F16807DEF800205B0002F06D
:10171800E06203F078431343CEF8003083688268B0
:101728003368920E33F07F41BC4602F01E027FF40C
:101738004CAFC3F38467C7E64E4F20E5EA013FF597
:1017480085AD0B6823F0E0733B4343F080730B6077
:101758007CE56B023FF57AAD0B6823F0E0733B4301
:1017680043F480030B6071E50A023FF5C0ACD5F87D
:1017780008333F4A23F0E073034343F40003C5F8FA
:1017880008331368394A9B09A2FB03239B090133D9
:101798005B000393039B002B3FF4A9AC039B013B25
:1017A8000393039B002BF9D1A1E4334FE7E41168BD
:1017B80005F0A07321F0E0710B43136046E50223A6
:1017C800BAE54FF08061A5E60120BFE5CB013FF502
:1017D8008EACD5F8083323F0E073034343F08073ED
:1017E800C5F8083383E4254FC9E4116805F44003BC
:1017F80021F0E0710B43136028E582688268920E3D
:1018080002F01E02E1E6C268C268920E02F01E02F1
:10181800ECE697FAA7F323B1B3FA83F3132B7FF718
:1018280001AF97FAA7F7B7FA87F70123093F03FA39
:1018380007F73946F6E6116805F0C07321F0E07144
:101848000B43136002E597FAA7F3B3FA83F38CE529
:101858000B6823F0E0733B4343F480030B60FFF70E
:1018680017F8B0F5805F3FF6F1ACC8E5632D3E058B
:1018780000000020000080DE01000081000010D27E
:1018880003689A68D20701D50020704799681E4AF4
:1018980070B5114206462CD10122016A1A609A6875
:1018A80022F0004222F03F0242F001029A6011B198
:1018B800164A93421BD0FEF7E5FF336804461A68C0
:1018C800D50714D4124D9A68D00704D49A682A40D0
:1018D80042F001029A60FEF7D5FF031B022B336822
:1018E80002D91A68D10704D51A68D207EBD50020A7
:1018F80070BDB36F012043F01003B367F36F43F07B
:101908000103F36770BD00BF3F000080001002466E
:10191800C0FFFF7F38B503689D6815F0040550D1F6
:1019280090F874300446012B4BD0012380F87430B2
:10193800FFF7A6FF002846D100221C25A36F23F439
:10194800706323F0010343F48073A367A36FD90482
:1019580049BFE36FE06723F00603E3672368A169E3
:101968001D6084F874205A68082922F01C025A6005
:101978005A680CBF42F0080242F004025A60626CD6
:101988001AB95A6842F010025A60DA6892010FD503
:10199800A26F082922F4405242F48052A2675A6882
:1019A80014D022F040025A605A6842F020025A606D
:1019B8009A6822F0004222F03F0242F004029A6044
:1019C80038BD022038BD84F8745038BD22F020029A
:1019D8005A605A6842F040025A60E9E738B503682D
:1019E8009A68950702D59B68002038BD9A68D40785
:1019F800FAD59A68044602F00D02012A09D0A36FAD
:101A0800012043F01003A367E36F43F00103E3678A
:101A180038BD03219A6822F0004222F03F0242F0CA
:101A280002029A601960FEF72DFF236805469B683D
:101A3800D90703D4D8E79B68DB07D5D5FEF722FF83
:101A4800401B02282368F6D99A68D207F3D5D6E74F
:101A5800002370B582B0019390F87430012B41D007
:101A6800012380F8743004460D46FFF7B7FFA36FD3
:101A780080BB23F4885323F0020343F00203226857
:101A8800A367584B9A427DD040F2554C56490B6893
:101A98000E68C3F30B0363452AD040F276418B42AC
:101AA80026D06FF490610B44012B1ED991684F4BDF
:101AB80005F480350B402B4343F000439360936853
:101AC8004B49002B57DBA36F23F0030343F00103BB
:101AD800A36702E043F01003A367002384F874307F
:101AE80002B070BD022002B070BDB6F1405FDDD318
:101AF8002046FFF7C5FE0028E5D12268936823F049
:101B0800706343F010639360BFF35F8F2168394BB4
:101B1800D1F8C820D2B21343C1F8C830BFF35F8FE1
:101B280022682046D2F8C43043F08073C2F8C4302B
:101B3800FFF754FFB5F1011F226844D0936823F0E2
:101B4800004323F03F0343F0004393609368284920
:101B5800002BB8DA019B01330193019B8B42F5D925
:101B6800A36F012023F0120343F01003A36700239F
:101B780084F87430B4E7019B01330193019B8B42D5
:101B88009DD9EDE7516CD568D36801F0010123F0C8
:101B98000303D360536C05F0030523F0010353647A
:101BA800936823F0004323F03F0343F0004393601E
:101BB80093680F4E002B0DDBD3682B43D360536C17
:101BC8000B4353647FE79168084B0B4043F4803321
:101BD8009360B3E7019B01330193019BB342E7D9BB
:101BE800BEE700BF00100246004004E0C0FFFE7FD1
:101BF8007F6B2B0200110203704700BF704700BFC4
:101C0800704700BF704700BF4FF6FF0C064903023C
:101C1800CA6803F4E06302EA0C02134343F0BF63AB
:101C280043F40033CB60704700ED00E01B4B00B578
:101C3800DB68C3F30223C3F1070EBEF1040F03F1FF
:101C4800040C28BF4FF0040EBCF1060F1CD9A3F1F9
:101C5800030C4FF0FF3303FA0CF322EA03024FF0B0
:101C6800FF3303FA0EF321EA030303FA0CF31343D9
:101C78001B010028DBB20ADB00F1604000F561407F
:101C880080F800335DF804FB00229446E7E7044A35
:101C980000F00F00024413765DF804FB00ED00E04D
:101CA800FCEC00E0002807DB012300F01F01034AD9
:101CB80040098B4042F82030704700BF00E100E047
:101CC800431EB3F1807F09D24FF0E0220020536118
:101CD8009061136943F00303136170470120704753
:101CE800042813D8DFE800F02A1A031213004FF073
:101CF800E0210B69184A23F004030B61D2F8E030A5
:101D080023F4400343F40003C2F8E03070474FF077
:101D1800E022136943F00403136170474FF0E02198
:101D28000B690D4A23F004030B61D2F8E03023F469
:101D3800400343F48003C2F8E03070474FF0E021DD
:101D48000B69054A23F004030B61D2F8E03023F451
:101D58004003C2F8E0307047000C02464FF0E02321
:101D68001B695B0710D4094BD3F8E00000F440006E
:101D7800B0F5800F06D0A0F50000B0FA80F0400959
:101D8800400070470120704704207047000C02464D
:101D98002DE9F04FD1F800B085B0BBF1000F00F08D
:101DA800B480BB4B8A46984200F0BE80B94B0022F3
:101DB80003EA90234FF00108039329E00668B9F17C
:101DC800010F05EA060C03F0030606FA07F646EAD1
:101DD8000C06066001D9112B53D186681B0906EA47
:101DE800050CDAF80C609340BE4046EA0C068660A3
:101DF800466826EA01010B434360C168DAF80830F7
:101E08002940BB400B43C36001323BFA02F37CD04C
:101E180008FA02F11BEA010EF6D00324DAF80430BE
:101E2800570023F0100604FA07F5022E6FEA05059D
:101E380003F1FF39C2D106FA07F4D60800EB86068B
:101E480002943446DAF8106002F0070C4FEA8C0C62
:101E580006F00F0606FA0CF601960F2606FA0CFC99
:101E6800266AB9F1010F26EA0C0C019E46EA0C0617
:101E780026620668029C06EA050646EA040606602B
:101E8800ABD0122BA9D0032BBED0C1680D40DAF815
:101E98000810B9402943DD00C160B5D50F2422F0F0
:101EA800030505F18C4502F0030105F50835C90065
:101EB8002E6E04FA01F7039C26EA070604FA01F1DC
:101EC800314329667449DC026FEA0E05096828D493
:101ED8002940714C9F02216061681FD429406E4CD3
:101EE8009E036160D4F8841015D429406A4CC4F864
:101EF8008410D4F88010DC030AD42940664B0132E0
:101F0800C3F880103BFA02F382D105B0BDE8F08F28
:101F180041EA0E01F2E741EA0E01E7E741EA0E0164
:101F2800DDE74EEA0101D4E7002301275A4E07FAFC
:101F380003F111EA0B0559D04FF00F090468DAF8DC
:101F4800042024EA0104554951F833C002F0010184
:101F580099402143016052494FEADC0E51F8331091
:101F68000CF0070401EB8E0EDEF82080A40009FABD
:101F780004F928EA09084FF00B0909FA04F444EABD
:101F880008044FF00308CEF820400C684FEA4C0EC6
:101F980008FA0EF824EA0809022404FA0EF444EABE
:101FA80009040C60541E012C6FEA080801D9112A93
:101FB80023D18C68120907FA0CF502FA0CF208EA28
:101FC800040CDAF80C4004FA0EF444EA0C048C60B1
:101FD8004C6824EA050422434A60CC68DAF80820F1
:101FE80008EA040402FA0EF22243CA6001333BFAFB
:101FF80003F29CD105B0BDE8F08F122AD9D0032A8C
:10200800F4D0CC6808EA0408DAF8084004FA0EF4B8
:1020180044EA0804CC60D100E8D54FF00F084FF42B
:10202800803423F0030101F18C4101F5083103F0FC
:10203800030CD1F860E04FEACC0C08FA0CF82EEA51
:10204800080E04FA0CF444EA0E040C66EC433168FA
:1020580012F4801F0CBF214029433160716812F4CB
:10206800001F0CBF214029437160D6F8841012F478
:10207800003F0CBF21402943C6F88410D6F88010D1
:10208800D20354BF21402943C6F88010AEE700BFF1
:10209800000002467F7F2F0000200246DC3800083F
:1020A800D838000808490B6813F001030AD1024622
:1020B80010B40C68184624F0040313435DF8044B6D
:1020C8000B6070470120704700040340034A00205A
:1020D800136843F001031360704700BF0004034016
:1020E800214AD36B03F44033834234D04FF0320C8F
:1020F800D368B0F5803F23F4E02343EA000388BFA8
:1021080043F48023D360194B194A1B681648A2FB75
:1021180003139B090CFB03F3A2FB0323C1689B0970
:102128000A0403F1010307D41A4600E08AB1C16822
:10213800013A0904FAD562B10B49CA6B100406D4F6
:1021480000E033B1CA6B013B1204FAD50BB1002091
:10215800704703207047B3F5803FF8D9D368002053
:1021680043F48023D3607047000802460000002033
:10217800D34D6210024BD86B00F44030704700BF5B
:10218800000802463221194B194A1B68A2FB03C3F7
:102198009B0901FB03F3A2FB032316499B098A68E9
:1021A800013380B922F002028A60CA6B900702D418
:1021B800002070472BB1CA6B013B9207FAD4002B61
:1021C800F6D10320704742F002028A60CA6B90077A
:1021D800EED4CA6B013B9207F1D4002BF1D0CA6B45
:1021E800013B9207F9D5002BE2D1EAE70000002075
:1021F800D34D621000080246024A136943F0804337
:102208001361704700080246024AD36A43F001038B
:10221800D36270470008024630B52C4D0446D5F805
:10222800943083B05B072BD5FFF7A4FF20F48033ED
:10223800B3F5003F07D0B4F1805F17D2B0F5803F07
:1022480033D1032204E0B4F1805F2CBF00220122C5
:102258001F490B6823F00F0313430B60086800F055
:102268000F00801A18BF012003B030BDB4F1005F21
:102278001ED910BBB4F1405F8CBF00220122E7E7F2
:10228800D5F8943043F00403C5F89430D5F8943069
:1022980003F004030193019BFFF76CFFD5F894301A
:1022A80023F00403C5F89430C0E7012003B030BD23
:1022B800B4F1805F03D00122CAE70022C8E7B0F575
:1022C800803F0CBF01220222C2E700BF000C024679
:1022D80000200240414AD369916A13F00C030BD0E5
:1022E8000C2B5FD0D2693E4802F00C02042A72D04F
:1022F800082B18BF00207047384A9168090254BF5C
:10230800D2F8F4209268374954BFC2F30332120F4F
:1023180051F82200002B5FD0304910B58A6A8B6AC9
:102328008C6AC3F30323013307EE103A8B6BC4F3B3
:10233800001EC3F3CC030EFB03F307EE903A02F042
:10234800030CBCF1020FF8EEE77A02D0BCF1030FE0
:102358002FD14B6BF7EE006AC3F3080306EE103A71
:10236800DFED215AB8EEC66AB8EEC77A9FED1F5A5C
:1023780036EE266AC5EE076AB0EE467A174BA7EE28
:10238800A57A5B6B26EE877AC3F30663013307EE03
:10239800903AF8EEE77AC7EE276AFCEEE67A17EE8F
:1023A800900A10BD01F003010129A5D00020D369CE
:1023B800B2E74B6B05EE900AC3F3080306EE103A3A
:1023C800B8EE655AF7EE006AB8EEC66AB8EEC77A94
:1023D800DFED055ACCE77047704700BF000C024696
:1023E8000024F40088380008000000390024744BE9
:1023F800002800F00E819F4A2DE9F0411368044639
:1024080003F00F038B420D4682B00DD2136823F000
:102418000F030B431360136803F00F038B4203D0C1
:10242800012002B0BDE8F0812368DF060BD5924990
:1024380060694A6A02F07002904204D94A6A22F03E
:10244800700202434A621E070DD58B4920690A6A49
:10245800120902F07002904205D90A6A22F4E06279
:1024680042EA00120A6258070BD58349E0680A6AF3
:1024780002F07002904204D90A6A22F07002024304
:102488000A62990703F0010230D57B4EA068316AD1
:1024980001F00F01884204D9316A21F00F0101438C
:1024A8003162002A00F081806368032B00F0B3805A
:1024B800714A022B126800F08480002B40F0BE8025
:1024C8005707ADD56C4E41F28838F26922F0030205
:1024D8001343F361FEF7D6F963680746032B5BD015
:1024E800022B77D0002B40F08A807EE0002ADBD1D7
:1024F80060490A6802F00F02AA4209D90A6822F064
:102508000F022A430A600A6802F00F02AA4287D122
:1025180059070BD55849E0680A6A02F070029042E0
:1025280004D20A6A22F0700202430A621A070DD521
:10253800514920690A6A120902F07002904205D2D4
:102548000A6A22F4E06242EA00120A62DB060BD54C
:10255800494A6169536A03F07003994204D2536A85
:1025680023F070030B435362FFF7B4FE0346424A5D
:102578004249126A424802F00F02895C0068414AE7
:10258800CB40136002B0BDE8F041FEF7F3B8FEF7A8
:1025980079F9C31B434538D8F36903F00C030C2BB6
:1025A800F5D123689807A3D5A06833490A6A02F0D1
:1025B8000F0282429CD90A6A22F00F0202430A6281
:1025C80096E792033FF57EAF2AE7FEF75BF9C01B5B
:1025D80040451AD8F36903F00C03082BF5D1E0E75E
:1025E800FEF750F9C01B40450FD8F36913F00C0FE4
:1025F800F6D1D6E7FEF746F9C01B404505D8F36982
:1026080003F00C03042BF5D1CBE7032002B0BDE89F
:10261800F08101207047184BD3F89420520711D548
:10262800FEF730F9184B0646DB685B0341D4124BC2
:102638001B6899017FF5F4AE636843E756057FF59B
:10264800EFAE3FE7D3F8942042F00402C3F8942099
:10265800D3F8943003F004030193019BFEF712F9B9
:10266800094B0646DB685F031BD54FF00108064F90
:1026780011E000BF00200240000C0246C8380008E4
:10268800080000200000002000080246FEF7FAF8C3
:10269800801B0228B9D8FB685804F7D5B8F1000F99
:1026A800C5D0054AD2F8943023F00403C2F8943018
:1026B800BDE74FF00008DAE7000C0246002800F0FA
:1026C800A4822DE9F041AE4A0368D569966ADA0614
:1026D800044684B005F00C0506F0030631D5002D3C
:1026E80000F0B2810C2D00F0AC81E369A44F002BFF
:1026F80000F02B823B6843F001033B60FEF7C2F811
:10270800804606E0FEF7BEF8A0EB0800022800F2BB
:102718000E823B685A07F5D5BB6843F40003BB60DB
:10272800BB68626A23F070431343BB60B2F1404F49
:10273800216AFB68C0F0678323F01F030B43FB602B
:102748002368DF0731D5082D626800F0BD810C2DA4
:1027580000F0B781B2F5803F00F05B82B2F5A02FA0
:1027680000F03C83B2F5A81F00F0FB82844F3B6861
:1027780023F480333B603B6823F480233B603B6851
:1027880023F480133B60002A40F04882FEF77AF871
:10279800804606E0FEF776F8A0EB0800642800F211
:1027A800C6813B689903F5D423689A070FD5042D91
:1027B80040F0C481E368002B00F07F81704A2169F2
:1027C800136923F4F81343EA0143136123681807D4
:1027D8004DD56B4BD3F89420510700F1B4810125F6
:1027E800D3F8942042F00402C3F89420D3F894302C
:1027F80003F004030193019B624EB36ADA0740F1C8
:1028080086816369002B00F05D825D4EA269D6F86F
:10281800F03003F080518A4210D003F04061B1F1EA
:10282800006F00F04A81580100F1B1825449D1F893
:10283800F03023F080531343C1F8F030504ED6F8EF
:10284800F03043F08063C6F8F030FEF71BF8074617
:1028580005E0FEF717F8C01B052800F26881D6F8D6
:10286800F0301A01F5D5002D40F0898223685D0704
:102878005ED5434BD3F89420500700F1C881012559
:10288800D3F8942042F00402C3F89420D3F894308B
:1028980003F004030293029B3A4EB36AD90740F14E
:1028A8008C82A368DA0740F1D3815E0740F1518238
:1028B800334BD3F8F02042F00402C3F8F020D3F8E9
:1028C800F02042F00102C3F8F020FDF7DBFF41F2EF
:1028D800883806462A4F05E0FDF7D4FF801B40459F
:1028E80000F22581D7F8F0309807F5D5A36813F0E2
:1028F800800FD7F8F03000F0C78243F08003C7F8A4
:10290800F03041F288381E4F05E0FDF7BBFF801B11
:10291800404500F20C81D7F8F0301905F5D535B1EE
:10292800174AD2F8943023F00403C2F8943023688D
:102938009A0616D5E36A124D002B00F0DC812B684D
:1029480043F480532B60FDF79DFF064605E0FDF735
:1029580099FF801B022800F2EA802B689B04F6D5B9
:1029680023681D061AD5236B054D002B00F0DF8167
:102978002B6843F480432B60FDF784FF064609E08B
:10298800000C024600080246FDF77CFF801B022867
:1029980000F2CD802B681804F6D523685A062BD58B
:1029A800636B002B00F05782A54B9A6842F4000233
:1029B8009A609A68A16A22F070620A439A60D4E920
:1029C8000812B2F1404FC0F03582DA6822F01F02D7
:1029D8000A43DA609A4D2B6843F010032B60FDF729
:1029E80051FF064605E0FDF74DFF801B022800F267
:1029F8009E802B689B06F6D5A36B03B3904DEA69BE
:102A080002F00C020C2A00F05582022B2B6823F0EE
:102A180080732B6000F0A682FDF734FF044605E0C2
:102A2800FDF730FF001B022800F281802B68990116
:102A3800F6D4AB6A23F4E02323F00303AB6200204F
:102A48003CE0012E7FF451AEE369002B35D07C4B7E
:102A5800606A9A68170256BFD3F8F4309B681B0463
:102A680003F07043984240F28380002D00F0C48147
:102A7800734BB0F1404F9A6842F400029A609A682A
:102A880022F0704242EA00029A60216ADA6880F015
:102A980049810028C0F2F281B0F1804F2BBF22F4A7
:102AA800F84222F4782242EA812242EAC132DA600C
:102AB80081E0FFF7B1FB00287DD0012004B0BDE81C
:102AC800F081032E7FF446AE002AF6D09D077FF5ED
:102AD8007EAEE3685A4D002B00F085802B6843F4E6
:102AE80080732B60FDF7CEFE064604E0FDF7CAFEB4
:102AF800801B02281BD82B685B05F7D52B69226938
:102B080023F4F81343EA02432B6123685FE6B36AB0
:102B180043F00103B362FDF7B5FE0746B36ADB076E
:102B28003FF56FAEFDF7AEFEC01B0228F6D90320B5
:102B380004B0BDE8F0819A077FF549AE0C2DC8D1E5
:102B4800022EC6D136E6002556E63B6823F001037F
:102B58003B60FDF797FE804605E0FDF793FEA0EB8E
:102B680008000228E3D83B685B07F6D42368E8E549
:102B7800334BB0F1404F9A6842F400029A609A6869
:102B880022F0704242EA00029A60216ADA6880F014
:102B9800C4800028C0F24881B0F1804F2BBF22F4D6
:102BA800F84222F4782242EA812242EAC132DA600B
:102BB800002D3FF47EAFFFF78DFB0346204A2149E5
:102BC800126A02F00F02895C1F4ACB4010681F4A44
:102BD8001360FDF7CFFD00287FF470AF2368D90795
:102BE800A9D56268B3E52B6823F480732B60FDF7E1
:102BF80049FE064604E0FDF745FE801B022896D8EC
:102C08002B685F05F7D42368E1E5012070470025AC
:102C180042E60B4A136843F480331360FDF732FE33
:102C2800DFF81C80074605E0FDF72CFEC01B642872
:102C38003FF67DAFD8F800309803F5D5B4E500BF6E
:102C4800000C0246C83800080800002000000020D8
:102C5800974ED6F8F02022F00102C6F8F020D6F8F8
:102C6800F02022F00402C6F8F020002B7FF42DAEED
:102C7800FDF708FE41F28838074605E0FDF702FE39
:102C8800C01B40453FF653AFD6F8F0309B07F5D44C
:102C9800D6F8F03018067FF542AED6F8F03041F29B
:102CA800883823F08003C6F8F030814E05E0FDF740
:102CB800E9FDC01B40453FF63AAFD6F8F03019059C
:102CC800F5D42CE67A4ED6F8F03023F0A053C6F8A7
:102CD800F030FDF7D7FD074605E0FDF7D3FDC01B33
:102CE80005283FF624AFD6F8F0301B01F5D4002DA7
:102CF8003FF4BCAD43E02B6823F480532B60FDF711
:102D0800C1FD064605E0FDF7BDFD801B02283FF624
:102D18000EAF2B689F04F6D422E622F01F020A4366
:102D2800DA6045E722F01F020A43DA6043E72B68BE
:102D380023F480432B60FDF7A5FD064605E0FDF76B
:102D4800A1FD801B02283FF6F2AE2B681904F6D4C9
:102D580023E6574AD2F8F03043F00103C2F8F030C6
:102D6800B3E5534B1A6842F480221A601A6842F499
:102D780080121A601A6842F480321A604EE74C4A90
:102D8800D2F8943023F00403C2F894306EE5D6F8F4
:102D9800F03023F0A053C6F8F030FDF773FD074676
:102DA80005E0FDF76FFDC01B05283FF6C0AED6F85D
:102DB800F0301901F5D4A26938E5B36A43F001038C
:102DC800B362FDF75FFD0746B36ADB073FF569AD00
:102DD800FDF758FDC01B0228F6D9A8E6344B1A683F
:102DE80042F480221A601A6822F480121A601A6863
:102DF80042F480321A6011E7FFF70EFA00287FF4D8
:102E08005CAE606A34E6002AC0F2A480B2F1804F5A
:102E18002BBF23F4F84323F4782343EA812343EABE
:102E2800C133FB6023688CE422F4787242EA4112D1
:102E3800DA60BDE6002AC0F21E81B2F1804FDA687E
:102E48002BBF22F4F84222F4782242EA812242EA95
:102E5800C132DA60BEE5164D2B6823F010032B60F3
:102E6800FDF710FD064605E0FDF70CFD801B022866
:102E78003FF65DAE2B689F06F6D4BDE522F4787266
:102E880042EA4112DA6096E623F08003C7F8F03090
:102E980041F28838064F05E0FDF7F4FC801B4045F9
:102EA8003FF645AED7F8F0301A05F5D437E500BF40
:102EB800000C0246012BAA6A686B3FF4FEADE36B77
:102EC80002F0030199427FF4F8AD236CC2F30321A9
:102ED800013B99427FF4F1AD636C02F470429A426F
:102EE8007FF4EBADA36CC0F30802013B9A427FF478
:102EF800E4ADE36CC0F34622013B9A427FF4DDADBA
:102F0800236DC0F30642013B9A427FF4D6AD636D50
:102F1800C0F30660013B98427FF4CFAD594BE16D99
:102F28009A6BC2F3CC028A423FF489AD9A6A22F0C6
:102F380010029A62FDF7A6FC0546FDF7A3FCA8421D
:102F4800FBD0E26D4F4BD2009A639A6A42F01002AE
:102F58009A6274E523F4787343EA4113FB602368AB
:102F6800FFF7EFBBFDF78EFC064605E0FDF78AFC90
:102F7800801B02283FF6DBAD2B6813F00073F5D1F8
:102F8800D5F8942056070CD40123D5F8942042F0A4
:102F98000402C5F89420D5F8942002F004020392A4
:102FA800039A394D3749EE68EA68DFF8E0C022F441
:102FB8008022EA60886A676CE26B20F47F4020F028
:102FC80003003A430243206C013842EA00228A6235
:102FD800E06CA26CD1F834E0471E206D013AC2F3D0
:102FE80008027F0201380EEA0C0CBFB2000442EA64
:102FF8000C0200F4FE003A430243606D01380006FB
:1030080000F0FE4002434A638A6A22F010028A6294
:10301800E26DD2008A638A6A42F010028A628A6A82
:10302800A06D22F00C02024374038A621ED433B1ED
:10303800144AD2F8943023F00403C2F89430114CA7
:10304800236843F080732360FDF71CFC054605E008
:10305800FDF718FC401B02283FF669AD236898016C
:10306800F6D5A36A43F48023A362E8E4EA6842F44D
:103078008022EA60DBE7DA6822F4787242EA4112D9
:10308800DA60A7E4000C02460008024600008080CF
:1030980070B5334C0646236823F080532360FDF750
:1030A800F1FB054604E0FDF7EDFB401B022854D870
:1030B80023689A00F7D4236BD6E9001223F47063CF
:1030C80023F00303013A0B4343EA02232363606CB2
:1030D800D6E90232234D511E3269013B0540C3F344
:1030E80008034902013A89B22B43120402F4FE0292
:1030F8000B43134372691A4D013A120602F0FE425D
:1031080013436364236BB26923F00C0313432363F3
:10311800236B326A13432363236B23F01003236367
:10312800A36CF2696FF3CF0343EAC203A364236B72
:1031380043F010032363236843F080532360FDF7B3
:10314800A1FB044604E0FDF79DFB001B022804D800
:103158002B689B00F7D5002070BD032070BD00BF11
:10316800000C02460000808070B5334C0646236888
:1031780023F080632360FDF785FB054604E0FDF737
:1031880081FB401B022854D823681A01F7D4E36A4C
:10319800D6E9001223F4706323F00303013A0B43CA
:1031A80043EA0223E362E06BD6E90232234D511E63
:1031B8003269013B0540C3F308034902013A89B269
:1031C8002B43120402F4FE020B43134372691A4D97
:1031D800013A120602F0FE421343E363E36AB2695E
:1031E80023F00C031343E362E36A326A1343E36296
:1031F800E36A23F01003E362236CF2696FF3CF03F1
:1032080043EAC2032364E36A43F01003E3622368DA
:1032180043F080632360FDF735FB044604E0FDF7C7
:1032280031FB001B022804D82B681B01F7D50020AE
:1032380070BD032070BD00BF000C024600008080F6
:103248002DE9F04703680446D80782B008D59D49A0
:10325800206DD1F8E02022F003020243C1F8E020FB
:10326800990708D59749606DD1F8E02022F00C0243
:103278000243C1F8E0205A0708D59249A06DD1F859
:10328800E02022F030020243C1F8E0201F0708D5F1
:103298008C49E06DD1F8E02022F0C0020243C1F869
:1032A800E020DE0608D58749206ED1F8E02022F418
:1032B80040720243C1F8E0209D0608D58149606E3E
:1032C800D1F8E82022F007020243C1F8E8205806A6
:1032D80008D57C49A06ED1F8E02022F44062024370
:1032E800C1F8E020190608D57649E06ED1F8E0204B
:1032F80022F440520243C1F8E020DA0508D57149AA
:10330800206FD1F8E82022F0C0020243C1F8E8207B
:103318005F0208D56B49606FD1F8E02022F4404283
:103328000243C1F8E0209E0508D56649A06FD1F890
:10333800E82022F440620243C1F8E8205D0508D580
:103348006049E06FD1F8E02022F440220243C1F83E
:10335800E020180509D55B49D4F88000D1F8E820A9
:1033680022F440720243C1F8E820990403F400569D
:103378001ED5D4F89020402A00F0358200F25482FD
:10338800002A00F04882202A40F0548204F12C00E0
:10339800FFF77EFE0646236856B9D4F8902000262B
:1033A8004848D0F8E41021F0E0010A43C0F8E420CE
:1033B8005A0439D5D4F89420B2F5007F00F0198268
:1033C80029D8002A00F02082B2F5807F2BD104F1A1
:1033D8002C00FFF75DFE05462368002D40F01282A1
:1033E8003849D4F89400D1F8E4201F0422F4E062AC
:1033F80042EA0002C1F8E42019D4D8032DD5D4F844
:103408008820042A00F22C82DFE812F04A014501E4
:10341800E4014A014A01B2F5407F00F0EF81B2F5BC
:10342800806F00F0EB81012635461F04E5D5D4F8FE
:10343800A420B2F5005F00F0918140F2A18122F44E
:103448008051B1F5804F00F08F81B2F5405F00F0F8
:103458008B810126D8033546D1D499031ED5D4F8DB
:103468008C20B2F5003F00F0A48100F2E58142B162
:10347800B2F5803F40F0E88112498A6A42F480320E
:103488008A62002D40F056810E49D4F88C00D1F89C
:10349800E82022F4E0220243C1F8E8205A0360D56C
:1034A800084BD3F89420570740F107814FF00008E4
:1034B800054FBB6A43F00103BB62FDF7E3F98146A0
:1034C8000BE000BF000C024600080246FDF7DAF9DF
:1034D800A0EB0903022B00F21E81BB6AD807F5D5C1
:1034E800002D40F0BB81DFF83CA3D4F8BC20DAF80B
:1034F800F03013F4407327D0934225D0DAF8F01057
:10350800DAF8F03043F48033CAF8F030DAF8F03003
:1035180023F48033CAF8F03021F44073C907CAF89D
:10352800F03011D5FDF7AEF941F28839074605E0CC
:10353800FDF7A8F9C01B484500F2ED80DAF8F03035
:103548009B07F5D5D4F8BC20B649D1F8F03023F460
:1035580040731343C1F8F0302368B8F1000F40F00E
:10356800E180DF021FD5D4F89C20B2F1006F00F093
:10357800168100F26C814AB1B2F1806F40F06B8124
:1035880004F10800FFF7F0FD05462368002D40F020
:10359800D380A449D4F89C00D1F8E02022F04062FE
:1035A8000243C1F8E02018030BD5D4F8982032F470
:1035B800805100F0A380B2F5005F00F09F800126E3
:1035C800354699020DD5D4F8A000B0F5804F00F02B
:1035D800B9809449D1F8E42022F480420243C1F82A
:1035E800E4201A0209D58F49D4F8B000D1F8E020B8
:1035F80022F440120243C1F8E020DF0109D58949CD
:10360800D4F8B400D1F8E02022F440320243C1F8E3
:10361800E020980109D58349D4F8B800D1F8E8200A
:1036280022F018020243C1F8E820590115D5D4F850
:10363800AC20B2F5001F00F08B80B2F5401F00F0FF
:10364800A780002D65D17749D4F8AC00D1F8E420E3
:1036580022F440120243C1F8E4201A010BD5D4F831
:103668008420B2F1807F00F0AD80B2F1007F33D0CA
:10367800002A37D00126DB0009D56A4AD4F8A810F9
:10368800D2F8E83023F400430B43C2F8E830304660
:1036980002B0BDE8F08763498A6A42F480328A62E0
:1036A800002D4DD15F49D4F88800D1F8E42022F0EC
:1036B80007020243C1F8E420CFE6D3F894204FF084
:1036C800010842F00402C3F89420D3F8943003F0C0
:1036D80004030193019BEBE604F10800FFF744FDA6
:1036E8000546236855BB4F49D4F88400D1F8E0203B
:1036F80022F040720243C1F8E020BCE7002D56D109
:103708004848D0F8E41021F440510A43C0F8E420B6
:1037180057E72E46A1E7032635462368B8F1000F80
:103728003FF41FAF3F49D1F8942022F00402C1F8BA
:10373800942016E72E46B1E62E4634E72E469AE741
:103748002E468AE637498A6A42F480328A6240E71E
:1037580034498A6A42F400328A6272E704F1080046
:10376800FFF702FD0546236885B92E49D4F8A40061
:10377800D1F8E82022F4E0420243C1F8E8203CE610
:1037880032F480527FF465AE002DEED02E4634E63A
:1037980004F10800FFF7E8FC2368054651E72149D2
:1037A8008A6A42F400328A62002DC5D1F1E62E46BB
:1037B80007E704F12C00FFF76BFC05462368002D92
:1037C800B8D161E617498A6A42F400328A62002D4C
:1037D800B4D188E704F12C00FFF75AFC05462368AA
:1037E800002DADD15EE70F48816A41F480318162D6
:1037F800D5E50C498A6A42F480328A623546002D42
:103808003FF4EEAD2E4610E604F10800FFF7ACFCDD
:1038180023680546E1E504F10800FFF7A5FC064624
:10382800B9E500BF000C0246602A3FF4B8AD802A13
:103838003FF4B5AD0126BBE5B2F5403F3FF421AEFC
:10384800B2F5802F3FF41DAE0126354626E6B2F1CB
:10385800406F3FF49BAE01263546A4E62E465CE752
:1038680001263546F9E500BFF8B500BFF8BC08BC2D
:103878009E467047F8B500BFF8BC08BC9E46704726
:10388800006CDC0200366E010024F400001BB70057
:1038980000093D0080841E00504B140040420F0078
:1038A80000E02E000070170000A00F0000B80B0009
:1038B800801A0600400D030088070200A086010058
:1038C80000000000000000000102030406070809C8
:1038D8000000024201000000000002420300000054
:1038E800000002420600000000040242010000003D
:1038F800000402420A000000000802420200000020
:10390800000C02420D000000000C02420200000000
:10391800000802420A000000000402420000000001
:10392800000802420C0000000004024203000000EC
:1039380000040242040000000010024200000000DF
:1039480000100242020000000010024203000000C2
:04395800A5020008BC
:04395C007D020008E0
:0C39600000093D00010000001000000004
:0400000508000729BF
:00000001FF
