:020000040800F2
:1000000000000C20C9060008450600084706000845
:10001000490600084B0600084D06000819070008AD
:100020000000000000000000000000004F06000873
:10003000510600080000000053060008550600089D
:100040001907000819070008190700081907000810
:100050001907000819070008190700081907000800
:1000600019070008190700081907000819070008F0
:1000700019070008190700081907000819070008E0
:1000800019070008190700081907000819070008D0
:1000900019070008190700081907000819070008C0
:1000A00019070008190700081907000819070008B0
:1000B00000000000190700081907000819070008C8
:1000C0001907000819070008190700081907000890
:1000D0001907000819070008190700081907000880
:1000E0001907000819070008190700081907000870
:1000F0001907000819070008190700081907000860
:10010000190700081907000819070008190700084F
:10011000190700081907000819070008190700083F
:10012000190700081907000819070008190700082F
:10013000190700081907000819070008190700081F
:10014000190700081907000819070008190700080F
:1001500019070008190700081907000819070008FF
:1001600019070008190700081907000819070008EF
:1001700019070008190700081907000819070008DF
:1001800019070008190700081907000819070008CF
:1001900019070008190700081907000819070008BF
:1001A00019070008190700081907000819070008AF
:1001B00019070008000000001907000819070008C7
:1001C00019070008000000001907000819070008B7
:1001D000190700081907000819070008190700087F
:1001E000190700081907000819070008190700086F
:1001F00000000000000000001907000819070008AF
:10020000190700085906000819070008190700080F
:10021000190700081907000819070008190700083E
:10022000190700081907000819070008190700082E
:08023000190700081907000876
:100238000348044B834202D0034B03B1184770476D
:100248000C0000200C00002000000000064B0749AD
:10025800C91A891048BF0131491003D0044B0BB1AA
:1002680001481847704700BF0C0000200C00002010
:100278000000000010B5064C237843B9FFF7D8FFFB
:10028800044B13B10448AFF300800123237010BD61
:100298000C000020000000007C32000808B5044B68
:1002A8001BB104490448AFF30080BDE80840CDE71E
:1002B80000000000100000207C3200080F4B70B5D1
:1002C8000F4DAB42A3EB050607D0B610002401344E
:1002D80055F8043B9847A642F9D80A4D02F0CAFFE0
:1002E800094B5E1BAB424FEAA60606D00024013438
:1002F80055F8043B9847A642F9D870BD6433000806
:1003080064330008643300086833000870B5860752
:1003180047D0541E002A3ED0CAB2034601E0013C31
:1003280039D303F8012B9D07F9D1032C2CD9CDB271
:100338000F2C05EB052505EB054535D9A4F1100C67
:1003480003F1100E1A462CF00F064FEA1C1CB64497
:10035800C2E90055C2E9025510327245F8D10CF1D4
:10036800010214F00C0F04F00F0C03EB021213D06F
:10037800ACF1040323F003030433134442F8045B91
:100388009342FBD10CF003042CB1C9B21C4403F80E
:10039800011BA342FBD170BD64461346002CF4D167
:1003A800F9E703461446C0E71A46A446E0E700BF4B
:1003B80000B59FB06022002106A8FFF7A7FF18220A
:1003C80000216846FFF7A2FF4FF4403001F090FC8F
:1003D80008B172B6FEE74FF4807110220223CDE90E
:1003E800091201220A21CDE91433CDE91813CDE908
:1003F8001A3206930C231790CDE91C3006A81692E2
:1004080001F034FF08B172B6FEE71F220323CDE9DD
:100418000200CDE9040004216846CDE9002301F07B
:10042800C3FD08B172B6FEE71FB05DF804FB00001B
:1004380080B58AB000F0B6F9FFF7BAFF01F0D4FC36
:10044800022001F09DFC044608B172B6FEE70146A1
:10045800102203A8FFF75AFF3D4B3E48D3F88C20E3
:1004680002A942F00102C3F88C20D3F88C2002F0D4
:1004780001020092009AD3F88C2042F00202C3F8DD
:100488008C20D3F88C3003F002030193019B4FF4C6
:100498008043029301F008FB4FF4004103232D48E9
:1004A800CDE9021302A9049401F0FEFA204601F0F6
:1004B80005FC08B172B6FEE701F010FC054608B16C
:1004C80072B6FEE72022014602A8FFF71FFF4FF48D
:1004D8003013214C214A0126C4E900234FF0004380
:1004E800042723614FF000532046C4E90D55C4E9A1
:1004F8001155A7606561A7612562257784F8246096
:10050800A66284F84060A366E56484F8545000F05D
:10051800F9F908B172B6FEE7114BCDE906700490FF
:1005280002A92046CDE9023600F048FD014608B18F
:1005380072B6FEE74FF6FF72204601F02BF920460F
:1005480001F08EF842F21071204600F08DFBFEE7B4
:10055800000C0246000402422C0000200010024653
:100568000008002E72B6FEE70A4B07B5D3F89420B0
:1005780042F00402C3F89420D3F8943003F0040343
:100588000193019B01F028FC042003B05DF804EB03
:1005980001F0D6B9000C024610B50446B8B01422D2
:1005A800002103A8FFF7B2FEC022002108A8FFF728
:1005B800ADFE22681E4B9A4238D100234FF4004208
:1005C800CDE908234FF4804308A8319302F082FB59
:1005D80008B1FFF7C7FF174B0024D3F8942016483B
:1005E80042F02002C3F89420D3F8942003A902F023
:1005F80020020192019AD3F88C2042F00102C3F83C
:100608008C20D3F88C30402203F001030293029B24
:1006180003230594CDE9032301F046FA712022460D
:10062800214601F09FF9712001F0CCF938B010BDD6
:1006380000100246000C024600000242FEE7FEE7F8
:10064800FEE7FEE7FEE770477047704700F0D4B852
:1006580010B5084C204600F089FB204600F07CFBD2
:10066800054B42F2107118602046BDE8104000F0BA
:10067800FBBA00BF2C0000202800002001220E48F1
:10068800D0F8883043F47003C0F888300B4B1A60F8
:100698000022DA611A625A62196821F0A85121F41D
:1006A800102119609A62196821F4802119601A656D
:1006B8004FF000638360704700ED00E0000C0246D5
:1006C800DFF834D0FFF7DAFF002103E00B4B5B586B
:1006D800435004310A480B4B42189A42F6D30A4A4F
:1006E80002E0002342F8043B084B9A42F9D3FFF793
:1006F800E5FDFFF79DFEFEE700000C206C330008C7
:10070800000000200C0000200C000020BC0000208D
:10071800FEE7000070B5204E054632780AB9012080
:1007280070BD4FF0E0231C6914F0040417D04FF497
:100738007A73B3FBF2F3194A1468B4FBF3F4204656
:1007480001F04EF904460028E9D1024629464FF047
:10075800FF3001F007F9124B20461D60E0E701F079
:1007680089F9012807D002280DD00028E7D14FF4D5
:10077800FA533278DDE74FF47A7332784FF4FA445B
:10078800B3FBF2F3D9E74FF47A7332784FF40044AD
:10079800B3FBF2F3D1E700BF040000200000002003
:1007A80008000020104A10B51368032043F4807332
:1007B800136001F0C5F801F07BFB0C4B0C4A1B6A77
:1007C80003F00F03D35CD8400A4B1860042001F0F3
:1007D80017F90020FFF79EFF044618B9FFF7C4FE7B
:1007E800204610BD0124FBE700200240000C024611
:1007F800D432000800000020034A044B11681B781B
:100808000B441360704700BFB800002004000020AC
:10081800014B1868704700BFB8000020014B1868EA
:10082800000C7047004004E010B5603050F82140DB
:10083800520002F078421A4304F0E064224340F880
:10084800212010BD806800F0010070478068C0F367
:1008580080007047144B30B5984201F01F040ED049
:100868001F25890901F00C0130304358A540C2F317
:10087800846223EA0503A2401343435030BD0F218D
:10088800836AA14023EA010332F07F4106D1C2F313
:100898008462A2401A43044B9A62EFE792FAA2F2EA
:1008A800B2FA82F2F5E700BF00100246144B30B5E9
:1008B80098421ED031F07F4316D1C1F384630725D7
:1008C80041F3406404F00A04C90D1B1B01F0040144
:1008D8001430445803EB43039D4024EA050402FA0C
:1008E80003F32343435030BD91FAA1F3B3FA83F3E2
:1008F800E5E743695A4002EA01225A404261F2E7B9
:1009080000100246F7B50446002800F0A581856F5F
:1009180025B9FFF741FEE56784F8745023689A68A3
:10092800900041BF9A6822F0204222F03F029A606C
:100938009A68D10071D59A68D20000F185800121AA
:10094800A26F42F01002A267E26F42F00102E26772
:100958001846FFF77BFFA66F06F01006064340F027
:100968007D81A26F184622F4817242F00202A267CA
:10097800FFF768FFA84A002840F0A580934274D08A
:10098800A648834262D11846FFF75CFF00286AD068
:10099800A068626C024394F8240042EA403294F85A
:1009A8002C0042EA004294F82C00656B01289A4812
:1009B80040F0E180834200F08980206B013842EAF0
:1009C800404225B1A06B05F4787505432A43DD68DC
:1009D800934828401043D8601846FFF737FF9A68B5
:1009E80002F00802024300F0CA802269012A05BF0A
:1009F800186BA26A1A6B02F1FF3206BF20F00F00D3
:100A0800024322F00F021A63A36F23F0030343F09B
:100A18000103A367084603B0F0BD9A68814922F034
:100A2800104222F03F0242F080529A607E4A1268D9
:100A3800B2FBF1F2013252000192019A002A3FF40E
:100A48007AAF019A013AF7E7002181E71046FFF7EC
:100A5800F9FE00289CD175480268656822F4701276
:100A68002A43026094E77248F6E7A268D868013A18
:100A780020F00C0002F00C020243DA60D3F80803FD
:100A8800626820F4701002F470120243C3F808235D
:100A9800626C207F003A18BF0122150394F82420C5
:100AA80094F84070520342EA803260690243206938
:100AB80042EA47020028ACBF4FF4001020F0004083
:100AC8002A4302436FE79342E2D061E794F8243067
:100AD800002B47D142F4803225B1A36B05F4E075B1
:100AE8001D432A434C4B5348DD6828401043D860C7
:100AF800206A10B15D6C28435864E06E10B15D6CDB
:100B08002843586494F85430012B08D1A36EA66D7D
:100B18001E43E36D1E43236E1E4346F001063E4B03
:100B280045481D692840304318615869A56C20F074
:100B38000700284358615869E56C20F0700040EAC6
:100B4800051058612069002855D1986A60F00F0097
:100B58009862314BD868394B0340934272D10023D5
:100B6800E36751E7A36F43F02003A367E36F43F004
:100B78000103E367B0E783427FF423AFACE7274A7A
:100B8800257F9342DA68E06B22F480424FEA85358C
:100B980022F0030218BF40002A430243E068DA60EB
:100BA80040B11A6F6FF30D0202431A671A6F42F0D1
:100BB80000421A6794F85420012A18D1D4E9172062
:100BC8001D6902431E4828400243606E0243A06D1F
:100BD80042EA0042A06E42EA900242F001021A6123
:100BE8001A69206D22F0704202431A61FDE61A6903
:100BF80022F00102F3E7B0F5001FAAD16FF00F054C
:100C0800986AA06A0138800000F01C0005FA00F01C
:100C1800D4F8885028439BE700100246008002421F
:100C280013C0F0FF400D0300000000200813024627
:100C3800088302420D80DEFF02FCFFF7F3FF3F83CB
:100C48001EF800FCA36F23F0120343F01003A36700
:100C5800E36F43F00103E3670121DBE6A36F43F091
:100C68001003A367F8E700BFF8B585690446082DA7
:100C78000E460AD00368DB68D90705D5836F43F0B1
:100C8800200383670120F8BD0425FFF7C1FD07464F
:100C980023681A682A4209D0A26F42F40072A26738
:100CA800DA6812F4406F16D00020ECE7721CF0D01E
:100CB800FFF7AEFDC01BB04201D8002EE8D1236873
:100CC8001B682B40E4D1A26F032042F00402A26704
:100CD80084F87430D7E794F82420002AE4D11D4A18
:100CE80093421A6816D016070AD5A26F22F48072AA
:100CF800A267A26FD0045EBFA26F42F00102A26792
:100D0800082DDA6801D11D60CEE75104CCD40C223D
:100D18001A60C9E712070FD51846FFF797FD80B983
:100D28005A6822F00C025A60A36F23F4807323F0F0
:100D3800010343F00103A367237F002BB4D1054BC4
:100D4800E5E7A36F43F02003A367E36F43F00103D4
:100D5800E367F1E7001002460368186C70477047B4
:100D6800704770477047704770470000036870B558
:100D78001E680446B1075D680DD5AA070BD5836FB9
:100D8800DB065EBF836F43F40063836700F0D7FD23
:100D9800022223681A60700701D5690703D4320755
:100DA80032D52B0730D5A36F834AD8065EBFA36F11
:100DB80043F40073A36723689342DA6800F0DC8089
:100DC80012F4406F1AD1DA68910417D41A6812071E
:100DD80014D51846FFF73AFD002840F0C4805A6839
:100DE80022F00C025A60A36F23F48073A367A36FE9
:100DF800DB0403D4A36F43F00103A3672046FFF786
:100E0800AEFF0C2223681A6023686B4A934237D0DE
:100E1800B10601D5AA0603D4700631D569062FD5C7
:100E2800A26FD2065EBFA26F42F40052A267D86CCE
:100E3800D96810F4C07FDA681CD1900105D502F496
:100E4800005201F440610A4314D11A68510611D5C1
:100E58009A6812070ED45A6822F060025A60A36F8B
:100E680023F48053A367A36FDB055EBFA36F43F032
:100E78000103A367204600F05FFD602223681A6023
:100E880030060BD5290609D5A36F204643F48033D5
:100E9800A367FFF765FF802223681A60F2050CD567
:100EA800EB050AD5A36F204643F40033A36700F08F
:100EB80044FD4FF4807223681A60B0050CD5A9056B
:100EC8000AD5A36F204643F48023A36700F036FDBC
:100ED8004FF4007223681A60F20615D5EB0613D595
:100EE800636C1BB12368DB6898070AD0A36F2046A0
:100EF80043F48063A367E36F43F00203E367FFF7FC
:100F080030FF102223681A60F10710D5EA070ED5C2
:100F1800A36F2046DB065EBFA36F43F00103A36700
:100F2800FFF722FF2268536823F001035360226809
:100F3800214B9A4216D1300508D5290506D52046F9
:100F4800FFF710FF4FF4006223681A60F20409D516
:100F5800EB0407D52046FFF706FF2268536823F401
:100F68008053536070BDA36F43F01003A367E36F12
:100F780043F00103E36741E712F4406F7FF43EAFAB
:100F880094F82420002A7FF439AF1A6810077FF5F7
:100F980035AF1846FFF75AFC48B95A6822F00C02D8
:100FA8005A60A36F23F4807323F0010323E7A36F30
:100FB80043F02003DAE700BF001002460023F7B52C
:100FC800019390F874300746012B0D4600F0FB8220
:100FD8000123066880F874303046FFF737FC002894
:100FE80040F03C81B84A0C68964200F09C8134F08D
:100FF8007F427FD1C4F384629340F2693046134341
:10100800F36122466968FFF725FC3046FFF71EFCAE
:10101800B36803F0080303433CD1AA682968304643
:10102800FFF744FC29696A690429F36806F160043A
:1010380074D0C3F381035B0002FA03F330462A68D5
:10104800FFF7F2FB2A69E96954F8223023F080732C
:101058000B4344F82230AB7E2A69012B52D1697EBA
:1010680054F82230B1FA81F023F00073400943EAC2
:10107800406344F822302A6901F1FF3C54F82230D9
:10108800DCF1000141EB0C0123F0806343EA81634A
:1010980044F822303046FFF7D5FB002840F00E8197
:1010A800EC682A68894BD6F8C01004F0180C22F0B6
:1010B8007F4023FA0CF3134021EA00010B4314F597
:1010C800803FC6F8C03040F0B780002840F09180DB
:1010D800930E013303F01F02092A4FF001014FEA72
:1010E800836340F2A18003F0F8439140194341F033
:1010F80000719DE094FAA4F2B2FA82F2012302F0A0
:101108001F0279E754F8223023F0007344F82230A4
:101118002A6954F8223023F08063B9E7336E2A68CD
:10112800336E32F07F414FEA936303F01E0343D1DD
:10113800C2F38461994204D1002330461946FFF76F
:1011480073FB736E2A68736E32F07F414FEA9363C4
:1011580003F01E0337D1C2F38461994204D10023FE
:1011680001213046FFF760FBA3682A68A36832F0C4
:101178007F414FEA936303F01E032BD1C2F38461CE
:10118800994204D1002302213046FFF74DFBE36862
:101198002A68E36832F07F414FEA936303F01E0345
:1011A8001FD1C2F3846199427FF474AF00230321F5
:1011B8003046FFF739FB6DE792FAA2F10029C0D05B
:1011C800B1FA81F1B6E792FAA2F10029CCD0B1FACE
:1011D80081F1C2E792FAA2F10029D8D0B1FA81F1DF
:1011E800CEE792FAA2F100293FF454AFB1FA81F1A7
:1011F800D9E792FAA2F131B1B1FA81F3581C00F0A3
:101208001F00092834D892FAA2F392FAA2F2B3FA8C
:1012180083F3B2FA82F201339B060132012103F013
:10122800F84302F01F0201E003F0F843914019432C
:101238003046AA68FFF73AFB2A68002A3EDA244BB0
:1012480024499E42244B06BF0B4630461E48196867
:10125800FFF7F8FAB0FA80F04009A0B90120BB6F97
:1012680043F02003BB67002387F8743003B0F0BD58
:10127800B1FA81F201339B060132012103F0F843F0
:1012880002F01F0231E7154C01F0E070A2422BD1A9
:101298000D0213D40E4A964210D11A6822F0E07259
:1012A800024342F400021A600D4B0E4A1B68B3FB5E
:1012B800F2F301335B000193019B0BB90020D2E7E5
:1012C800019B013BF7E700BF00100246FFFF0F003C
:1012D800008002420883024208130246000008CE3A
:1012E80000000020400D03009F4CA2420CD1CC010D
:1012F800E4D49E4A9642E1D11A6822F0E072024391
:1013080042F080721A60D9E7994CA242D6D14902BC
:10131800D4D4964A9642D1D11A6822F0E072024398
:1013280042F48002EEE7FFF779FAB0F5805F10D15A
:101338002C68904B9C425FD08F4B9C425ED08F4B69
:101348009C425DD08E4B9C425CD08E4A944208BF32
:101358001C466A683B69022A23F0100300F0D38018
:10136800B3F1004F24F07F4655D13968002E4BD198
:10137800C4F38462012393408A6A13438B623E68F4
:10138800AA6821463046FFF791FA2A68002A95DABA
:1013980076487D497D4B864208BF0B4675481C68D8
:1013A800824204F0E07176D1220210D41A6822F049
:1013B800E0720A4342F400021A60754B754A1B68D2
:1013C800B3FBF2F35B000193019B002B60D1FFF7A5
:1013D80025FAB0F5005F7FF471AF2A68694B9A422D
:1013E8007FF46CAF63025FBF3A68D2F8D03043F045
:1013F8000103C2F8D03061E7674CAAE7674CA8E759
:10140800674CA6E7674CA4E794FAA4F2B2FA82F212
:1014180002F01F02AEE70F21D7F8883002F01F0054
:10142800814023EA0101D6B9C4F3846383400B43A6
:10143800C7F888309208BB6A01329A429FD8FFF7F2
:10144800EDF9B0F5805F04D876B9C4F38463132B43
:101458001AD8224669683868FFF7FCF98FE794FACA
:10146800A4F3B3FA83F3E1E794FAA4F31BB1B3FA54
:1014780083F3132BEDDD94FAA4F4B4FA84F4012376
:10148800093C03FA04F4E4E70124093B9C40E0E743
:10149800019B013B97E73848824209D1E60196D47F
:1014A8001A6822F0E0720A4342F080721A608EE7EE
:1014B8002F48824208D1600289D41A6822F0E0726B
:1014C8000A4342F48002F1E72C4882427FF47FAF5E
:1014D80062023FF57CAF344A96427FF478AF1A68CF
:1014E80022F0E0720A4342F480021A60FFF796F98C
:1014F800B0F5805F9FBF3A68D2F8D03043F001035F
:10150800C2F8D03063E7B3F1004F08D1012239683F
:10151800C4F384648B6AA24023EA02038B622A68BC
:10152800002ABFF6CBAE3C6817491048174B8442D7
:1015380008BF0B461D491C688A4206D1196804F089
:10154800A07221F0E0710A43B0E707498A4203D14B
:10155800196804F44002F4E705498A4228D1196859
:1015680004F0C072EDE700BF000004CA0080024228
:1015780001000080002000B6004000BA001000B250
:10158800000020D6000020D7088302420813024634
:1015980000000020400D0300000040DA000080DE5B
:1015A80001000081000010D200100246000008CEA1
:1015B80006498A427FF40BAF196804F0C07221F023
:1015C800E0710A4391E7022050E600BF001000B224
:1015D800026870B504461046FFF734F908B10020D8
:1015E80070BD91681B4B194209D0A36F012043F0CD
:1015F8001003A367E36F43F00103E367F0E70123F8
:101608001360936823F0004323F03F0343F0010382
:101618009360236A13B1104B9A42E0D0FFF7F8F8B1
:1016280005460E4E22681368DB07D8D41046FFF72C
:1016380009F920B99368334043F001039360FFF739
:10164800E7F8401B0228EDD923681B68DA07E9D4BC
:10165800CBE700BF3F00008000100246C0FFFF7FBD
:1016680038B504460068FFF7F1F8054600285AD156
:1016780094F87430012B56D00123204684F8743036
:10168800FFF7A6FF00284BD11C22A36F23F4706339
:1016980023F0010343F48073A367A36FD90449BF00
:1016A800E36FE06723F00603E3672368A1691A6024
:1016B800002284F874205A68082922F01C025A6013
:1016C8005A680CBF42F0080242F004025A60626C89
:1016D8001AB95A6842F010025A60DA68920116D5AF
:1016E800A26F082922F4405242F48052A2675A6835
:1016F8000BBF22F0200222F040025A605A600BBF52
:101708005A685A6842F0400242F020025A609A68C9
:1017180022F0004222F03F0242F004029A6038BDF3
:1017280084F87450FBE70220F9E7026838B50446EC
:1017380010469368FFF786F808B9002038BD990766
:10174800FBD4936803F00D03012B19D1936823F0A0
:10175800004323F03F0343F0020393600323136025
:10176800FFF756F8054623689B68DB07E5D5FFF7C2
:101778004FF8401B0228F6D923689B68DA07F2D590
:10178800A36F012043F01003A367E36F43F0010345
:10179800E367D3E7002373B5019390F874300446E8
:1017A800012B0D4600F0BB80012380F87430FFF751
:1017B800BCFFA36F002840F0AF8023F4885323F0C8
:1017C800020343F00203574AA367236893423BD1BD
:1017D800596CDD68DA6801F0010122F00302DA6071
:1017E8005A6C05F0030522F001025A649A6822F047
:1017F800004222F03F0242F000429A609A68002AB2
:1018080012DA019A01320192019E474A9642F5D9AD
:10181800A36F012023F0120343F01003A3670023F2
:1018280084F8743002B070BDDA682A43DA605A6C02
:101838000A435A64A36F23F0030343F00103A36729
:10184800002384F87430EDE740F2554637490A68BA
:101858000968C2F30B02B2420BD040F27646B2429C
:1018680007D06FF490663244012A41D8B1F1405F45
:101878003ED32046FFF7ACFE0028DBD122689368F0
:1018880023F0706343F010639360BFF35F8F2168A8
:10189800274BD1F8C820D2B21343C1F8C830BFF3E0
:1018A8005F8F22682046D2F8C43043F08073C2F8B4
:1018B800C430FFF73AFFB5F1011F226805D19168DE
:1018C8001C4B0B4043F480339360936823F0004330
:1018D80023F03F0343F0004393609368002BA9DA99
:1018E800019B0133019301990F4B9942F5D98FE779
:1018F8009968104A05F480350A402A4342F00042AC
:101908009A609A68002A95DA019A0132019201993F
:10191800054A9142F5D97BE743F010038FE702208F
:1019280080E700BF001002467F6B2B02004004E0F6
:1019380000110203C0FFFE7F704770477047704771
:1019480007490302CA6803F4E06322F4E062120460
:10195800120C134343F0BF6343F40033CB6070476A
:1019680000ED00E0154B30B5DC68C4F30224C4F187
:101978000703251D042B28BF0423062D4FF0FF3530
:1019880094BF0024033C05FA03F321EA0303A540AE
:1019980022EA0502A340002843EA0203ACBF00F193
:1019A8006040074A4FEA0313DBB2ABBF00F5614062
:1019B80000F00F0080F80033135430BD00ED00E054
:1019C80014ED00E0002807DB01234109034A00F079
:1019D8001F00834042F82130704700BF00E100E05B
:1019E8000138B0F1807F3FBF4FF0E02358610020FD
:1019F800986137BF1A69012042F003021A617047E3
:101A0800042818D8DFE800F00A18261703004FF05A
:101A1800E022136943F00403136170474FF0E0229A
:101A2800136923F004031361114AD2F8E03023F458
:101A38004003C2F8E03070474FF0E022136923F00A
:101A4800040313610A4AD2F8E03023F4400343F454
:101A58008003EEE74FF0E022136923F004031361DB
:101A6800034AD2F8E03023F4400343F40003E0E7EC
:101A7800000C02464FF0E0231B695A070DD4094BAE
:101A8800D3F8E00000F44000B0F5800F07D0A0F5CF
:101A98000003584258414000704704207047012015
:101AA800704700BF000C02462DE9F04F7F4B85B010
:101AB80003EA902303937E4B0022029303467D4F53
:101AC800019101990D6835FA02F402D105B0BDE81B
:101AD800F08F012101FA02FE1EEA050500F08B8055
:101AE80001994C68744924F01006884240F08880B7
:101AF8000368029923EA0E0C04F00103934043EAB9
:101B08000C030360D1F804C00F210CF0070E4FEA54
:101B18008E0E01FA0EF90B2101FA0EFE0321029B2B
:101B28004FEADC081B6803EB8808D8F820A02AEAEB
:101B380009094EEA090EC8F820E04FEA4C0E01FAEE
:101B48000EF90221D3F8008001FA0EFE28EA0908EE
:101B58004EEA080EC3F800E0013E012E7CD9032CA2
:101B680049D003214FEA4C0CDE6801FA0CFE0199BA
:101B780026EA0E0E8E6806FA0CF646EA0E06DE60B7
:101B8800E60038D50F2122F0030C0CF18C4C02F042
:101B980003060CF5083CF600DCF8608001FA06FE46
:101BA800039928EA0E0E01FA06F646EA0E06CCF864
:101BB80060606FEA050C3E68E10254BF0CEA060655
:101BC8002E433E607E68A10254BF0CEA06062E43EF
:101BD8007E60D7F88460A10354BF0CEA06062E4342
:101BE800C7F88460D7F88060E10354BF0CEA0606A2
:101BF8002E43C7F88060029C01320834029460E7E3
:101C080003214FEA420901FA09FC022E6FEA0C0C83
:101C18003ED122FA01FE0F2102F007084FEA880898
:101C280001FA08FB019900EB8E0EDEF820A0096985
:101C38002AEA0B0A01F00F0B0BFA08FB4BEA0A0B16
:101C4800CEF820B0D3F800E006FA09F60EEA0C0E3A
:101C5800944646EA0E061E6003214FEA4C089E6829
:101C680001FA08FE019926EA0E0ECE68012106FA4D
:101C780008F646EA0E069E605E6801FA0CFE26EA41
:101C88000E0E260906FA0CF646EA0E065E6068E7AE
:101C9800D3F800E00EEA0C0E04F0030C0CFA09FC71
:101CA8004CEA0E0CC3F800C0944655E77F7F2F001E
:101CB800E432000800200246000002460146064AB7
:101CC800106810F0010009BF1368012023F0040315
:101CD8000B4308BF1360704700040340034A002009
:101CE800136843F001031360704700BF000403400A
:101CF8001D4BDA6B02F44032824208D1B2F5803FC4
:101D080082BFDA6842F48022DA6000207047DA681D
:101D1800B0F5803F22F4E02242EA000288BF42F494
:101D28008022DA604FF47A72104B32211B68B3FBC1
:101D3800F2F34B43B3FBF2F301331A460A49C8687E
:101D4800000404D40AB903207047013AF7E7002ACF
:101D5800F9D0054AD16B090403D4002BF3D0013B19
:101D6800F8E7002BD1D1EEE700080246000000207A
:101D7800024BD86B00F44030704700BF00080246A1
:101D88004FF47A72124B32211B68B3FBF2F34B43C8
:101D9800B3FBF2F30F4A0133916850B921F0020105
:101DA8009160D16B88070ED50BB903207047013BB2
:101DB800F7E741F002019160D16B890703D4002B4A
:101DC800F3D0013BF8E7002BEFD00020704700BFAD
:101DD8000000002000080246024A136943F08043CD
:101DE8001361704700080246024AD36A43F00103B0
:101DF800D36270470008024637B52B4D0446D5F824
:101E080094305B0718D5FFF7B3FF20F48033B3F5A0
:101E1800003F26D1B4F1805F2CBF00200120234A67
:101E2800136823F00F0303431360136803F00F03D1
:101E3800181A18BF01201BE0D5F8943043F00403AA
:101E4800C5F89430D5F8943003F004030193019B4E
:101E5800FFF78EFFD5F8943023F00403C5F89430CB
:101E6800D3E7B4F1805F05D2B0F5803F15D00120EB
:101E780003B030BDB4F1005F06D980B9B4F1405F5A
:101E88008CBF00200120CAE7B4F1805F09D1B0F50A
:101E9800803F0CBF01200220C1E70320BFE70020DC
:101EA800BDE70120BBE700BF000C0246002002404E
:101EB800384A10B5D369916A13F00C0305D00C2B7E
:101EC80036D101F00301012932D19168090254BFCA
:101ED800D2F8F4209268304954BFC2F30332120F8B
:101EE80051F82200002B51D02A4ADFED2C5A916A72
:101EF800936A946AC3F30323013306EE903A936B13
:101F0800C4F30014C3F3CC03634307EE903A01F023
:101F180003010229B8EEE77AF8EEE66AB7EE006A3E
:101F280014D0032912D007EE900AF8EE677A0FE072
:101F3800D26902F00C02042A06D0082B27D0002010
:101F48000C2B23D10020CFE71548F9E7DFED157AF0
:101F5800536B87EEA65AC3F3080307EE903AF8EEE0
:101F6800E77AE7EE257A0B4B77EE867A5B6B67EEBE
:101F7800857AC3F30663013307EE103AF8EEC76AB1
:101F880087EEA67AFCEEC77A17EE900A10BD0448D1
:101F9800FCE700BF000C024694320008000000393C
:101FA8000024F4000024744B2DE9F3410D46044647
:101FB80018B9012002B0BDE8F0819C4A136803F00B
:101FC8000F038B426ED32368D80677D419070DD533
:101FD800974920690A6A120902F07002904281BF8B
:101FE8000A6A22F4E06242EA00120A625A070BD532
:101FF8008F49E0680A6A02F07002904281BF0A6A5B
:1020080022F0700202430A629F070BD58849A06834
:102018000A6A02F00F02904281BF0A6A22F00F0298
:1020280002430A62DE0756D42268900700F1D8807E
:102038007E490B6803F00F03AB4200F2DE805007C5
:1020480000F1E78011070DD5794920690B6A1B0952
:1020580003F0700398423FBF0B6A23F4E06343EA3E
:1020680000130B62D3060BD5714A6169536A03F0FA
:10207800700399423FBF536A23F070030B435362C6
:10208800FFF716FF6A4B6B4A1B6A03F00F03D35C1A
:10209800D840694B1860694B186802B0BDE8F04138
:1020A800FEF738BB136823F00F030B431360136864
:1020B80003F00F038B427FF47CAF84E75C496069CF
:1020C8004A6A02F07002904281BF4A6A22F07002A6
:1020D80002434A627AE76268554B032A4ED1D3F825
:1020E800942051073DD40127D3F8942042F00402EC
:1020F800C3F89420D3F8943003F004030193019BB0
:10210800FEF786FBDFF838810646D8F80C305A030C
:1021180029D4474B2FB1D3F8942022F00402C3F8F6
:1021280094201B6813F0007F3FF443AF404E626871
:10213800F36941F2883823F003031343F361FEF790
:1021480067FB63680746032B25D1F36903F00C038B
:102158000C2B3FF469AFFEF75BFBC01B4045F4D97D
:102168000AE00027CCE7D8F80C305B04D1D4FEF79E
:102178004FFB801B0228F6D903201BE7022A1B68A5
:1021880002D113F4003FCFE712B913F0040FCBE7E5
:1021980013F4806FC8E7022B0BD1F36903F00C032B
:1021A800082B3FF441AFFEF733FBC01B4045F4D981
:1021B800E2E77BB9F36913F00C0F3FF435AFFEF794
:1021C80027FBC01B4045F5D9D6E7FEF721FBC01B0E
:1021D8004045D1D8F36903F00C03042BF5D123E76C
:1021E8001349A0680B6A03F00F0398423FBF0B6ABC
:1021F80023F00F0303430B621AE70B6823F00F0366
:102208002B430B600B6803F00F03AB427FF4D1AE96
:1022180015E70749E0680B6A03F0700398423FBF6F
:102228000B6A23F0700303430B620BE700200240A4
:10223800000C0246D43200080000002008000020EC
:102248000008024608B5FFF733FE054B054A1B6A2E
:1022580003F00F03D35CD840034B186008BD00BFE0
:10226800000C0246D4320008000000202DE9FF418E
:102278000446002839D0A34BDE699F6A036806F03C
:102288000C06D80607F0030740F19A80E3691EB1EF
:102298000C2E75D1012F73D13BB39A4D606AAB6890
:1022A800190256BFD5F8F430AB681B0403F070432D
:1022B800984238D9AEB1AB6843F40003AB60AB6861
:1022C800616A23F070430B43AB60B1F1404F226A5F
:1022D8000DD20029EB681ADA23F4787343EA421323
:1022E80009E0FFF789FD0028E5D001200CE0EB6844
:1022F80023F01F031343EB60FFF7A4FF824B18681A
:10230800FEF708FA00285BD004B0BDE8F081B1F10F
:10231800804F2BBF23F4F84323F4782343EA822326
:1023280043EAC233E7E7AB68B0F1404F43F4000338
:10233800AB60AB6823F0704343EA0003AB60226AEA
:10234800EB680AD323F01F031343EB60002ED3D1AD
:10235800FFF752FD0028CFD0C7E7002804DA23F49E
:10236800787343EA4213F0E7B0F1804F2BBF23F4B0
:10237800F84323F4782343EA822343EAC233E4E7A9
:10238800604D002B74D02B6843F001032B60FEF7DF
:102398003FFA80462B685A074ED5AB6843F40003D2
:1023A800AB60AB68616A23F070430B43AB60B1F17B
:1023B800404F226AEB6847D323F01F031343EB60B7
:1023C8002368DD0765D42368980700F1BD8023687A
:1023D800180740F138814B4BD3F89420510700F18E
:1023E800F1800127D3F8942042F00402C3F8942026
:1023F800D3F8943003F004030193019B434DAB6A77
:10240800DA0740F1E18063693E4D002B40F0ED8032
:10241800D5F8F03023F0A053C5F8F030FEF7F8F9FE
:102428000646D5F8F0301B0140F10581FEF7F0F9BA
:10243800801B0528F5D905E0FEF7EAF9A0EB0800AE
:102448000228A7D903205FE7002904DA23F4787368
:1024580043EA4213B3E7B1F1804F04D323F4F843BE
:1024680043EA8223ABE723F4782343EAC233A6E79F
:102478002B6823F001032B60FEF7CAF980462B680E
:102488005B079DD5FEF7C4F9A0EB08000228F6D932
:10249800D8E7082E636803D00C2E04D1032F02D18D
:1024A800002B90D121E7B3F5803F164D13D12B684F
:1024B80043F480332B60FEF7ABF90546DFF8448020
:1024C800D8F8003099033FF57EAFFEF7A1F9401B1D
:1024D8006428F5D9B6E7B3F5A02F08D12B6843F4E3
:1024E80080232B602B6823F480132B60DFE7B3F580
:1024F800A81F0DD12B6843F480232B602B6843F46D
:102508008013F2E7000C024608000020000802468B
:102518002A6822F480322A602A6822F480222A60FB
:102528002A6822F480122A60002BC4D1FEF770F9C1
:1025380080462B689A037FF546AFFEF769F9A0EB52
:1025480008006428F5D97DE7042EE36803D00C2E33
:102558000DD1022F0BD1002B3FF4C7AEA94A216938
:10256800136923F4F81343EA014313612FE7A54DD8
:10257800BBB12B6843F480732B60FEF749F906461C
:102588002B685B0507D52B69226923F4F81343EA06
:1025980002432B611BE7FEF73BF9801B0228EFD9AA
:1025A80050E72B6823F480732B60FEF731F9064659
:1025B8002B685F057FF50BAFFEF72AF9801B022811
:1025C800F6D93FE7002719E7AB6A43F00103AB628E
:1025D800FEF71EF90646AB6ADB073FF514AFFEF7B8
:1025E80017F9801B0228F6D92CE7D5F8F030A16935
:1025F80003F08052914210D003F04062B2F1006FB4
:102608003FF473AE58016CD47E4AA169D2F8F03019
:1026180023F080530B43C2F8F0307A4DD5F8F030F0
:1026280043F08063C5F8F030FEF7F2F80646D5F8B7
:10263800F0301A0168D537B1724AD2F8943023F0D5
:102648000403C2F8943023685D0740F1A7806D4BFE
:10265800D3F8942050075DD40127D3F8942042F092
:102668000402C3F89420D3F8943003F004030293CF
:10267800029B654DAB6AD9074ED5A368614D13F02F
:10268800010F59D1D5F8F02022F00102C5F8F02049
:10269800D5F8F02022F00402C5F8F020002B5AD11A
:1026A800FEF7B6F841F288380646D5F8F0309A07B2
:1026B80000F1A080D5F8F0301B0667D541F28838C4
:1026C800D5F8F03023F08003C5F8F0304D4DD5F83B
:1026D800F03018055AD5FEF79BF8801B4045F6D90F
:1026E800B0E6D5F8F03023F0A053C5F8F030FEF787
:1026F8008FF80646D5F8F030190185D5FEF788F829
:10270800801B0528F6D99DE6FEF782F8801B052870
:102718008DD997E60027ACE7AB6A43F00103AB62BB
:10272800FEF776F80646AB6ADA07A6D4FEF770F825
:10273800801B0228F7D985E613F0040FD5F8F0308E
:102748001EBF43F00403C5F8F030D5F8F03043F06D
:102758000103C5F8F030FEF75BF841F2883805460A
:10276800284ED6F8F0309B0727D5A36813F0800FC2
:10277800D6F8F0302DD041F2883843F08003C6F8FF
:10278800F030204ED6F8F03018051CD537B11D4A68
:10279800D2F8943023F00403C2F8943023689906E1
:1027A80034D423681A0654D42368580674D4A16B09
:1027B800002940F0C1800020A6E5FEF729F8401B5B
:1027C8004045CED93EE6FEF723F8401B4045D9D90F
:1027D80038E641F2883823F08003C6F8F030094E15
:1027E800D6F8F0301905D1D5FEF712F8401B404550
:1027F800F6D927E6FEF70CF8801B40457FF655AF63
:1028080020E600BF000C024600080246E36A9B4D22
:102818007BB12B6843F480532B60FDF7F9FF064624
:102828002B689B04BDD4FDF7F3FF801B0228F7D962
:1028380008E62B6823F480532B60FDF7E9FF064672
:102848002B689F04ADD5FDF7E3FF801B0228F7D95D
:10285800F8E5236B894D7BB12B6843F480432B60EB
:10286800FDF7D6FF06462B6819049DD4FDF7D0FF67
:10287800801B0228F7D9E5E52B6823F480432B60F9
:10288800FDF7C6FF06462B681A048DD5FDF7C0FF75
:10289800801B0228F7D9D5E5636B784D002B3AD019
:1028A800AB6843F40003AB60AB68A26A23F07063C3
:1028B8001343AB60D4E90823B3F1404F16D3EB6858
:1028C80023F01F031343EB606C4D2B6843F0100398
:1028D8002B60FDF79DFF06462B689B063FF567AF0B
:1028E800FDF796FF801B0228F6D9ABE5002B05DA29
:1028F800EB6823F4787343EA4213E4E7B3F1804FBB
:10290800EB682BBF23F4F84323F4782343EA8223AC
:1029180043EAC233D7E72B6823F010032B60FDF797
:1029280077FF06462B689F067FF541AFFDF770FFDE
:10293800801B0228F6D985E5504DEB6903F00C039E
:102948000C2B00F0A1802B68022923F080732B60E8
:1029580040F08180FDF75CFF0646296811F00071A0
:102968006DD1D5F894305E070CD40121D5F8943098
:1029780043F00403C5F89430D5F8943003F0040309
:102988000393039B3E4DEE68EB6823F48023EB60D2
:102998003A4B676C986AE26B20F47F403A4320F028
:1029A80003000243206C013842EA00229A62A26CBA
:1029B8005F6B3448013A3840C2F308020243E06CC6
:1029C8000138400280B20243206D0138000400F44F
:1029D800FE000243606D0138000600F0FE4002432D
:1029E8005A639A6A22F010029A62E26DD2009A63E0
:1029F8009A6A42F010029A629A6AA06D22F00C025A
:102A080002439A62700342BFEA6842F48022EA6095
:102A180029B1D3F8942022F00402C3F894201A684C
:102A2800164C42F080721A60FDF7F2FE05462368E4
:102A38009A010AD5A36A43F48023A362BBE6FDF793
:102A4800E7FE801B022888D9FCE4FDF7E1FE401B65
:102A58000228ECD9F6E4FDF7DBFE04462B689B015F
:102A680006D4AB6A23F4E02323F00303AB62A2E6A7
:102A7800FDF7CEFE001B0228F0D9E3E4000C024665
:102A880000080246000080800129AA6A6B6B3FF4A7
:102A98002CACE06B02F0030181427FF426AC216C80
:102AA800C2F30320013988427FF41FAC616C02F441
:102AB80070428A427FF419ACA26CC3F30801013A50
:102AC80091427FF412ACE26CC3F34621013A914281
:102AD8007FF40BAC226DC3F30641013A91427FF4B7
:102AE80004AC626DC3F30663013A93427FF4FDAB15
:102AF8000D4BE16D9A6BC2F3CC028A423FF45BAE98
:102B08009A6A22F010029A62FDF782FE0546FDF7E6
:102B18007FFEA842FBD0E26D034BD2009A639A6A0B
:102B280042F010029A6246E6000C024670B5324C3A
:102B38000546236823F080532360FDF769FE0646A7
:102B480023689A004BD4236B29686A6823F470635E
:102B580023F00303013A0B4343EA02232363AB68E0
:102B6800616C264A013B0A40C3F308031343EA6831
:102B7800013A520292B213432A69013A120402F44A
:102B8800FE0213436A69013A120602F0FE42134339
:102B98006364236BAA6923F00C0313432363236B39
:102BA8002A6A13432363236B23F010032363A36C64
:102BB800EA696FF3CF0343EAC203A364236B0E4DA4
:102BC80043F010032363236843F080532360FDF729
:102BD8001FFE04462B689B0008D5002005E0FDF782
:102BE80017FE801B0228ABD9032070BDFDF710FE2D
:102BF800001B0228EED9F7E7000C0246000080808F
:102C080070B5324C0546236823F080632360FDF7D6
:102C1800FFFD064623681A014BD4E36A29686A68EF
:102C280023F4706323F00303013A0B4343EA0223BE
:102C3800E362AB68E16B264A013B0A40C3F3080331
:102C48001343EA68013A520292B213432A69013ADD
:102C5800120402F4FE0213436A69013A120602F0F2
:102C6800FE421343E363E36AAA6923F00C031343A8
:102C7800E362E36A2A6A1343E362E36A23F0100318
:102C8800E362236CEA696FF3CF0343EAC203236468
:102C9800E36A0E4D43F01003E362236843F0806358
:102CA8002360FDF7B5FD04462B681B0108D50020FD
:102CB80005E0FDF7ADFD801B0228ABD9032070BDF0
:102CC800FDF7A6FD001B0228EED9F7E7000C024627
:102CD8000000808003682DE9F347DE07044608D525
:102CE800A649006DD1F8E02022F003020243C1F8A2
:102CF800E0209D0708D5A149606DD1F8E02022F0B9
:102D08000C020243C1F8E020580708D59B49A06D82
:102D1800D1F8E02022F030020243C1F8E020190780
:102D280008D59649E06DD1F8E02022F0C0020243B0
:102D3800C1F8E020DA0608D59049206ED1F8E020E5
:102D480022F440720243C1F8E0209F0608D58B495F
:102D5800606ED1F8E82022F007020243C1F8E820AB
:102D68005E0608D58549A06ED1F8E02022F44062BD
:102D78000243C1F8E0201D0608D58049E06ED1F86D
:102D8800E02022F440520243C1F8E020D80508D5DB
:102D98007A49206FD1F8E82022F0C0020243C1F836
:102DA800E820590208D57549606FD1F8E02022F46F
:102DB80040420243C1F8E0209A0508D56F49A06F48
:102DC800D1F8E82022F440620243C1F8E8205F0508
:102DD80008D56A49E06FD1F8E02022F44022024386
:102DE800C1F8E0201E0509D56449D4F88000D1F85F
:102DF800E82022F440720243C1F8E8209D0427D558
:102E0800D4F89030402B25D014D84BB3202B2FD09A
:102E18000126236858040BD5D4F89430B3F5007F05
:102E280058D02AD8002B5BD0B3F5807F5ED001261E
:102E3800354635E0602B01D0802BE9D14F4AD4F8D4
:102E48009010D2F8E43023F0E0030B43C2F8E430EA
:102E58000026DEE7494A936A43F480339362EDE73C
:102E680004F10800FFF7CCFE06460028D1D1E5E7BB
:102E780004F12C00FFF75AFEF6E7B3F5407F02D0C5
:102E8800B3F5806FD3D13546002D34D13B4AD4F801
:102E98009410D2F8E43023F4E0630B43C2F8E43032
:102EA800236819040AD5D4F8A430B3F5005F36D0E6
:102EB80023F4805221D832B3012635462368DA0339
:102EC80045D5D4F88830042B5AD8DFE803F03530DC
:102ED80050353500294A936A43F480339362D2E728
:102EE80004F10800FFF78CFE0546CDE704F12C003D
:102EF800FFF71CFEF8E72E46D2E7B2F5804F02D066
:102F0800B3F5405FD8D185B91C4AD4F8A410D2F8DB
:102F1800E83023F4E0430B43C2F8E830CEE704F18D
:102F28000800FFF76DFE0546EDE72E46C6E7134A93
:102F3800936A43F4803393622DBB104AD4F8881007
:102F4800D2F8E43023F007030B43C2F8E4302368D7
:102F58009B032CD5D4F88C30B3F5003F7FD014D820
:102F6800CBB1B3F5803F74D0012635461FE004F19C
:102F78002C00FFF7DBFD0546DEE700BF000C02462C
:102F880001263546E3E72E46E1E7B3F5403F02D098
:102F9800B3F5802FE8D1002D67D1B44AD4F88C104E
:102FA800D2F8E83023F4E0230B43C2F8E830236872
:102FB8005F033BD5AD4BD3F89420500757D44FF05F
:102FC8000108D3F8942042F00402C3F89420D3F8FF
:102FD800943003F004030193019BA54FBB6A43F0AF
:102FE8000103BB62FDF714FC8146BB6AD90741D5D2
:102FF800002D6ED19D4FD4F8BC20D7F8F03013F4D3
:10300800407340D1994AD4F8BC10D2F8F03023F478
:1030180040730B43C2F8F030B8F1000F06D0934A62
:10302800D2F8943023F00403C2F894302368DF0206
:1030380061D5D4F89C30B3F1006F00F0E6804AD82F
:10304800002B4BD0B3F1806F00F0D98001263546B4
:1030580051E0864A936A43F4803393629BE704F114
:103068002C00FFF763FD054695E72E469FE74FF0D6
:103078000008B2E7FDF7CCFBA0EB09000228B4D9A1
:1030880003263546C8E79342BCD0D7F8F020D7F8D6
:10309800F03022F4407143F48033C7F8F030D7F8A9
:1030A800F030D20723F48033C7F8F030C7F8F010B7
:1030B800A8D5FDF7ADFB41F2883A8146D7F8F03044
:1030C8009B079FD4FDF7A4FBA0EB09005045F5D959
:1030D800D6E72E46A0E7B3F1406FB7D1002D40F0F8
:1030E8009A80624AD4F89C10D2F8E03023F040630A
:1030F8000B43C2F8E0302368180313D5D4F89810AE
:1031080031F4805203D0B1F5005F40F08680002D85
:1031180040F086805548D0F8E42022F440520A4313
:10312800C0F8E420990210D5D4F8A0004F49B0F5B2
:10313800804F02BF8A6A42F480328A62D1F8E42062
:1031480022F480420243C1F8E4201A0209D5474913
:10315800D4F8B000D1F8E02022F440120243C1F8BC
:10316800E020DF0109D54149D4F8B400D1F8E020C6
:1031780022F440320243C1F8E020980109D53B49C6
:10318800D4F8B800D1F8E82022F018020243C1F8B8
:10319800E820590115D5D4F8AC30B3F5001F41D15A
:1031A800324A936A43F400339362002D43D12F4A85
:1031B800D4F8AC10D2F8E43023F440130B43C2F82F
:1031C800E43023681A0149D5D4F88430B3F1807FFC
:1031D80033D0B3F1007F43D0A3B301252368DB00CC
:1031E80009D5224AD4F8A810D2F8E83023F40043CD
:1031F8000B43C2F8E830284602B0BDE8F08704F176
:103208000800FFF7FDFC054668E7184A936A43F48F
:103218000033936262E72E466DE70126354681E763
:103228002E467FE7B3F5401FBFD104F10800FFF732
:10323800E7FC0546B9E72E46C3E70C4A936A43F410
:1032480000339362002DC9D1084AD4F88410D2F80B
:10325800E03023F040730B43C2F8E0303546BDE759
:1032680004F10800FFF7CCFC0546EBE7000C02462A
:1032780000080246F8B500BFF8BC08BC9E46704777
:0C328800F8B500BFF8BC08BC9E467047BB
:10329400006CDC0200366E010024F400001BB70051
:1032A40000093D0080841E00504B140040420F0072
:1032B40000E02E000070170000A00F0000B80B0003
:1032C400801A0600400D030088070200A086010052
:1032D40000000000000000000102030406070809C2
:1032E400000002420100000000000242030000004E
:1032F4000000024206000000000402420100000037
:10330400000402420A000000000802420200000019
:10331400000C02420D000000000C024202000000FA
:10332400000802420A0000000004024200000000FB
:10333400000802420C0000000004024203000000E6
:1033440000040242040000000010024200000000D9
:1033540000100242020000000010024203000000BC
:04336400A5020008B6
:043368007D020008DA
:0C336C0000093D000100000010000000FE
:04000005080006C920
:00000001FF
