:020000040800F2
:1000000000000C20411D0008751C0008771C00082A
:10001000791C00087B1C00087D1C0008911D00084D
:100020000000000000000000000000007F1C00082D
:10003000811C000800000000831C0008851C0008CB
:10004000911D0008911D0008911D0008911D0008D8
:10005000911D0008911D0008911D0008911D0008C8
:10006000911D0008911D0008911D0008911D0008B8
:10007000911D0008911D0008911D0008911D0008A8
:10008000911D0008911D0008911D0008911D000898
:10009000911D0008911D0008911D0008911D000888
:1000A000911D0008911D0008911D0008911D000878
:1000B00000000000911D0008911D0008911D00081E
:1000C000911D0008911D0008911D0008911D000858
:1000D000911D0008911D0008911D0008911D000848
:1000E000911D0008911D0008911D0008911D000838
:1000F000911D0008911D0008911D0008911D000828
:10010000911D0008911D0008911D0008911D000817
:10011000911D0008911D0008911D0008911D000807
:10012000911D0008911D0008911D0008911D0008F7
:10013000911D0008911D0008911D0008911D0008E7
:10014000911D0008911D0008911D0008911D0008D7
:10015000911D0008911D0008911D0008911D0008C7
:10016000911D0008911D0008911D0008911D0008B7
:10017000911D0008911D0008911D0008911D0008A7
:10018000911D0008911D0008911D0008911D000897
:10019000911D0008911D0008911D0008911D000887
:1001A000911D0008911D0008911D0008911D000877
:1001B000911D000800000000911D0008911D00081D
:1001C000911D000800000000911D0008911D00080D
:1001D000911D0008911D0008911D0008911D000847
:1001E000911D0008911D0008911D0008911D000837
:1001F0000000000000000000911D0008911D000893
:10020000911D0008911D0008911D0008911D000816
:10021000911D0008911D0008911D0008911D000806
:10022000911D0008911D0008911D0008911D0008F6
:08023000911D0008911D00085A
:100238000348044B834202D0034B03B1184770476D
:10024800680000206800002000000000064B0749F5
:10025800C91A891048BF0131491003D0044B0BB1AA
:1002680001481847704700BF680000206800002058
:100278000000000010B5064C237843B9FFF7D8FFFB
:10028800044B13B10448AFF300800123237010BD61
:100298006800002000000000E02F000808B5044BAB
:1002A8001BB104490448AFF30080BDE80840CDE71E
:1002B800000000006C000020E02F00080F4B70B514
:1002C8000F4DAB42A3EB050607D0B610002401344E
:1002D80055F8043B9847A642F9D80A4D02F07CFE2F
:1002E800094B5E1BAB424FEAA60606D00024013438
:1002F80055F8043B9847A642F9D870BD1431000858
:1003080014310008143100081831000870B5860748
:1003180047D0541E002A3ED0CAB2034601E0013C31
:1003280039D303F8012B9D07F9D1032C2CD9CDB271
:100338000F2C05EB052505EB054535D9A4F1100C67
:1003480003F1100E1A462CF00F064FEA1C1CB64497
:10035800C2E90055C2E9025510327245F8D10CF1D4
:10036800010214F00C0F04F00F0C03EB021213D06F
:10037800ACF1040323F003030433134442F8045B91
:100388009342FBD10CF003042CB1C9B21C4403F80E
:10039800011BA342FBD170BD64461346002CF4D167
:1003A800F9E703461446C0E71A46A446E0E700BF4B
:1003B800014B1868704700BF0000002088420ED922
:1003C8008B1883420BD900EB020C002A6ED06246D0
:1003D80013F801CD994202F801CDF9D170470F2ADF
:1003E8000FD8034602F1FF3C002A5FD00CF1010C44
:1003F800013B8C4411F8012B614503F8012FF9D119
:10040800704740EA01039B0751D1A2F1100301F1A3
:10041800200C70B523F00F0501F1100E00F1100447
:100428001B09AC445EF8105C0EF1100E103444F851
:10043800205C5EF81C5C44F81C5C5EF8185C44F8B0
:10044800185C5EF8145CE64544F8145CEAD10133A4
:1004580012F00C0F02F00F0C01EB031100EB031369
:1004680029D0ACF1040C1C1F8E462CF003064FEA71
:100478009C0C1E445EF8045B44F8045FB442F9D156
:100488000CF1010402F0030203EB840301EB840185
:1004980002F1FF3C4AB10CF1010C013B8C4411F80C
:1004A800012B614503F8012FF9D170BD704702F1A6
:1004B800FF3C03469AE76246EAE700BF0EB400B580
:1004C80082B0816803AB53F8042B019300F060F805
:1004D80002B05DF804EB03B0704700BF0FB40849E1
:1004E80000B583B0086804AB816853F8042B019306
:1004F80000F04EF803B05DF804EB04B0704700BF9D
:10050800000000209368013B002B936011DA10B4BF
:100518009469A34209DB0A2907D01368581C1060A4
:10052800084619705DF8044B70475DF8044B00F0FD
:1005380057B91368581C106008461970704700BFF7
:100548009BB1F8B5134406460F46541E5D1E01E0E4
:10055800AC4208D03A4614F8011F3046FFF7D2FFE4
:10056800431CF5D1F8BD0020F8BD0020704700BF3E
:10057800936810B514461BB918460023636010BD74
:1005880000F07AF90023A3600023636010BD00BF68
:100598002DE9F04F8B469FB016461C46824618B18F
:1005A800036A002B00F00381BBF80C30180740F1F8
:1005B8009880DBF81030002B00F0938000237D4FEB
:1005C8004FF0010805940B9343F22003ADF8313046
:1005D800337835464BB1252B07D02A4615F8013F0D
:1005E8000BB1252BF9D1A91B60D1002B71D00023A9
:1005F8004FF0FF320135069309938DF85B301C9359
:10060800CDE9072305E0C01B254608FA00F003439F
:1006180006932C460522384614F8011B01F012F9FE
:10062800069B26460028EED1D90602D520228DF851
:100638005B201A0702D52B228DF85B2029782A29FE
:1006480059D1059A111D1268002A0591C0F28980B6
:10065800099269782E2962D0574C0322204601F06E
:10066800F1F830B1001B4022069B0136824013434B
:10067800069316F8011B062250488DF8301001F039
:10068800E1F8002873D04E4B002B5AD005AC4D4BE7
:100698005A4606A950460094AFF300808146B9F146
:1006A800FF3F16D00B9B4B440B9391E7013ECDF8CF
:1006B80008900395894674183546164601E0A54208
:1006C80046D05A4615F8011F5046FFF71BFF013068
:1006D800F5D1BBF80C305B060AD40B981FB0BDE807
:1006E800F08F5946504600F045FD00283FF466AFAC
:1006F8004FF0FF30F2E7A1F13002092A55D8099BE3
:1007080000E00134217803EB830302EB4303A1F1FA
:100718003002092AF5D92E29264609939CD17178E9
:100728002A292ED1059BB21C191D1B68002B079383
:100738000591B8BF4FF0FF33B1781646B8BF07939D
:100748008AE7059B073323F0070308330593A9E7D6
:1007580049460B9BDDF808900B44039D0B93737877
:1007680043E7524243F002030992069371E705A852
:10077800144B5A4606A90090504600F093FE814655
:100788008DE7A1F1300200230136092A07933FF6CD
:1007980063AF03EB830316F8011F02EB4303A1F1D8
:1007A8003002092AF5D9079356E72E4652E700F09A
:1007B800CDFAF9E6D0300008D8300008DC3000085F
:1007C800000000004905000810B4044C13460A460E
:1007D800014620685DF8044BFFF7DABE00000020F0
:1007E800F8B50D460646144610B1036A002B37D0FB
:1007F800A269A389A2601A0719D52369BBB1226827
:10080800EDB26169D31A2F46994220DD0133A16800
:100818000139A160511C2160157062699A420DD09E
:10082800A389DB0701D50A2D08D03846F8BD214633
:10083800304600F09FFC38B92369E0E7214630468E
:1008480000F03CFB0028F0D04FF0FF37EDE72146E1
:10085800304600F033FB0028F6D122680123D6E7A2
:1008680000F074FAC4E700BF024B0A460146186854
:10087800FFF7B6BF000000209368002B00F0F98056
:10088800B1F90CC01CF0080F2DE9F04F904683B069
:1008980081460C4631D00B697BB31CF00207D8F8AF
:1008A800006038D00027D4F828B0216ADFF8C4A245
:1008B8003D4655452B463A46484628BF5346C5B19E
:1008C800D847002840F3CB80D8F8083007442D1AC1
:1008D8001B1AC8F80830002B00F0B78055452B4686
:1008E800D4F828B03A46216A28BF53464846002D16
:1008F800E6D1D6E900750836DBE72146484600F020
:1009080039FC002840F0B080B4F90CC0D8F8006079
:100918001CF00207C6D11CF0010A64D123685746AF
:10092800A16818468B46002F59D01CF4007F00F0B0
:10093800B680B9420A4600F2E2801CF4906F30D0CB
:1009480021695D1A636913EB430348BF01334FEA1A
:10095800630B6B1C3B445A465B4501D99B461A46C0
:100968001CF4806F00F0EA801146484600F00CFB4A
:10097800002800F0F9802A462169009000F05CFC0C
:10098800A289009B22F4906242F08002A281581949
:10099800C4F814B0ABEB05053A46BB462361A56025
:1009A800206051460092FFF709FDA16823683D4683
:1009B800009AA1EB0B0100271A44A1602260D8F825
:1009C8000830AA445B1BC8F80830002B3DD02368C8
:1009D800A168B4F90CC018468B46002FA5D1D6E9FA
:1009E80000A708369DE73846BB463D460097002DD0
:1009F80041D0002846D0009AA168AA4263692068BD
:100A080028BF2A4603EB010A2169884202D95245C8
:100A180000F38580934275DC5A46216A4846A76AE6
:100A2800B847B0F1000A1ADD009BB3EB0A03009344
:100A38000FD00120D8F80830D344A5EB0A05A3EB62
:100A48000A03C8F80830002BD1D1002003B0BDE854
:100A5800F08F2146484600F031FA0028EAD0B4F970
:100A68000C3043F04003A3814FF0FF3003B0BDE8E2
:100A7800F08F00207047756833460836002DFAD08D
:100A8800D3F800B02A460A21584600F0DBFE0028B9
:100A980067D00130A0EB0B031A460093ACE722693C
:100AA8009A4214D36269BA4211D86FF00043A56A1A
:100AB800216A4846BB4228BF3B4693FBF2F302FB40
:100AC80003F35246A847051EC9DD7F1B77E7B942E5
:100AD800184628BF39460D4651462A46FFF76EFC90
:100AE800A1682368491B2B44A16023600029ECD12D
:100AF8002146484600F0E2F90028E6D0AFE7BB46B9
:100B08003A464EE759460192FFF758FC019AA36806
:100B180092469B1AA36023681344236084E75946CE
:100B28005246FFF74BFC236821464846534423604E
:100B380000F0C4F900283FF477AF90E7484600F08A
:100B4800F1FB034600287FF422AF2169484600F0F4
:100B58009BFAB4F90C300C2223F08003C9F800206A
:100B68007FE76A1C009247E70C22B4F90C30C9F8F9
:100B7800002076E700FCFF7F00207047024A034907
:100B8800034800F0D5BA00BF50000020C50E000889
:100B9800040000200C4B4168994210B5044601D06E
:100BA80000F08CF9A168094B994202D0204600F068
:100BB80085F9E168064B994204D02046BDE810400B
:100BC80000F07CB910BD00BF84000020EC000020BC
:100BD80054010020002070472DE9F8432A490025D8
:100BE8002A4C04230822DFF8B890C4F8381104F11D
:100BF8005C002946DFF8AC80254F264EE36025606F
:100C08006566A561C4E90155C4E90455FFF77EFB93
:100C1800214B0822294604F1C40063672567C4F8FC
:100C2800CC50C4F880502663C4E90849C4E90A874F
:100C3800C4E91A55C4E91E55FFF768FB04F16803B7
:100C480029460822C4F8883004F59670134BC4F876
:100C5800D850C4F8DC30C4F83451C4F8E850C4E9BA
:100C68002398C4E92576C4E93455C4E93855FFF713
:100C78004DFB04F1D003C4E93D98C4E93F76C4F8BC
:100C8800F030BDE8F88300BF850B00088400002021
:100C980095190008BD19000809000100120002009A
:100CA8002D19000855190008F8B5254B0646D3F844
:100CB8003831002B3DD0234FD7E90134013B04D50F
:100CC8001DE05A1C04F1680419D0B4F90C50013B1A
:100CD800002DF6D11C4B0822294604F15C006566FC
:100CE800E3602560A561C4E90155C4E90455FFF72F
:100CF8000DFBC4E90D55C4E912552046F8BD3D6801
:100D08000DB12F46D8E74FF4D671304600F03CF9C4
:100D1800044688B1042305600C302946254640F86E
:100D2800083C4FF4D072A060FFF7F0FA3C602F4601
:100D3800C2E7FFF751FFBEE70C2338603360DCE7FA
:100D480084000020500000200100FFFF036A03B167
:100D58007047044B044AD3F838310262002BF7D1AC
:100D68003AE700BF840000209D0B0008704700BFD1
:100D7800704700BF024A0020024900F0D9B900BFFD
:100D880050000020810B0008024A0020024900F0B0
:100D9800CFB900BF50000020DD0B0008B1F90C30BE
:100DA8002DE9F0411E070C4680463DD44A68002ACA
:100DB80055DDE56A002D34D00022D8F80060216A9C
:100DC800C8F8002013F4805256D101234046A847A2
:100DD800451C024665D0B4F90C30E56A216A58070B
:100DE80005D56368D21A636B0BB1236CD21A002342
:100DF8004046A847431C41D0002363602369236011
:100E0800A389DF0400D56065616BC8F8006041B153
:100E180004F14403994202D0404600F035F900231A
:100E280063630020BDE8F0810E69002EF9D09B07AE
:100E38000D680E600CBF4B690023AD1B8B600BE087
:100E48002B463246216A4046A76AB847B0F1000CE3
:100E5800A5EB0C05664406DD002DF1DCE1E70A6C24
:100E6800002AA6DCDDE7B4F90C3043F040034FF06C
:100E7800FF30A381BDE8F081626DB0E7D8F80010BB
:100E8800B4F90C301D29F0D80B4ACA40D507ECD567
:100E98000022626022692260DA04B5D50029B2D046
:100EA800B2E7D8F80030002B95D01D2B01D0162BB7
:100EB800D9D1C8F80060B4E7010040200B69B3B18C
:100EC80010B5044682B008B1036A5BB1B1F90C30C1
:100ED80013B9002002B010BD204602B0BDE8104092
:100EE800FFF75CBF0191FFF731FF0199EEE70020A2
:100EF800704700BFB8B10E4A38B503690446156893
:100F08002BB10DB12B6A53B1B4F90C300BB90020D9
:100F180038BD21462846BDE83840FFF73FBF284680
:100F2800FFF714FFF0E7034A0349044800F000B94B
:100F38000000002050000020C50E0008040000201A
:100F480070B5104E05460C463368B3B121462846A5
:100F580000F0D6FC431C0CD0C41C24F00304A042AF
:100F680005D0211A284600F0CBFC013001D02046DC
:100F780070BD4FF0FF34204670BD194600F0C0FC2C
:100F88003060E3E7C00100202DE9F843CD1C064698
:100F980025F0030508350C2D38BF0C25002D2EDB58
:100FA800A9422CD8DFF8DC8000F0BEFBD8F804207A
:100FB8007AB1144603E0636822461C464BB12368A5
:100FC8005B1BF8D40B2B1ED89442636853D0536034
:100FD80007E029463046FFF7B3FF431C04461DD0FF
:100FE8000560304600F0A2FB04F10B00231D20F041
:100FF8000700C21A01D01B1AA350BDE8F8830C23BE
:1010080033600020F9E761199442256014BF5160EC
:10101800C8F80410635163684B60E2E7D8F80470BD
:101028001FB33C467F68002FFBD123683946304602
:1010380004EB030900F064FC814516D123683046AF
:10104800ED1A2946FFF77CFF01300ED02368D8F847
:1010580004202B442360536883B1A34203D01A466B
:101068005B689C42FBD10023B1E70C233046336018
:1010780000F05CFBC5E7C8F80430B2E7C8F80470B4
:10108800AFE700BFC001002000293AD038B551F8B9
:10109800043C0C1F0546002BB8BFE41800F044FBC5
:1010A800224A1368D3B1A34214D81A465B680BB11D
:1010B800A342FAD911685018A04223D02ED821682B
:1010C8006018834211D0636054602846BDE83840F8
:1010D80000F02CBB2168601883420DD0284663605D
:1010E8001460BDE8384000F021BB18685B6808440C
:1010F800C4E900035460E8E718685B6808442060A6
:10110800ECE7704720680144501811608342DCD135
:10111800D3E900040144C2E90014D6E70C232846A9
:101128002B60BDE8384000F001BB00BFC4010020BF
:101138002DE9F8434FF00009074688461646D6E9D8
:101148000154013D0FD4A389012B08D9B4F90E30FD
:1011580021463846013302D0C04749EA0009013D1B
:1011680068346B1CEFD13668002EE8D14846BDE8DC
:10117800F88300BF38B52F4B05460C461B6813B1E2
:101188001A6A002A45D0B4F90C30180716D5226916
:10119800F2B113F0010107D0616900204942A06053
:1011A800A1613AB1002038BD980758BF6169A160B4
:1011B800002AF7D1190638D4104638BDD9062CD5DF
:1011C8005A0712D4226943F00803A381002AE0D108
:1011D80003F42071B1F5007FDBD02146284600F0EA
:1011E800A7FAB4F90C302269D3E7616B51B104F165
:1011F8004402914204D02846FFF746FFB4F90C3068
:10120800002262630021226923F02403C4E900213B
:10121800D9E71846FFF79AFDB5E7092243F04003DE
:101228002A60A3814FF0FF3038BD43F04003A3810B
:10123800F8E700BF00000020844641EA000313F0ED
:10124800030349D1403A23D30B6803604B684360DA
:101258008B688360CB68C3600B6903614B6943612A
:101268008B698361CB69C3610B6A03624B6A436212
:101278008B6A8362CB6AC3620B6B03634B6B4363FA
:101288008B6B8363CB6BC36340304031403ADBD216
:1012980030320BD30B6803604B6843608B68836004
:1012A800CB68C36010301031103AF3D20C3205D33A
:1012B80051F8043B40F8043B043AF9D2043208D010
:1012C800D2071CBF11F8013B00F8013B01D30B8882
:1012D80003806046704700BF082A13D38B07B1D03C
:1012E80010F00303AED0C3F10403D21ADB071CBF0E
:1012F80011F8013B00F8013BA4D331F8023B20F878
:10130800023B9FE7043AD9D3013A11F8013B00F8B0
:10131800013BF9D20B7803704B7843708B7883705C
:10132800604670472DE9F041144641B30AB30646BA
:101338000D4600F043FB8442074602D8B4EB500F39
:1013480013D821463046FFF71FFE804650B1BC42F5
:101358002246294628BF3A46FFF76EFF29463046FF
:10136800FFF792FE4046BDE8F081A8464046BDE83A
:10137800F081A046FFF788FE4046BDE8F08111469F
:10138800BDE8F041FFF700BE2DE9F84F92461F4631
:101398000A690C468B680646DDF828909A42B8BF61
:1013A8001A46CAF8002091F8433013B10132CAF83E
:1013B8000020226891065DD5DAF800300233CAF8B9
:1013C8000030226812F0060F11461BD1E1689942DD
:1013D80066DD4FF0000804F1190B05E0E568DAF85E
:1013E8000030ED1A45450CDD01235A463946304692
:1013F800C847013008F10108F0D14FF0FF30BDE8CF
:10140800F88F216894F84330003B18BF01238A06FF
:101418000AD5E1185A1C30200233224481F84300CF
:1014280094F8451082F8431004F1430239463046D7
:10143800C8470130E1D02368DAF8005003F006030A
:101448002169042BD4E902201BD08A4220DD4FF009
:101458000008521A90441A34002501E0454517DA6D
:101468000123224639463046C847013005F10105B7
:10147800F4D1C2E712F0060F0DD0003B18BF0123CC
:10148800D2E7401B8A4220EAE078E2DC0028E2DC6E
:101498000020BDE8F88FDAF80030E168994298DC5E
:1014A8001146AFE72DE9F047174684B00A7E0C468F
:1014B800064698460C9D01F1430C002A35D0A2F14E
:1014C8005803D9B2202969D8202B67D8DFE813F050
:1014D800E600660066006600660066006600660054
:1014E800660066006600AC00700066006600660074
:1014F80066007000660066006600660021008300D2
:10150800C60066006600B6006600830066006600D6
:10151800EC002B682268181D6169286010061B689A
:1015280002D4520600F1E08019600023E1462361ED
:101538003B4603AA21463046CDF80080FFF724FF3A
:10154800013020D04A46236939463046C047013029
:1015580019D02368E0689B07DDF80C9018D548453A
:1015680016DD002504F1190A04E0E068A0EB090380
:10157800AB420DDD0123524639463046C0470130A3
:1015880005F10105F1D14FF0FF3004B0BDE8F08757
:101598004845B8BF484604B0BDE8F087012004F1CB
:1015A800420984F842200023206184F84330BFE7D1
:1015B8002A682368111D1806296002D4590600F10B
:1015C80095801068014600286268C0F293805448EC
:1015D8004FF00A0E15E020682B6810F0800F53F8C2
:1015E800041B02D1400648BF89B26F2A4C482B60C1
:1015F80014BF4FF00A0E4FF0080E0023626884F8FB
:101608004330002AA26051DB236823F004032360DF
:1016180000294BD1002A7BD1E146BEF1080F56D0F4
:10162800ACEB0903236183E72A6804F1420901202E
:10163800111D1268296084F84220B4E72B68002144
:101648006268181D2860D3F80090484600F0FAF840
:10165800002863D0A0EB09006060A4E7236843F08A
:101668002003236078222F4884F845202A6813F045
:10167800800F52F8041B03D113F0400F18BF89B232
:101688002A60DA0702D543F02003236019B92368DA
:1016980023F0200323604FF0100EAEE758232048B4
:1016A80084F845302368E1E72368DBE77546E146BF
:1016B8000A46B1FBF5F305FB131AAA42194610F8BE
:1016C8000A3009F8013DF3D2BEF1080FA8D123680A
:1016D800DD07A5D5626823699A42A1DC302309F1A8
:1016E800FF3989F800309BE719801EE7B2F900102E
:1016F800084668E72D20002AA26084F8430002DB30
:1017080023F0040323600A2549420548AE46CEE784
:10171800037804F1420984F842307EE7606842E7C2
:10172800E4300008F8300008704700BF704700BF79
:10173800B1F90C3070B50C46990796B007D504F18D
:10174800470301222360C4E9043216B070BDB4F91E
:101758000E10054600292ADB6A4600F061F90028C8
:1017680023DB4FF480612846019EFFF70DFC00281B
:1017780031D0A38906F470464FF48062206043F0AC
:101788008003B6F5005F2061A3816261DDD1B4F901
:101798000E10284600F0A2F80028D6D0A38923F01E
:1017A800030343F00103A381CFE7B4F90C3013F02E
:1017B800800F284614BF40254FF480652946FFF75F
:1017C800E3FB40B1A389206043F08003C4E904052A
:1017D800A38116B070BDB4F90C309A05B5D423F0C6
:1017E800030304F14702012143F002032260C4E924
:1017F8000421A381A9E700BF70B50C46B1F90E100A
:1018080096B0154600291E460FDB6A4600F008F917
:1018180000280ADB019B4FF4806203F47043A3F5B0
:101828000053B3FA83F35B0907E0A289002312F09F
:10183800800F14BF40224FF48062002033602A607A
:1018480016B070BD5FFA81FC810744D00346511E73
:1018580022B909E09A0709D0013905D3184601339E
:1018680002786245F6D17047002070471846032970
:101878000CD80029F8D00346014401E08B42F3D08C
:10188800184613F8012B6245F8D1704710B50CEBD8
:101898000C24024604EB044402E00439032915D958
:1018A800104652F8043B6340A3F1013E2EEA0303BD
:1018B80013F0803FF1D00346014401E08B4208D089
:1018C800184613F8012B6245F8D110BD10460029BF
:1018D800F1D1002010BD1146C9E700BF38B500227C
:1018E800064D044608462A6000F0E0F9431C00D083
:1018F80038BD2B68002BFBD0236038BDC801002001
:1019080038B50022064D044608462A6000F0D2F990
:10191800431C00D038BD2B68002BFBD0236038BD9A
:10192800C801002010B50C46B1F90E1000F062F89D
:10193800002803DB636D0344636510BDA38923F4AA
:101948008053A38110BD00BF002070472DE9F041EE
:101958000C46B1F90C101F460546CB0516460BD4AC
:1019680021F480513B4632462846A181B4F90E1035
:10197800BDE8F04100F080B8B4F90E10022300224F
:1019880000F064F8B4F90C10EAE700BF10B50C4693
:10199800B1F90E1000F05AF8421CB4F90C3004D01A
:1019A80043F480536065A38110BD23F48053A38161
:1019B80010BD00BFB1F90E1000F00AB851F8043C90
:1019C800002BA3F1040000DB70470B581844704744
:1019D80038B50022064D044608462A6000F05EF934
:1019E800431C00D038BD2B68002BFBD0236038BDCA
:1019F800C801002038B50C4684461146074D1A46E2
:101A08000023204664462B6000F03AF9431C00D0BE
:101A180038BD2B68002BFBD0236038BDC8010020DF
:101A280070B50C460346084D0026204611461C4654
:101A38002E6000F036F9431C00D070BD2B68002BD7
:101A4800FBD0236070BD00BFC801002038B50C462C
:101A580084461146074D1A460023204664462B60EB
:101A680000F026F9431C00D038BD2B68002BFBD0B2
:101A7800236038BDC801002038B50C46844611469D
:101A8800074D1A460023204664462B6000F00AF8EA
:101A9800431C00D038BD2B68002BFBD0236038BD19
:101AA800C8010020104600234FF0604230B5834241
:101AB80000DB30BDD2F8804EE50707D5D2F8004EDE
:101AC800E40703D5CC5C156815B114700133EEE753
:101AD80000BFF8E700B59FB06022002106A8FEF716
:101AE80015FC182200216846FEF710FC4FF4403020
:101AF80000F090FB08B172B6FEE74FF48071102237
:101B08000223CDE9091201220A21CDE91433CDE9D6
:101B18001813CDE91A3206930C231790CDE91C301F
:101B280006A8169200F0F8FD08B172B6FEE71F226B
:101B38000323CDE90200CDE9040004216846CDE97C
:101B4800002300F087FC08B172B6FEE71FB05DF80D
:101B580004FB000000B5334D334C6B6889B023603B
:101B680000F05CF9FFF7B6FF1422002103A8FEF786
:101B7800CDFB2E4B4FF48451D3F88C202C4842F0E7
:101B88000402C3F88C20D3F88C2002F004020092DF
:101B9800009AD3F88C2042F00102C3F88C20D3F8C5
:101BA8008C2002F001020192019AD3F88C2042F0B5
:101BB8000202C3F88C20D3F88C30002203F0020311
:101BC8000293029B00F016FB4FF484520123CDE9E7
:101BD80003230023164803A9CDE9053300F000FAD2
:101BE80000F00EFB08B172B6FEE76A68114D216875
:101BF80011482A60FEF772FC236829680F48C91A41
:101C08000F4B0B4C1960FEF769FC204600224FF47D
:101C1800805100F0EFFA01224FF48051204600F085
:101C2800E9FAF2E7001000E0D4010020000C0246B7
:101C380000080242D0010020F82F0008FB2F0008FE
:101C4800CC0100200420084B82B0D3F8942042F045
:101C58000402C3F89420D3F8943003F004030193EA
:101C6800019B02B000F016B9000C0246FEE7FEE741
:101C7800FEE7FEE7FEE770477047704700F0F8B8E8
:101C880070B50D4614460E46731B9C4201DC204677
:101C980070BDAFF3008006F8010BF5E74FF0FF3099
:101CA80070474FF4005300204B6070470120704785
:101CB800002070470B4A0346116810B509B90A4954
:101CC8001160106809490A4C0344091B8B4206D964
:101CD800FEF76EFB0C2303604FF0FF3010BD13605E
:101CE800FCE700BFD8010020E001002000000C2024
:101CF8000004000001220E48D0F8883043F4700335
:101D0800C0F888300B4B1A600022DA611A625A62F6
:101D1800196821F0A85121F4102119609A621968F4
:101D280021F4802119601A654FF0006383607047C1
:101D380000ED00E0000C0246DFF834D0FFF7DAFFD0
:101D4800002103E00B4B5B58435004310A480B4B0E
:101D580042189A42F6D30A4A02E0002342F8043BAA
:101D6800084B9A42F9D3FEF7A9FAFFF7F3FEFEE70C
:101D780000000C201C310008000000206800002032
:101D880068000020E0010020FEE7000070B5204E4A
:101D9800054632780AB9012070BD4FF0E0231C696E
:101DA80014F0040417D04FF47A73B3FBF2F3194A12
:101DB8001468B4FBF3F4204600F0AEF8044600289B
:101DC800E9D1024629464FF0FF3000F075F8124B72
:101DD80020461D60E0E700F0E9F8012807D0022856
:101DE8000DD00028E7D14FF4FA533278DDE74FF4ED
:101DF8007A7332784FF4FA44B3FBF2F3D9E74FF42D
:101E08007A7332784FF40044B3FBF2F3D1E700BFA2
:101E1800600000205C00002064000020104A10B51B
:101E28001368032043F48073136000F033F800F064
:101E380095FA0C4B0C4A1B6A03F00F03D35CD8408D
:101E48000A4B1860042000F077F80020FFF79EFF87
:101E5800044618B9FFF7F6FE204610BD0124FBE73B
:101E680000200240000C0246403000085C000020C0
:101E7800034A044B11681B780B441360704700BF7A
:101E8800DC01002060000020014B1868704700BF8B
:101E9800DC01002007490302CA6803F4E06322F466
:101EA800E0621204120C134343F0BF6343F400339F
:101EB800CB60704700ED00E0154B30B5DC68C4F32B
:101EC8000224C4F10703251D042B28BF0423062D73
:101ED8004FF0FF3594BF0024033C05FA03F321EAD1
:101EE8000303A54022EA0502A340002843EA0203AF
:101EF800ACBF00F16040074A4FEA0313DBB2ABBF47
:101F080000F5614000F00F0080F80033135430BD35
:101F180000ED00E014ED00E00138B0F1807F3FBF34
:101F28004FF0E02358610020986137BF1A690120FB
:101F380042F003021A617047042818D8DFE800F05D
:101F48000A18261703004FF0E022136943F0040330
:101F5800136170474FF0E022136923F00403136103
:101F6800114AD2F8E03023F44003C2F8E030704759
:101F78004FF0E022136923F0040313610A4AD2F8F0
:101F8800E03023F4400343F48003EEE74FF0E0220F
:101F9800136923F004031361034AD2F8E03023F4F1
:101FA800400343F40003E0E7000C02464FF0E0234F
:101FB8001B695A070DD4094BD3F8E00000F4400020
:101FC800B0F5800F07D0A0F50003584258414000F3
:101FD8007047042070470120704700BF000C02467C
:101FE8002DE9F04F7F4B85B003EA902303937E4B96
:101FF8000022029303467D4F019101990D6835FA3D
:1020080002F402D105B0BDE8F08F012101FA02FE09
:102018001EEA050500F08B8001994C68744924F08C
:102028001006884240F088800368029923EA0E0C63
:1020380004F00103934043EA0C030360D1F804C0A1
:102048000F210CF0070E4FEA8E0E01FA0EF90B2144
:1020580001FA0EFE0321029B4FEADC081B6803EB22
:102068008808D8F820A02AEA09094EEA090EC8F813
:1020780020E04FEA4C0E01FA0EF90221D3F8008055
:1020880001FA0EFE28EA09084EEA080EC3F800E035
:10209800013E012E7CD9032C49D003214FEA4C0C78
:1020A800DE6801FA0CFE019926EA0E0E8E6806FA21
:1020B8000CF646EA0E06DE60E60038D50F2122F05F
:1020C800030C0CF18C4C02F003060CF5083CF600EE
:1020D800DCF8608001FA06FE039928EA0E0E01FA80
:1020E80006F646EA0E06CCF860606FEA050C3E6814
:1020F800E10254BF0CEA06062E433E607E68A10248
:1021080054BF0CEA06062E437E60D7F88460A1030C
:1021180054BF0CEA06062E43C7F88460D7F88060DF
:10212800E10354BF0CEA06062E43C7F88060029C00
:1021380001320834029460E703214FEA420901FAA8
:1021480009FC022E6FEA0C0C3ED122FA01FE0F2187
:1021580002F007084FEA880801FA08FB019900EB2A
:102168008E0EDEF820A009692AEA0B0A01F00F0B8F
:102178000BFA08FB4BEA0A0BCEF820B0D3F800E0C4
:1021880006FA09F60EEA0C0E944646EA0E061E609A
:1021980003214FEA4C089E6801FA08FE019926EAD5
:1021A8000E0ECE68012106FA08F646EA0E069E6073
:1021B8005E6801FA0CFE26EA0E0E260906FA0CF6EF
:1021C80046EA0E065E6068E7D3F800E00EEA0C0EF9
:1021D80004F0030C0CFA09FC4CEA0E0CC3F800C01E
:1021E800944655E77F7F2F005030000800200246B4
:1021F800000002460AB181617047816270470000A1
:10220800034A0020136843F001031360704700BFBE
:10221800000403401D4BDA6B02F44032824208D1BD
:10222800B2F5803F82BFDA6842F48022DA6000208B
:102238007047DA68B0F5803F22F4E02242EA0002F3
:1022480088BF42F48022DA604FF47A72104B322150
:102258001B68B3FBF2F34B43B3FBF2F301331A46AB
:102268000A49C868000404D40AB903207047013A2F
:10227800F7E7002AF9D0054AD16B090403D4002BEB
:10228800F3D0013BF8E7002BD1D1EEE70008024676
:102298005C000020024BD86B00F44030704700BF50
:1022A8000008024637B52B4D0446D5F894305B0735
:1022B80018D5FFF7EFFF20F48033B3F5003F26D1A0
:1022C800B4F1805F2CBF00200120234A136823F05B
:1022D8000F0303431360136803F00F03181A18BFA2
:1022E80001201BE0D5F8943043F00403C5F894307E
:1022F800D5F8943003F004030193019BFFF7CAFF5C
:10230800D5F8943023F00403C5F89430D3E7B4F13A
:10231800805F05D2B0F5803F15D0012003B030BDF5
:10232800B4F1005F06D980B9B4F1405F8CBF0020DA
:102338000120CAE7B4F1805F09D1B0F5803F0CBF36
:1023480001200220C1E70320BFE70020BDE70120EC
:10235800BBE700BF000C024600200240384A10B517
:10236800D369916A13F00C0305D00C2B36D101F018
:102378000301012932D19168090254BFD2F8F4202F
:102388009268304954BFC2F30332120F51F8220049
:10239800002B51D02A4ADFED2C5A916A936A946A2D
:1023A800C3F30323013306EE903A936BC4F300148E
:1023B800C3F3CC03634307EE903A01F0030102290B
:1023C800B8EEE77AF8EEE66AB7EE006A14D00329A9
:1023D80012D007EE900AF8EE677A0FE0D26902F0A1
:1023E8000C02042A06D0082B27D000200C2B23D15E
:1023F8000020CFE71548F9E7DFED157A536B87EE34
:10240800A65AC3F3080307EE903AF8EEE77AE7EE28
:10241800257A0B4B77EE867A5B6B67EE857AC3F38A
:102428000663013307EE103AF8EEC76A87EEA67A1C
:10243800FCEEC77A17EE900A10BD0448FCE700BF0F
:10244800000C024600300008000000390024F400A7
:102458000024744B2DE9F3410D46044618B90120B8
:1024680002B0BDE8F0819C4A136803F00F038B4269
:102478006ED32368D80677D419070DD597492069F4
:102488000A6A120902F07002904281BF0A6A22F4B5
:10249800E06242EA00120A625A070BD58F49E068E7
:1024A8000A6A02F07002904281BF0A6A22F0700242
:1024B80002430A629F070BD58849A0680A6A02F09E
:1024C8000F02904281BF0A6A22F00F0202430A6299
:1024D800DE0756D42268900700F1D8807E490B6841
:1024E80003F00F03AB4200F2DE80500700F1E780F3
:1024F80011070DD5794920690B6A1B0903F0700390
:1025080098423FBF0B6A23F4E06343EA00130B626F
:10251800D3060BD5714A6169536A03F07003994277
:102528003FBF536A23F070030B435362FFF716FF54
:102538006A4B6B4A1B6A03F00F03D35CD840694BA4
:102548001860694B186802B0BDE8F041FFF71EBC7F
:10255800136823F00F030B431360136803F00F0392
:102568008B427FF47CAF84E75C4960694A6A02F079
:102578007002904281BF4A6A22F0700202434A62A6
:102588007AE76268554B032A4ED1D3F89420510755
:102598003DD40127D3F8942042F00402C3F89420D4
:1025A800D3F8943003F004030193019BFFF76CFC0C
:1025B800DFF838810646D8F80C305A0329D4474B3F
:1025C8002FB1D3F8942022F00402C3F894201B689A
:1025D80013F0007F3FF443AF404E6268F36941F265
:1025E800883823F003031343F361FFF74DFC636856
:1025F8000746032B25D1F36903F00C030C2B3FF49A
:1026080069AFFFF741FCC01B4045F4D90AE0002739
:10261800CCE7D8F80C305B04D1D4FFF735FC801B2D
:102628000228F6D903201BE7022A1B6802D113F4FB
:10263800003FCFE712B913F0040FCBE713F4806F14
:10264800C8E7022B0BD1F36903F00C03082B3FF406
:1026580041AFFFF719FCC01B4045F4D9E2E77BB94D
:10266800F36913F00C0F3FF435AFFFF70DFCC01BF7
:102678004045F5D9D6E7FFF707FCC01B4045D1D840
:10268800F36903F00C03042BF5D123E71349A06881
:102698000B6A03F00F0398423FBF0B6A23F00F0346
:1026A80003430B621AE70B6823F00F032B430B60FD
:1026B8000B6803F00F03AB427FF4D1AE15E707496F
:1026C800E0680B6A03F0700398423FBF0B6A23F07F
:1026D800700303430B620BE700200240000C024624
:1026E800403000085C00002064000020000802461A
:1026F80008B5FFF733FE054B054A1B6A03F00F03C5
:10270800D35CD840034B186008BD00BF000C0246DC
:10271800403000085C0000202DE9FF4104460028F5
:1027280039D0A34BDE699F6A036806F00C06D80609
:1027380007F0030740F19A80E3691EB10C2E75D1AA
:10274800012F73D13BB39A4D606AAB68190256BF2B
:10275800D5F8F430AB681B0403F07043984238D9BD
:10276800AEB1AB6843F40003AB60AB68616A23F0B9
:1027780070430B43AB60B1F1404F226A0DD2002980
:10278800EB681ADA23F4787343EA421309E0FFF797
:1027980089FD0028E5D001200CE0EB6823F01F0339
:1027A8001343EB60FFF7A4FF824B1868FFF7EEFABC
:1027B80000285BD004B0BDE8F081B1F1804F2BBF99
:1027C80023F4F84323F4782343EA822343EAC23309
:1027D800E7E7AB68B0F1404F43F40003AB60AB6888
:1027E80023F0704343EA0003AB60226AEB680AD324
:1027F80023F01F031343EB60002ED3D1FFF752FDE4
:102808000028CFD0C7E7002804DA23F4787343EA16
:102818004213F0E7B0F1804F2BBF23F4F84323F4C1
:10282800782343EA822343EAC233E4E7604D002B6E
:1028380074D02B6843F001032B60FFF725FB80461B
:102848002B685A074ED5AB6843F40003AB60AB68FE
:10285800616A23F070430B43AB60B1F1404F226AC9
:10286800EB6847D323F01F031343EB602368DD07AE
:1028780065D42368980700F1BD802368180740F1E4
:1028880038814B4BD3F89420510700F1F180012790
:10289800D3F8942042F00402C3F89420D3F894307B
:1028A80003F004030193019B434DAB6ADA0740F13F
:1028B800E18063693E4D002B40F0ED80D5F8F030A3
:1028C80023F0A053C5F8F030FFF7DEFA0646D5F836
:1028D800F0301B0140F10581FFF7D6FA801B05286F
:1028E800F5D905E0FFF7D0FAA0EB08000228A7D930
:1028F80003205FE7002904DA23F4787343EA4213DC
:10290800B3E7B1F1804F04D323F4F84343EA8223B9
:10291800ABE723F4782343EAC233A6E72B6823F016
:1029280001032B60FFF7B0FA80462B685B079DD543
:10293800FFF7AAFAA0EB08000228F6D9D8E7082E74
:10294800636803D00C2E04D1032F02D1002B90D141
:1029580021E7B3F5803F164D13D12B6843F480333C
:102968002B60FFF791FA0546DFF84480D8F800306D
:1029780099033FF57EAFFFF787FA401B6428F5D926
:10298800B6E7B3F5A02F08D12B6843F480232B605A
:102998002B6823F480132B60DFE7B3F5A81F0DD154
:1029A8002B6843F480232B602B6843F48013F2E7F1
:1029B800000C024664000020000802462A6822F43F
:1029C80080322A602A6822F480222A602A6822F447
:1029D80080122A60002BC4D1FFF756FA80462B6874
:1029E8009A037FF546AFFFF74FFAA0EB080064287B
:1029F800F5D97DE7042EE36803D00C2E0DD1022F04
:102A08000BD1002B3FF4C7AEA94A2169136923F4FF
:102A1800F81343EA014313612FE7A54DBBB12B68B7
:102A280043F480732B60FFF72FFA06462B685B058B
:102A380007D52B69226923F4F81343EA02432B6173
:102A48001BE7FFF721FA801B0228EFD950E72B6814
:102A580023F480732B60FFF717FA06462B685F058F
:102A68007FF50BAFFFF710FA801B0228F6D93FE776
:102A7800002719E7AB6A43F00103AB62FFF704FADA
:102A88000646AB6ADB073FF514AFFFF7FDF9801B7D
:102A98000228F6D92CE7D5F8F030A16903F0805266
:102AA800914210D003F04062B2F1006F3FF473AE70
:102AB80058016CD47E4AA169D2F8F03023F08053D3
:102AC8000B43C2F8F0307A4DD5F8F03043F080630C
:102AD800C5F8F030FFF7D8F90646D5F8F0301A01F6
:102AE80068D537B1724AD2F8943023F00403C2F89B
:102AF800943023685D0740F1A7806D4BD3F894208C
:102B080050075DD40127D3F8942042F00402C3F89B
:102B18009420D3F8943003F004030293029B654D8C
:102B2800AB6AD9074ED5A368614D13F0010F59D18F
:102B3800D5F8F02022F00102C5F8F020D5F8F020F1
:102B480022F00402C5F8F020002B5AD1FFF79CF9B7
:102B580041F288380646D5F8F0309A0700F1A0808F
:102B6800D5F8F0301B0667D541F28838D5F8F03033
:102B780023F08003C5F8F0304D4DD5F8F030180536
:102B88005AD5FFF781F9801B4045F6D9B0E6D5F84C
:102B9800F03023F0A053C5F8F030FFF775F906467A
:102BA800D5F8F030190185D5FFF76EF9801B052897
:102BB800F6D99DE6FFF768F9801B05288DD997E6B9
:102BC8000027ACE7AB6A43F00103AB62FFF75CF99F
:102BD8000646AB6ADA07A6D4FFF756F9801B022827
:102BE800F7D985E613F0040FD5F8F0301EBF43F08F
:102BF8000403C5F8F030D5F8F03043F00103C5F808
:102C0800F030FFF741F941F288380546284ED6F8EA
:102C1800F0309B0727D5A36813F0800FD6F8F03063
:102C28002DD041F2883843F08003C6F8F030204EAA
:102C3800D6F8F03018051CD537B11D4AD2F89430B3
:102C480023F00403C2F894302368990634D4236827
:102C58001A0654D42368580674D4A16B002940F08E
:102C6800C1800020A6E5FFF70FF9401B4045CED9EB
:102C78003EE6FFF709F9401B4045D9D938E641F24D
:102C8800883823F08003C6F8F030094ED6F8F030C3
:102C98001905D1D5FFF7F8F8401B4045F6D927E6C6
:102CA800FFF7F2F8801B40457FF655AF20E600BFDE
:102CB800000C024600080246E36A9B4D7BB12B6874
:102CC80043F480532B60FFF7DFF806462B689B041C
:102CD800BDD4FFF7D9F8801B0228F7D908E62B687E
:102CE80023F480532B60FFF7CFF806462B689F0428
:102CF800ADD5FFF7C9F8801B0228F7D9F8E5236B93
:102D0800894D7BB12B6843F480432B60FFF7BCF8F7
:102D180006462B6819049DD4FFF7B6F8801B0228D5
:102D2800F7D9E5E52B6823F480432B60FFF7ACF86F
:102D380006462B681A048DD5FFF7A6F8801B0228D3
:102D4800F7D9D5E5636B784D002B3AD0AB6843F4DF
:102D58000003AB60AB68A26A23F070631343AB60F7
:102D6800D4E90823B3F1404F16D3EB6823F01F03CF
:102D78001343EB606C4D2B6843F010032B60FFF797
:102D880083F806462B689B063FF567AFFFF77CF88C
:102D9800801B0228F6D9ABE5002B05DAEB6823F493
:102DA800787343EA4213E4E7B3F1804FEB682BBF33
:102DB80023F4F84323F4782343EA822343EAC23313
:102DC800D7E72B6823F010032B60FFF75DF8064662
:102DD8002B689F067FF541AFFFF756F8801B022846
:102DE800F6D985E5504DEB6903F00C030C2B00F088
:102DF800A1802B68022923F080732B6040F081802A
:102E0800FFF742F80646296811F000716DD1D5F830
:102E180094305E070CD40121D5F8943043F00403B4
:102E2800C5F89430D5F8943003F004030393039B5A
:102E38003E4DEE68EB6823F48023EB603A4B676CF9
:102E4800986AE26B20F47F403A4320F00300024383
:102E5800206C013842EA00229A62A26C5F6B344807
:102E6800013A3840C2F308020243E06C01384002DC
:102E780080B20243206D0138000400F4FE000243D2
:102E8800606D0138000600F0FE4002435A639A6AFA
:102E980022F010029A62E26DD2009A639A6A42F0B6
:102EA80010029A629A6AA06D22F00C0202439A629A
:102EB800700342BFEA6842F48022EA6029B1D3F87D
:102EC800942022F00402C3F894201A68164C42F0A9
:102ED80080721A60FEF7D8FF054623689A010AD562
:102EE800A36A43F48023A362BBE6FEF7CDFF801BF1
:102EF800022888D9FCE4FEF7C7FF401B0228ECD95A
:102F0800F6E4FEF7C1FF04462B689B0106D4AB6AC2
:102F180023F4E02323F00303AB62A2E6FEF7B4FF39
:102F2800001B0228F0D9E3E4000C02460008024620
:102F3800000080800129AA6A6B6B3FF42CACE06B1F
:102F480002F0030181427FF426AC216CC2F3032016
:102F5800013988427FF41FAC616C02F470428A42E6
:102F68007FF419ACA26CC3F30801013A91427FF4D3
:102F780012ACE26CC3F34621013A91427FF40BACE8
:102F8800226DC3F30641013A91427FF404AC626DAD
:102F9800C3F30663013A93427FF4FDAB0D4BE16D39
:102FA8009A6BC2F3CC028A423FF45BAE9A6A22F073
:102FB80010029A62FEF768FF0546FEF765FFA84211
:102FC800FBD0E26D034BD2009A639A6A42F010027A
:102FD8009A6246E6000C0246F8B500BFF8BC08BC89
:102FE8009E467047F8B500BFF8BC08BC9E467047BF
:102FF80025752025750A0000006CDC0200366E017C
:103008000024F400001BB70000093D0080841E0066
:10301800504B140040420F0000E02E0000701700D3
:1030280000A00F0000B80B00801A0600400D030036
:1030380088070200A08601000000000000000000D0
:10304800010203040607080900000242010000000B
:1030580000000242030000000000024206000000D7
:103068000004024201000000000402420A000000BD
:103078000008024202000000000C02420D0000009D
:10308800000C024202000000000802420A00000090
:103098000004024200000000000802420C00000088
:1030A8000004024203000000000402420400000081
:1030B800001002420000000000100242020000005E
:1030C8000010024203000000232D302B20000000D6
:1030D800686C4C00656667454647000030313233FE
:1030E80034353637383941424344454600000000FC
:1030F8003031323334353637383961626364656666
:0131080000C6
:08310C0034E1FF7F0100000027
:04311400A502000808
:043118007D0200082C
:10311C00040000200000000084000020EC000020CF
:10312C00540100200000000000000000000000001E
:10313C000000000000000000000000000000000083
:10314C000000000000000000000000000000000073
:10315C000000000000000000000000000000000063
:10316C0000000000030000008400002000093D0066
:08317C0001000000100000003A
:0400000508001D4191
:00000001FF
