:020000040800F2
:1000000000000C206D050008FD0400080105000833
:1000100005050008090500080D050008BD050008D4
:1000200000000000000000000000000011050008B2
:100030001505000800000000190500081D0500084E
:10004000BD050008BD050008BD050008BD05000888
:10005000BD050008BD050008BD050008BD05000878
:10006000BD050008BD050008BD050008BD05000868
:10007000BD050008BD050008BD050008BD05000858
:10008000BD050008BD050008BD050008BD05000848
:10009000BD050008BD050008BD050008BD05000838
:1000A000BD050008BD050008BD050008BD05000828
:1000B00000000000BD050008BD050008BD050008E2
:1000C000BD050008BD050008BD050008BD05000808
:1000D000BD050008BD050008BD050008BD050008F8
:1000E000BD050008BD050008BD050008BD050008E8
:1000F000BD050008BD050008BD050008BD050008D8
:10010000BD050008BD050008BD050008BD050008C7
:10011000BD050008BD050008BD050008BD050008B7
:10012000BD050008BD050008BD050008BD050008A7
:10013000BD050008BD050008BD050008BD05000897
:10014000BD050008BD050008BD050008BD05000887
:10015000BD050008BD050008BD050008BD05000877
:10016000BD050008BD050008BD050008BD05000867
:10017000BD050008BD050008BD050008BD05000857
:10018000BD050008BD050008BD050008BD05000847
:10019000BD050008BD050008BD050008BD05000837
:1001A000BD050008BD050008BD050008BD05000827
:1001B000BD05000800000000BD050008BD050008E1
:1001C000BD05000800000000BD050008BD050008D1
:1001D000BD050008BD050008BD050008BD050008F7
:1001E000BD050008BD050008BD050008BD050008E7
:1001F0000000000000000000BD050008BD0500086B
:10020000BD050008BD050008BD050008BD050008C6
:10021000BD050008BD050008BD050008BD050008B6
:10022000BD050008BD050008BD050008BD050008A6
:08023000BD050008BD05000832
:100238000348044B834202D0034B03B1184770476D
:100248000C0000200C00002000000000064B0749AD
:10025800C91A891048BF0131491003D0044B0BB1AA
:1002680001481847704700BF0C0000200C00002010
:100278000000000010B5064C237843B9FFF7D8FFFB
:10028800044B13B10448AFF300800123237010BD61
:100298000C00002000000000981A000808B5044B64
:1002A8001BB104490448AFF30080BDE80840CDE71E
:1002B8000000000010000020981A00080F4B70B5CD
:1002C8000F4DAB42A3EB050607D0B610002401344E
:1002D80055F8043B9847A642F9D80A4D01F0D8FBD7
:1002E800094B5E1BAB424FEAA60606D00024013438
:1002F80055F8043B9847A642F9D870BD801B000802
:10030800801B0008801B0008841B000870B5860746
:1003180047D0541E002A3ED0CAB2034601E0013C31
:1003280039D303F8012B9D07F9D1032C2CD9CDB271
:100338000F2C05EB052505EB054535D9A4F1100C67
:1003480003F1100E1A462CF00F064FEA1C1CB64497
:10035800C2E90055C2E9025510327245F8D10CF1D4
:10036800010214F00C0F04F00F0C03EB021213D06F
:10037800ACF1040323F003030433134442F8045B91
:100388009342FBD10CF003042CB1C9B21C4403F80E
:10039800011BA342FBD170BD64461346002CF4D167
:1003A800F9E703461446C0E71A46A446E0E700BF4B
:1003B80030B59FB06022002106A8FFF7A7FF0023F1
:1003C8004FF44030CDE90033CDE90233CDE90433B1
:1003D80000F0D0FB08B172B6FEE70346179301237D
:1003E80002224FF480719FED167B16931B93102405
:1003F8000A2306A818938DED1C7BCDE91422CDE9BC
:1004080019220A940692099100F058FE034608B191
:1004180072B6FEE71F2503240022CDE9023300232C
:1004280068460421CDE90054CDE9042300F0E0FC3E
:1004380008B172B6FEE71FB030BD00BFAFF3008051
:100448000C0000000000000000B589B000F004F9BD
:10045800FFF7AEFF0022CDE90222CDE904221A4BB4
:100468000692D3F88C40802144F00404C3F88C40F1
:10047800D3F88C30154803F004030193019B00F076
:1004880069FB9FED0F7B00220023104802A98DED28
:10049800027BCDE9042300F0D3F900F061FB58B9E1
:1004A8000A4C20460122802100F054FB00228021C2
:1004B800204600F04FFBF4E772B6FEE7AFF300808A
:1004C8008000000001000000000C02460008024203
:1004D8000420074B82B0D3F894200243C3F8942039
:1004E800D3F8943003400193019B02B000F0F2B8B6
:1004F800000C0246FEE700BFFEE700BFFEE700BFB4
:10050800FEE700BFFEE700BF704700BF704700BFAF
:10051800704700BF00F0CCB80022012110B44FF0A2
:1005280000640E48D0F8883043F47003C0F888306F
:100538000B4B1960DA611A625A62196821F0A851E6
:1005480021F4102119609A62196821F48021196038
:100558001A6584605DF8044B704700BF00ED00E049
:10056800000C0246DFF834D0FFF7D6FF002103E085
:100578000B4B5B58435004310A480B4B42189A42C4
:10058800F6D30A4A02E0002342F8043B084B9A4299
:10059800F9D3FFF793FEFFF757FFFEE700000C20A3
:1005A800881B0008000000200C0000200C00002020
:1005B8002C000020FEE7000070B5244E3278EAB126
:1005C8004FF0E0231C69054614F0040418D04FF4DA
:1005D8007A71B1FBF2F21E4B1C68B4FBF2F42046B0
:1005E80000F0C6F8044648B9024629464FF0FF30E5
:1005F80000F082F8174B20461D6070BD012070BDC9
:1006080000F004F901280DD0022815D00028E6D101
:100618004FF4FA5231780E4BB2FBF1F21C68B4FB7E
:10062800F2F4DCE74FF47A7231784FF4FA43B2FB14
:10063800F1F2B3FBF2F4D2E74FF47A7231784FF467
:100648000043B2FBF1F2B3FBF2F4C8E70400002068
:100658000000002008000020114A10B5136803208C
:1006680043F48073136000F035F800F033FB034661
:100678000C4A0D48126A0D4902F00F02825C0420F0
:10068800D3400B6000F084F80020FFF795FF10B10D
:100698000124204610BD0446FFF71AFF204610BD6E
:1006A80000200240000C0246F01A0008000000205A
:1006B800034A044B11681B780B441360704700BF52
:1006C8002800002004000020014B1868704700BF74
:1006D800280000204FF6FF0C06490302CA6803F4FD
:1006E800E06302EA0C02134343F0BF6343F40033B0
:1006F800CB60704700ED00E01B4B00B5DB68C3F32F
:100708000223C3F1070EBEF1040F03F1040C28BF46
:100718004FF0040EBCF1060F1CD9A3F1030C4FF0E7
:10072800FF3303FA0CF322EA03024FF0FF3303FA14
:100738000EF321EA030303FA0CF313431B01002809
:10074800DBB20ADB00F1604000F5614080F800335D
:100758005DF804FB00229446E7E7044A00F00F0026
:10076800024413765DF804FB00ED00E0FCEC00E0C9
:10077800431EB3F1807F09D24FF0E022002053617D
:100788009061136943F003031361704701207047B8
:10079800042813D8DFE800F02A1A031213004FF0D8
:1007A800E0210B69184A23F004030B61D2F8E0300A
:1007B80023F4400343F40003C2F8E03070474FF0DD
:1007C800E022136943F00403136170474FF0E021FE
:1007D8000B690D4A23F004030B61D2F8E03023F4CF
:1007E800400343F48003C2F8E03070474FF0E02143
:1007F8000B69054A23F004030B61D2F8E03023F4B7
:100808004003C2F8E0307047000C02464FF0E02386
:100818001B695B0710D4094BD3F8E00000F44000D3
:10082800B0F5800F06D0A0F50000B0FA80F04009BE
:10083800400070470120704704207047000C0246B2
:100848002DE9F04FD1F800B085B0BBF1000F00F0F2
:10085800B480BB4B8A46984200F0BE80B94B002258
:1008680003EA90234FF00108039329E00668B9F1E1
:10087800010F05EA060C03F0030606FA07F646EA36
:100888000C06066001D9112B53D186681B0906EAAC
:10089800050CDAF80C609340BE4046EA0C06866008
:1008A800466826EA01010B434360C168DAF808305C
:1008B8002940BB400B43C36001323BFA02F37CD0B2
:1008C80008FA02F11BEA010EF6D00324DAF8043024
:1008D800570023F0100604FA07F5022E6FEA050503
:1008E80003F1FF39C2D106FA07F4D60800EB8606F1
:1008F80002943446DAF8106002F0070C4FEA8C0CC8
:1009080006F00F0606FA0CF601960F2606FA0CFCFE
:10091800266AB9F1010F26EA0C0C019E46EA0C067C
:1009280026620668029C06EA050646EA0406066090
:10093800ABD0122BA9D0032BBED0C1680D40DAF87A
:100948000810B9402943DD00C160B5D50F2422F055
:10095800030505F18C4502F0030105F50835C900CA
:100968002E6E04FA01F7039C26EA070604FA01F141
:10097800314329667449DC026FEA0E05096828D4F8
:100988002940714C9F02216061681FD429406E4C38
:100998009E036160D4F8841015D429406A4CC4F8C9
:1009A8008410D4F88010DC030AD42940664B013245
:1009B800C3F880103BFA02F382D105B0BDE8F08F8E
:1009C80041EA0E01F2E741EA0E01E7E741EA0E01CA
:1009D800DDE74EEA0101D4E7002301275A4E07FA62
:1009E80003F111EA0B0559D04FF00F090468DAF842
:1009F800042024EA0104554951F833C002F00101EA
:100A080099402143016052494FEADC0E51F83310F6
:100A18000CF0070401EB8E0EDEF82080A40009FA22
:100A280004F928EA09084FF00B0909FA04F444EA22
:100A380008044FF00308CEF820400C684FEA4C0E2B
:100A480008FA0EF824EA0809022404FA0EF444EA23
:100A580009040C60541E012C6FEA080801D9112AF8
:100A680023D18C68120907FA0CF502FA0CF208EA8D
:100A7800040CDAF80C4004FA0EF444EA0C048C6016
:100A88004C6824EA050422434A60CC68DAF8082056
:100A980008EA040402FA0EF22243CA6001333BFA60
:100AA80003F29CD105B0BDE8F08F122AD9D0032AF1
:100AB800F4D0CC6808EA0408DAF8084004FA0EF41E
:100AC80044EA0804CC60D100E8D54FF00F084FF491
:100AD800803423F0030101F18C4101F5083103F062
:100AE800030CD1F860E04FEACC0C08FA0CF82EEAB7
:100AF800080E04FA0CF444EA0E040C66EC43316860
:100B080012F4801F0CBF214029433160716812F430
:100B1800001F0CBF214029437160D6F8841012F4DD
:100B2800003F0CBF21402943C6F88410D6F8801036
:100B3800D20354BF21402943C6F88010AEE700BF56
:100B4800000002467F7F2F0000200246041B000899
:100B5800001B00080AB1816170478162704700BFBD
:100B6800034A0020136843F001031360704700BF75
:100B780000040340214AD36B03F44033834234D04A
:100B88004FF0320CD368B0F5803F23F4E02343EAFA
:100B9800000388BF43F48023D360194B194A1B68AC
:100BA8001648A2FB03139B090CFB03F3A2FB0323C8
:100BB800C1689B090A0403F1010307D41A4600E03F
:100BC8008AB1C168013A0904FAD562B10B49CA6B06
:100BD800100406D400E033B1CA6B013B1204FAD505
:100BE8000BB10020704703207047B3F5803FF8D958
:100BF800D368002043F48023D3607047000802467E
:100C080000000020D34D6210024BD86B00F4403036
:100C1800704700BF0008024630B52C4D0446D5F891
:100C2800943083B05B072BD5FFF7EEFF20F48033B9
:100C3800B3F5003F07D0B4F1805F17D2B0F5803F1D
:100C480033D1032204E0B4F1805F2CBF00220122DB
:100C58001F490B6823F00F0313430B60086800F06B
:100C68000F00801A18BF012003B030BDB4F1005F37
:100C78001ED910BBB4F1405F8CBF00220122E7E708
:100C8800D5F8943043F00403C5F89430D5F894307F
:100C980003F004030193019BFFF7B6FFD5F89430E6
:100CA80023F00403C5F89430C0E7012003B030BD39
:100CB800B4F1805F03D00122CAE70022C8E7B0F58B
:100CC800803F0CBF01220222C2E700BF000C02468F
:100CD80000200240414AD369916A13F00C030BD0FB
:100CE8000C2B5FD0D2693E4802F00C02042A72D065
:100CF800082B18BF00207047384A9168090254BF72
:100D0800D2F8F4209268374954BFC2F30332120F65
:100D180051F82200002B5FD0304910B58A6A8B6ADF
:100D28008C6AC3F30323013307EE103A8B6BC4F3C9
:100D3800001EC3F3CC030EFB03F307EE903A02F058
:100D4800030CBCF1020FF8EEE77A02D0BCF1030FF6
:100D58002FD14B6BF7EE006AC3F3080306EE103A87
:100D6800DFED215AB8EEC66AB8EEC77A9FED1F5A72
:100D780036EE266AC5EE076AB0EE467A174BA7EE3E
:100D8800A57A5B6B26EE877AC3F30663013307EE19
:100D9800903AF8EEE77AC7EE276AFCEEE67A17EEA5
:100DA800900A10BD01F003010129A5D00020D369E4
:100DB800B2E74B6B05EE900AC3F3080306EE103A50
:100DC800B8EE655AF7EE006AB8EEC66AB8EEC77AAA
:100DD800DFED055ACCE77047704700BF000C0246AC
:100DE8000024F400B01A0008000000390024744BF5
:100DF800002800F00E819F4A2DE9F041136804464F
:100E080003F00F038B420D4682B00DD2136823F016
:100E18000F030B431360136803F00F038B4203D0D7
:100E2800012002B0BDE8F0812368DF060BD59249A6
:100E380060694A6A02F07002904204D94A6A22F054
:100E4800700202434A621E070DD58B4920690A6A5F
:100E5800120902F07002904205D90A6A22F4E0628F
:100E680042EA00120A6258070BD58349E0680A6A09
:100E780002F07002904204D90A6A22F0700202431A
:100E88000A62990703F0010230D57B4EA068316AE7
:100E980001F00F01884204D9316A21F00F010143A2
:100EA8003162002A00F081806368032B00F0B38070
:100EB800714A022B126800F08480002B40F0BE803B
:100EC8005707ADD56C4E41F28838F26922F003021B
:100ED8001343F361FFF7F8FB63680746032B5BD006
:100EE800022B77D0002B40F08A807EE0002ADBD1ED
:100EF80060490A6802F00F02AA4209D90A6822F07A
:100F08000F022A430A600A6802F00F02AA4287D138
:100F180059070BD55849E0680A6A02F070029042F6
:100F280004D20A6A22F0700202430A621A070DD537
:100F3800514920690A6A120902F07002904205D2EA
:100F48000A6A22F4E06242EA00120A62DB060BD562
:100F5800494A6169536A03F07003994204D2536A9B
:100F680023F070030B435362FFF7B4FE0346424A73
:100F78004249126A424802F00F02895C0068414AFD
:100F8800CB40136002B0BDE8F041FFF715BBFFF797
:100F98009BFBC31B434538D8F36903F00C030C2BA8
:100FA800F5D123689807A3D5A06833490A6A02F0E7
:100FB8000F0282429CD90A6A22F00F0202430A6297
:100FC80096E792033FF57EAF2AE7FFF77DFBC01B4C
:100FD80040451AD8F36903F00C03082BF5D1E0E774
:100FE800FFF772FBC01B40450FD8F36913F00C0FD5
:100FF800F6D1D6E7FFF768FBC01B404505D8F36973
:1010080003F00C03042BF5D1CBE7032002B0BDE8B5
:10101800F08101207047184BD3F89420520711D55E
:10102800FFF752FB184B0646DB685B0341D4124BB3
:101038001B6899017FF5F4AE636843E756057FF5B1
:10104800EFAE3FE7D3F8942042F00402C3F89420AF
:10105800D3F8943003F004030193019BFFF734FBAA
:10106800094B0646DB685F031BD54FF00108064FA6
:1010780011E000BF00200240000C0246F01A0008F0
:10108800080000200000002000080246FFF71CFBB3
:10109800801B0228B9D8FB685804F7D5B8F1000FAF
:1010A800C5D0054AD2F8943023F00403C2F894302E
:1010B800BDE74FF00008DAE7000C0246002800F010
:1010C800A4822DE9F041AE4A0368D569966ADA062A
:1010D800044684B005F00C0506F0030631D5002D52
:1010E80000F0B2810C2D00F0AC81E369A44F002B15
:1010F80000F02B823B6843F001033B60FFF7E4FA02
:10110800804606E0FFF7E0FAA0EB0800022800F2AC
:101118000E823B685A07F5D5BB6843F40003BB60F1
:10112800BB68626A23F070431343BB60B2F1404F5F
:10113800216AFB68C0F0678323F01F030B43FB6041
:101148002368DF0731D5082D626800F0BD810C2DBA
:1011580000F0B781B2F5803F00F05B82B2F5A02FB6
:1011680000F03C83B2F5A81F00F0FB82844F3B6877
:1011780023F480333B603B6823F480233B603B6867
:1011880023F480133B60002A40F04882FFF79CFA62
:10119800804606E0FFF798FAA0EB0800642800F202
:1011A800C6813B689903F5D423689A070FD5042DA7
:1011B80040F0C481E368002B00F07F81704A216908
:1011C800136923F4F81343EA0143136123681807EA
:1011D8004DD56B4BD3F89420510700F1B48101250C
:1011E800D3F8942042F00402C3F89420D3F8943042
:1011F80003F004030193019B624EB36ADA0740F1DE
:1012080086816369002B00F05D825D4EA269D6F885
:10121800F03003F080518A4210D003F04061B1F100
:10122800006F00F04A81580100F1B1825449D1F8A9
:10123800F03023F080531343C1F8F030504ED6F805
:10124800F03043F08063C6F8F030FFF73DFA074608
:1012580005E0FFF739FAC01B052800F26881D6F8C7
:10126800F0301A01F5D5002D40F0898223685D071A
:101278005ED5434BD3F89420500700F1C88101256F
:10128800D3F8942042F00402C3F89420D3F89430A1
:1012980003F004030293029B3A4EB36AD90740F164
:1012A8008C82A368DA0740F1D3815E0740F151824E
:1012B800334BD3F8F02042F00402C3F8F020D3F8FF
:1012C800F02042F00102C3F8F020FFF7FDF941F2E7
:1012D800883806462A4F05E0FFF7F6F9801B404597
:1012E80000F22581D7F8F0309807F5D5A36813F0F8
:1012F800800FD7F8F03000F0C78243F08003C7F8BA
:10130800F03041F288381E4F05E0FFF7DDF9801B09
:10131800404500F20C81D7F8F0301905F5D535B104
:10132800174AD2F8943023F00403C2F894302368A3
:101338009A0616D5E36A124D002B00F0DC812B6863
:1013480043F480532B60FFF7BFF9064605E0FFF72B
:10135800BBF9801B022800F2EA802B689B04F6D5B3
:1013680023681D061AD5236B054D002B00F0DF817D
:101378002B6843F480432B60FFF7A6F9064609E083
:10138800000C024600080246FFF79EF9801B02285F
:1013980000F2CD802B681804F6D523685A062BD5A1
:1013A800636B002B00F05782A54B9A6842F4000249
:1013B8009A609A68A16A22F070620A439A60D4E936
:1013C8000812B2F1404FC0F03582DA6822F01F02ED
:1013D8000A43DA609A4D2B6843F010032B60FFF73D
:1013E80073F9064605E0FFF76FF9801B022800F243
:1013F8009E802B689B06F6D5A36B03B3904DEA69D4
:1014080002F00C020C2A00F05582022B2B6823F004
:1014180080732B6000F0A682FFF756F9044605E0BA
:10142800FFF752F9001B022800F281802B6899010E
:10143800F6D4AB6A23F4E02323F00303AB62002065
:101448003CE0012E7FF451AEE369002B35D07C4B94
:10145800606A9A68170256BFD3F8F4309B681B0479
:1014680003F07043984240F28380002D00F0C4815D
:10147800734BB0F1404F9A6842F400029A609A6840
:1014880022F0704242EA00029A60216ADA6880F02B
:1014980049810028C0F2F281B0F1804F2BBF22F4BD
:1014A800F84222F4782242EA812242EAC132DA6022
:1014B80081E0FFF7B1FB00287DD0012004B0BDE832
:1014C800F081032E7FF446AE002AF6D09D077FF503
:1014D8007EAEE3685A4D002B00F085802B6843F4FC
:1014E80080732B60FFF7F0F8064604E0FFF7ECF88E
:1014F800801B02281BD82B685B05F7D52B6922694E
:1015080023F4F81343EA02432B6123685FE6B36AC6
:1015180043F00103B362FFF7D7F80746B36ADB0766
:101528003FF56FAEFFF7D0F8C01B0228F6D90320AD
:1015380004B0BDE8F0819A077FF549AE0C2DC8D1FB
:10154800022EC6D136E6002556E63B6823F0010395
:101558003B60FFF7B9F8804605E0FFF7B5F8A0EB68
:1015680008000228E3D83B685B07F6D42368E8E55F
:10157800334BB0F1404F9A6842F400029A609A687F
:1015880022F0704242EA00029A60216ADA6880F02A
:10159800C4800028C0F24881B0F1804F2BBF22F4EC
:1015A800F84222F4782242EA812242EAC132DA6021
:1015B800002D3FF47EAFFFF78DFB0346204A2149FB
:1015C800126A02F00F02895C1F4ACB4010681F4A5A
:1015D8001360FEF7F1FF00287FF470AF2368D90786
:1015E800A9D56268B3E52B6823F480732B60FFF7F5
:1015F8006BF8064604E0FFF767F8801B022896D8C8
:101608002B685F05F7D42368E1E5012070470025C2
:1016180042E60B4A136843F480331360FFF754F82B
:10162800DFF81C80074605E0FFF74EF8C01B64286A
:101638003FF67DAFD8F800309803F5D5B4E500BF84
:10164800000C0246F01A00080800002000000020E4
:10165800974ED6F8F02022F00102C6F8F020D6F80E
:10166800F02022F00402C6F8F020002B7FF42DAE03
:10167800FFF72AF841F28838074605E0FFF724F813
:10168800C01B40453FF653AFD6F8F0309B07F5D462
:10169800D6F8F03018067FF542AED6F8F03041F2B1
:1016A800883823F08003C6F8F030814E05E0FFF754
:1016B8000BF8C01B40453FF63AAFD6F8F030190595
:1016C800F5D42CE67A4ED6F8F03023F0A053C6F8BD
:1016D800F030FEF7F9FF074605E0FEF7F5FFC01BFF
:1016E80005283FF624AFD6F8F0301B01F5D4002DBD
:1016F8003FF4BCAD43E02B6823F480532B60FEF726
:10170800E3FF064605E0FEF7DFFF801B02283FF6F1
:101718000EAF2B689F04F6D422E622F01F020A437C
:10172800DA6045E722F01F020A43DA6043E72B68D4
:1017380023F480432B60FEF7C7FF064605E0FEF75B
:10174800C3FF801B02283FF6F2AE2B681904F6D4BB
:1017580023E6574AD2F8F03043F00103C2F8F030DC
:10176800B3E5534B1A6842F480221A601A6842F4AF
:1017780080121A601A6842F480321A604EE74C4AA6
:10178800D2F8943023F00403C2F894306EE5D6F80A
:10179800F03023F0A053C6F8F030FEF795FF074667
:1017A80005E0FEF791FFC01B05283FF6C0AED6F84E
:1017B800F0301901F5D4A26938E5B36A43F00103A2
:1017C800B362FEF781FF0746B36ADB073FF569ADF1
:1017D800FEF77AFFC01B0228F6D9A8E6344B1A6830
:1017E80042F480221A601A6822F480121A601A6879
:1017F80042F480321A6011E7FFF70EFA00287FF4EE
:101808005CAE606A34E6002AC0F2A480B2F1804F70
:101818002BBF23F4F84323F4782343EA812343EAD4
:10182800C133FB6023688CE422F4787242EA4112E7
:10183800DA60BDE6002AC0F21E81B2F1804FDA6894
:101848002BBF22F4F84222F4782242EA812242EAAB
:10185800C132DA60BEE5164D2B6823F010032B6009
:10186800FEF732FF064605E0FEF72EFF801B022832
:101878003FF65DAE2B689F06F6D4BDE522F478727C
:1018880042EA4112DA6096E623F08003C7F8F030A6
:1018980041F28838064F05E0FEF716FF801B4045E9
:1018A8003FF645AED7F8F0301A05F5D437E500BF56
:1018B800000C0246012BAA6A686B3FF4FEADE36B8D
:1018C80002F0030199427FF4F8AD236CC2F30321BF
:1018D800013B99427FF4F1AD636C02F470429A4285
:1018E8007FF4EBADA36CC0F30802013B9A427FF48E
:1018F800E4ADE36CC0F34622013B9A427FF4DDADD0
:10190800236DC0F30642013B9A427FF4D6AD636D66
:10191800C0F30660013B98427FF4CFAD594BE16DAF
:101928009A6BC2F3CC028A423FF489AD9A6A22F0DC
:1019380010029A62FEF7C8FE0546FEF7C5FEA842E9
:10194800FBD0E26D4F4BD2009A639A6A42F01002C4
:101958009A6274E523F4787343EA4113FB602368C1
:10196800FFF7EFBBFEF7B0FE064605E0FEF7ACFE5C
:10197800801B02283FF6DBAD2B6813F00073F5D10E
:10198800D5F8942056070CD40123D5F8942042F0BA
:101998000402C5F89420D5F8942002F004020392BA
:1019A800039A394D3749EE68EA68DFF8E0C022F457
:1019B8008022EA60886A676CE26B20F47F4020F03E
:1019C80003003A430243206C013842EA00228A624B
:1019D800E06CA26CD1F834E0471E206D013AC2F3E6
:1019E80008027F0201380EEA0C0CBFB2000442EA7A
:1019F8000C0200F4FE003A430243606D0138000611
:101A080000F0FE4002434A638A6A22F010028A62AA
:101A1800E26DD2008A638A6A42F010028A628A6A98
:101A2800A06D22F00C02024374038A621ED433B103
:101A3800144AD2F8943023F00403C2F89430114CBD
:101A4800236843F080732360FEF73EFE054605E0F9
:101A5800FEF73AFE401B02283FF669AD236898015D
:101A6800F6D5A36A43F48023A362E8E4EA6842F463
:101A78008022EA60DBE7DA6822F4787242EA4112EF
:101A8800DA60A7E4000C02460008024600008080E5
:101A9800F8B500BFF8BC08BC9E467047F8B500BF53
:081AA800F8BC08BC9E46704723
:101AB000006CDC0200366E010024F400001BB7004D
:101AC00000093D0080841E00504B140040420F006E
:101AD00000E02E000070170000A00F0000B80B00FF
:101AE000801A0600400D030088070200A08601004E
:101AF00000000000000000000102030406070809BE
:101B00000000024201000000000002420300000049
:101B10000000024206000000000402420100000032
:101B2000000402420A000000000802420200000015
:101B3000000C02420D000000000C024202000000F6
:101B4000000802420A0000000004024200000000F7
:101B5000000802420C0000000004024203000000E2
:101B600000040242040000000010024200000000D5
:101B700000100242020000000010024203000000B8
:041B8000A5020008B2
:041B84007D020008D6
:0C1B880000093D000100000010000000FA
:040000050800056D7D
:00000001FF
